{
  "contractName": "CharityHodlFactory",
  "abi": [
    {
      "inputs": [
        {
          "internalType": "address",
          "name": "_cashAddress",
          "type": "address"
        },
        {
          "internalType": "address",
          "name": "_RTokenAddress",
          "type": "address"
        }
      ],
      "payable": false,
      "stateMutability": "nonpayable",
      "type": "constructor"
    },
    {
      "anonymous": false,
      "inputs": [
        {
          "indexed": true,
          "internalType": "address",
          "name": "owner",
          "type": "address"
        },
        {
          "indexed": true,
          "internalType": "address",
          "name": "approved",
          "type": "address"
        },
        {
          "indexed": true,
          "internalType": "uint256",
          "name": "tokenId",
          "type": "uint256"
        }
      ],
      "name": "Approval",
      "type": "event"
    },
    {
      "anonymous": false,
      "inputs": [
        {
          "indexed": true,
          "internalType": "address",
          "name": "owner",
          "type": "address"
        },
        {
          "indexed": true,
          "internalType": "address",
          "name": "operator",
          "type": "address"
        },
        {
          "indexed": false,
          "internalType": "bool",
          "name": "approved",
          "type": "bool"
        }
      ],
      "name": "ApprovalForAll",
      "type": "event"
    },
    {
      "anonymous": false,
      "inputs": [
        {
          "indexed": true,
          "internalType": "address",
          "name": "from",
          "type": "address"
        },
        {
          "indexed": true,
          "internalType": "address",
          "name": "to",
          "type": "address"
        },
        {
          "indexed": true,
          "internalType": "uint256",
          "name": "tokenId",
          "type": "uint256"
        }
      ],
      "name": "Transfer",
      "type": "event"
    },
    {
      "constant": false,
      "inputs": [
        {
          "internalType": "address",
          "name": "to",
          "type": "address"
        },
        {
          "internalType": "uint256",
          "name": "tokenId",
          "type": "uint256"
        }
      ],
      "name": "approve",
      "outputs": [],
      "payable": false,
      "stateMutability": "nonpayable",
      "type": "function"
    },
    {
      "constant": true,
      "inputs": [],
      "name": "averageTimeLastWithdrawn",
      "outputs": [
        {
          "internalType": "uint256",
          "name": "",
          "type": "uint256"
        }
      ],
      "payable": false,
      "stateMutability": "view",
      "type": "function"
    },
    {
      "constant": true,
      "inputs": [
        {
          "internalType": "address",
          "name": "owner",
          "type": "address"
        }
      ],
      "name": "balanceOf",
      "outputs": [
        {
          "internalType": "uint256",
          "name": "",
          "type": "uint256"
        }
      ],
      "payable": false,
      "stateMutability": "view",
      "type": "function"
    },
    {
      "constant": true,
      "inputs": [],
      "name": "baseURI",
      "outputs": [
        {
          "internalType": "string",
          "name": "",
          "type": "string"
        }
      ],
      "payable": false,
      "stateMutability": "view",
      "type": "function"
    },
    {
      "constant": true,
      "inputs": [],
      "name": "cashAddress",
      "outputs": [
        {
          "internalType": "address",
          "name": "",
          "type": "address"
        }
      ],
      "payable": false,
      "stateMutability": "view",
      "type": "function"
    },
    {
      "constant": true,
      "inputs": [
        {
          "internalType": "uint256",
          "name": "tokenId",
          "type": "uint256"
        }
      ],
      "name": "getApproved",
      "outputs": [
        {
          "internalType": "address",
          "name": "",
          "type": "address"
        }
      ],
      "payable": false,
      "stateMutability": "view",
      "type": "function"
    },
    {
      "constant": true,
      "inputs": [
        {
          "internalType": "uint256",
          "name": "",
          "type": "uint256"
        }
      ],
      "name": "getHodlsDeleted",
      "outputs": [
        {
          "internalType": "uint256",
          "name": "",
          "type": "uint256"
        }
      ],
      "payable": false,
      "stateMutability": "view",
      "type": "function"
    },
    {
      "constant": true,
      "inputs": [],
      "name": "hodlCount",
      "outputs": [
        {
          "internalType": "uint256",
          "name": "",
          "type": "uint256"
        }
      ],
      "payable": false,
      "stateMutability": "view",
      "type": "function"
    },
    {
      "constant": true,
      "inputs": [
        {
          "internalType": "uint256",
          "name": "",
          "type": "uint256"
        }
      ],
      "name": "hodlProperties",
      "outputs": [
        {
          "internalType": "uint256",
          "name": "purchaseTime",
          "type": "uint256"
        },
        {
          "internalType": "uint256",
          "name": "interestLastWithdrawnTime",
          "type": "uint256"
        },
        {
          "internalType": "string",
          "name": "name",
          "type": "string"
        },
        {
          "internalType": "address",
          "name": "interestRecipient",
          "type": "address"
        }
      ],
      "payable": false,
      "stateMutability": "view",
      "type": "function"
    },
    {
      "constant": true,
      "inputs": [
        {
          "internalType": "address",
          "name": "owner",
          "type": "address"
        },
        {
          "internalType": "address",
          "name": "operator",
          "type": "address"
        }
      ],
      "name": "isApprovedForAll",
      "outputs": [
        {
          "internalType": "bool",
          "name": "",
          "type": "bool"
        }
      ],
      "payable": false,
      "stateMutability": "view",
      "type": "function"
    },
    {
      "constant": true,
      "inputs": [],
      "name": "latestHodlId",
      "outputs": [
        {
          "internalType": "uint256",
          "name": "",
          "type": "uint256"
        }
      ],
      "payable": false,
      "stateMutability": "view",
      "type": "function"
    },
    {
      "constant": true,
      "inputs": [],
      "name": "name",
      "outputs": [
        {
          "internalType": "string",
          "name": "",
          "type": "string"
        }
      ],
      "payable": false,
      "stateMutability": "view",
      "type": "function"
    },
    {
      "constant": true,
      "inputs": [],
      "name": "oneHundredDai",
      "outputs": [
        {
          "internalType": "uint256",
          "name": "",
          "type": "uint256"
        }
      ],
      "payable": false,
      "stateMutability": "view",
      "type": "function"
    },
    {
      "constant": true,
      "inputs": [
        {
          "internalType": "uint256",
          "name": "tokenId",
          "type": "uint256"
        }
      ],
      "name": "ownerOf",
      "outputs": [
        {
          "internalType": "address",
          "name": "",
          "type": "address"
        }
      ],
      "payable": false,
      "stateMutability": "view",
      "type": "function"
    },
    {
      "constant": false,
      "inputs": [
        {
          "internalType": "address",
          "name": "from",
          "type": "address"
        },
        {
          "internalType": "address",
          "name": "to",
          "type": "address"
        },
        {
          "internalType": "uint256",
          "name": "tokenId",
          "type": "uint256"
        }
      ],
      "name": "safeTransferFrom",
      "outputs": [],
      "payable": false,
      "stateMutability": "nonpayable",
      "type": "function"
    },
    {
      "constant": false,
      "inputs": [
        {
          "internalType": "address",
          "name": "from",
          "type": "address"
        },
        {
          "internalType": "address",
          "name": "to",
          "type": "address"
        },
        {
          "internalType": "uint256",
          "name": "tokenId",
          "type": "uint256"
        },
        {
          "internalType": "bytes",
          "name": "_data",
          "type": "bytes"
        }
      ],
      "name": "safeTransferFrom",
      "outputs": [],
      "payable": false,
      "stateMutability": "nonpayable",
      "type": "function"
    },
    {
      "constant": false,
      "inputs": [
        {
          "internalType": "address",
          "name": "to",
          "type": "address"
        },
        {
          "internalType": "bool",
          "name": "approved",
          "type": "bool"
        }
      ],
      "name": "setApprovalForAll",
      "outputs": [],
      "payable": false,
      "stateMutability": "nonpayable",
      "type": "function"
    },
    {
      "constant": true,
      "inputs": [
        {
          "internalType": "bytes4",
          "name": "interfaceId",
          "type": "bytes4"
        }
      ],
      "name": "supportsInterface",
      "outputs": [
        {
          "internalType": "bool",
          "name": "",
          "type": "bool"
        }
      ],
      "payable": false,
      "stateMutability": "view",
      "type": "function"
    },
    {
      "constant": true,
      "inputs": [],
      "name": "symbol",
      "outputs": [
        {
          "internalType": "string",
          "name": "",
          "type": "string"
        }
      ],
      "payable": false,
      "stateMutability": "view",
      "type": "function"
    },
    {
      "constant": true,
      "inputs": [],
      "name": "testingVariableA",
      "outputs": [
        {
          "internalType": "uint256",
          "name": "",
          "type": "uint256"
        }
      ],
      "payable": false,
      "stateMutability": "view",
      "type": "function"
    },
    {
      "constant": true,
      "inputs": [],
      "name": "testingVariableB",
      "outputs": [
        {
          "internalType": "uint256",
          "name": "",
          "type": "uint256"
        }
      ],
      "payable": false,
      "stateMutability": "view",
      "type": "function"
    },
    {
      "constant": true,
      "inputs": [],
      "name": "testingVariableC",
      "outputs": [
        {
          "internalType": "uint256",
          "name": "",
          "type": "uint256"
        }
      ],
      "payable": false,
      "stateMutability": "view",
      "type": "function"
    },
    {
      "constant": true,
      "inputs": [
        {
          "internalType": "uint256",
          "name": "index",
          "type": "uint256"
        }
      ],
      "name": "tokenByIndex",
      "outputs": [
        {
          "internalType": "uint256",
          "name": "",
          "type": "uint256"
        }
      ],
      "payable": false,
      "stateMutability": "view",
      "type": "function"
    },
    {
      "constant": true,
      "inputs": [
        {
          "internalType": "address",
          "name": "owner",
          "type": "address"
        },
        {
          "internalType": "uint256",
          "name": "index",
          "type": "uint256"
        }
      ],
      "name": "tokenOfOwnerByIndex",
      "outputs": [
        {
          "internalType": "uint256",
          "name": "",
          "type": "uint256"
        }
      ],
      "payable": false,
      "stateMutability": "view",
      "type": "function"
    },
    {
      "constant": true,
      "inputs": [
        {
          "internalType": "uint256",
          "name": "tokenId",
          "type": "uint256"
        }
      ],
      "name": "tokenURI",
      "outputs": [
        {
          "internalType": "string",
          "name": "",
          "type": "string"
        }
      ],
      "payable": false,
      "stateMutability": "view",
      "type": "function"
    },
    {
      "constant": true,
      "inputs": [],
      "name": "totalSupply",
      "outputs": [
        {
          "internalType": "uint256",
          "name": "",
          "type": "uint256"
        }
      ],
      "payable": false,
      "stateMutability": "view",
      "type": "function"
    },
    {
      "constant": false,
      "inputs": [
        {
          "internalType": "address",
          "name": "from",
          "type": "address"
        },
        {
          "internalType": "address",
          "name": "to",
          "type": "address"
        },
        {
          "internalType": "uint256",
          "name": "tokenId",
          "type": "uint256"
        }
      ],
      "name": "transferFrom",
      "outputs": [],
      "payable": false,
      "stateMutability": "nonpayable",
      "type": "function"
    },
    {
      "constant": true,
      "inputs": [
        {
          "internalType": "uint256",
          "name": "_hodlId",
          "type": "uint256"
        }
      ],
      "name": "getHodlOwner",
      "outputs": [
        {
          "internalType": "address",
          "name": "",
          "type": "address"
        }
      ],
      "payable": false,
      "stateMutability": "view",
      "type": "function"
    },
    {
      "constant": true,
      "inputs": [
        {
          "internalType": "uint256",
          "name": "_hodlId",
          "type": "uint256"
        }
      ],
      "name": "getHodlPurchaseTime",
      "outputs": [
        {
          "internalType": "uint256",
          "name": "",
          "type": "uint256"
        }
      ],
      "payable": false,
      "stateMutability": "view",
      "type": "function"
    },
    {
      "constant": false,
      "inputs": [
        {
          "internalType": "string",
          "name": "_name",
          "type": "string"
        },
        {
          "internalType": "address",
          "name": "_addressOfCharity",
          "type": "address"
        }
      ],
      "name": "createHodl",
      "outputs": [],
      "payable": false,
      "stateMutability": "nonpayable",
      "type": "function"
    },
    {
      "constant": true,
      "inputs": [
        {
          "internalType": "uint256",
          "name": "_hodlId",
          "type": "uint256"
        }
      ],
      "name": "getInterestAvailableToWithdrawView",
      "outputs": [
        {
          "internalType": "uint256",
          "name": "",
          "type": "uint256"
        }
      ],
      "payable": false,
      "stateMutability": "view",
      "type": "function"
    },
    {
      "constant": false,
      "inputs": [
        {
          "internalType": "uint256",
          "name": "_hodlId",
          "type": "uint256"
        }
      ],
      "name": "getInterestAvailableToWithdraw",
      "outputs": [
        {
          "internalType": "uint256",
          "name": "",
          "type": "uint256"
        }
      ],
      "payable": false,
      "stateMutability": "nonpayable",
      "type": "function"
    },
    {
      "constant": false,
      "inputs": [
        {
          "internalType": "uint256",
          "name": "_hodlId",
          "type": "uint256"
        }
      ],
      "name": "withdrawInterest",
      "outputs": [],
      "payable": false,
      "stateMutability": "nonpayable",
      "type": "function"
    },
    {
      "constant": false,
      "inputs": [
        {
          "internalType": "uint256",
          "name": "_hodlId",
          "type": "uint256"
        }
      ],
      "name": "destroyHodl",
      "outputs": [],
      "payable": false,
      "stateMutability": "nonpayable",
      "type": "function"
    }
  ],
  "bytecode": "0x60806040526000601055600060115560006012556000601455600060155560006016553480156200002f57600080fd5b50604051620046fe380380620046fe833981810160405260408110156200005557600080fd5b8101908080519060200190929190805190602001909291905050506040518060400160405280600b81526020017f486f646c466163746f72790000000000000000000000000000000000000000008152506040518060400160405280600581526020017f72484f444c0000000000000000000000000000000000000000000000000000008152508181620000f66301ffc9a760e01b6200023f60201b60201c565b6200010e6380ac58cd60e01b6200023f60201b60201c565b6200012663780e9d6360e01b6200023f60201b60201c565b81600990805190602001906200013e92919062000348565b5080600a90805190602001906200015792919062000348565b5062000170635b5e139f60e01b6200023f60201b60201c565b5050505080600d60006101000a81548173ffffffffffffffffffffffffffffffffffffffff021916908373ffffffffffffffffffffffffffffffffffffffff16021790555081600e60006101000a81548173ffffffffffffffffffffffffffffffffffffffff021916908373ffffffffffffffffffffffffffffffffffffffff16021790555081600f60006101000a81548173ffffffffffffffffffffffffffffffffffffffff021916908373ffffffffffffffffffffffffffffffffffffffff1602179055505050620003f7565b63ffffffff60e01b817bffffffffffffffffffffffffffffffffffffffffffffffffffffffff19161415620002dc576040517f08c379a000000000000000000000000000000000000000000000000000000000815260040180806020018281038252601c8152602001807f4552433136353a20696e76616c696420696e746572666163652069640000000081525060200191505060405180910390fd5b6001600080837bffffffffffffffffffffffffffffffffffffffffffffffffffffffff19167bffffffffffffffffffffffffffffffffffffffffffffffffffffffff1916815260200190815260200160002060006101000a81548160ff02191690831515021790555050565b828054600181600116156101000203166002900490600052602060002090601f016020900481019282601f106200038b57805160ff1916838001178555620003bc565b82800160010185558215620003bc579182015b82811115620003bb5782518255916020019190600101906200039e565b5b509050620003cb9190620003cf565b5090565b620003f491905b80821115620003f0576000816000905550600101620003d6565b5090565b90565b6142f780620004076000396000f3fe608060405234801561001057600080fd5b50600436106102065760003560e01c80636352211e1161011a5780639709e738116100ad578063aac13c3d1161007c578063aac13c3d14610bba578063b0aa089114610bfc578063b88d4fde14610c1a578063c87b56dd14610d1f578063e985e9c514610dc657610206565b80639709e7381461098957806399a56342146109a7578063a22cb46514610a82578063a5080bdd14610ad257610206565b806370a08231116100e957806370a082311461084e5780637a2aedc0146108a657806382221907146108e857806395d89b411461090657610206565b80636352211e146106fd578063663922e21461076b5780636c0360eb146107ad5780636ebcf0c71461083057610206565b806323b872dd1161019d57806342842e0e1161016c57806342842e0e146105a35780634adce894146106115780634b7049211461062f5780634f6ccce71461064d5780635fe825f81461068f57610206565b806323b872dd146104735780632f745c59146104e1578063369b79e9146105435780633d0119fa1461056157610206565b806308669aab116101d957806308669aab1461038f578063095ea7b3146103bd578063137e0d861461040b57806318160ddd1461045557610206565b806301ffaabd1461020b57806301ffc9a71461023957806306fdde031461029e578063081812fc14610321575b600080fd5b6102376004803603602081101561022157600080fd5b8101908080359060200190929190505050610e42565b005b6102846004803603602081101561024f57600080fd5b8101908080357bffffffffffffffffffffffffffffffffffffffffffffffffffffffff1916906020019092919050505061117d565b604051808215151515815260200191505060405180910390f35b6102a66111e4565b6040518080602001828103825283818151815260200191508051906020019080838360005b838110156102e65780820151818401526020810190506102cb565b50505050905090810190601f1680156103135780820380516001836020036101000a031916815260200191505b509250505060405180910390f35b61034d6004803603602081101561033757600080fd5b8101908080359060200190929190505050611286565b604051808273ffffffffffffffffffffffffffffffffffffffff1673ffffffffffffffffffffffffffffffffffffffff16815260200191505060405180910390f35b6103bb600480360360208110156103a557600080fd5b8101908080359060200190929190505050611321565b005b610409600480360360408110156103d357600080fd5b81019080803573ffffffffffffffffffffffffffffffffffffffff1690602001909291908035906020019092919050505061159b565b005b610413611782565b604051808273ffffffffffffffffffffffffffffffffffffffff1673ffffffffffffffffffffffffffffffffffffffff16815260200191505060405180910390f35b61045d6117a8565b6040518082815260200191505060405180910390f35b6104df6004803603606081101561048957600080fd5b81019080803573ffffffffffffffffffffffffffffffffffffffff169060200190929190803573ffffffffffffffffffffffffffffffffffffffff169060200190929190803590602001909291905050506117b5565b005b61052d600480360360408110156104f757600080fd5b81019080803573ffffffffffffffffffffffffffffffffffffffff1690602001909291908035906020019092919050505061182b565b6040518082815260200191505060405180910390f35b61054b6118ea565b6040518082815260200191505060405180910390f35b61058d6004803603602081101561057757600080fd5b81019080803590602001909291905050506118f0565b6040518082815260200191505060405180910390f35b61060f600480360360608110156105b957600080fd5b81019080803573ffffffffffffffffffffffffffffffffffffffff169060200190929190803573ffffffffffffffffffffffffffffffffffffffff16906020019092919080359060200190929190505050611911565b005b610619611931565b6040518082815260200191505060405180910390f35b610637611937565b6040518082815260200191505060405180910390f35b6106796004803603602081101561066357600080fd5b810190808035906020019092919050505061193d565b6040518082815260200191505060405180910390f35b6106bb600480360360208110156106a557600080fd5b81019080803590602001909291905050506119bd565b604051808273ffffffffffffffffffffffffffffffffffffffff1673ffffffffffffffffffffffffffffffffffffffff16815260200191505060405180910390f35b6107296004803603602081101561071357600080fd5b81019080803590602001909291905050506119cf565b604051808273ffffffffffffffffffffffffffffffffffffffff1673ffffffffffffffffffffffffffffffffffffffff16815260200191505060405180910390f35b6107976004803603602081101561078157600080fd5b8101908080359060200190929190505050611a97565b6040518082815260200191505060405180910390f35b6107b5611d1d565b6040518080602001828103825283818151815260200191508051906020019080838360005b838110156107f55780820151818401526020810190506107da565b50505050905090810190601f1680156108225780820380516001836020036101000a031916815260200191505b509250505060405180910390f35b610838611dbf565b6040518082815260200191505060405180910390f35b6108906004803603602081101561086457600080fd5b81019080803573ffffffffffffffffffffffffffffffffffffffff169060200190929190505050611dc5565b6040518082815260200191505060405180910390f35b6108d2600480360360208110156108bc57600080fd5b8101908080359060200190929190505050611e9a565b6040518082815260200191505060405180910390f35b6108f0612118565b6040518082815260200191505060405180910390f35b61090e61211e565b6040518080602001828103825283818151815260200191508051906020019080838360005b8381101561094e578082015181840152602081019050610933565b50505050905090810190601f16801561097b5780820380516001836020036101000a031916815260200191505b509250505060405180910390f35b6109916121c0565b6040518082815260200191505060405180910390f35b610a80600480360360408110156109bd57600080fd5b81019080803590602001906401000000008111156109da57600080fd5b8201836020820111156109ec57600080fd5b80359060200191846001830284011164010000000083111715610a0e57600080fd5b91908080601f016020809104026020016040519081016040528093929190818152602001838380828437600081840152601f19601f820116905080830192505050505050509192919290803573ffffffffffffffffffffffffffffffffffffffff1690602001909291905050506121cd565b005b610ad060048036036040811015610a9857600080fd5b81019080803573ffffffffffffffffffffffffffffffffffffffff169060200190929190803515159060200190929190505050612563565b005b610afe60048036036020811015610ae857600080fd5b810190808035906020019092919050505061271b565b60405180858152602001848152602001806020018373ffffffffffffffffffffffffffffffffffffffff1673ffffffffffffffffffffffffffffffffffffffff168152602001828103825284818151815260200191508051906020019080838360005b83811015610b7c578082015181840152602081019050610b61565b50505050905090810190601f168015610ba95780820380516001836020036101000a031916815260200191505b509550505050505060405180910390f35b610be660048036036020811015610bd057600080fd5b8101908080359060200190929190505050612803565b6040518082815260200191505060405180910390f35b610c04612823565b6040518082815260200191505060405180910390f35b610d1d60048036036080811015610c3057600080fd5b81019080803573ffffffffffffffffffffffffffffffffffffffff169060200190929190803573ffffffffffffffffffffffffffffffffffffffff1690602001909291908035906020019092919080359060200190640100000000811115610c9757600080fd5b820183602082011115610ca957600080fd5b80359060200191846001830284011164010000000083111715610ccb57600080fd5b91908080601f016020809104026020016040519081016040528093929190818152602001838380828437600081840152601f19601f820116905080830192505050505050509192919290505050612829565b005b610d4b60048036036020811015610d3557600080fd5b81019080803590602001909291905050506128a1565b6040518080602001828103825283818151815260200191508051906020019080838360005b83811015610d8b578082015181840152602081019050610d70565b50505050905090810190601f168015610db85780820380516001836020036101000a031916815260200191505b509250505060405180910390f35b610e2860048036036040811015610ddc57600080fd5b81019080803573ffffffffffffffffffffffffffffffffffffffff169060200190929190803573ffffffffffffffffffffffffffffffffffffffff169060200190929190505050612aa3565b604051808215151515815260200191505060405180910390f35b3373ffffffffffffffffffffffffffffffffffffffff16610e62826119cf565b73ffffffffffffffffffffffffffffffffffffffff1614610eeb576040517f08c379a00000000000000000000000000000000000000000000000000000000081526004018080602001828103825260098152602001807f4e6f74206f776e6572000000000000000000000000000000000000000000000081525060200191505060405180910390fd5b610ef481611321565b60016010541115610f7057610f65610f186001601054612b3790919063ffffffff16565b610f576017600085815260200190815260200160002060010154610f49601054601254612b8190919063ffffffff16565b612b3790919063ffffffff16565b612c0790919063ffffffff16565b601281905550610f79565b60006012819055505b600d60009054906101000a900473ffffffffffffffffffffffffffffffffffffffff1673ffffffffffffffffffffffffffffffffffffffff1663db006a7568056bc75e2d631000006040518263ffffffff1660e01b815260040180828152602001915050602060405180830381600087803b158015610ff757600080fd5b505af115801561100b573d6000803e3d6000fd5b505050506040513d602081101561102157600080fd5b810190808051906020019092919050505050600e60009054906101000a900473ffffffffffffffffffffffffffffffffffffffff1673ffffffffffffffffffffffffffffffffffffffff1663a9059cbb61107a836119cf565b68056bc75e2d631000006040518363ffffffff1660e01b8152600401808373ffffffffffffffffffffffffffffffffffffffff1673ffffffffffffffffffffffffffffffffffffffff16815260200182815260200192505050602060405180830381600087803b1580156110ed57600080fd5b505af1158015611101573d6000803e3d6000fd5b505050506040513d602081101561111757600080fd5b81019080805190602001909291905050505061113f6001601054612b3790919063ffffffff16565b60108190555061114e81612c51565b601381908060018154018082558091505090600182039060005260206000200160009091929091909150555050565b6000806000837bffffffffffffffffffffffffffffffffffffffffffffffffffffffff19167bffffffffffffffffffffffffffffffffffffffffffffffffffffffff1916815260200190815260200160002060009054906101000a900460ff169050919050565b606060098054600181600116156101000203166002900480601f01602080910402602001604051908101604052809291908181526020018280546001816001161561010002031660029004801561127c5780601f106112515761010080835404028352916020019161127c565b820191906000526020600020905b81548152906001019060200180831161125f57829003601f168201915b5050505050905090565b600061129182612c66565b6112e6576040517f08c379a000000000000000000000000000000000000000000000000000000000815260040180806020018281038252602c81526020018061419c602c913960400191505060405180910390fd5b6002600083815260200190815260200160002060009054906101000a900473ffffffffffffffffffffffffffffffffffffffff169050919050565b600061132c82611a97565b90506000611347601054601254612b8190919063ffffffff16565b9050600061138660176000868152602001908152602001600020600101546113784285612cd890919063ffffffff16565b612b3790919063ffffffff16565b905061139d60105482612c0790919063ffffffff16565b601281905550426017600086815260200190815260200160002060010181905550600d60009054906101000a900473ffffffffffffffffffffffffffffffffffffffff1673ffffffffffffffffffffffffffffffffffffffff1663db006a75846040518263ffffffff1660e01b815260040180828152602001915050602060405180830381600087803b15801561143357600080fd5b505af1158015611447573d6000803e3d6000fd5b505050506040513d602081101561145d57600080fd5b810190808051906020019092919050505061147457fe5b60006017600086815260200190815260200160002060030160009054906101000a900473ffffffffffffffffffffffffffffffffffffffff169050600e60009054906101000a900473ffffffffffffffffffffffffffffffffffffffff1673ffffffffffffffffffffffffffffffffffffffff1663a9059cbb82866040518363ffffffff1660e01b8152600401808373ffffffffffffffffffffffffffffffffffffffff1673ffffffffffffffffffffffffffffffffffffffff16815260200182815260200192505050602060405180830381600087803b15801561155857600080fd5b505af115801561156c573d6000803e3d6000fd5b505050506040513d602081101561158257600080fd5b8101908080519060200190929190505050505050505050565b60006115a6826119cf565b90508073ffffffffffffffffffffffffffffffffffffffff168373ffffffffffffffffffffffffffffffffffffffff16141561162d576040517f08c379a00000000000000000000000000000000000000000000000000000000081526004018080602001828103825260218152602001806142206021913960400191505060405180910390fd5b8073ffffffffffffffffffffffffffffffffffffffff1661164c612d60565b73ffffffffffffffffffffffffffffffffffffffff16148061167b575061167a81611675612d60565b612aa3565b5b6116d0576040517f08c379a00000000000000000000000000000000000000000000000000000000081526004018080602001828103825260388152602001806140f06038913960400191505060405180910390fd5b826002600084815260200190815260200160002060006101000a81548173ffffffffffffffffffffffffffffffffffffffff021916908373ffffffffffffffffffffffffffffffffffffffff160217905550818373ffffffffffffffffffffffffffffffffffffffff168273ffffffffffffffffffffffffffffffffffffffff167f8c5be1e5ebec7d5bd14f71427d1e84f3dd0314c0f7b2291e5b200ac8c7c3b92560405160405180910390a4505050565b600f60009054906101000a900473ffffffffffffffffffffffffffffffffffffffff1681565b6000600780549050905090565b6117c66117c0612d60565b82612d68565b61181b576040517f08c379a00000000000000000000000000000000000000000000000000000000081526004018080602001828103825260318152602001806142416031913960400191505060405180910390fd5b611826838383612e5c565b505050565b600061183683611dc5565b821061188d576040517f08c379a000000000000000000000000000000000000000000000000000000000815260040180806020018281038252602b815260200180614043602b913960400191505060405180910390fd5b600560008473ffffffffffffffffffffffffffffffffffffffff1673ffffffffffffffffffffffffffffffffffffffff16815260200190815260200160002082815481106118d757fe5b9060005260206000200154905092915050565b60155481565b601381815481106118fd57fe5b906000526020600020016000915090505481565b61192c83838360405180602001604052806000815250612829565b505050565b60115481565b60165481565b60006119476117a8565b821061199e576040517f08c379a000000000000000000000000000000000000000000000000000000000815260040180806020018281038252602c815260200180614272602c913960400191505060405180910390fd5b600782815481106119ab57fe5b90600052602060002001549050919050565b60006119c8826119cf565b9050919050565b6000806001600084815260200190815260200160002060009054906101000a900473ffffffffffffffffffffffffffffffffffffffff169050600073ffffffffffffffffffffffffffffffffffffffff168173ffffffffffffffffffffffffffffffffffffffff161415611a8e576040517f08c379a00000000000000000000000000000000000000000000000000000000081526004018080602001828103825260298152602001806141526029913960400191505060405180910390fd5b80915050919050565b6000600d60009054906101000a900473ffffffffffffffffffffffffffffffffffffffff1673ffffffffffffffffffffffffffffffffffffffff1663d007c644306040518263ffffffff1660e01b8152600401808273ffffffffffffffffffffffffffffffffffffffff1673ffffffffffffffffffffffffffffffffffffffff168152602001915050602060405180830381600087803b158015611b3a57600080fd5b505af1158015611b4e573d6000803e3d6000fd5b505050506040513d6020811015611b6457600080fd5b8101908080519060200190929190505050611b7b57fe5b6000600d60009054906101000a900473ffffffffffffffffffffffffffffffffffffffff1673ffffffffffffffffffffffffffffffffffffffff166370a08231306040518263ffffffff1660e01b8152600401808273ffffffffffffffffffffffffffffffffffffffff1673ffffffffffffffffffffffffffffffffffffffff16815260200191505060206040518083038186803b158015611c1c57600080fd5b505afa158015611c30573d6000803e3d6000fd5b505050506040513d6020811015611c4657600080fd5b810190808051906020019092919050505090506000611c7968056bc75e2d63100000601054612b8190919063ffffffff16565b90506000611c908284612b3790919063ffffffff16565b90506000611ccf611cc0601760008981526020019081526020016000206001015442612b3790919063ffffffff16565b83612b8190919063ffffffff16565b90506000611cfc601054611cee60125442612b3790919063ffffffff16565b612b8190919063ffffffff16565b9050611d118183612c0790919063ffffffff16565b95505050505050919050565b6060600b8054600181600116156101000203166002900480601f016020809104026020016040519081016040528092919081815260200182805460018160011615610100020316600290048015611db55780601f10611d8a57610100808354040283529160200191611db5565b820191906000526020600020905b815481529060010190602001808311611d9857829003601f168201915b5050505050905090565b60105481565b60008073ffffffffffffffffffffffffffffffffffffffff168273ffffffffffffffffffffffffffffffffffffffff161415611e4c576040517f08c379a000000000000000000000000000000000000000000000000000000000815260040180806020018281038252602a815260200180614128602a913960400191505060405180910390fd5b611e93600360008473ffffffffffffffffffffffffffffffffffffffff1673ffffffffffffffffffffffffffffffffffffffff168152602001908152602001600020612e80565b9050919050565b600080600d60009054906101000a900473ffffffffffffffffffffffffffffffffffffffff1673ffffffffffffffffffffffffffffffffffffffff166377ede051306040518263ffffffff1660e01b8152600401808273ffffffffffffffffffffffffffffffffffffffff1673ffffffffffffffffffffffffffffffffffffffff16815260200191505060206040518083038186803b158015611f3c57600080fd5b505afa158015611f50573d6000803e3d6000fd5b505050506040513d6020811015611f6657600080fd5b8101908080519060200190929190505050600d60009054906101000a900473ffffffffffffffffffffffffffffffffffffffff1673ffffffffffffffffffffffffffffffffffffffff166370a08231306040518263ffffffff1660e01b8152600401808273ffffffffffffffffffffffffffffffffffffffff1673ffffffffffffffffffffffffffffffffffffffff16815260200191505060206040518083038186803b15801561201657600080fd5b505afa15801561202a573d6000803e3d6000fd5b505050506040513d602081101561204057600080fd5b8101908080519060200190929190505050019050600061207468056bc75e2d63100000601054612b8190919063ffffffff16565b9050600061208b8284612b3790919063ffffffff16565b905060006120ca6120bb601760008981526020019081526020016000206001015442612b3790919063ffffffff16565b83612b8190919063ffffffff16565b905060006120f76010546120e960125442612b3790919063ffffffff16565b612b8190919063ffffffff16565b905061210c8183612c0790919063ffffffff16565b95505050505050919050565b60125481565b6060600a8054600181600116156101000203166002900480601f0160208091040260200160405190810160405280929190818152602001828054600181600116156101000203166002900480156121b65780601f1061218b576101008083540402835291602001916121b6565b820191906000526020600020905b81548152906001019060200180831161219957829003601f168201915b5050505050905090565b68056bc75e2d6310000081565b601860003373ffffffffffffffffffffffffffffffffffffffff1673ffffffffffffffffffffffffffffffffffffffff16815260200190815260200160002060115490806001815401808255809150509060018203906000526020600020016000909192909190915055504260176000601154815260200190815260200160002060000181905550426017600060115481526020019081526020016000206001018190555081601760006011548152602001908152602001600020600201908051906020019061229e929190613f29565b508060176000601154815260200190815260200160002060030160006101000a81548173ffffffffffffffffffffffffffffffffffffffff021916908373ffffffffffffffffffffffffffffffffffffffff16021790555061234661230f6001601054612cd890919063ffffffff16565b6123384261232a601054601254612b8190919063ffffffff16565b612cd890919063ffffffff16565b612c0790919063ffffffff16565b601281905550600e60009054906101000a900473ffffffffffffffffffffffffffffffffffffffff1673ffffffffffffffffffffffffffffffffffffffff1663095ea7b3600d60009054906101000a900473ffffffffffffffffffffffffffffffffffffffff1668056bc75e2d631000006040518363ffffffff1660e01b8152600401808373ffffffffffffffffffffffffffffffffffffffff1673ffffffffffffffffffffffffffffffffffffffff16815260200182815260200192505050602060405180830381600087803b15801561242057600080fd5b505af1158015612434573d6000803e3d6000fd5b505050506040513d602081101561244a57600080fd5b810190808051906020019092919050505050600d60009054906101000a900473ffffffffffffffffffffffffffffffffffffffff1673ffffffffffffffffffffffffffffffffffffffff1663a0712d6868056bc75e2d631000006040518263ffffffff1660e01b815260040180828152602001915050602060405180830381600087803b1580156124da57600080fd5b505af11580156124ee573d6000803e3d6000fd5b505050506040513d602081101561250457600080fd5b810190808051906020019092919050505061251b57fe5b61252733601054612e8e565b61253d6001601054612cd890919063ffffffff16565b6010819055506125596001601154612cd890919063ffffffff16565b6011819055505050565b61256b612d60565b73ffffffffffffffffffffffffffffffffffffffff168273ffffffffffffffffffffffffffffffffffffffff16141561260c576040517f08c379a00000000000000000000000000000000000000000000000000000000081526004018080602001828103825260198152602001807f4552433732313a20617070726f766520746f2063616c6c65720000000000000081525060200191505060405180910390fd5b8060046000612619612d60565b73ffffffffffffffffffffffffffffffffffffffff1673ffffffffffffffffffffffffffffffffffffffff16815260200190815260200160002060008473ffffffffffffffffffffffffffffffffffffffff1673ffffffffffffffffffffffffffffffffffffffff16815260200190815260200160002060006101000a81548160ff0219169083151502179055508173ffffffffffffffffffffffffffffffffffffffff166126c6612d60565b73ffffffffffffffffffffffffffffffffffffffff167f17307eab39ab6107e8899845ad3d59bd9653f200f220920489ca2b5937696c3183604051808215151515815260200191505060405180910390a35050565b6017602052806000526040600020600091509050806000015490806001015490806002018054600181600116156101000203166002900480601f0160208091040260200160405190810160405280929190818152602001828054600181600116156101000203166002900480156127d35780601f106127a8576101008083540402835291602001916127d3565b820191906000526020600020905b8154815290600101906020018083116127b657829003601f168201915b5050505050908060030160009054906101000a900473ffffffffffffffffffffffffffffffffffffffff16905084565b600060176000838152602001908152602001600020600001549050919050565b60145481565b61283a612834612d60565b83612d68565b61288f576040517f08c379a00000000000000000000000000000000000000000000000000000000081526004018080602001828103825260318152602001806142416031913960400191505060405180910390fd5b61289b84848484612eaf565b50505050565b60606128ac82612c66565b612901576040517f08c379a000000000000000000000000000000000000000000000000000000000815260040180806020018281038252602f8152602001806141f1602f913960400191505060405180910390fd5b6060600c60008481526020019081526020016000208054600181600116156101000203166002900480601f0160208091040260200160405190810160405280929190818152602001828054600181600116156101000203166002900480156129aa5780601f1061297f576101008083540402835291602001916129aa565b820191906000526020600020905b81548152906001019060200180831161298d57829003601f168201915b505050505090506000815114156129d35760405180602001604052806000815250915050612a9e565b600b816040516020018083805460018160011615610100020316600290048015612a345780601f10612a12576101008083540402835291820191612a34565b820191906000526020600020905b815481529060010190602001808311612a20575b505082805190602001908083835b60208310612a655780518252602082019150602081019050602083039250612a42565b6001836020036101000a038019825116818451168082178552505050505050905001925050506040516020818303038152906040529150505b919050565b6000600460008473ffffffffffffffffffffffffffffffffffffffff1673ffffffffffffffffffffffffffffffffffffffff16815260200190815260200160002060008373ffffffffffffffffffffffffffffffffffffffff1673ffffffffffffffffffffffffffffffffffffffff16815260200190815260200160002060009054906101000a900460ff16905092915050565b6000612b7983836040518060400160405280601e81526020017f536166654d6174683a207375627472616374696f6e206f766572666c6f770000815250612f21565b905092915050565b600080831415612b945760009050612c01565b6000828402905082848281612ba557fe5b0414612bfc576040517f08c379a000000000000000000000000000000000000000000000000000000000815260040180806020018281038252602181526020018061417b6021913960400191505060405180910390fd5b809150505b92915050565b6000612c4983836040518060400160405280601a81526020017f536166654d6174683a206469766973696f6e206279207a65726f000000000000815250612fe1565b905092915050565b612c63612c5d826119cf565b826130a7565b50565b6000806001600084815260200190815260200160002060009054906101000a900473ffffffffffffffffffffffffffffffffffffffff169050600073ffffffffffffffffffffffffffffffffffffffff168173ffffffffffffffffffffffffffffffffffffffff161415915050919050565b600080828401905083811015612d56576040517f08c379a000000000000000000000000000000000000000000000000000000000815260040180806020018281038252601b8152602001807f536166654d6174683a206164646974696f6e206f766572666c6f77000000000081525060200191505060405180910390fd5b8091505092915050565b600033905090565b6000612d7382612c66565b612dc8576040517f08c379a000000000000000000000000000000000000000000000000000000000815260040180806020018281038252602c8152602001806140c4602c913960400191505060405180910390fd5b6000612dd3836119cf565b90508073ffffffffffffffffffffffffffffffffffffffff168473ffffffffffffffffffffffffffffffffffffffff161480612e4257508373ffffffffffffffffffffffffffffffffffffffff16612e2a84611286565b73ffffffffffffffffffffffffffffffffffffffff16145b80612e535750612e528185612aa3565b5b91505092915050565b612e67838383613104565b612e71838261335f565b612e7b82826134fd565b505050565b600081600001549050919050565b612e9882826135c4565b612ea282826134fd565b612eab816137dc565b5050565b612eba848484612e5c565b612ec684848484613828565b612f1b576040517f08c379a000000000000000000000000000000000000000000000000000000000815260040180806020018281038252603281526020018061406e6032913960400191505060405180910390fd5b50505050565b6000838311158290612fce576040517f08c379a00000000000000000000000000000000000000000000000000000000081526004018080602001828103825283818151815260200191508051906020019080838360005b83811015612f93578082015181840152602081019050612f78565b50505050905090810190601f168015612fc05780820380516001836020036101000a031916815260200191505b509250505060405180910390fd5b5060008385039050809150509392505050565b6000808311829061308d576040517f08c379a00000000000000000000000000000000000000000000000000000000081526004018080602001828103825283818151815260200191508051906020019080838360005b83811015613052578082015181840152602081019050613037565b50505050905090810190601f16801561307f5780820380516001836020036101000a031916815260200191505b509250505060405180910390fd5b50600083858161309957fe5b049050809150509392505050565b6130b18282613b64565b6000600c60008381526020019081526020016000208054600181600116156101000203166002900490501461310057600c600082815260200190815260200160002060006130ff9190613fa9565b5b5050565b8273ffffffffffffffffffffffffffffffffffffffff16613124826119cf565b73ffffffffffffffffffffffffffffffffffffffff1614613190576040517f08c379a00000000000000000000000000000000000000000000000000000000081526004018080602001828103825260298152602001806141c86029913960400191505060405180910390fd5b600073ffffffffffffffffffffffffffffffffffffffff168273ffffffffffffffffffffffffffffffffffffffff161415613216576040517f08c379a00000000000000000000000000000000000000000000000000000000081526004018080602001828103825260248152602001806140a06024913960400191505060405180910390fd5b61321f81613b9e565b613266600360008573ffffffffffffffffffffffffffffffffffffffff1673ffffffffffffffffffffffffffffffffffffffff168152602001908152602001600020613c5c565b6132ad600360008473ffffffffffffffffffffffffffffffffffffffff1673ffffffffffffffffffffffffffffffffffffffff168152602001908152602001600020613c7f565b816001600083815260200190815260200160002060006101000a81548173ffffffffffffffffffffffffffffffffffffffff021916908373ffffffffffffffffffffffffffffffffffffffff160217905550808273ffffffffffffffffffffffffffffffffffffffff168473ffffffffffffffffffffffffffffffffffffffff167fddf252ad1be2c89b69c2b068fc378daa952ba7f163c4a11628f55a4df523b3ef60405160405180910390a4505050565b60006133b76001600560008673ffffffffffffffffffffffffffffffffffffffff1673ffffffffffffffffffffffffffffffffffffffff16815260200190815260200160002080549050612b3790919063ffffffff16565b90506000600660008481526020019081526020016000205490508181146134a4576000600560008673ffffffffffffffffffffffffffffffffffffffff1673ffffffffffffffffffffffffffffffffffffffff168152602001908152602001600020838154811061342457fe5b9060005260206000200154905080600560008773ffffffffffffffffffffffffffffffffffffffff1673ffffffffffffffffffffffffffffffffffffffff168152602001908152602001600020838154811061347c57fe5b9060005260206000200181905550816006600083815260200190815260200160002081905550505b600560008573ffffffffffffffffffffffffffffffffffffffff1673ffffffffffffffffffffffffffffffffffffffff1681526020019081526020016000208054809190600190036134f69190613ff1565b5050505050565b600560008373ffffffffffffffffffffffffffffffffffffffff1673ffffffffffffffffffffffffffffffffffffffff168152602001908152602001600020805490506006600083815260200190815260200160002081905550600560008373ffffffffffffffffffffffffffffffffffffffff1673ffffffffffffffffffffffffffffffffffffffff1681526020019081526020016000208190806001815401808255809150509060018203906000526020600020016000909192909190915055505050565b600073ffffffffffffffffffffffffffffffffffffffff168273ffffffffffffffffffffffffffffffffffffffff161415613667576040517f08c379a00000000000000000000000000000000000000000000000000000000081526004018080602001828103825260208152602001807f4552433732313a206d696e7420746f20746865207a65726f206164647265737381525060200191505060405180910390fd5b61367081612c66565b156136e3576040517f08c379a000000000000000000000000000000000000000000000000000000000815260040180806020018281038252601c8152602001807f4552433732313a20746f6b656e20616c7265616479206d696e7465640000000081525060200191505060405180910390fd5b816001600083815260200190815260200160002060006101000a81548173ffffffffffffffffffffffffffffffffffffffff021916908373ffffffffffffffffffffffffffffffffffffffff16021790555061377c600360008473ffffffffffffffffffffffffffffffffffffffff1673ffffffffffffffffffffffffffffffffffffffff168152602001908152602001600020613c7f565b808273ffffffffffffffffffffffffffffffffffffffff16600073ffffffffffffffffffffffffffffffffffffffff167fddf252ad1be2c89b69c2b068fc378daa952ba7f163c4a11628f55a4df523b3ef60405160405180910390a45050565b6007805490506008600083815260200190815260200160002081905550600781908060018154018082558091505090600182039060005260206000200160009091929091909150555050565b60006138498473ffffffffffffffffffffffffffffffffffffffff16613c95565b6138565760019050613b5c565b600060608573ffffffffffffffffffffffffffffffffffffffff168673ffffffffffffffffffffffffffffffffffffffff1663150b7a02905060e01b61389a612d60565b898888604051602401808573ffffffffffffffffffffffffffffffffffffffff1673ffffffffffffffffffffffffffffffffffffffff1681526020018473ffffffffffffffffffffffffffffffffffffffff1673ffffffffffffffffffffffffffffffffffffffff16815260200183815260200180602001828103825283818151815260200191508051906020019080838360005b8381101561394a57808201518184015260208101905061392f565b50505050905090810190601f1680156139775780820380516001836020036101000a031916815260200191505b5095505050505050604051602081830303815290604052907bffffffffffffffffffffffffffffffffffffffffffffffffffffffff19166020820180517bffffffffffffffffffffffffffffffffffffffffffffffffffffffff83818316178352505050506040518082805190602001908083835b60208310613a0f57805182526020820191506020810190506020830392506139ec565b6001836020036101000a0380198251168184511680821785525050505050509050019150506000604051808303816000865af19150503d8060008114613a71576040519150601f19603f3d011682016040523d82523d6000602084013e613a76565b606091505b509150915081613ae457600081511115613a935780518082602001fd5b6040517f08c379a000000000000000000000000000000000000000000000000000000000815260040180806020018281038252603281526020018061406e6032913960400191505060405180910390fd5b6000818060200190516020811015613afb57600080fd5b8101908080519060200190929190505050905063150b7a0260e01b7bffffffffffffffffffffffffffffffffffffffffffffffffffffffff1916817bffffffffffffffffffffffffffffffffffffffffffffffffffffffff19161493505050505b949350505050565b613b6e8282613ce0565b613b78828261335f565b60006006600083815260200190815260200160002081905550613b9a81613e6f565b5050565b600073ffffffffffffffffffffffffffffffffffffffff166002600083815260200190815260200160002060009054906101000a900473ffffffffffffffffffffffffffffffffffffffff1673ffffffffffffffffffffffffffffffffffffffff1614613c595760006002600083815260200190815260200160002060006101000a81548173ffffffffffffffffffffffffffffffffffffffff021916908373ffffffffffffffffffffffffffffffffffffffff1602179055505b50565b613c7460018260000154612b3790919063ffffffff16565b816000018190555050565b6001816000016000828254019250508190555050565b60008060007fc5d2460186f7233c927e7db2dcc703c0e500b653ca82273b7bfad8045d85a47060001b9050833f9150808214158015613cd757506000801b8214155b92505050919050565b8173ffffffffffffffffffffffffffffffffffffffff16613d00826119cf565b73ffffffffffffffffffffffffffffffffffffffff1614613d6c576040517f08c379a000000000000000000000000000000000000000000000000000000000815260040180806020018281038252602581526020018061429e6025913960400191505060405180910390fd5b613d7581613b9e565b613dbc600360008473ffffffffffffffffffffffffffffffffffffffff1673ffffffffffffffffffffffffffffffffffffffff168152602001908152602001600020613c5c565b60006001600083815260200190815260200160002060006101000a81548173ffffffffffffffffffffffffffffffffffffffff021916908373ffffffffffffffffffffffffffffffffffffffff16021790555080600073ffffffffffffffffffffffffffffffffffffffff168373ffffffffffffffffffffffffffffffffffffffff167fddf252ad1be2c89b69c2b068fc378daa952ba7f163c4a11628f55a4df523b3ef60405160405180910390a45050565b6000613e8a6001600780549050612b3790919063ffffffff16565b9050600060086000848152602001908152602001600020549050600060078381548110613eb357fe5b906000526020600020015490508060078381548110613ece57fe5b90600052602060002001819055508160086000838152602001908152602001600020819055506007805480919060019003613f099190613ff1565b506000600860008681526020019081526020016000208190555050505050565b828054600181600116156101000203166002900490600052602060002090601f016020900481019282601f10613f6a57805160ff1916838001178555613f98565b82800160010185558215613f98579182015b82811115613f97578251825591602001919060010190613f7c565b5b509050613fa5919061401d565b5090565b50805460018160011615610100020316600290046000825580601f10613fcf5750613fee565b601f016020900490600052602060002090810190613fed919061401d565b5b50565b81548183558181111561401857818360005260206000209182019101614017919061401d565b5b505050565b61403f91905b8082111561403b576000816000905550600101614023565b5090565b9056fe455243373231456e756d657261626c653a206f776e657220696e646578206f7574206f6620626f756e64734552433732313a207472616e7366657220746f206e6f6e20455243373231526563656976657220696d706c656d656e7465724552433732313a207472616e7366657220746f20746865207a65726f20616464726573734552433732313a206f70657261746f7220717565727920666f72206e6f6e6578697374656e7420746f6b656e4552433732313a20617070726f76652063616c6c6572206973206e6f74206f776e6572206e6f7220617070726f76656420666f7220616c6c4552433732313a2062616c616e636520717565727920666f7220746865207a65726f20616464726573734552433732313a206f776e657220717565727920666f72206e6f6e6578697374656e7420746f6b656e536166654d6174683a206d756c7469706c69636174696f6e206f766572666c6f774552433732313a20617070726f76656420717565727920666f72206e6f6e6578697374656e7420746f6b656e4552433732313a207472616e73666572206f6620746f6b656e2074686174206973206e6f74206f776e4552433732314d657461646174613a2055524920717565727920666f72206e6f6e6578697374656e7420746f6b656e4552433732313a20617070726f76616c20746f2063757272656e74206f776e65724552433732313a207472616e736665722063616c6c6572206973206e6f74206f776e6572206e6f7220617070726f766564455243373231456e756d657261626c653a20676c6f62616c20696e646578206f7574206f6620626f756e64734552433732313a206275726e206f6620746f6b656e2074686174206973206e6f74206f776ea265627a7a7231582047cdb4ef8a852034a40f504a88bb26305adc7de47a7fbe13eb3fec51cbdf4f7264736f6c634300050c0032",
  "source": "pragma solidity >=0.4.21 <0.7.0;\n\nimport \"@openzeppelin/contracts/token/ERC721/ERC721Full.sol\";\nimport \"@openzeppelin/contracts/math/SafeMath.sol\";\n\n/// @title Dai contract interface\n/// @notice Various cash functions\ninterface Cash \n{\n    function approve(address _spender, uint _amount) external returns (bool);\n    function balanceOf(address _ownesr) external view returns (uint);\n    function transfer(address _to, uint _amount) external returns (bool);\n}\n\ninterface IRToken\n{\n    function mint(uint256 mintAmount) external returns (bool);\n    function balanceOf(address _user) external view returns(uint);\n    function payInterest(address owner) external returns (bool);\n    function interestPayableOf(address owner) external view returns (uint256 amount);\n    function redeem(uint256 redeemTokens) external returns (bool);\n}\n\ncontract CharityHodlFactory is ERC721Full {\n\n    using SafeMath for uint;\n\n    IRToken rToken;\n    Cash underlying;\n\n    address public cashAddress;\n\n    constructor(address _cashAddress, address _RTokenAddress) ERC721Full(\"HodlFactory\", \"rHODL\") public { \n        rToken = IRToken(_RTokenAddress); \n        underlying = Cash(_cashAddress);\n        cashAddress = _cashAddress;\n    }\n\n    uint public hodlCount = 0;\n    uint public latestHodlId = 0;\n    uint public averageTimeLastWithdrawn = 0;\n    uint constant public oneHundredDai = 10**20; \n    uint[] public getHodlsDeleted;\n    uint public testingVariableA = 0;\n    uint public testingVariableB = 0;\n    uint public testingVariableC = 0;\n\n     struct hodl {\n        uint purchaseTime;\n        uint interestLastWithdrawnTime;\n        string name;\n        address interestRecipient;\n    }\n\n    mapping (uint => hodl) public hodlProperties; \n    mapping (address => uint[]) hodlOwnerTracker;\n\n    // event stfu(uint indexed stfu);\n\n    function getHodlOwner(uint _hodlId) external view returns (address) {\n        return ownerOf(_hodlId);\n    }\n\n    function getHodlPurchaseTime(uint _hodlId) external view returns (uint) {\n        return hodlProperties[_hodlId].purchaseTime;\n    }\n\n    function createHodl(string memory _name, address _addressOfCharity) public {\n        // UPDATE VARIABLES\n        hodlOwnerTracker[msg.sender].push(latestHodlId);\n        hodlProperties[latestHodlId].purchaseTime = now;\n        hodlProperties[latestHodlId].interestLastWithdrawnTime = now;\n        hodlProperties[latestHodlId].name = _name;\n        hodlProperties[latestHodlId].interestRecipient = _addressOfCharity;\n        averageTimeLastWithdrawn = ((averageTimeLastWithdrawn.mul(hodlCount)).add(now)).div(hodlCount.add(1));\n        // SWAP DAI FOR rDAI \n        // I need to transfer Dai to the contract seperately, annoyingly \n        underlying.approve(address(rToken), oneHundredDai);\n        assert(rToken.mint(oneHundredDai)); \n        // // GENERATE NFT\n        _mint(msg.sender, hodlCount);\n        hodlCount = hodlCount.add(1);\n        latestHodlId = latestHodlId.add(1); \n    } \n\n    function getInterestAvailableToWithdrawView(uint _hodlId) public view returns (uint) {\n        uint _totalRdaiBalance = rToken.balanceOf(address(this)) + rToken.interestPayableOf(address(this)); \n        uint _totalDaiBalance = hodlCount.mul(oneHundredDai);\n        uint _totalInterestAvailable = _totalRdaiBalance.sub(_totalDaiBalance);\n        uint _numerator = _totalInterestAvailable.mul(now.sub(hodlProperties[_hodlId].interestLastWithdrawnTime));\n        uint _denominator = (now.sub(averageTimeLastWithdrawn)).mul(hodlCount);\n        return (_numerator.div(_denominator));\n    }\n\n    //only needed for kovan, because interestPayableOf does not work on kovan\n    function getInterestAvailableToWithdraw(uint _hodlId) public returns (uint) {\n        assert(rToken.payInterest(address(this)));\n        uint _totalRdaiBalance = rToken.balanceOf(address(this)); \n        uint _totalDaiBalance = hodlCount.mul(oneHundredDai);\n        uint _totalInterestAvailable = _totalRdaiBalance.sub(_totalDaiBalance);\n        uint _numerator = _totalInterestAvailable.mul(now.sub(hodlProperties[_hodlId].interestLastWithdrawnTime));\n        uint _denominator = (now.sub(averageTimeLastWithdrawn)).mul(hodlCount);\n        return (_numerator.div(_denominator));\n    }\n\n    function withdrawInterest(uint _hodlId) public {\n        uint _interestToWithdraw = getInterestAvailableToWithdraw(_hodlId);\n        // update variables\n        uint _sumOfLastWithdrawTimes = averageTimeLastWithdrawn.mul(hodlCount);\n        uint _sumOfLastWithdrawTimesUpdated = _sumOfLastWithdrawTimes.add(now).sub(hodlProperties[_hodlId].interestLastWithdrawnTime);\n        averageTimeLastWithdrawn = _sumOfLastWithdrawTimesUpdated.div(hodlCount);\n        hodlProperties[_hodlId].interestLastWithdrawnTime = now;\n        // external calls\n        assert(rToken.redeem(_interestToWithdraw));\n        address _addressOfCharity = hodlProperties[_hodlId].interestRecipient;\n        underlying.transfer(_addressOfCharity, _interestToWithdraw);\n    }\n\n    function destroyHodl(uint _hodlId) public {\n        require (ownerOf(_hodlId) == msg.sender, \"Not owner\");\n        // require (hodlProperties[_hodlId].purchaseTime.add(3600) < now, \"HODL must be owned for 1 hour\");\n        withdrawInterest(_hodlId);\n        // update averageTimeLastWithdrawn\n        if (hodlCount > 1) {\n            averageTimeLastWithdrawn = ((averageTimeLastWithdrawn.mul(hodlCount)).sub(hodlProperties[_hodlId].interestLastWithdrawnTime)).div(hodlCount.sub(1));\n        } else {\n            averageTimeLastWithdrawn = 0;\n        }\n        // external calls\n        rToken.redeem(oneHundredDai);\n        underlying.transfer(ownerOf(_hodlId), oneHundredDai);\n        // remove HODL\n        hodlCount = hodlCount.sub(1);\n        _burn(_hodlId);\n        getHodlsDeleted.push(_hodlId);\n    }\n\n}\n",
  "sourcePath": "/Users/mcplums/Repos/HodlFactory/contracts/CharityHodlFactory.sol",
  "compiler": {
    "name": "solc",
    "version": "0.5.12+commit.7709ece9.Emscripten.clang"
  },
  "schemaVersion": "3.0.19",
  "updatedAt": "2020-04-25T09:23:42.515Z",
  "networkType": "ethereum",
  "devdoc": {
    "methods": {
      "approve(address,uint256)": {
        "details": "Approves another address to transfer the given token ID The zero address indicates there is no approved address. There can only be one approved address per token at a given time. Can only be called by the token owner or an approved operator.",
        "params": {
          "to": "address to be approved for the given token ID",
          "tokenId": "uint256 ID of the token to be approved"
        }
      },
      "balanceOf(address)": {
        "details": "Gets the balance of the specified address.",
        "params": {
          "owner": "address to query the balance of"
        },
        "return": "uint256 representing the amount owned by the passed address"
      },
      "baseURI()": {
        "details": "Returns the base URI set via {_setBaseURI}. This will be automatically added as a preffix in {tokenURI} to each token's URI, when they are non-empty.    * _Available since v2.5.0._"
      },
      "getApproved(uint256)": {
        "details": "Gets the approved address for a token ID, or zero if no address set Reverts if the token ID does not exist.",
        "params": {
          "tokenId": "uint256 ID of the token to query the approval of"
        },
        "return": "address currently approved for the given token ID"
      },
      "isApprovedForAll(address,address)": {
        "details": "Tells whether an operator is approved by a given owner.",
        "params": {
          "operator": "operator address which you want to query the approval of",
          "owner": "owner address which you want to query the approval of"
        },
        "return": "bool whether the given operator is approved by the given owner"
      },
      "name()": {
        "details": "Gets the token name.",
        "return": "string representing the token name"
      },
      "ownerOf(uint256)": {
        "details": "Gets the owner of the specified token ID.",
        "params": {
          "tokenId": "uint256 ID of the token to query the owner of"
        },
        "return": "address currently marked as the owner of the given token ID"
      },
      "safeTransferFrom(address,address,uint256)": {
        "details": "Safely transfers the ownership of a given token ID to another address If the target address is a contract, it must implement {IERC721Receiver-onERC721Received}, which is called upon a safe transfer, and return the magic value `bytes4(keccak256(\"onERC721Received(address,address,uint256,bytes)\"))`; otherwise, the transfer is reverted. Requires the msg.sender to be the owner, approved, or operator",
        "params": {
          "from": "current owner of the token",
          "to": "address to receive the ownership of the given token ID",
          "tokenId": "uint256 ID of the token to be transferred"
        }
      },
      "safeTransferFrom(address,address,uint256,bytes)": {
        "details": "Safely transfers the ownership of a given token ID to another address If the target address is a contract, it must implement {IERC721Receiver-onERC721Received}, which is called upon a safe transfer, and return the magic value `bytes4(keccak256(\"onERC721Received(address,address,uint256,bytes)\"))`; otherwise, the transfer is reverted. Requires the _msgSender() to be the owner, approved, or operator",
        "params": {
          "_data": "bytes data to send along with a safe transfer check",
          "from": "current owner of the token",
          "to": "address to receive the ownership of the given token ID",
          "tokenId": "uint256 ID of the token to be transferred"
        }
      },
      "setApprovalForAll(address,bool)": {
        "details": "Sets or unsets the approval of a given operator An operator is allowed to transfer all tokens of the sender on their behalf.",
        "params": {
          "approved": "representing the status of the approval to be set",
          "to": "operator address to set the approval"
        }
      },
      "supportsInterface(bytes4)": {
        "details": "See {IERC165-supportsInterface}.     * Time complexity O(1), guaranteed to always use less than 30 000 gas."
      },
      "symbol()": {
        "details": "Gets the token symbol.",
        "return": "string representing the token symbol"
      },
      "tokenByIndex(uint256)": {
        "details": "Gets the token ID at a given index of all the tokens in this contract Reverts if the index is greater or equal to the total number of tokens.",
        "params": {
          "index": "uint256 representing the index to be accessed of the tokens list"
        },
        "return": "uint256 token ID at the given index of the tokens list"
      },
      "tokenOfOwnerByIndex(address,uint256)": {
        "details": "Gets the token ID at a given index of the tokens list of the requested owner.",
        "params": {
          "index": "uint256 representing the index to be accessed of the requested tokens list",
          "owner": "address owning the tokens list to be accessed"
        },
        "return": "uint256 token ID at the given index of the tokens list owned by the requested address"
      },
      "tokenURI(uint256)": {
        "details": "Returns the URI for a given token ID. May return an empty string.     * If the token's URI is non-empty and a base URI was set (via {_setBaseURI}), it will be added to the token ID's URI as a prefix.     * Reverts if the token ID does not exist."
      },
      "totalSupply()": {
        "details": "Gets the total amount of tokens stored by the contract.",
        "return": "uint256 representing the total amount of tokens"
      },
      "transferFrom(address,address,uint256)": {
        "details": "Transfers the ownership of a given token ID to another address. Usage of this method is discouraged, use {safeTransferFrom} whenever possible. Requires the msg.sender to be the owner, approved, or operator.",
        "params": {
          "from": "current owner of the token",
          "to": "address to receive the ownership of the given token ID",
          "tokenId": "uint256 ID of the token to be transferred"
        }
      }
    }
  },
  "userdoc": {
    "methods": {}
  }
}