{
  "contractName": "ClassicHodlFactory",
  "abi": [
    {
      "inputs": [
        {
          "internalType": "address",
          "name": "_cashAddress",
          "type": "address"
        },
        {
          "internalType": "address",
          "name": "_cTokenAddress",
          "type": "address"
        }
      ],
      "payable": false,
      "stateMutability": "nonpayable",
      "type": "constructor"
    },
    {
      "anonymous": false,
      "inputs": [
        {
          "indexed": true,
          "internalType": "address",
          "name": "owner",
          "type": "address"
        },
        {
          "indexed": true,
          "internalType": "address",
          "name": "approved",
          "type": "address"
        },
        {
          "indexed": true,
          "internalType": "uint256",
          "name": "tokenId",
          "type": "uint256"
        }
      ],
      "name": "Approval",
      "type": "event"
    },
    {
      "anonymous": false,
      "inputs": [
        {
          "indexed": true,
          "internalType": "address",
          "name": "owner",
          "type": "address"
        },
        {
          "indexed": true,
          "internalType": "address",
          "name": "operator",
          "type": "address"
        },
        {
          "indexed": false,
          "internalType": "bool",
          "name": "approved",
          "type": "bool"
        }
      ],
      "name": "ApprovalForAll",
      "type": "event"
    },
    {
      "anonymous": false,
      "inputs": [
        {
          "indexed": true,
          "internalType": "address",
          "name": "from",
          "type": "address"
        },
        {
          "indexed": true,
          "internalType": "address",
          "name": "to",
          "type": "address"
        },
        {
          "indexed": true,
          "internalType": "uint256",
          "name": "tokenId",
          "type": "uint256"
        }
      ],
      "name": "Transfer",
      "type": "event"
    },
    {
      "anonymous": false,
      "inputs": [
        {
          "indexed": true,
          "internalType": "uint256",
          "name": "stfu",
          "type": "uint256"
        }
      ],
      "name": "stfu",
      "type": "event"
    },
    {
      "constant": false,
      "inputs": [
        {
          "internalType": "address",
          "name": "to",
          "type": "address"
        },
        {
          "internalType": "uint256",
          "name": "tokenId",
          "type": "uint256"
        }
      ],
      "name": "approve",
      "outputs": [],
      "payable": false,
      "stateMutability": "nonpayable",
      "type": "function"
    },
    {
      "constant": true,
      "inputs": [
        {
          "internalType": "address",
          "name": "owner",
          "type": "address"
        }
      ],
      "name": "balanceOf",
      "outputs": [
        {
          "internalType": "uint256",
          "name": "",
          "type": "uint256"
        }
      ],
      "payable": false,
      "stateMutability": "view",
      "type": "function"
    },
    {
      "constant": true,
      "inputs": [],
      "name": "baseURI",
      "outputs": [
        {
          "internalType": "string",
          "name": "",
          "type": "string"
        }
      ],
      "payable": false,
      "stateMutability": "view",
      "type": "function"
    },
    {
      "constant": true,
      "inputs": [],
      "name": "cashAddress",
      "outputs": [
        {
          "internalType": "address",
          "name": "",
          "type": "address"
        }
      ],
      "payable": false,
      "stateMutability": "view",
      "type": "function"
    },
    {
      "constant": true,
      "inputs": [
        {
          "internalType": "uint256",
          "name": "tokenId",
          "type": "uint256"
        }
      ],
      "name": "getApproved",
      "outputs": [
        {
          "internalType": "address",
          "name": "",
          "type": "address"
        }
      ],
      "payable": false,
      "stateMutability": "view",
      "type": "function"
    },
    {
      "constant": true,
      "inputs": [],
      "name": "hodlCount",
      "outputs": [
        {
          "internalType": "uint256",
          "name": "",
          "type": "uint256"
        }
      ],
      "payable": false,
      "stateMutability": "view",
      "type": "function"
    },
    {
      "constant": true,
      "inputs": [
        {
          "internalType": "uint256",
          "name": "",
          "type": "uint256"
        }
      ],
      "name": "hodlTracker",
      "outputs": [
        {
          "internalType": "address",
          "name": "owner",
          "type": "address"
        },
        {
          "internalType": "uint256",
          "name": "purchaseTime",
          "type": "uint256"
        },
        {
          "internalType": "uint256",
          "name": "cTokenBalance",
          "type": "uint256"
        }
      ],
      "payable": false,
      "stateMutability": "view",
      "type": "function"
    },
    {
      "constant": true,
      "inputs": [
        {
          "internalType": "address",
          "name": "owner",
          "type": "address"
        },
        {
          "internalType": "address",
          "name": "operator",
          "type": "address"
        }
      ],
      "name": "isApprovedForAll",
      "outputs": [
        {
          "internalType": "bool",
          "name": "",
          "type": "bool"
        }
      ],
      "payable": false,
      "stateMutability": "view",
      "type": "function"
    },
    {
      "constant": true,
      "inputs": [],
      "name": "name",
      "outputs": [
        {
          "internalType": "string",
          "name": "",
          "type": "string"
        }
      ],
      "payable": false,
      "stateMutability": "view",
      "type": "function"
    },
    {
      "constant": true,
      "inputs": [],
      "name": "oneHundredDai",
      "outputs": [
        {
          "internalType": "uint256",
          "name": "",
          "type": "uint256"
        }
      ],
      "payable": false,
      "stateMutability": "view",
      "type": "function"
    },
    {
      "constant": true,
      "inputs": [
        {
          "internalType": "uint256",
          "name": "tokenId",
          "type": "uint256"
        }
      ],
      "name": "ownerOf",
      "outputs": [
        {
          "internalType": "address",
          "name": "",
          "type": "address"
        }
      ],
      "payable": false,
      "stateMutability": "view",
      "type": "function"
    },
    {
      "constant": false,
      "inputs": [
        {
          "internalType": "address",
          "name": "from",
          "type": "address"
        },
        {
          "internalType": "address",
          "name": "to",
          "type": "address"
        },
        {
          "internalType": "uint256",
          "name": "tokenId",
          "type": "uint256"
        }
      ],
      "name": "safeTransferFrom",
      "outputs": [],
      "payable": false,
      "stateMutability": "nonpayable",
      "type": "function"
    },
    {
      "constant": false,
      "inputs": [
        {
          "internalType": "address",
          "name": "from",
          "type": "address"
        },
        {
          "internalType": "address",
          "name": "to",
          "type": "address"
        },
        {
          "internalType": "uint256",
          "name": "tokenId",
          "type": "uint256"
        },
        {
          "internalType": "bytes",
          "name": "_data",
          "type": "bytes"
        }
      ],
      "name": "safeTransferFrom",
      "outputs": [],
      "payable": false,
      "stateMutability": "nonpayable",
      "type": "function"
    },
    {
      "constant": false,
      "inputs": [
        {
          "internalType": "address",
          "name": "to",
          "type": "address"
        },
        {
          "internalType": "bool",
          "name": "approved",
          "type": "bool"
        }
      ],
      "name": "setApprovalForAll",
      "outputs": [],
      "payable": false,
      "stateMutability": "nonpayable",
      "type": "function"
    },
    {
      "constant": true,
      "inputs": [
        {
          "internalType": "bytes4",
          "name": "interfaceId",
          "type": "bytes4"
        }
      ],
      "name": "supportsInterface",
      "outputs": [
        {
          "internalType": "bool",
          "name": "",
          "type": "bool"
        }
      ],
      "payable": false,
      "stateMutability": "view",
      "type": "function"
    },
    {
      "constant": true,
      "inputs": [],
      "name": "symbol",
      "outputs": [
        {
          "internalType": "string",
          "name": "",
          "type": "string"
        }
      ],
      "payable": false,
      "stateMutability": "view",
      "type": "function"
    },
    {
      "constant": true,
      "inputs": [],
      "name": "testingVariableA",
      "outputs": [
        {
          "internalType": "uint256",
          "name": "",
          "type": "uint256"
        }
      ],
      "payable": false,
      "stateMutability": "view",
      "type": "function"
    },
    {
      "constant": true,
      "inputs": [],
      "name": "testingVariableB",
      "outputs": [
        {
          "internalType": "uint256",
          "name": "",
          "type": "uint256"
        }
      ],
      "payable": false,
      "stateMutability": "view",
      "type": "function"
    },
    {
      "constant": true,
      "inputs": [],
      "name": "testingVariableC",
      "outputs": [
        {
          "internalType": "uint256",
          "name": "",
          "type": "uint256"
        }
      ],
      "payable": false,
      "stateMutability": "view",
      "type": "function"
    },
    {
      "constant": true,
      "inputs": [
        {
          "internalType": "uint256",
          "name": "index",
          "type": "uint256"
        }
      ],
      "name": "tokenByIndex",
      "outputs": [
        {
          "internalType": "uint256",
          "name": "",
          "type": "uint256"
        }
      ],
      "payable": false,
      "stateMutability": "view",
      "type": "function"
    },
    {
      "constant": true,
      "inputs": [
        {
          "internalType": "address",
          "name": "owner",
          "type": "address"
        },
        {
          "internalType": "uint256",
          "name": "index",
          "type": "uint256"
        }
      ],
      "name": "tokenOfOwnerByIndex",
      "outputs": [
        {
          "internalType": "uint256",
          "name": "",
          "type": "uint256"
        }
      ],
      "payable": false,
      "stateMutability": "view",
      "type": "function"
    },
    {
      "constant": true,
      "inputs": [
        {
          "internalType": "uint256",
          "name": "tokenId",
          "type": "uint256"
        }
      ],
      "name": "tokenURI",
      "outputs": [
        {
          "internalType": "string",
          "name": "",
          "type": "string"
        }
      ],
      "payable": false,
      "stateMutability": "view",
      "type": "function"
    },
    {
      "constant": true,
      "inputs": [],
      "name": "totalSupply",
      "outputs": [
        {
          "internalType": "uint256",
          "name": "",
          "type": "uint256"
        }
      ],
      "payable": false,
      "stateMutability": "view",
      "type": "function"
    },
    {
      "constant": false,
      "inputs": [
        {
          "internalType": "address",
          "name": "from",
          "type": "address"
        },
        {
          "internalType": "address",
          "name": "to",
          "type": "address"
        },
        {
          "internalType": "uint256",
          "name": "tokenId",
          "type": "uint256"
        }
      ],
      "name": "transferFrom",
      "outputs": [],
      "payable": false,
      "stateMutability": "nonpayable",
      "type": "function"
    },
    {
      "constant": true,
      "inputs": [
        {
          "internalType": "uint256",
          "name": "_hodlId",
          "type": "uint256"
        }
      ],
      "name": "getHodlOwner",
      "outputs": [
        {
          "internalType": "address",
          "name": "",
          "type": "address"
        }
      ],
      "payable": false,
      "stateMutability": "view",
      "type": "function"
    },
    {
      "constant": true,
      "inputs": [
        {
          "internalType": "uint256",
          "name": "_hodlId",
          "type": "uint256"
        }
      ],
      "name": "getHodlPurchaseTime",
      "outputs": [
        {
          "internalType": "uint256",
          "name": "",
          "type": "uint256"
        }
      ],
      "payable": false,
      "stateMutability": "view",
      "type": "function"
    },
    {
      "constant": true,
      "inputs": [
        {
          "internalType": "uint256",
          "name": "_hodlId",
          "type": "uint256"
        }
      ],
      "name": "getHodlTokenBalance",
      "outputs": [
        {
          "internalType": "uint256",
          "name": "",
          "type": "uint256"
        }
      ],
      "payable": false,
      "stateMutability": "view",
      "type": "function"
    },
    {
      "constant": false,
      "inputs": [],
      "name": "getFxRateTimesOneThousand",
      "outputs": [
        {
          "internalType": "uint256",
          "name": "",
          "type": "uint256"
        }
      ],
      "payable": false,
      "stateMutability": "nonpayable",
      "type": "function"
    },
    {
      "constant": false,
      "inputs": [
        {
          "internalType": "uint256",
          "name": "_hodlId",
          "type": "uint256"
        }
      ],
      "name": "interestAvailableToWithdraw",
      "outputs": [
        {
          "internalType": "uint256",
          "name": "",
          "type": "uint256"
        }
      ],
      "payable": false,
      "stateMutability": "nonpayable",
      "type": "function"
    },
    {
      "constant": false,
      "inputs": [],
      "name": "buyHodl",
      "outputs": [],
      "payable": false,
      "stateMutability": "nonpayable",
      "type": "function"
    },
    {
      "constant": false,
      "inputs": [
        {
          "internalType": "uint256",
          "name": "_hodlId",
          "type": "uint256"
        }
      ],
      "name": "withdrawInterest",
      "outputs": [],
      "payable": false,
      "stateMutability": "nonpayable",
      "type": "function"
    }
  ],
  "bytecode": "0x608060405260006010556000601155600060125560006013553480156200002557600080fd5b5060405162003d4e38038062003d4e833981810160405260408110156200004b57600080fd5b8101908080519060200190929190805190602001909291905050506040518060400160405280600b81526020017f486f646c466163746f72790000000000000000000000000000000000000000008152506040518060400160405280600481526020017f484f444c000000000000000000000000000000000000000000000000000000008152508181620000ec6301ffc9a760e01b6200023560201b60201c565b620001046380ac58cd60e01b6200023560201b60201c565b6200011c63780e9d6360e01b6200023560201b60201c565b8160099080519060200190620001349291906200033e565b5080600a90805190602001906200014d9291906200033e565b5062000166635b5e139f60e01b6200023560201b60201c565b5050505080600d60006101000a81548173ffffffffffffffffffffffffffffffffffffffff021916908373ffffffffffffffffffffffffffffffffffffffff16021790555081600e60006101000a81548173ffffffffffffffffffffffffffffffffffffffff021916908373ffffffffffffffffffffffffffffffffffffffff16021790555081600f60006101000a81548173ffffffffffffffffffffffffffffffffffffffff021916908373ffffffffffffffffffffffffffffffffffffffff1602179055505050620003ed565b63ffffffff60e01b817bffffffffffffffffffffffffffffffffffffffffffffffffffffffff19161415620002d2576040517f08c379a000000000000000000000000000000000000000000000000000000000815260040180806020018281038252601c8152602001807f4552433136353a20696e76616c696420696e746572666163652069640000000081525060200191505060405180910390fd5b6001600080837bffffffffffffffffffffffffffffffffffffffffffffffffffffffff19167bffffffffffffffffffffffffffffffffffffffffffffffffffffffff1916815260200190815260200160002060006101000a81548160ff02191690831515021790555050565b828054600181600116156101000203166002900490600052602060002090601f016020900481019282601f106200038157805160ff1916838001178555620003b2565b82800160010185558215620003b2579182015b82811115620003b157825182559160200191906001019062000394565b5b509050620003c19190620003c5565b5090565b620003ea91905b80821115620003e6576000816000905550600101620003cc565b5090565b90565b61395180620003fd6000396000f3fe608060405234801561001057600080fd5b50600436106101e55760003560e01c80635fe825f81161010f5780639c91e09c116100a2578063b88d4fde11610071578063b88d4fde14610a10578063c87b56dd14610b15578063d870948a14610bbc578063e985e9c514610bda576101e5565b80639c91e09c146108e4578063a22cb46514610960578063aac13c3d146109b0578063b0aa0891146109f2576101e5565b806370a08231116100de57806370a08231146107a95780637f6d34811461080157806395d89b41146108435780639709e738146108c6576101e5565b80635fe825f81461062c5780636352211e1461069a5780636c0360eb146107085780636ebcf0c71461078b576101e5565b806323b872dd1161018757806342842e0e1161015657806342842e0e1461055457806348d66d8b146105c25780634b704921146105cc5780634f6ccce7146105ea576101e5565b806323b872dd146104245780632b09090b146104925780632f745c59146104d4578063369b79e914610536576101e5565b806308669aab116101c357806308669aab14610340578063095ea7b31461036e578063137e0d86146103bc57806318160ddd14610406576101e5565b806301ffc9a7146101ea57806306fdde031461024f578063081812fc146102d2575b600080fd5b6102356004803603602081101561020057600080fd5b8101908080357bffffffffffffffffffffffffffffffffffffffffffffffffffffffff19169060200190929190505050610c56565b604051808215151515815260200191505060405180910390f35b610257610cbd565b6040518080602001828103825283818151815260200191508051906020019080838360005b8381101561029757808201518184015260208101905061027c565b50505050905090810190601f1680156102c45780820380516001836020036101000a031916815260200191505b509250505060405180910390f35b6102fe600480360360208110156102e857600080fd5b8101908080359060200190929190505050610d5f565b604051808273ffffffffffffffffffffffffffffffffffffffff1673ffffffffffffffffffffffffffffffffffffffff16815260200191505060405180910390f35b61036c6004803603602081101561035657600080fd5b8101908080359060200190929190505050610dfa565b005b6103ba6004803603604081101561038457600080fd5b81019080803573ffffffffffffffffffffffffffffffffffffffff1690602001909291908035906020019092919050505061113c565b005b6103c4611323565b604051808273ffffffffffffffffffffffffffffffffffffffff1673ffffffffffffffffffffffffffffffffffffffff16815260200191505060405180910390f35b61040e611349565b6040518082815260200191505060405180910390f35b6104906004803603606081101561043a57600080fd5b81019080803573ffffffffffffffffffffffffffffffffffffffff169060200190929190803573ffffffffffffffffffffffffffffffffffffffff16906020019092919080359060200190929190505050611356565b005b6104be600480360360208110156104a857600080fd5b81019080803590602001909291905050506113cc565b6040518082815260200191505060405180910390f35b610520600480360360408110156104ea57600080fd5b81019080803573ffffffffffffffffffffffffffffffffffffffff1690602001909291908035906020019092919050505061142f565b6040518082815260200191505060405180910390f35b61053e6114ee565b6040518082815260200191505060405180910390f35b6105c06004803603606081101561056a57600080fd5b81019080803573ffffffffffffffffffffffffffffffffffffffff169060200190929190803573ffffffffffffffffffffffffffffffffffffffff169060200190929190803590602001909291905050506114f4565b005b6105ca611514565b005b6105d4611a59565b6040518082815260200191505060405180910390f35b6106166004803603602081101561060057600080fd5b8101908080359060200190929190505050611a5f565b6040518082815260200191505060405180910390f35b6106586004803603602081101561064257600080fd5b8101908080359060200190929190505050611adf565b604051808273ffffffffffffffffffffffffffffffffffffffff1673ffffffffffffffffffffffffffffffffffffffff16815260200191505060405180910390f35b6106c6600480360360208110156106b057600080fd5b8101908080359060200190929190505050611b1f565b604051808273ffffffffffffffffffffffffffffffffffffffff1673ffffffffffffffffffffffffffffffffffffffff16815260200191505060405180910390f35b610710611be7565b6040518080602001828103825283818151815260200191508051906020019080838360005b83811015610750578082015181840152602081019050610735565b50505050905090810190601f16801561077d5780820380516001836020036101000a031916815260200191505b509250505060405180910390f35b610793611c89565b6040518082815260200191505060405180910390f35b6107eb600480360360208110156107bf57600080fd5b81019080803573ffffffffffffffffffffffffffffffffffffffff169060200190929190505050611c8f565b6040518082815260200191505060405180910390f35b61082d6004803603602081101561081757600080fd5b8101908080359060200190929190505050611d64565b6040518082815260200191505060405180910390f35b61084b611d84565b6040518080602001828103825283818151815260200191508051906020019080838360005b8381101561088b578082015181840152602081019050610870565b50505050905090810190601f1680156108b85780820380516001836020036101000a031916815260200191505b509250505060405180910390f35b6108ce611e26565b6040518082815260200191505060405180910390f35b610910600480360360208110156108fa57600080fd5b8101908080359060200190929190505050611e33565b604051808473ffffffffffffffffffffffffffffffffffffffff1673ffffffffffffffffffffffffffffffffffffffff168152602001838152602001828152602001935050505060405180910390f35b6109ae6004803603604081101561097657600080fd5b81019080803573ffffffffffffffffffffffffffffffffffffffff169060200190929190803515159060200190929190505050611e7d565b005b6109dc600480360360208110156109c657600080fd5b8101908080359060200190929190505050612035565b6040518082815260200191505060405180910390f35b6109fa612055565b6040518082815260200191505060405180910390f35b610b1360048036036080811015610a2657600080fd5b81019080803573ffffffffffffffffffffffffffffffffffffffff169060200190929190803573ffffffffffffffffffffffffffffffffffffffff1690602001909291908035906020019092919080359060200190640100000000811115610a8d57600080fd5b820183602082011115610a9f57600080fd5b80359060200191846001830284011164010000000083111715610ac157600080fd5b91908080601f016020809104026020016040519081016040528093929190818152602001838380828437600081840152601f19601f82011690508083019250505050505050919291929050505061205b565b005b610b4160048036036020811015610b2b57600080fd5b81019080803590602001909291905050506120d3565b6040518080602001828103825283818151815260200191508051906020019080838360005b83811015610b81578082015181840152602081019050610b66565b50505050905090810190601f168015610bae5780820380516001836020036101000a031916815260200191505b509250505060405180910390f35b610bc46122d5565b6040518082815260200191505060405180910390f35b610c3c60048036036040811015610bf057600080fd5b81019080803573ffffffffffffffffffffffffffffffffffffffff169060200190929190803573ffffffffffffffffffffffffffffffffffffffff1690602001909291905050506124df565b604051808215151515815260200191505060405180910390f35b6000806000837bffffffffffffffffffffffffffffffffffffffffffffffffffffffff19167bffffffffffffffffffffffffffffffffffffffffffffffffffffffff1916815260200190815260200160002060009054906101000a900460ff169050919050565b606060098054600181600116156101000203166002900480601f016020809104026020016040519081016040528092919081815260200182805460018160011615610100020316600290048015610d555780601f10610d2a57610100808354040283529160200191610d55565b820191906000526020600020905b815481529060010190602001808311610d3857829003601f168201915b5050505050905090565b6000610d6a82612573565b610dbf576040517f08c379a000000000000000000000000000000000000000000000000000000000815260040180806020018281038252602c81526020018061381b602c913960400191505060405180910390fd5b6002600083815260200190815260200160002060009054906101000a900473ffffffffffffffffffffffffffffffffffffffff169050919050565b610e0381611b1f565b73ffffffffffffffffffffffffffffffffffffffff163373ffffffffffffffffffffffffffffffffffffffff1614610ea3576040517f08c379a00000000000000000000000000000000000000000000000000000000081526004018080602001828103825260098152602001807f4e6f74206f776e6572000000000000000000000000000000000000000000000081525060200191505060405180910390fd5b6000610eae826113cc565b905060008111610f26576040517f08c379a00000000000000000000000000000000000000000000000000000000081526004018080602001828103825260178152602001807f4e6f20696e74657265737420746f20776974686472617700000000000000000081525060200191505060405180910390fd5b6000610f5682610f488468056bc75e2d631000006125e590919063ffffffff16565b61266d90919063ffffffff16565b90506000610f8382601460008781526020019081526020016000206002015461266d90919063ffffffff16565b90506000600d60009054906101000a900473ffffffffffffffffffffffffffffffffffffffff1673ffffffffffffffffffffffffffffffffffffffff1663852a12e3610fdd6402540be4008561266d90919063ffffffff16565b6040518263ffffffff1660e01b815260040180828152602001915050602060405180830381600087803b15801561101357600080fd5b505af1158015611027573d6000803e3d6000fd5b505050506040513d602081101561103d57600080fd5b81019080805190602001909291905050509050600e60009054906101000a900473ffffffffffffffffffffffffffffffffffffffff1673ffffffffffffffffffffffffffffffffffffffff1663a9059cbb33836040518363ffffffff1660e01b8152600401808373ffffffffffffffffffffffffffffffffffffffff1673ffffffffffffffffffffffffffffffffffffffff16815260200182815260200192505050602060405180830381600087803b1580156110f957600080fd5b505af115801561110d573d6000803e3d6000fd5b505050506040513d602081101561112357600080fd5b8101908080519060200190929190505050505050505050565b600061114782611b1f565b90508073ffffffffffffffffffffffffffffffffffffffff168373ffffffffffffffffffffffffffffffffffffffff1614156111ce576040517f08c379a000000000000000000000000000000000000000000000000000000000815260040180806020018281038252602181526020018061389f6021913960400191505060405180910390fd5b8073ffffffffffffffffffffffffffffffffffffffff166111ed6126b7565b73ffffffffffffffffffffffffffffffffffffffff16148061121c575061121b816112166126b7565b6124df565b5b611271576040517f08c379a000000000000000000000000000000000000000000000000000000000815260040180806020018281038252603881526020018061376f6038913960400191505060405180910390fd5b826002600084815260200190815260200160002060006101000a81548173ffffffffffffffffffffffffffffffffffffffff021916908373ffffffffffffffffffffffffffffffffffffffff160217905550818373ffffffffffffffffffffffffffffffffffffffff168273ffffffffffffffffffffffffffffffffffffffff167f8c5be1e5ebec7d5bd14f71427d1e84f3dd0314c0f7b2291e5b200ac8c7c3b92560405160405180910390a4505050565b600f60009054906101000a900473ffffffffffffffffffffffffffffffffffffffff1681565b6000600780549050905090565b6113676113616126b7565b826126bf565b6113bc576040517f08c379a00000000000000000000000000000000000000000000000000000000081526004018080602001828103825260318152602001806138c06031913960400191505060405180910390fd5b6113c78383836127b3565b505050565b6000806113fa6103e860146000868152602001908152602001600020600201546127d790919063ffffffff16565b905060006114186114096122d5565b8361266d90919063ffffffff16565b905068056bc75e2d63100000810392505050919050565b600061143a83611c8f565b8210611491576040517f08c379a000000000000000000000000000000000000000000000000000000000815260040180806020018281038252602b8152602001806136c2602b913960400191505060405180910390fd5b600560008473ffffffffffffffffffffffffffffffffffffffff1673ffffffffffffffffffffffffffffffffffffffff16815260200190815260200160002082815481106114db57fe5b9060005260206000200154905092915050565b60125481565b61150f8383836040518060200160405280600081525061205b565b505050565b3360146000601054815260200190815260200160002060000160006101000a81548173ffffffffffffffffffffffffffffffffffffffff021916908373ffffffffffffffffffffffffffffffffffffffff1602179055504260146000601054815260200190815260200160002060010181905550600e60009054906101000a900473ffffffffffffffffffffffffffffffffffffffff1673ffffffffffffffffffffffffffffffffffffffff166308bca5663068056bc75e2d631000006040518363ffffffff1660e01b8152600401808373ffffffffffffffffffffffffffffffffffffffff1673ffffffffffffffffffffffffffffffffffffffff16815260200182815260200192505050600060405180830381600087803b15801561163a57600080fd5b505af115801561164e573d6000803e3d6000fd5b50505050600e60009054906101000a900473ffffffffffffffffffffffffffffffffffffffff1673ffffffffffffffffffffffffffffffffffffffff1663095ea7b3600d60009054906101000a900473ffffffffffffffffffffffffffffffffffffffff1668056bc75e2d631000006040518363ffffffff1660e01b8152600401808373ffffffffffffffffffffffffffffffffffffffff1673ffffffffffffffffffffffffffffffffffffffff16815260200182815260200192505050602060405180830381600087803b15801561172657600080fd5b505af115801561173a573d6000803e3d6000fd5b505050506040513d602081101561175057600080fd5b81019080805190602001909291905050505060006118556402540be400600d60009054906101000a900473ffffffffffffffffffffffffffffffffffffffff1673ffffffffffffffffffffffffffffffffffffffff166370a08231306040518263ffffffff1660e01b8152600401808273ffffffffffffffffffffffffffffffffffffffff1673ffffffffffffffffffffffffffffffffffffffff16815260200191505060206040518083038186803b15801561180c57600080fd5b505afa158015611820573d6000803e3d6000fd5b505050506040513d602081101561183657600080fd5b81019080805190602001909291905050506127d790919063ffffffff16565b90506000600d60009054906101000a900473ffffffffffffffffffffffffffffffffffffffff1673ffffffffffffffffffffffffffffffffffffffff1663a0712d6868056bc75e2d631000006040518263ffffffff1660e01b815260040180828152602001915050602060405180830381600087803b1580156118d757600080fd5b505af11580156118eb573d6000803e3d6000fd5b505050506040513d602081101561190157600080fd5b81019080805190602001909291905050501461191957fe5b6000611a0c6402540be400600d60009054906101000a900473ffffffffffffffffffffffffffffffffffffffff1673ffffffffffffffffffffffffffffffffffffffff166370a08231306040518263ffffffff1660e01b8152600401808273ffffffffffffffffffffffffffffffffffffffff1673ffffffffffffffffffffffffffffffffffffffff16815260200191505060206040518083038186803b1580156119c357600080fd5b505afa1580156119d7573d6000803e3d6000fd5b505050506040513d60208110156119ed57600080fd5b81019080805190602001909291905050506127d790919063ffffffff16565b905081810360146000601054815260200190815260200160002060020181905550611a393360105461285d565b611a4f60016010546125e590919063ffffffff16565b6010819055505050565b60135481565b6000611a69611349565b8210611ac0576040517f08c379a000000000000000000000000000000000000000000000000000000000815260040180806020018281038252602c8152602001806138f1602c913960400191505060405180910390fd5b60078281548110611acd57fe5b90600052602060002001549050919050565b60006014600083815260200190815260200160002060000160009054906101000a900473ffffffffffffffffffffffffffffffffffffffff169050919050565b6000806001600084815260200190815260200160002060009054906101000a900473ffffffffffffffffffffffffffffffffffffffff169050600073ffffffffffffffffffffffffffffffffffffffff168173ffffffffffffffffffffffffffffffffffffffff161415611bde576040517f08c379a00000000000000000000000000000000000000000000000000000000081526004018080602001828103825260298152602001806137d16029913960400191505060405180910390fd5b80915050919050565b6060600b8054600181600116156101000203166002900480601f016020809104026020016040519081016040528092919081815260200182805460018160011615610100020316600290048015611c7f5780601f10611c5457610100808354040283529160200191611c7f565b820191906000526020600020905b815481529060010190602001808311611c6257829003601f168201915b5050505050905090565b60105481565b60008073ffffffffffffffffffffffffffffffffffffffff168273ffffffffffffffffffffffffffffffffffffffff161415611d16576040517f08c379a000000000000000000000000000000000000000000000000000000000815260040180806020018281038252602a8152602001806137a7602a913960400191505060405180910390fd5b611d5d600360008473ffffffffffffffffffffffffffffffffffffffff1673ffffffffffffffffffffffffffffffffffffffff16815260200190815260200160002061287e565b9050919050565b600060146000838152602001908152602001600020600201549050919050565b6060600a8054600181600116156101000203166002900480601f016020809104026020016040519081016040528092919081815260200182805460018160011615610100020316600290048015611e1c5780601f10611df157610100808354040283529160200191611e1c565b820191906000526020600020905b815481529060010190602001808311611dff57829003601f168201915b5050505050905090565b68056bc75e2d6310000081565b60146020528060005260406000206000915090508060000160009054906101000a900473ffffffffffffffffffffffffffffffffffffffff16908060010154908060020154905083565b611e856126b7565b73ffffffffffffffffffffffffffffffffffffffff168273ffffffffffffffffffffffffffffffffffffffff161415611f26576040517f08c379a00000000000000000000000000000000000000000000000000000000081526004018080602001828103825260198152602001807f4552433732313a20617070726f766520746f2063616c6c65720000000000000081525060200191505060405180910390fd5b8060046000611f336126b7565b73ffffffffffffffffffffffffffffffffffffffff1673ffffffffffffffffffffffffffffffffffffffff16815260200190815260200160002060008473ffffffffffffffffffffffffffffffffffffffff1673ffffffffffffffffffffffffffffffffffffffff16815260200190815260200160002060006101000a81548160ff0219169083151502179055508173ffffffffffffffffffffffffffffffffffffffff16611fe06126b7565b73ffffffffffffffffffffffffffffffffffffffff167f17307eab39ab6107e8899845ad3d59bd9653f200f220920489ca2b5937696c3183604051808215151515815260200191505060405180910390a35050565b600060146000838152602001908152602001600020600101549050919050565b60115481565b61206c6120666126b7565b836126bf565b6120c1576040517f08c379a00000000000000000000000000000000000000000000000000000000081526004018080602001828103825260318152602001806138c06031913960400191505060405180910390fd5b6120cd8484848461288c565b50505050565b60606120de82612573565b612133576040517f08c379a000000000000000000000000000000000000000000000000000000000815260040180806020018281038252602f815260200180613870602f913960400191505060405180910390fd5b6060600c60008481526020019081526020016000208054600181600116156101000203166002900480601f0160208091040260200160405190810160405280929190818152602001828054600181600116156101000203166002900480156121dc5780601f106121b1576101008083540402835291602001916121dc565b820191906000526020600020905b8154815290600101906020018083116121bf57829003601f168201915b5050505050905060008151141561220557604051806020016040528060008152509150506122d0565b600b8160405160200180838054600181600116156101000203166002900480156122665780601f10612244576101008083540402835291820191612266565b820191906000526020600020905b815481529060010190602001808311612252575b505082805190602001908083835b602083106122975780518252602082019150602081019050602083039250612274565b6001836020036101000a038019825116818451168082178552505050505050905001925050506040516020818303038152906040529150505b919050565b6000806123c96402540be400600d60009054906101000a900473ffffffffffffffffffffffffffffffffffffffff1673ffffffffffffffffffffffffffffffffffffffff166370a08231306040518263ffffffff1660e01b8152600401808273ffffffffffffffffffffffffffffffffffffffff1673ffffffffffffffffffffffffffffffffffffffff16815260200191505060206040518083038186803b15801561238057600080fd5b505afa158015612394573d6000803e3d6000fd5b505050506040513d60208110156123aa57600080fd5b81019080805190602001909291905050506127d790919063ffffffff16565b905060006123e26103e8836127d790919063ffffffff16565b90506000600d60009054906101000a900473ffffffffffffffffffffffffffffffffffffffff1673ffffffffffffffffffffffffffffffffffffffff16633af9e669306040518263ffffffff1660e01b8152600401808273ffffffffffffffffffffffffffffffffffffffff1673ffffffffffffffffffffffffffffffffffffffff168152602001915050602060405180830381600087803b15801561248757600080fd5b505af115801561249b573d6000803e3d6000fd5b505050506040513d60208110156124b157600080fd5b810190808051906020019092919050505090506124d7818361266d90919063ffffffff16565b935050505090565b6000600460008473ffffffffffffffffffffffffffffffffffffffff1673ffffffffffffffffffffffffffffffffffffffff16815260200190815260200160002060008373ffffffffffffffffffffffffffffffffffffffff1673ffffffffffffffffffffffffffffffffffffffff16815260200190815260200160002060009054906101000a900460ff16905092915050565b6000806001600084815260200190815260200160002060009054906101000a900473ffffffffffffffffffffffffffffffffffffffff169050600073ffffffffffffffffffffffffffffffffffffffff168173ffffffffffffffffffffffffffffffffffffffff161415915050919050565b600080828401905083811015612663576040517f08c379a000000000000000000000000000000000000000000000000000000000815260040180806020018281038252601b8152602001807f536166654d6174683a206164646974696f6e206f766572666c6f77000000000081525060200191505060405180910390fd5b8091505092915050565b60006126af83836040518060400160405280601a81526020017f536166654d6174683a206469766973696f6e206279207a65726f0000000000008152506128fe565b905092915050565b600033905090565b60006126ca82612573565b61271f576040517f08c379a000000000000000000000000000000000000000000000000000000000815260040180806020018281038252602c815260200180613743602c913960400191505060405180910390fd5b600061272a83611b1f565b90508073ffffffffffffffffffffffffffffffffffffffff168473ffffffffffffffffffffffffffffffffffffffff16148061279957508373ffffffffffffffffffffffffffffffffffffffff1661278184610d5f565b73ffffffffffffffffffffffffffffffffffffffff16145b806127aa57506127a981856124df565b5b91505092915050565b6127be8383836129c4565b6127c88382612c1f565b6127d28282612dbd565b505050565b6000808314156127ea5760009050612857565b60008284029050828482816127fb57fe5b0414612852576040517f08c379a00000000000000000000000000000000000000000000000000000000081526004018080602001828103825260218152602001806137fa6021913960400191505060405180910390fd5b809150505b92915050565b6128678282612e84565b6128718282612dbd565b61287a8161309c565b5050565b600081600001549050919050565b6128978484846127b3565b6128a3848484846130e8565b6128f8576040517f08c379a00000000000000000000000000000000000000000000000000000000081526004018080602001828103825260328152602001806136ed6032913960400191505060405180910390fd5b50505050565b600080831182906129aa576040517f08c379a00000000000000000000000000000000000000000000000000000000081526004018080602001828103825283818151815260200191508051906020019080838360005b8381101561296f578082015181840152602081019050612954565b50505050905090810190601f16801561299c5780820380516001836020036101000a031916815260200191505b509250505060405180910390fd5b5060008385816129b657fe5b049050809150509392505050565b8273ffffffffffffffffffffffffffffffffffffffff166129e482611b1f565b73ffffffffffffffffffffffffffffffffffffffff1614612a50576040517f08c379a00000000000000000000000000000000000000000000000000000000081526004018080602001828103825260298152602001806138476029913960400191505060405180910390fd5b600073ffffffffffffffffffffffffffffffffffffffff168273ffffffffffffffffffffffffffffffffffffffff161415612ad6576040517f08c379a000000000000000000000000000000000000000000000000000000000815260040180806020018281038252602481526020018061371f6024913960400191505060405180910390fd5b612adf81613424565b612b26600360008573ffffffffffffffffffffffffffffffffffffffff1673ffffffffffffffffffffffffffffffffffffffff1681526020019081526020016000206134e2565b612b6d600360008473ffffffffffffffffffffffffffffffffffffffff1673ffffffffffffffffffffffffffffffffffffffff168152602001908152602001600020613505565b816001600083815260200190815260200160002060006101000a81548173ffffffffffffffffffffffffffffffffffffffff021916908373ffffffffffffffffffffffffffffffffffffffff160217905550808273ffffffffffffffffffffffffffffffffffffffff168473ffffffffffffffffffffffffffffffffffffffff167fddf252ad1be2c89b69c2b068fc378daa952ba7f163c4a11628f55a4df523b3ef60405160405180910390a4505050565b6000612c776001600560008673ffffffffffffffffffffffffffffffffffffffff1673ffffffffffffffffffffffffffffffffffffffff1681526020019081526020016000208054905061351b90919063ffffffff16565b9050600060066000848152602001908152602001600020549050818114612d64576000600560008673ffffffffffffffffffffffffffffffffffffffff1673ffffffffffffffffffffffffffffffffffffffff1681526020019081526020016000208381548110612ce457fe5b9060005260206000200154905080600560008773ffffffffffffffffffffffffffffffffffffffff1673ffffffffffffffffffffffffffffffffffffffff1681526020019081526020016000208381548110612d3c57fe5b9060005260206000200181905550816006600083815260200190815260200160002081905550505b600560008573ffffffffffffffffffffffffffffffffffffffff1673ffffffffffffffffffffffffffffffffffffffff168152602001908152602001600020805480919060019003612db69190613670565b5050505050565b600560008373ffffffffffffffffffffffffffffffffffffffff1673ffffffffffffffffffffffffffffffffffffffff168152602001908152602001600020805490506006600083815260200190815260200160002081905550600560008373ffffffffffffffffffffffffffffffffffffffff1673ffffffffffffffffffffffffffffffffffffffff1681526020019081526020016000208190806001815401808255809150509060018203906000526020600020016000909192909190915055505050565b600073ffffffffffffffffffffffffffffffffffffffff168273ffffffffffffffffffffffffffffffffffffffff161415612f27576040517f08c379a00000000000000000000000000000000000000000000000000000000081526004018080602001828103825260208152602001807f4552433732313a206d696e7420746f20746865207a65726f206164647265737381525060200191505060405180910390fd5b612f3081612573565b15612fa3576040517f08c379a000000000000000000000000000000000000000000000000000000000815260040180806020018281038252601c8152602001807f4552433732313a20746f6b656e20616c7265616479206d696e7465640000000081525060200191505060405180910390fd5b816001600083815260200190815260200160002060006101000a81548173ffffffffffffffffffffffffffffffffffffffff021916908373ffffffffffffffffffffffffffffffffffffffff16021790555061303c600360008473ffffffffffffffffffffffffffffffffffffffff1673ffffffffffffffffffffffffffffffffffffffff168152602001908152602001600020613505565b808273ffffffffffffffffffffffffffffffffffffffff16600073ffffffffffffffffffffffffffffffffffffffff167fddf252ad1be2c89b69c2b068fc378daa952ba7f163c4a11628f55a4df523b3ef60405160405180910390a45050565b6007805490506008600083815260200190815260200160002081905550600781908060018154018082558091505090600182039060005260206000200160009091929091909150555050565b60006131098473ffffffffffffffffffffffffffffffffffffffff16613565565b613116576001905061341c565b600060608573ffffffffffffffffffffffffffffffffffffffff168673ffffffffffffffffffffffffffffffffffffffff1663150b7a02905060e01b61315a6126b7565b898888604051602401808573ffffffffffffffffffffffffffffffffffffffff1673ffffffffffffffffffffffffffffffffffffffff1681526020018473ffffffffffffffffffffffffffffffffffffffff1673ffffffffffffffffffffffffffffffffffffffff16815260200183815260200180602001828103825283818151815260200191508051906020019080838360005b8381101561320a5780820151818401526020810190506131ef565b50505050905090810190601f1680156132375780820380516001836020036101000a031916815260200191505b5095505050505050604051602081830303815290604052907bffffffffffffffffffffffffffffffffffffffffffffffffffffffff19166020820180517bffffffffffffffffffffffffffffffffffffffffffffffffffffffff83818316178352505050506040518082805190602001908083835b602083106132cf57805182526020820191506020810190506020830392506132ac565b6001836020036101000a0380198251168184511680821785525050505050509050019150506000604051808303816000865af19150503d8060008114613331576040519150601f19603f3d011682016040523d82523d6000602084013e613336565b606091505b5091509150816133a4576000815111156133535780518082602001fd5b6040517f08c379a00000000000000000000000000000000000000000000000000000000081526004018080602001828103825260328152602001806136ed6032913960400191505060405180910390fd5b60008180602001905160208110156133bb57600080fd5b8101908080519060200190929190505050905063150b7a0260e01b7bffffffffffffffffffffffffffffffffffffffffffffffffffffffff1916817bffffffffffffffffffffffffffffffffffffffffffffffffffffffff19161493505050505b949350505050565b600073ffffffffffffffffffffffffffffffffffffffff166002600083815260200190815260200160002060009054906101000a900473ffffffffffffffffffffffffffffffffffffffff1673ffffffffffffffffffffffffffffffffffffffff16146134df5760006002600083815260200190815260200160002060006101000a81548173ffffffffffffffffffffffffffffffffffffffff021916908373ffffffffffffffffffffffffffffffffffffffff1602179055505b50565b6134fa6001826000015461351b90919063ffffffff16565b816000018190555050565b6001816000016000828254019250508190555050565b600061355d83836040518060400160405280601e81526020017f536166654d6174683a207375627472616374696f6e206f766572666c6f7700008152506135b0565b905092915050565b60008060007fc5d2460186f7233c927e7db2dcc703c0e500b653ca82273b7bfad8045d85a47060001b9050833f91508082141580156135a757506000801b8214155b92505050919050565b600083831115829061365d576040517f08c379a00000000000000000000000000000000000000000000000000000000081526004018080602001828103825283818151815260200191508051906020019080838360005b83811015613622578082015181840152602081019050613607565b50505050905090810190601f16801561364f5780820380516001836020036101000a031916815260200191505b509250505060405180910390fd5b5060008385039050809150509392505050565b81548183558181111561369757818360005260206000209182019101613696919061369c565b5b505050565b6136be91905b808211156136ba5760008160009055506001016136a2565b5090565b9056fe455243373231456e756d657261626c653a206f776e657220696e646578206f7574206f6620626f756e64734552433732313a207472616e7366657220746f206e6f6e20455243373231526563656976657220696d706c656d656e7465724552433732313a207472616e7366657220746f20746865207a65726f20616464726573734552433732313a206f70657261746f7220717565727920666f72206e6f6e6578697374656e7420746f6b656e4552433732313a20617070726f76652063616c6c6572206973206e6f74206f776e6572206e6f7220617070726f76656420666f7220616c6c4552433732313a2062616c616e636520717565727920666f7220746865207a65726f20616464726573734552433732313a206f776e657220717565727920666f72206e6f6e6578697374656e7420746f6b656e536166654d6174683a206d756c7469706c69636174696f6e206f766572666c6f774552433732313a20617070726f76656420717565727920666f72206e6f6e6578697374656e7420746f6b656e4552433732313a207472616e73666572206f6620746f6b656e2074686174206973206e6f74206f776e4552433732314d657461646174613a2055524920717565727920666f72206e6f6e6578697374656e7420746f6b656e4552433732313a20617070726f76616c20746f2063757272656e74206f776e65724552433732313a207472616e736665722063616c6c6572206973206e6f74206f776e6572206e6f7220617070726f766564455243373231456e756d657261626c653a20676c6f62616c20696e646578206f7574206f6620626f756e6473a265627a7a723158206ead1dbe281845c6e8ca7944f4098e05f6fac84918abee2bb874c2461c51e53764736f6c634300050c0032",
  "source": "pragma solidity >=0.4.21 <0.7.0;\n\nimport \"@openzeppelin/contracts/token/ERC721/ERC721Full.sol\";\nimport \"@openzeppelin/contracts/math/SafeMath.sol\";\n\n/// @title Dai contract interface\n/// @notice Various cash functions\ninterface Cash \n{\n    function approve(address _spender, uint _amount) external returns (bool);\n    function balanceOf(address _ownesr) external view returns (uint);\n    function faucet(uint _amount) external;\n    function transfer(address _to, uint _amount) external returns (bool);\n    function transferFrom(address _from, address _to, uint _amount) external returns (bool);\n    function allocateTo(address recipient, uint value) external;\n}\n\ninterface ICErc20 {\n    function mint(uint mintAmount) external returns (uint);\n    function redeemUnderlying(uint redeemAmount) external returns (uint);\n    function balanceOfUnderlying(address owner) external returns (uint);\n    function getCash() external view returns (uint);\n    function supplyRatePerBlock() external view returns (uint);\n    function balanceOf(address _ownesr) external view returns (uint);\n}\n\ncontract ClassicHodlFactory is ERC721Full {\n\n    using SafeMath for uint;\n\n    ICErc20 cToken;\n    Cash underlying;\n\n    address public cashAddress;\n\n    constructor(address _cashAddress, address _cTokenAddress) ERC721Full(\"HodlFactory\", \"HODL\") public { \n        cToken = ICErc20(_cTokenAddress); \n        underlying = Cash(_cashAddress);\n        cashAddress = _cashAddress;\n    }\n\n    uint public hodlCount = 0;\n    uint constant public oneHundredDai = 100000000000000000000;\n    uint public testingVariableA = 0;\n    uint public testingVariableB = 0;\n    uint public testingVariableC = 0;\n\n     struct hodl {\n        address owner;\n        uint purchaseTime;\n        uint cTokenBalance;\n    }\n\n    mapping (uint => hodl) public hodlTracker; \n\n    event stfu(uint indexed stfu);\n\n    function getHodlOwner(uint _hodlId) external view returns (address) {\n        return hodlTracker[_hodlId].owner;\n    }\n\n    function getHodlPurchaseTime(uint _hodlId) external view returns (uint) {\n        return hodlTracker[_hodlId].purchaseTime;\n    }\n\n    function getHodlTokenBalance(uint _hodlId) external view returns (uint) {\n        return hodlTracker[_hodlId].cTokenBalance;\n    }\n\n    // x 1000 to increase FX rate resolution\n    // x 1000 to increase FX rate resolution\n    function getFxRateTimesOneThousand() public returns (uint) {\n        uint _totalCDaiBalance = cToken.balanceOf(address(this)).mul(10000000000); // scales it up to atto cDai\n        uint _totalCDaiBalanceTimesOneThousand = _totalCDaiBalance.mul(1000); \n        uint _totalDaiBalance = cToken.balanceOfUnderlying(address(this));\n        return _totalCDaiBalanceTimesOneThousand.div(_totalDaiBalance);\n    }\n\n    function interestAvailableToWithdraw(uint _hodlId) public returns (uint) {\n        uint _cTokenBalanceTimesOneThousand = hodlTracker[_hodlId].cTokenBalance.mul(1000);\n        uint _daiBalance = _cTokenBalanceTimesOneThousand.div(getFxRateTimesOneThousand());\n        return (_daiBalance - oneHundredDai);\n    }\n\n    function buyHodl() public {\n        // UPDATE VARIABLES\n        hodlTracker[hodlCount].owner = msg.sender;\n        hodlTracker[hodlCount].purchaseTime = now;\n         // SWAP DAI FOR cDAI\n        underlying.allocateTo(address(this), oneHundredDai); // just send dai to the contract so dont need to worry about approve shit\n        underlying.approve(address(cToken), oneHundredDai);\n        uint _cTokenBalanceBefore = cToken.balanceOf(address(this)).mul(10000000000); // scales it up to atto cDai\n        assert(cToken.mint(oneHundredDai) == 0); \n        uint _cTokenBalanceAfter = cToken.balanceOf(address(this)).mul(10000000000); // scales it up to atto cDai\n        hodlTracker[hodlCount].cTokenBalance = _cTokenBalanceAfter - _cTokenBalanceBefore;\n        // // GENERATE NFT\n        _mint(msg.sender, hodlCount);\n        hodlCount = hodlCount.add(1);\n    } \n\n    function withdrawInterest(uint _hodlId) external {\n        require(msg.sender == ownerOf(_hodlId), \"Not owner\");\n        uint _interestAvailableToWithdraw = interestAvailableToWithdraw(_hodlId);\n        require(_interestAvailableToWithdraw > 0, \"No interest to withdraw\");\n        uint _denominator = (oneHundredDai.add(_interestAvailableToWithdraw)).div(_interestAvailableToWithdraw);\n        uint _cTokensToWithdraw = hodlTracker[_hodlId].cTokenBalance.div(_denominator);\n        uint _daiToReturn = cToken.redeemUnderlying(_cTokensToWithdraw.div(10000000000));\n        underlying.transfer(msg.sender ,_daiToReturn);\n        // testingVariableA = _cTokensToWithdraw;\n        // emit stfu(testingVariableA);\n    }\n\n}\n",
  "sourcePath": "/Users/mcplums/Repos/HodlFactory/contracts/HodlFactory.sol",
  "compiler": {
    "name": "solc",
    "version": "0.5.12+commit.7709ece9.Emscripten.clang"
  },
  "schemaVersion": "3.0.19",
  "updatedAt": "2020-04-01T15:56:49.449Z",
  "networkType": "ethereum",
  "devdoc": {
    "methods": {
      "approve(address,uint256)": {
        "details": "Approves another address to transfer the given token ID The zero address indicates there is no approved address. There can only be one approved address per token at a given time. Can only be called by the token owner or an approved operator.",
        "params": {
          "to": "address to be approved for the given token ID",
          "tokenId": "uint256 ID of the token to be approved"
        }
      },
      "balanceOf(address)": {
        "details": "Gets the balance of the specified address.",
        "params": {
          "owner": "address to query the balance of"
        },
        "return": "uint256 representing the amount owned by the passed address"
      },
      "baseURI()": {
        "details": "Returns the base URI set via {_setBaseURI}. This will be automatically added as a preffix in {tokenURI} to each token's URI, when they are non-empty.    * _Available since v2.5.0._"
      },
      "getApproved(uint256)": {
        "details": "Gets the approved address for a token ID, or zero if no address set Reverts if the token ID does not exist.",
        "params": {
          "tokenId": "uint256 ID of the token to query the approval of"
        },
        "return": "address currently approved for the given token ID"
      },
      "isApprovedForAll(address,address)": {
        "details": "Tells whether an operator is approved by a given owner.",
        "params": {
          "operator": "operator address which you want to query the approval of",
          "owner": "owner address which you want to query the approval of"
        },
        "return": "bool whether the given operator is approved by the given owner"
      },
      "name()": {
        "details": "Gets the token name.",
        "return": "string representing the token name"
      },
      "ownerOf(uint256)": {
        "details": "Gets the owner of the specified token ID.",
        "params": {
          "tokenId": "uint256 ID of the token to query the owner of"
        },
        "return": "address currently marked as the owner of the given token ID"
      },
      "safeTransferFrom(address,address,uint256)": {
        "details": "Safely transfers the ownership of a given token ID to another address If the target address is a contract, it must implement {IERC721Receiver-onERC721Received}, which is called upon a safe transfer, and return the magic value `bytes4(keccak256(\"onERC721Received(address,address,uint256,bytes)\"))`; otherwise, the transfer is reverted. Requires the msg.sender to be the owner, approved, or operator",
        "params": {
          "from": "current owner of the token",
          "to": "address to receive the ownership of the given token ID",
          "tokenId": "uint256 ID of the token to be transferred"
        }
      },
      "safeTransferFrom(address,address,uint256,bytes)": {
        "details": "Safely transfers the ownership of a given token ID to another address If the target address is a contract, it must implement {IERC721Receiver-onERC721Received}, which is called upon a safe transfer, and return the magic value `bytes4(keccak256(\"onERC721Received(address,address,uint256,bytes)\"))`; otherwise, the transfer is reverted. Requires the _msgSender() to be the owner, approved, or operator",
        "params": {
          "_data": "bytes data to send along with a safe transfer check",
          "from": "current owner of the token",
          "to": "address to receive the ownership of the given token ID",
          "tokenId": "uint256 ID of the token to be transferred"
        }
      },
      "setApprovalForAll(address,bool)": {
        "details": "Sets or unsets the approval of a given operator An operator is allowed to transfer all tokens of the sender on their behalf.",
        "params": {
          "approved": "representing the status of the approval to be set",
          "to": "operator address to set the approval"
        }
      },
      "supportsInterface(bytes4)": {
        "details": "See {IERC165-supportsInterface}.     * Time complexity O(1), guaranteed to always use less than 30 000 gas."
      },
      "symbol()": {
        "details": "Gets the token symbol.",
        "return": "string representing the token symbol"
      },
      "tokenByIndex(uint256)": {
        "details": "Gets the token ID at a given index of all the tokens in this contract Reverts if the index is greater or equal to the total number of tokens.",
        "params": {
          "index": "uint256 representing the index to be accessed of the tokens list"
        },
        "return": "uint256 token ID at the given index of the tokens list"
      },
      "tokenOfOwnerByIndex(address,uint256)": {
        "details": "Gets the token ID at a given index of the tokens list of the requested owner.",
        "params": {
          "index": "uint256 representing the index to be accessed of the requested tokens list",
          "owner": "address owning the tokens list to be accessed"
        },
        "return": "uint256 token ID at the given index of the tokens list owned by the requested address"
      },
      "tokenURI(uint256)": {
        "details": "Returns the URI for a given token ID. May return an empty string.     * If the token's URI is non-empty and a base URI was set (via {_setBaseURI}), it will be added to the token ID's URI as a prefix.     * Reverts if the token ID does not exist."
      },
      "totalSupply()": {
        "details": "Gets the total amount of tokens stored by the contract.",
        "return": "uint256 representing the total amount of tokens"
      },
      "transferFrom(address,address,uint256)": {
        "details": "Transfers the ownership of a given token ID to another address. Usage of this method is discouraged, use {safeTransferFrom} whenever possible. Requires the msg.sender to be the owner, approved, or operator.",
        "params": {
          "from": "current owner of the token",
          "to": "address to receive the ownership of the given token ID",
          "tokenId": "uint256 ID of the token to be transferred"
        }
      }
    }
  },
  "userdoc": {
    "methods": {}
  }
}