{
  "contractName": "ClassicHodlFactory",
  "abi": [
    {
      "inputs": [
        {
          "internalType": "address",
          "name": "_cashAddress",
          "type": "address"
        },
        {
          "internalType": "address",
          "name": "_aTokenAddress",
          "type": "address"
        },
        {
          "internalType": "address",
          "name": "_aaveLpAddress",
          "type": "address"
        },
        {
          "internalType": "address",
          "name": "_aaveLpcoreAddress",
          "type": "address"
        }
      ],
      "payable": false,
      "stateMutability": "nonpayable",
      "type": "constructor"
    },
    {
      "anonymous": false,
      "inputs": [
        {
          "indexed": true,
          "internalType": "address",
          "name": "owner",
          "type": "address"
        },
        {
          "indexed": true,
          "internalType": "address",
          "name": "approved",
          "type": "address"
        },
        {
          "indexed": true,
          "internalType": "uint256",
          "name": "tokenId",
          "type": "uint256"
        }
      ],
      "name": "Approval",
      "type": "event"
    },
    {
      "anonymous": false,
      "inputs": [
        {
          "indexed": true,
          "internalType": "address",
          "name": "owner",
          "type": "address"
        },
        {
          "indexed": true,
          "internalType": "address",
          "name": "operator",
          "type": "address"
        },
        {
          "indexed": false,
          "internalType": "bool",
          "name": "approved",
          "type": "bool"
        }
      ],
      "name": "ApprovalForAll",
      "type": "event"
    },
    {
      "anonymous": false,
      "inputs": [
        {
          "indexed": true,
          "internalType": "address",
          "name": "from",
          "type": "address"
        },
        {
          "indexed": true,
          "internalType": "address",
          "name": "to",
          "type": "address"
        },
        {
          "indexed": true,
          "internalType": "uint256",
          "name": "tokenId",
          "type": "uint256"
        }
      ],
      "name": "Transfer",
      "type": "event"
    },
    {
      "constant": false,
      "inputs": [
        {
          "internalType": "address",
          "name": "to",
          "type": "address"
        },
        {
          "internalType": "uint256",
          "name": "tokenId",
          "type": "uint256"
        }
      ],
      "name": "approve",
      "outputs": [],
      "payable": false,
      "stateMutability": "nonpayable",
      "type": "function"
    },
    {
      "constant": true,
      "inputs": [],
      "name": "averageTimeLastWithdrawn",
      "outputs": [
        {
          "internalType": "uint256",
          "name": "",
          "type": "uint256"
        }
      ],
      "payable": false,
      "stateMutability": "view",
      "type": "function"
    },
    {
      "constant": true,
      "inputs": [
        {
          "internalType": "address",
          "name": "owner",
          "type": "address"
        }
      ],
      "name": "balanceOf",
      "outputs": [
        {
          "internalType": "uint256",
          "name": "",
          "type": "uint256"
        }
      ],
      "payable": false,
      "stateMutability": "view",
      "type": "function"
    },
    {
      "constant": true,
      "inputs": [],
      "name": "baseURI",
      "outputs": [
        {
          "internalType": "string",
          "name": "",
          "type": "string"
        }
      ],
      "payable": false,
      "stateMutability": "view",
      "type": "function"
    },
    {
      "constant": true,
      "inputs": [
        {
          "internalType": "uint256",
          "name": "tokenId",
          "type": "uint256"
        }
      ],
      "name": "getApproved",
      "outputs": [
        {
          "internalType": "address",
          "name": "",
          "type": "address"
        }
      ],
      "payable": false,
      "stateMutability": "view",
      "type": "function"
    },
    {
      "constant": true,
      "inputs": [],
      "name": "hodlCount",
      "outputs": [
        {
          "internalType": "uint256",
          "name": "",
          "type": "uint256"
        }
      ],
      "payable": false,
      "stateMutability": "view",
      "type": "function"
    },
    {
      "constant": true,
      "inputs": [
        {
          "internalType": "uint256",
          "name": "",
          "type": "uint256"
        }
      ],
      "name": "hodlProperties",
      "outputs": [
        {
          "internalType": "uint256",
          "name": "purchaseTime",
          "type": "uint256"
        },
        {
          "internalType": "uint256",
          "name": "interestLastWithdrawnTime",
          "type": "uint256"
        },
        {
          "internalType": "string",
          "name": "name",
          "type": "string"
        }
      ],
      "payable": false,
      "stateMutability": "view",
      "type": "function"
    },
    {
      "constant": true,
      "inputs": [
        {
          "internalType": "address",
          "name": "owner",
          "type": "address"
        },
        {
          "internalType": "address",
          "name": "operator",
          "type": "address"
        }
      ],
      "name": "isApprovedForAll",
      "outputs": [
        {
          "internalType": "bool",
          "name": "",
          "type": "bool"
        }
      ],
      "payable": false,
      "stateMutability": "view",
      "type": "function"
    },
    {
      "constant": true,
      "inputs": [],
      "name": "latestHodlId",
      "outputs": [
        {
          "internalType": "uint256",
          "name": "",
          "type": "uint256"
        }
      ],
      "payable": false,
      "stateMutability": "view",
      "type": "function"
    },
    {
      "constant": true,
      "inputs": [],
      "name": "name",
      "outputs": [
        {
          "internalType": "string",
          "name": "",
          "type": "string"
        }
      ],
      "payable": false,
      "stateMutability": "view",
      "type": "function"
    },
    {
      "constant": true,
      "inputs": [],
      "name": "oneHundredDai",
      "outputs": [
        {
          "internalType": "uint256",
          "name": "",
          "type": "uint256"
        }
      ],
      "payable": false,
      "stateMutability": "view",
      "type": "function"
    },
    {
      "constant": true,
      "inputs": [
        {
          "internalType": "uint256",
          "name": "tokenId",
          "type": "uint256"
        }
      ],
      "name": "ownerOf",
      "outputs": [
        {
          "internalType": "address",
          "name": "",
          "type": "address"
        }
      ],
      "payable": false,
      "stateMutability": "view",
      "type": "function"
    },
    {
      "constant": false,
      "inputs": [
        {
          "internalType": "address",
          "name": "from",
          "type": "address"
        },
        {
          "internalType": "address",
          "name": "to",
          "type": "address"
        },
        {
          "internalType": "uint256",
          "name": "tokenId",
          "type": "uint256"
        }
      ],
      "name": "safeTransferFrom",
      "outputs": [],
      "payable": false,
      "stateMutability": "nonpayable",
      "type": "function"
    },
    {
      "constant": false,
      "inputs": [
        {
          "internalType": "address",
          "name": "from",
          "type": "address"
        },
        {
          "internalType": "address",
          "name": "to",
          "type": "address"
        },
        {
          "internalType": "uint256",
          "name": "tokenId",
          "type": "uint256"
        },
        {
          "internalType": "bytes",
          "name": "_data",
          "type": "bytes"
        }
      ],
      "name": "safeTransferFrom",
      "outputs": [],
      "payable": false,
      "stateMutability": "nonpayable",
      "type": "function"
    },
    {
      "constant": false,
      "inputs": [
        {
          "internalType": "address",
          "name": "to",
          "type": "address"
        },
        {
          "internalType": "bool",
          "name": "approved",
          "type": "bool"
        }
      ],
      "name": "setApprovalForAll",
      "outputs": [],
      "payable": false,
      "stateMutability": "nonpayable",
      "type": "function"
    },
    {
      "constant": true,
      "inputs": [
        {
          "internalType": "bytes4",
          "name": "interfaceId",
          "type": "bytes4"
        }
      ],
      "name": "supportsInterface",
      "outputs": [
        {
          "internalType": "bool",
          "name": "",
          "type": "bool"
        }
      ],
      "payable": false,
      "stateMutability": "view",
      "type": "function"
    },
    {
      "constant": true,
      "inputs": [],
      "name": "symbol",
      "outputs": [
        {
          "internalType": "string",
          "name": "",
          "type": "string"
        }
      ],
      "payable": false,
      "stateMutability": "view",
      "type": "function"
    },
    {
      "constant": true,
      "inputs": [],
      "name": "testingVariableA",
      "outputs": [
        {
          "internalType": "uint256",
          "name": "",
          "type": "uint256"
        }
      ],
      "payable": false,
      "stateMutability": "view",
      "type": "function"
    },
    {
      "constant": true,
      "inputs": [],
      "name": "testingVariableB",
      "outputs": [
        {
          "internalType": "uint256",
          "name": "",
          "type": "uint256"
        }
      ],
      "payable": false,
      "stateMutability": "view",
      "type": "function"
    },
    {
      "constant": true,
      "inputs": [],
      "name": "testingVariableC",
      "outputs": [
        {
          "internalType": "uint256",
          "name": "",
          "type": "uint256"
        }
      ],
      "payable": false,
      "stateMutability": "view",
      "type": "function"
    },
    {
      "constant": true,
      "inputs": [],
      "name": "testingVariableD",
      "outputs": [
        {
          "internalType": "uint256",
          "name": "",
          "type": "uint256"
        }
      ],
      "payable": false,
      "stateMutability": "view",
      "type": "function"
    },
    {
      "constant": true,
      "inputs": [],
      "name": "testingVariableE",
      "outputs": [
        {
          "internalType": "uint256",
          "name": "",
          "type": "uint256"
        }
      ],
      "payable": false,
      "stateMutability": "view",
      "type": "function"
    },
    {
      "constant": true,
      "inputs": [
        {
          "internalType": "uint256",
          "name": "index",
          "type": "uint256"
        }
      ],
      "name": "tokenByIndex",
      "outputs": [
        {
          "internalType": "uint256",
          "name": "",
          "type": "uint256"
        }
      ],
      "payable": false,
      "stateMutability": "view",
      "type": "function"
    },
    {
      "constant": true,
      "inputs": [
        {
          "internalType": "address",
          "name": "owner",
          "type": "address"
        },
        {
          "internalType": "uint256",
          "name": "index",
          "type": "uint256"
        }
      ],
      "name": "tokenOfOwnerByIndex",
      "outputs": [
        {
          "internalType": "uint256",
          "name": "",
          "type": "uint256"
        }
      ],
      "payable": false,
      "stateMutability": "view",
      "type": "function"
    },
    {
      "constant": true,
      "inputs": [
        {
          "internalType": "uint256",
          "name": "tokenId",
          "type": "uint256"
        }
      ],
      "name": "tokenURI",
      "outputs": [
        {
          "internalType": "string",
          "name": "",
          "type": "string"
        }
      ],
      "payable": false,
      "stateMutability": "view",
      "type": "function"
    },
    {
      "constant": true,
      "inputs": [],
      "name": "totalSupply",
      "outputs": [
        {
          "internalType": "uint256",
          "name": "",
          "type": "uint256"
        }
      ],
      "payable": false,
      "stateMutability": "view",
      "type": "function"
    },
    {
      "constant": false,
      "inputs": [
        {
          "internalType": "address",
          "name": "from",
          "type": "address"
        },
        {
          "internalType": "address",
          "name": "to",
          "type": "address"
        },
        {
          "internalType": "uint256",
          "name": "tokenId",
          "type": "uint256"
        }
      ],
      "name": "transferFrom",
      "outputs": [],
      "payable": false,
      "stateMutability": "nonpayable",
      "type": "function"
    },
    {
      "constant": true,
      "inputs": [
        {
          "internalType": "uint256",
          "name": "_hodlId",
          "type": "uint256"
        }
      ],
      "name": "getHodlPurchaseTime",
      "outputs": [
        {
          "internalType": "uint256",
          "name": "",
          "type": "uint256"
        }
      ],
      "payable": false,
      "stateMutability": "view",
      "type": "function"
    },
    {
      "constant": true,
      "inputs": [
        {
          "internalType": "uint256",
          "name": "_hodlId",
          "type": "uint256"
        }
      ],
      "name": "getHodlName",
      "outputs": [
        {
          "internalType": "string",
          "name": "",
          "type": "string"
        }
      ],
      "payable": false,
      "stateMutability": "view",
      "type": "function"
    },
    {
      "constant": true,
      "inputs": [],
      "name": "getAdaiBalance",
      "outputs": [
        {
          "internalType": "uint256",
          "name": "",
          "type": "uint256"
        }
      ],
      "payable": false,
      "stateMutability": "view",
      "type": "function"
    },
    {
      "constant": true,
      "inputs": [],
      "name": "getHodlsOwned",
      "outputs": [
        {
          "internalType": "uint256[]",
          "name": "",
          "type": "uint256[]"
        }
      ],
      "payable": false,
      "stateMutability": "view",
      "type": "function"
    },
    {
      "constant": true,
      "inputs": [],
      "name": "getHodlsDeleted",
      "outputs": [
        {
          "internalType": "uint256[]",
          "name": "",
          "type": "uint256[]"
        }
      ],
      "payable": false,
      "stateMutability": "view",
      "type": "function"
    },
    {
      "constant": false,
      "inputs": [
        {
          "internalType": "string",
          "name": "_name",
          "type": "string"
        }
      ],
      "name": "createHodl",
      "outputs": [],
      "payable": false,
      "stateMutability": "nonpayable",
      "type": "function"
    },
    {
      "constant": true,
      "inputs": [
        {
          "internalType": "uint256",
          "name": "_hodlId",
          "type": "uint256"
        }
      ],
      "name": "getInterestAvailableToWithdraw",
      "outputs": [
        {
          "internalType": "uint256",
          "name": "",
          "type": "uint256"
        }
      ],
      "payable": false,
      "stateMutability": "view",
      "type": "function"
    },
    {
      "constant": false,
      "inputs": [
        {
          "internalType": "uint256",
          "name": "_hodlId",
          "type": "uint256"
        }
      ],
      "name": "withdrawInterest",
      "outputs": [],
      "payable": false,
      "stateMutability": "nonpayable",
      "type": "function"
    },
    {
      "constant": false,
      "inputs": [
        {
          "internalType": "uint256",
          "name": "_hodlId",
          "type": "uint256"
        }
      ],
      "name": "destroyHodl",
      "outputs": [],
      "payable": false,
      "stateMutability": "nonpayable",
      "type": "function"
    }
  ],
  "bytecode": "0x6080604052600060115560006012556000601355604560145560006015556000601655600060175560006018553480156200003957600080fd5b50604051620046c8380380620046c8833981810160405260808110156200005f57600080fd5b81019080805190602001909291908051906020019092919080519060200190929190805190602001909291905050506040518060400160405280600b81526020017f486f646c466163746f72790000000000000000000000000000000000000000008152506040518060400160405280600481526020017f484f444c000000000000000000000000000000000000000000000000000000008152508181620001146301ffc9a760e01b620002a060201b60201c565b6200012c6380ac58cd60e01b620002a060201b60201c565b6200014463780e9d6360e01b620002a060201b60201c565b81600990805190602001906200015c929190620003a9565b5080600a908051906020019062000175929190620003a9565b506200018e635b5e139f60e01b620002a060201b60201c565b5050505083600d60006101000a81548173ffffffffffffffffffffffffffffffffffffffff021916908373ffffffffffffffffffffffffffffffffffffffff16021790555082600e60006101000a81548173ffffffffffffffffffffffffffffffffffffffff021916908373ffffffffffffffffffffffffffffffffffffffff16021790555081600f60006101000a81548173ffffffffffffffffffffffffffffffffffffffff021916908373ffffffffffffffffffffffffffffffffffffffff16021790555080601060006101000a81548173ffffffffffffffffffffffffffffffffffffffff021916908373ffffffffffffffffffffffffffffffffffffffff1602179055505050505062000458565b63ffffffff60e01b817bffffffffffffffffffffffffffffffffffffffffffffffffffffffff191614156200033d576040517f08c379a000000000000000000000000000000000000000000000000000000000815260040180806020018281038252601c8152602001807f4552433136353a20696e76616c696420696e746572666163652069640000000081525060200191505060405180910390fd5b6001600080837bffffffffffffffffffffffffffffffffffffffffffffffffffffffff19167bffffffffffffffffffffffffffffffffffffffffffffffffffffffff1916815260200190815260200160002060006101000a81548160ff02191690831515021790555050565b828054600181600116156101000203166002900490600052602060002090601f016020900481019282601f10620003ec57805160ff19168380011785556200041d565b828001600101855582156200041d579182015b828111156200041c578251825591602001919060010190620003ff565b5b5090506200042c919062000430565b5090565b6200045591905b808211156200045157600081600090555060010162000437565b5090565b90565b61426080620004686000396000f3fe608060405234801561001057600080fd5b506004361061021c5760003560e01c8063663922e211610125578063a5080bdd116100ad578063c87b56dd1161007c578063c87b56dd14610be5578063ce35b7d114610c8c578063d3d125b214610d33578063e1f2877614610d51578063e985e9c514610e0c5761021c565b8063a5080bdd146109cb578063aac13c3d14610a80578063b0aa089114610ac2578063b88d4fde14610ae05761021c565b806370a08231116100f457806370a082311461086457806382221907146108bc57806395d89b41146108da5780639709e7381461095d578063a22cb4651461097b5761021c565b8063663922e2146107635780636c0360eb146107a55780636c49c786146108285780636ebcf0c7146108465761021c565b8063291eeebf116101a85780634adce894116101775780634adce894146106185780634b704921146106365780634f6ccce714610654578063630e825a146106965780636352211e146106f55761021c565b8063291eeebf1461050c5780632f745c591461052a578063369b79e91461058c57806342842e0e146105aa5761021c565b806308669aab116101ef57806308669aab146103a5578063095ea7b3146103d357806318160ddd146104215780631fc154ba1461043f57806323b872dd1461049e5761021c565b806301ffaabd1461022157806301ffc9a71461024f57806306fdde03146102b4578063081812fc14610337575b600080fd5b61024d6004803603602081101561023757600080fd5b8101908080359060200190929190505050610e88565b005b61029a6004803603602081101561026557600080fd5b8101908080357bffffffffffffffffffffffffffffffffffffffffffffffffffffffff191690602001909291905050506111dc565b604051808215151515815260200191505060405180910390f35b6102bc611243565b6040518080602001828103825283818151815260200191508051906020019080838360005b838110156102fc5780820151818401526020810190506102e1565b50505050905090810190601f1680156103295780820380516001836020036101000a031916815260200191505b509250505060405180910390f35b6103636004803603602081101561034d57600080fd5b81019080803590602001909291905050506112e5565b604051808273ffffffffffffffffffffffffffffffffffffffff1673ffffffffffffffffffffffffffffffffffffffff16815260200191505060405180910390f35b6103d1600480360360208110156103bb57600080fd5b8101908080359060200190929190505050611380565b005b61041f600480360360408110156103e957600080fd5b81019080803573ffffffffffffffffffffffffffffffffffffffff1690602001909291908035906020019092919050505061159d565b005b610429611784565b6040518082815260200191505060405180910390f35b610447611791565b6040518080602001828103825283818151815260200191508051906020019060200280838360005b8381101561048a57808201518184015260208101905061046f565b505050509050019250505060405180910390f35b61050a600480360360608110156104b457600080fd5b81019080803573ffffffffffffffffffffffffffffffffffffffff169060200190929190803573ffffffffffffffffffffffffffffffffffffffff16906020019092919080359060200190929190505050611826565b005b61051461189c565b6040518082815260200191505060405180910390f35b6105766004803603604081101561054057600080fd5b81019080803573ffffffffffffffffffffffffffffffffffffffff169060200190929190803590602001909291905050506118a2565b6040518082815260200191505060405180910390f35b610594611961565b6040518082815260200191505060405180910390f35b610616600480360360608110156105c057600080fd5b81019080803573ffffffffffffffffffffffffffffffffffffffff169060200190929190803573ffffffffffffffffffffffffffffffffffffffff16906020019092919080359060200190929190505050611967565b005b610620611987565b6040518082815260200191505060405180910390f35b61063e61198d565b6040518082815260200191505060405180910390f35b6106806004803603602081101561066a57600080fd5b8101908080359060200190929190505050611993565b6040518082815260200191505060405180910390f35b61069e611a13565b6040518080602001828103825283818151815260200191508051906020019060200280838360005b838110156106e15780820151818401526020810190506106c6565b505050509050019250505060405180910390f35b6107216004803603602081101561070b57600080fd5b8101908080359060200190929190505050611aa8565b604051808273ffffffffffffffffffffffffffffffffffffffff1673ffffffffffffffffffffffffffffffffffffffff16815260200191505060405180910390f35b61078f6004803603602081101561077957600080fd5b8101908080359060200190929190505050611b70565b6040518082815260200191505060405180910390f35b6107ad611d13565b6040518080602001828103825283818151815260200191508051906020019080838360005b838110156107ed5780820151818401526020810190506107d2565b50505050905090810190601f16801561081a5780820380516001836020036101000a031916815260200191505b509250505060405180910390f35b610830611db5565b6040518082815260200191505060405180910390f35b61084e611e96565b6040518082815260200191505060405180910390f35b6108a66004803603602081101561087a57600080fd5b81019080803573ffffffffffffffffffffffffffffffffffffffff169060200190929190505050611e9c565b6040518082815260200191505060405180910390f35b6108c4611f71565b6040518082815260200191505060405180910390f35b6108e2611f77565b6040518080602001828103825283818151815260200191508051906020019080838360005b83811015610922578082015181840152602081019050610907565b50505050905090810190601f16801561094f5780820380516001836020036101000a031916815260200191505b509250505060405180910390f35b610965612019565b6040518082815260200191505060405180910390f35b6109c96004803603604081101561099157600080fd5b81019080803573ffffffffffffffffffffffffffffffffffffffff169060200190929190803515159060200190929190505050612026565b005b6109f7600480360360208110156109e157600080fd5b81019080803590602001909291905050506121de565b6040518084815260200183815260200180602001828103825283818151815260200191508051906020019080838360005b83811015610a43578082015181840152602081019050610a28565b50505050905090810190601f168015610a705780820380516001836020036101000a031916815260200191505b5094505050505060405180910390f35b610aac60048036036020811015610a9657600080fd5b81019080803590602001909291905050506122a0565b6040518082815260200191505060405180910390f35b610aca6122c0565b6040518082815260200191505060405180910390f35b610be360048036036080811015610af657600080fd5b81019080803573ffffffffffffffffffffffffffffffffffffffff169060200190929190803573ffffffffffffffffffffffffffffffffffffffff1690602001909291908035906020019092919080359060200190640100000000811115610b5d57600080fd5b820183602082011115610b6f57600080fd5b80359060200191846001830284011164010000000083111715610b9157600080fd5b91908080601f016020809104026020016040519081016040528093929190818152602001838380828437600081840152601f19601f8201169050808301925050505050505091929192905050506122c6565b005b610c1160048036036020811015610bfb57600080fd5b810190808035906020019092919050505061233e565b6040518080602001828103825283818151815260200191508051906020019080838360005b83811015610c51578082015181840152602081019050610c36565b50505050905090810190601f168015610c7e5780820380516001836020036101000a031916815260200191505b509250505060405180910390f35b610cb860048036036020811015610ca257600080fd5b8101908080359060200190929190505050612540565b6040518080602001828103825283818151815260200191508051906020019080838360005b83811015610cf8578082015181840152602081019050610cdd565b50505050905090810190601f168015610d255780820380516001836020036101000a031916815260200191505b509250505060405180910390f35b610d3b6125f8565b6040518082815260200191505060405180910390f35b610e0a60048036036020811015610d6757600080fd5b8101908080359060200190640100000000811115610d8457600080fd5b820183602082011115610d9657600080fd5b80359060200191846001830284011164010000000083111715610db857600080fd5b91908080601f016020809104026020016040519081016040528093929190818152602001838380828437600081840152601f19601f8201169050808301925050505050505091929192905050506125fe565b005b610e6e60048036036040811015610e2257600080fd5b81019080803573ffffffffffffffffffffffffffffffffffffffff169060200190929190803573ffffffffffffffffffffffffffffffffffffffff169060200190929190505050612a0c565b604051808215151515815260200191505060405180910390f35b3373ffffffffffffffffffffffffffffffffffffffff16610ea882611aa8565b73ffffffffffffffffffffffffffffffffffffffff1614610f31576040517f08c379a00000000000000000000000000000000000000000000000000000000081526004018080602001828103825260098152602001807f4e6f74206f776e6572000000000000000000000000000000000000000000000081525060200191505060405180910390fd5b610f3a81611380565b60016011541115610fb657610fab610f5e6001601154612aa090919063ffffffff16565b610f9d6019600085815260200190815260200160002060010154610f8f601154601354612aea90919063ffffffff16565b612aa090919063ffffffff16565b612b7090919063ffffffff16565b601381905550610fbf565b60006013819055505b600e60009054906101000a900473ffffffffffffffffffffffffffffffffffffffff1673ffffffffffffffffffffffffffffffffffffffff1663db006a7568056bc75e2d631000006040518263ffffffff1660e01b815260040180828152602001915050600060405180830381600087803b15801561103d57600080fd5b505af1158015611051573d6000803e3d6000fd5b50505050600d60009054906101000a900473ffffffffffffffffffffffffffffffffffffffff1673ffffffffffffffffffffffffffffffffffffffff1663a9059cbb61109c83611aa8565b68056bc75e2d631000006040518363ffffffff1660e01b8152600401808373ffffffffffffffffffffffffffffffffffffffff1673ffffffffffffffffffffffffffffffffffffffff16815260200182815260200192505050602060405180830381600087803b15801561110f57600080fd5b505af1158015611123573d6000803e3d6000fd5b505050506040513d602081101561113957600080fd5b8101908080519060200190929190505050506111616001601154612aa090919063ffffffff16565b60118190555061117081612bba565b601b60003373ffffffffffffffffffffffffffffffffffffffff1673ffffffffffffffffffffffffffffffffffffffff16815260200190815260200160002081908060018154018082558091505090600182039060005260206000200160009091929091909150555050565b6000806000837bffffffffffffffffffffffffffffffffffffffffffffffffffffffff19167bffffffffffffffffffffffffffffffffffffffffffffffffffffffff1916815260200190815260200160002060009054906101000a900460ff169050919050565b606060098054600181600116156101000203166002900480601f0160208091040260200160405190810160405280929190818152602001828054600181600116156101000203166002900480156112db5780601f106112b0576101008083540402835291602001916112db565b820191906000526020600020905b8154815290600101906020018083116112be57829003601f168201915b5050505050905090565b60006112f082612bcf565b611345576040517f08c379a000000000000000000000000000000000000000000000000000000000815260040180806020018281038252602c815260200180614105602c913960400191505060405180910390fd5b6002600083815260200190815260200160002060009054906101000a900473ffffffffffffffffffffffffffffffffffffffff169050919050565b600061138b82611b70565b905060006113a6601154601354612aea90919063ffffffff16565b905060006113e560196000868152602001908152602001600020600101546113d74285612c4190919063ffffffff16565b612aa090919063ffffffff16565b90506113fc60115482612b7090919063ffffffff16565b601381905550426019600086815260200190815260200160002060010181905550600e60009054906101000a900473ffffffffffffffffffffffffffffffffffffffff1673ffffffffffffffffffffffffffffffffffffffff1663db006a75846040518263ffffffff1660e01b815260040180828152602001915050600060405180830381600087803b15801561149257600080fd5b505af11580156114a6573d6000803e3d6000fd5b50505050600d60009054906101000a900473ffffffffffffffffffffffffffffffffffffffff1673ffffffffffffffffffffffffffffffffffffffff1663a9059cbb6114f186611aa8565b856040518363ffffffff1660e01b8152600401808373ffffffffffffffffffffffffffffffffffffffff1673ffffffffffffffffffffffffffffffffffffffff16815260200182815260200192505050602060405180830381600087803b15801561155b57600080fd5b505af115801561156f573d6000803e3d6000fd5b505050506040513d602081101561158557600080fd5b81019080805190602001909291905050505050505050565b60006115a882611aa8565b90508073ffffffffffffffffffffffffffffffffffffffff168373ffffffffffffffffffffffffffffffffffffffff16141561162f576040517f08c379a00000000000000000000000000000000000000000000000000000000081526004018080602001828103825260218152602001806141896021913960400191505060405180910390fd5b8073ffffffffffffffffffffffffffffffffffffffff1661164e612cc9565b73ffffffffffffffffffffffffffffffffffffffff16148061167d575061167c81611677612cc9565b612a0c565b5b6116d2576040517f08c379a00000000000000000000000000000000000000000000000000000000081526004018080602001828103825260388152602001806140596038913960400191505060405180910390fd5b826002600084815260200190815260200160002060006101000a81548173ffffffffffffffffffffffffffffffffffffffff021916908373ffffffffffffffffffffffffffffffffffffffff160217905550818373ffffffffffffffffffffffffffffffffffffffff168273ffffffffffffffffffffffffffffffffffffffff167f8c5be1e5ebec7d5bd14f71427d1e84f3dd0314c0f7b2291e5b200ac8c7c3b92560405160405180910390a4505050565b6000600780549050905090565b6060601b60003373ffffffffffffffffffffffffffffffffffffffff1673ffffffffffffffffffffffffffffffffffffffff16815260200190815260200160002080548060200260200160405190810160405280929190818152602001828054801561181c57602002820191906000526020600020905b815481526020019060010190808311611808575b5050505050905090565b611837611831612cc9565b82612cd1565b61188c576040517f08c379a00000000000000000000000000000000000000000000000000000000081526004018080602001828103825260318152602001806141aa6031913960400191505060405180910390fd5b611897838383612dc5565b505050565b60185481565b60006118ad83611e9c565b8210611904576040517f08c379a000000000000000000000000000000000000000000000000000000000815260040180806020018281038252602b815260200180613fac602b913960400191505060405180910390fd5b600560008473ffffffffffffffffffffffffffffffffffffffff1673ffffffffffffffffffffffffffffffffffffffff168152602001908152602001600020828154811061194e57fe5b9060005260206000200154905092915050565b60155481565b611982838383604051806020016040528060008152506122c6565b505050565b60125481565b60165481565b600061199d611784565b82106119f4576040517f08c379a000000000000000000000000000000000000000000000000000000000815260040180806020018281038252602c8152602001806141db602c913960400191505060405180910390fd5b60078281548110611a0157fe5b90600052602060002001549050919050565b6060601a60003373ffffffffffffffffffffffffffffffffffffffff1673ffffffffffffffffffffffffffffffffffffffff168152602001908152602001600020805480602002602001604051908101604052809291908181526020018280548015611a9e57602002820191906000526020600020905b815481526020019060010190808311611a8a575b5050505050905090565b6000806001600084815260200190815260200160002060009054906101000a900473ffffffffffffffffffffffffffffffffffffffff169050600073ffffffffffffffffffffffffffffffffffffffff168173ffffffffffffffffffffffffffffffffffffffff161415611b67576040517f08c379a00000000000000000000000000000000000000000000000000000000081526004018080602001828103825260298152602001806140bb6029913960400191505060405180910390fd5b80915050919050565b600080600e60009054906101000a900473ffffffffffffffffffffffffffffffffffffffff1673ffffffffffffffffffffffffffffffffffffffff166370a08231306040518263ffffffff1660e01b8152600401808273ffffffffffffffffffffffffffffffffffffffff1673ffffffffffffffffffffffffffffffffffffffff16815260200191505060206040518083038186803b158015611c1257600080fd5b505afa158015611c26573d6000803e3d6000fd5b505050506040513d6020811015611c3c57600080fd5b810190808051906020019092919050505090506000611c6f68056bc75e2d63100000601154612aea90919063ffffffff16565b90506000611c868284612aa090919063ffffffff16565b90506000611cc5611cb6601960008981526020019081526020016000206001015442612aa090919063ffffffff16565b83612aea90919063ffffffff16565b90506000611cf2601154611ce460135442612aa090919063ffffffff16565b612aea90919063ffffffff16565b9050611d078183612b7090919063ffffffff16565b95505050505050919050565b6060600b8054600181600116156101000203166002900480601f016020809104026020016040519081016040528092919081815260200182805460018160011615610100020316600290048015611dab5780601f10611d8057610100808354040283529160200191611dab565b820191906000526020600020905b815481529060010190602001808311611d8e57829003601f168201915b5050505050905090565b6000600e60009054906101000a900473ffffffffffffffffffffffffffffffffffffffff1673ffffffffffffffffffffffffffffffffffffffff166370a08231306040518263ffffffff1660e01b8152600401808273ffffffffffffffffffffffffffffffffffffffff1673ffffffffffffffffffffffffffffffffffffffff16815260200191505060206040518083038186803b158015611e5657600080fd5b505afa158015611e6a573d6000803e3d6000fd5b505050506040513d6020811015611e8057600080fd5b8101908080519060200190929190505050905090565b60115481565b60008073ffffffffffffffffffffffffffffffffffffffff168273ffffffffffffffffffffffffffffffffffffffff161415611f23576040517f08c379a000000000000000000000000000000000000000000000000000000000815260040180806020018281038252602a815260200180614091602a913960400191505060405180910390fd5b611f6a600360008473ffffffffffffffffffffffffffffffffffffffff1673ffffffffffffffffffffffffffffffffffffffff168152602001908152602001600020612de9565b9050919050565b60135481565b6060600a8054600181600116156101000203166002900480601f01602080910402602001604051908101604052809291908181526020018280546001816001161561010002031660029004801561200f5780601f10611fe45761010080835404028352916020019161200f565b820191906000526020600020905b815481529060010190602001808311611ff257829003601f168201915b5050505050905090565b68056bc75e2d6310000081565b61202e612cc9565b73ffffffffffffffffffffffffffffffffffffffff168273ffffffffffffffffffffffffffffffffffffffff1614156120cf576040517f08c379a00000000000000000000000000000000000000000000000000000000081526004018080602001828103825260198152602001807f4552433732313a20617070726f766520746f2063616c6c65720000000000000081525060200191505060405180910390fd5b80600460006120dc612cc9565b73ffffffffffffffffffffffffffffffffffffffff1673ffffffffffffffffffffffffffffffffffffffff16815260200190815260200160002060008473ffffffffffffffffffffffffffffffffffffffff1673ffffffffffffffffffffffffffffffffffffffff16815260200190815260200160002060006101000a81548160ff0219169083151502179055508173ffffffffffffffffffffffffffffffffffffffff16612189612cc9565b73ffffffffffffffffffffffffffffffffffffffff167f17307eab39ab6107e8899845ad3d59bd9653f200f220920489ca2b5937696c3183604051808215151515815260200191505060405180910390a35050565b6019602052806000526040600020600091509050806000015490806001015490806002018054600181600116156101000203166002900480601f0160208091040260200160405190810160405280929190818152602001828054600181600116156101000203166002900480156122965780601f1061226b57610100808354040283529160200191612296565b820191906000526020600020905b81548152906001019060200180831161227957829003601f168201915b5050505050905083565b600060196000838152602001908152602001600020600001549050919050565b60145481565b6122d76122d1612cc9565b83612cd1565b61232c576040517f08c379a00000000000000000000000000000000000000000000000000000000081526004018080602001828103825260318152602001806141aa6031913960400191505060405180910390fd5b61233884848484612df7565b50505050565b606061234982612bcf565b61239e576040517f08c379a000000000000000000000000000000000000000000000000000000000815260040180806020018281038252602f81526020018061415a602f913960400191505060405180910390fd5b6060600c60008481526020019081526020016000208054600181600116156101000203166002900480601f0160208091040260200160405190810160405280929190818152602001828054600181600116156101000203166002900480156124475780601f1061241c57610100808354040283529160200191612447565b820191906000526020600020905b81548152906001019060200180831161242a57829003601f168201915b50505050509050600081511415612470576040518060200160405280600081525091505061253b565b600b8160405160200180838054600181600116156101000203166002900480156124d15780601f106124af5761010080835404028352918201916124d1565b820191906000526020600020905b8154815290600101906020018083116124bd575b505082805190602001908083835b6020831061250257805182526020820191506020810190506020830392506124df565b6001836020036101000a038019825116818451168082178552505050505050905001925050506040516020818303038152906040529150505b919050565b6060601960008381526020019081526020016000206002018054600181600116156101000203166002900480601f0160208091040260200160405190810160405280929190818152602001828054600181600116156101000203166002900480156125ec5780601f106125c1576101008083540402835291602001916125ec565b820191906000526020600020905b8154815290600101906020018083116125cf57829003601f168201915b50505050509050919050565b60175481565b601a60003373ffffffffffffffffffffffffffffffffffffffff1673ffffffffffffffffffffffffffffffffffffffff1681526020019081526020016000206012549080600181540180825580915050906001820390600052602060002001600090919290919091505550426019600060125481526020019081526020016000206000018190555042601960006012548152602001908152602001600020600101819055508060196000601254815260200190815260200160002060020190805190602001906126cf929190613e92565b506127206126e96001601154612c4190919063ffffffff16565b61271242612704601154601354612aea90919063ffffffff16565b612c4190919063ffffffff16565b612b7090919063ffffffff16565b601381905550600d60009054906101000a900473ffffffffffffffffffffffffffffffffffffffff1673ffffffffffffffffffffffffffffffffffffffff1663a0712d6868056bc75e2d631000006040518263ffffffff1660e01b815260040180828152602001915050600060405180830381600087803b1580156127a457600080fd5b505af11580156127b8573d6000803e3d6000fd5b50505050600d60009054906101000a900473ffffffffffffffffffffffffffffffffffffffff1673ffffffffffffffffffffffffffffffffffffffff1663095ea7b3601060009054906101000a900473ffffffffffffffffffffffffffffffffffffffff1668056bc75e2d631000006040518363ffffffff1660e01b8152600401808373ffffffffffffffffffffffffffffffffffffffff1673ffffffffffffffffffffffffffffffffffffffff16815260200182815260200192505050602060405180830381600087803b15801561289057600080fd5b505af11580156128a4573d6000803e3d6000fd5b505050506040513d60208110156128ba57600080fd5b810190808051906020019092919050505050600f60009054906101000a900473ffffffffffffffffffffffffffffffffffffffff1673ffffffffffffffffffffffffffffffffffffffff1663d2d0e066600d60009054906101000a900473ffffffffffffffffffffffffffffffffffffffff1668056bc75e2d6310000060006040518463ffffffff1660e01b8152600401808473ffffffffffffffffffffffffffffffffffffffff1673ffffffffffffffffffffffffffffffffffffffff1681526020018381526020018261ffff1681526020019350505050600060405180830381600087803b1580156129ad57600080fd5b505af11580156129c1573d6000803e3d6000fd5b505050506129d133601154612e69565b6129e76001601154612c4190919063ffffffff16565b601181905550612a036001601254612c4190919063ffffffff16565b60128190555050565b6000600460008473ffffffffffffffffffffffffffffffffffffffff1673ffffffffffffffffffffffffffffffffffffffff16815260200190815260200160002060008373ffffffffffffffffffffffffffffffffffffffff1673ffffffffffffffffffffffffffffffffffffffff16815260200190815260200160002060009054906101000a900460ff16905092915050565b6000612ae283836040518060400160405280601e81526020017f536166654d6174683a207375627472616374696f6e206f766572666c6f770000815250612e8a565b905092915050565b600080831415612afd5760009050612b6a565b6000828402905082848281612b0e57fe5b0414612b65576040517f08c379a00000000000000000000000000000000000000000000000000000000081526004018080602001828103825260218152602001806140e46021913960400191505060405180910390fd5b809150505b92915050565b6000612bb283836040518060400160405280601a81526020017f536166654d6174683a206469766973696f6e206279207a65726f000000000000815250612f4a565b905092915050565b612bcc612bc682611aa8565b82613010565b50565b6000806001600084815260200190815260200160002060009054906101000a900473ffffffffffffffffffffffffffffffffffffffff169050600073ffffffffffffffffffffffffffffffffffffffff168173ffffffffffffffffffffffffffffffffffffffff161415915050919050565b600080828401905083811015612cbf576040517f08c379a000000000000000000000000000000000000000000000000000000000815260040180806020018281038252601b8152602001807f536166654d6174683a206164646974696f6e206f766572666c6f77000000000081525060200191505060405180910390fd5b8091505092915050565b600033905090565b6000612cdc82612bcf565b612d31576040517f08c379a000000000000000000000000000000000000000000000000000000000815260040180806020018281038252602c81526020018061402d602c913960400191505060405180910390fd5b6000612d3c83611aa8565b90508073ffffffffffffffffffffffffffffffffffffffff168473ffffffffffffffffffffffffffffffffffffffff161480612dab57508373ffffffffffffffffffffffffffffffffffffffff16612d93846112e5565b73ffffffffffffffffffffffffffffffffffffffff16145b80612dbc5750612dbb8185612a0c565b5b91505092915050565b612dd083838361306d565b612dda83826132c8565b612de48282613466565b505050565b600081600001549050919050565b612e02848484612dc5565b612e0e8484848461352d565b612e63576040517f08c379a0000000000000000000000000000000000000000000000000000000008152600401808060200182810382526032815260200180613fd76032913960400191505060405180910390fd5b50505050565b612e738282613869565b612e7d8282613466565b612e8681613a81565b5050565b6000838311158290612f37576040517f08c379a00000000000000000000000000000000000000000000000000000000081526004018080602001828103825283818151815260200191508051906020019080838360005b83811015612efc578082015181840152602081019050612ee1565b50505050905090810190601f168015612f295780820380516001836020036101000a031916815260200191505b509250505060405180910390fd5b5060008385039050809150509392505050565b60008083118290612ff6576040517f08c379a00000000000000000000000000000000000000000000000000000000081526004018080602001828103825283818151815260200191508051906020019080838360005b83811015612fbb578082015181840152602081019050612fa0565b50505050905090810190601f168015612fe85780820380516001836020036101000a031916815260200191505b509250505060405180910390fd5b50600083858161300257fe5b049050809150509392505050565b61301a8282613acd565b6000600c60008381526020019081526020016000208054600181600116156101000203166002900490501461306957600c600082815260200190815260200160002060006130689190613f12565b5b5050565b8273ffffffffffffffffffffffffffffffffffffffff1661308d82611aa8565b73ffffffffffffffffffffffffffffffffffffffff16146130f9576040517f08c379a00000000000000000000000000000000000000000000000000000000081526004018080602001828103825260298152602001806141316029913960400191505060405180910390fd5b600073ffffffffffffffffffffffffffffffffffffffff168273ffffffffffffffffffffffffffffffffffffffff16141561317f576040517f08c379a00000000000000000000000000000000000000000000000000000000081526004018080602001828103825260248152602001806140096024913960400191505060405180910390fd5b61318881613b07565b6131cf600360008573ffffffffffffffffffffffffffffffffffffffff1673ffffffffffffffffffffffffffffffffffffffff168152602001908152602001600020613bc5565b613216600360008473ffffffffffffffffffffffffffffffffffffffff1673ffffffffffffffffffffffffffffffffffffffff168152602001908152602001600020613be8565b816001600083815260200190815260200160002060006101000a81548173ffffffffffffffffffffffffffffffffffffffff021916908373ffffffffffffffffffffffffffffffffffffffff160217905550808273ffffffffffffffffffffffffffffffffffffffff168473ffffffffffffffffffffffffffffffffffffffff167fddf252ad1be2c89b69c2b068fc378daa952ba7f163c4a11628f55a4df523b3ef60405160405180910390a4505050565b60006133206001600560008673ffffffffffffffffffffffffffffffffffffffff1673ffffffffffffffffffffffffffffffffffffffff16815260200190815260200160002080549050612aa090919063ffffffff16565b905060006006600084815260200190815260200160002054905081811461340d576000600560008673ffffffffffffffffffffffffffffffffffffffff1673ffffffffffffffffffffffffffffffffffffffff168152602001908152602001600020838154811061338d57fe5b9060005260206000200154905080600560008773ffffffffffffffffffffffffffffffffffffffff1673ffffffffffffffffffffffffffffffffffffffff16815260200190815260200160002083815481106133e557fe5b9060005260206000200181905550816006600083815260200190815260200160002081905550505b600560008573ffffffffffffffffffffffffffffffffffffffff1673ffffffffffffffffffffffffffffffffffffffff16815260200190815260200160002080548091906001900361345f9190613f5a565b5050505050565b600560008373ffffffffffffffffffffffffffffffffffffffff1673ffffffffffffffffffffffffffffffffffffffff168152602001908152602001600020805490506006600083815260200190815260200160002081905550600560008373ffffffffffffffffffffffffffffffffffffffff1673ffffffffffffffffffffffffffffffffffffffff1681526020019081526020016000208190806001815401808255809150509060018203906000526020600020016000909192909190915055505050565b600061354e8473ffffffffffffffffffffffffffffffffffffffff16613bfe565b61355b5760019050613861565b600060608573ffffffffffffffffffffffffffffffffffffffff168673ffffffffffffffffffffffffffffffffffffffff1663150b7a02905060e01b61359f612cc9565b898888604051602401808573ffffffffffffffffffffffffffffffffffffffff1673ffffffffffffffffffffffffffffffffffffffff1681526020018473ffffffffffffffffffffffffffffffffffffffff1673ffffffffffffffffffffffffffffffffffffffff16815260200183815260200180602001828103825283818151815260200191508051906020019080838360005b8381101561364f578082015181840152602081019050613634565b50505050905090810190601f16801561367c5780820380516001836020036101000a031916815260200191505b5095505050505050604051602081830303815290604052907bffffffffffffffffffffffffffffffffffffffffffffffffffffffff19166020820180517bffffffffffffffffffffffffffffffffffffffffffffffffffffffff83818316178352505050506040518082805190602001908083835b6020831061371457805182526020820191506020810190506020830392506136f1565b6001836020036101000a0380198251168184511680821785525050505050509050019150506000604051808303816000865af19150503d8060008114613776576040519150601f19603f3d011682016040523d82523d6000602084013e61377b565b606091505b5091509150816137e9576000815111156137985780518082602001fd5b6040517f08c379a0000000000000000000000000000000000000000000000000000000008152600401808060200182810382526032815260200180613fd76032913960400191505060405180910390fd5b600081806020019051602081101561380057600080fd5b8101908080519060200190929190505050905063150b7a0260e01b7bffffffffffffffffffffffffffffffffffffffffffffffffffffffff1916817bffffffffffffffffffffffffffffffffffffffffffffffffffffffff19161493505050505b949350505050565b600073ffffffffffffffffffffffffffffffffffffffff168273ffffffffffffffffffffffffffffffffffffffff16141561390c576040517f08c379a00000000000000000000000000000000000000000000000000000000081526004018080602001828103825260208152602001807f4552433732313a206d696e7420746f20746865207a65726f206164647265737381525060200191505060405180910390fd5b61391581612bcf565b15613988576040517f08c379a000000000000000000000000000000000000000000000000000000000815260040180806020018281038252601c8152602001807f4552433732313a20746f6b656e20616c7265616479206d696e7465640000000081525060200191505060405180910390fd5b816001600083815260200190815260200160002060006101000a81548173ffffffffffffffffffffffffffffffffffffffff021916908373ffffffffffffffffffffffffffffffffffffffff160217905550613a21600360008473ffffffffffffffffffffffffffffffffffffffff1673ffffffffffffffffffffffffffffffffffffffff168152602001908152602001600020613be8565b808273ffffffffffffffffffffffffffffffffffffffff16600073ffffffffffffffffffffffffffffffffffffffff167fddf252ad1be2c89b69c2b068fc378daa952ba7f163c4a11628f55a4df523b3ef60405160405180910390a45050565b6007805490506008600083815260200190815260200160002081905550600781908060018154018082558091505090600182039060005260206000200160009091929091909150555050565b613ad78282613c49565b613ae182826132c8565b60006006600083815260200190815260200160002081905550613b0381613dd8565b5050565b600073ffffffffffffffffffffffffffffffffffffffff166002600083815260200190815260200160002060009054906101000a900473ffffffffffffffffffffffffffffffffffffffff1673ffffffffffffffffffffffffffffffffffffffff1614613bc25760006002600083815260200190815260200160002060006101000a81548173ffffffffffffffffffffffffffffffffffffffff021916908373ffffffffffffffffffffffffffffffffffffffff1602179055505b50565b613bdd60018260000154612aa090919063ffffffff16565b816000018190555050565b6001816000016000828254019250508190555050565b60008060007fc5d2460186f7233c927e7db2dcc703c0e500b653ca82273b7bfad8045d85a47060001b9050833f9150808214158015613c4057506000801b8214155b92505050919050565b8173ffffffffffffffffffffffffffffffffffffffff16613c6982611aa8565b73ffffffffffffffffffffffffffffffffffffffff1614613cd5576040517f08c379a00000000000000000000000000000000000000000000000000000000081526004018080602001828103825260258152602001806142076025913960400191505060405180910390fd5b613cde81613b07565b613d25600360008473ffffffffffffffffffffffffffffffffffffffff1673ffffffffffffffffffffffffffffffffffffffff168152602001908152602001600020613bc5565b60006001600083815260200190815260200160002060006101000a81548173ffffffffffffffffffffffffffffffffffffffff021916908373ffffffffffffffffffffffffffffffffffffffff16021790555080600073ffffffffffffffffffffffffffffffffffffffff168373ffffffffffffffffffffffffffffffffffffffff167fddf252ad1be2c89b69c2b068fc378daa952ba7f163c4a11628f55a4df523b3ef60405160405180910390a45050565b6000613df36001600780549050612aa090919063ffffffff16565b9050600060086000848152602001908152602001600020549050600060078381548110613e1c57fe5b906000526020600020015490508060078381548110613e3757fe5b90600052602060002001819055508160086000838152602001908152602001600020819055506007805480919060019003613e729190613f5a565b506000600860008681526020019081526020016000208190555050505050565b828054600181600116156101000203166002900490600052602060002090601f016020900481019282601f10613ed357805160ff1916838001178555613f01565b82800160010185558215613f01579182015b82811115613f00578251825591602001919060010190613ee5565b5b509050613f0e9190613f86565b5090565b50805460018160011615610100020316600290046000825580601f10613f385750613f57565b601f016020900490600052602060002090810190613f569190613f86565b5b50565b815481835581811115613f8157818360005260206000209182019101613f809190613f86565b5b505050565b613fa891905b80821115613fa4576000816000905550600101613f8c565b5090565b9056fe455243373231456e756d657261626c653a206f776e657220696e646578206f7574206f6620626f756e64734552433732313a207472616e7366657220746f206e6f6e20455243373231526563656976657220696d706c656d656e7465724552433732313a207472616e7366657220746f20746865207a65726f20616464726573734552433732313a206f70657261746f7220717565727920666f72206e6f6e6578697374656e7420746f6b656e4552433732313a20617070726f76652063616c6c6572206973206e6f74206f776e6572206e6f7220617070726f76656420666f7220616c6c4552433732313a2062616c616e636520717565727920666f7220746865207a65726f20616464726573734552433732313a206f776e657220717565727920666f72206e6f6e6578697374656e7420746f6b656e536166654d6174683a206d756c7469706c69636174696f6e206f766572666c6f774552433732313a20617070726f76656420717565727920666f72206e6f6e6578697374656e7420746f6b656e4552433732313a207472616e73666572206f6620746f6b656e2074686174206973206e6f74206f776e4552433732314d657461646174613a2055524920717565727920666f72206e6f6e6578697374656e7420746f6b656e4552433732313a20617070726f76616c20746f2063757272656e74206f776e65724552433732313a207472616e736665722063616c6c6572206973206e6f74206f776e6572206e6f7220617070726f766564455243373231456e756d657261626c653a20676c6f62616c20696e646578206f7574206f6620626f756e64734552433732313a206275726e206f6620746f6b656e2074686174206973206e6f74206f776ea265627a7a72315820410b9d3a88e8948e4cea6b90ba395c1930ea62fe0e4cf0266cc35e0857e027ca64736f6c634300050c0032",
  "source": "pragma solidity >=0.4.21 <0.7.0;\n\nimport \"@openzeppelin/contracts/token/ERC721/ERC721Full.sol\";\nimport \"@openzeppelin/contracts/math/SafeMath.sol\";\n\n/// @title Dai contract interface\n/// @notice Various cash functions\ninterface Cash \n{\n    function approve(address _spender, uint _amount) external returns (bool);\n    function balanceOf(address _ownesr) external view returns (uint);\n    function mint(uint256) external;\n    function transfer(address _to, uint _amount) external returns (bool);\n}\n\ninterface IaToken \n{\n    function balanceOf(address _user) external view returns(uint);\n    function redeem(uint256 _amount) external;\n}\n\ninterface IAaveLendingPool \n{\n    function deposit( address _reserve, uint256 _amount, uint16 _referralCode) external;\n}\n\ninterface IAaveLendingPoolCore {}\n\ncontract ClassicHodlFactory is ERC721Full {\n\n    using SafeMath for uint;\n\n    Cash underlying;\n    IaToken aToken;\n    IAaveLendingPool aaveLendingPool;\n    IAaveLendingPoolCore aaveLendingPoolCore;\n\n    constructor(address _cashAddress, address _aTokenAddress, address _aaveLpAddress, address _aaveLpcoreAddress ) ERC721Full(\"HodlFactory\", \"HODL\") public { \n        underlying = Cash(_cashAddress);\n        aToken = IaToken(_aTokenAddress); \n        aaveLendingPool = IAaveLendingPool(_aaveLpAddress); \n        aaveLendingPoolCore = IAaveLendingPoolCore(_aaveLpcoreAddress); \n    }\n\n    uint public hodlCount = 0;\n    uint public latestHodlId = 0;\n    uint public averageTimeLastWithdrawn = 0;\n    uint constant public oneHundredDai = 10**20;\n    uint public testingVariableA = 69;\n    uint public testingVariableB = 0;\n    uint public testingVariableC = 0;\n    uint public testingVariableD = 0;\n    uint public testingVariableE = 0;\n\n     struct hodl {\n        uint purchaseTime;\n        uint interestLastWithdrawnTime;\n        string name;\n    }\n\n    mapping (uint => hodl) public hodlProperties; \n    mapping (address => uint[]) hodlOwnerTracker;\n    mapping (address => uint[]) hodlsDeletedTracker;\n\n    // event stfu(uint indexed stfu);\n\n    function getHodlPurchaseTime(uint _hodlId) external view returns (uint) {\n        return hodlProperties[_hodlId].purchaseTime;\n    }\n\n    function getHodlName(uint _hodlId) external view returns (string memory) {\n        return hodlProperties[_hodlId].name;\n    }\n\n    function getAdaiBalance() public view returns (uint) {\n        return(aToken.balanceOf(address(this)));\n    }\n\n    function getHodlsOwned() public view returns(uint[] memory) {\n        return(hodlOwnerTracker[msg.sender]);\n    }\n\n    function getHodlsDeleted() public view returns(uint[] memory) {\n        return(hodlsDeletedTracker[msg.sender]);\n    }\n\n    function createHodl(string memory _name) public {\n        // UPDATE VARIABLES\n        hodlOwnerTracker[msg.sender].push(latestHodlId);\n        hodlProperties[latestHodlId].purchaseTime = now;\n        hodlProperties[latestHodlId].interestLastWithdrawnTime = now;\n        hodlProperties[latestHodlId].name = _name;\n        averageTimeLastWithdrawn = ((averageTimeLastWithdrawn.mul(hodlCount)).add(now)).div(hodlCount.add(1));\n         // SWAP DAI FOR aDAI\n        underlying.mint(oneHundredDai);\n        underlying.approve(address(aaveLendingPoolCore), oneHundredDai);\n        aaveLendingPool.deposit(address(underlying), oneHundredDai, 0);\n        // // GENERATE NFT\n        _mint(msg.sender, hodlCount);\n        hodlCount = hodlCount.add(1);  \n        latestHodlId = latestHodlId.add(1);\n    } \n\n    function getInterestAvailableToWithdraw(uint _hodlId) public view returns (uint) {\n        uint _totalAdaiBalance = aToken.balanceOf(address(this)); \n        uint _totalDaiBalance = hodlCount.mul(oneHundredDai);\n        uint _totalInterestAvailable = _totalAdaiBalance.sub(_totalDaiBalance);\n        uint _numerator = _totalInterestAvailable.mul(now.sub(hodlProperties[_hodlId].interestLastWithdrawnTime));\n        uint _denominator = (now.sub(averageTimeLastWithdrawn)).mul(hodlCount);\n        return (_numerator.div(_denominator));\n    }\n\n    function withdrawInterest(uint _hodlId) public {\n        uint _interestToWithdraw = getInterestAvailableToWithdraw(_hodlId);\n        // update variables\n        uint _sumOfLastWithdrawTimes = averageTimeLastWithdrawn.mul(hodlCount);\n        uint _sumOfLastWithdrawTimesUpdated = _sumOfLastWithdrawTimes.add(now).sub(hodlProperties[_hodlId].interestLastWithdrawnTime);\n        averageTimeLastWithdrawn = _sumOfLastWithdrawTimesUpdated.div(hodlCount);\n        hodlProperties[_hodlId].interestLastWithdrawnTime = now;\n        // external calls\n        aToken.redeem(_interestToWithdraw);\n        underlying.transfer(ownerOf(_hodlId), _interestToWithdraw);\n    }\n\n    function destroyHodl(uint _hodlId) public {\n        require (ownerOf(_hodlId) == msg.sender, \"Not owner\");\n        // require (hodlProperties[_hodlId].purchaseTime.add(3600) < now, \"HODL must be owned for 1 hour\");\n        withdrawInterest(_hodlId);\n        // update averageTimeLastWithdrawn\n        if (hodlCount > 1) {\n            averageTimeLastWithdrawn = ((averageTimeLastWithdrawn.mul(hodlCount)).sub(hodlProperties[_hodlId].interestLastWithdrawnTime)).div(hodlCount.sub(1));\n        } else {\n            averageTimeLastWithdrawn = 0;\n        }\n        // external calls\n        aToken.redeem(oneHundredDai);\n        underlying.transfer(ownerOf(_hodlId), oneHundredDai);\n        // remove HODL\n        hodlCount = hodlCount.sub(1);\n        _burn(_hodlId);\n        hodlsDeletedTracker[msg.sender].push(_hodlId);\n    }\n\n}\n",
  "sourcePath": "/Users/mcplums/Repos/HodlFactory/contracts/ClassicHodlFactory.sol",
  "compiler": {
    "name": "solc",
    "version": "0.5.12+commit.7709ece9.Emscripten.clang"
  },
  "schemaVersion": "3.0.19",
  "updatedAt": "2020-04-25T15:05:52.958Z",
  "networkType": "ethereum",
  "devdoc": {
    "methods": {
      "approve(address,uint256)": {
        "details": "Approves another address to transfer the given token ID The zero address indicates there is no approved address. There can only be one approved address per token at a given time. Can only be called by the token owner or an approved operator.",
        "params": {
          "to": "address to be approved for the given token ID",
          "tokenId": "uint256 ID of the token to be approved"
        }
      },
      "balanceOf(address)": {
        "details": "Gets the balance of the specified address.",
        "params": {
          "owner": "address to query the balance of"
        },
        "return": "uint256 representing the amount owned by the passed address"
      },
      "baseURI()": {
        "details": "Returns the base URI set via {_setBaseURI}. This will be automatically added as a preffix in {tokenURI} to each token's URI, when they are non-empty.    * _Available since v2.5.0._"
      },
      "getApproved(uint256)": {
        "details": "Gets the approved address for a token ID, or zero if no address set Reverts if the token ID does not exist.",
        "params": {
          "tokenId": "uint256 ID of the token to query the approval of"
        },
        "return": "address currently approved for the given token ID"
      },
      "isApprovedForAll(address,address)": {
        "details": "Tells whether an operator is approved by a given owner.",
        "params": {
          "operator": "operator address which you want to query the approval of",
          "owner": "owner address which you want to query the approval of"
        },
        "return": "bool whether the given operator is approved by the given owner"
      },
      "name()": {
        "details": "Gets the token name.",
        "return": "string representing the token name"
      },
      "ownerOf(uint256)": {
        "details": "Gets the owner of the specified token ID.",
        "params": {
          "tokenId": "uint256 ID of the token to query the owner of"
        },
        "return": "address currently marked as the owner of the given token ID"
      },
      "safeTransferFrom(address,address,uint256)": {
        "details": "Safely transfers the ownership of a given token ID to another address If the target address is a contract, it must implement {IERC721Receiver-onERC721Received}, which is called upon a safe transfer, and return the magic value `bytes4(keccak256(\"onERC721Received(address,address,uint256,bytes)\"))`; otherwise, the transfer is reverted. Requires the msg.sender to be the owner, approved, or operator",
        "params": {
          "from": "current owner of the token",
          "to": "address to receive the ownership of the given token ID",
          "tokenId": "uint256 ID of the token to be transferred"
        }
      },
      "safeTransferFrom(address,address,uint256,bytes)": {
        "details": "Safely transfers the ownership of a given token ID to another address If the target address is a contract, it must implement {IERC721Receiver-onERC721Received}, which is called upon a safe transfer, and return the magic value `bytes4(keccak256(\"onERC721Received(address,address,uint256,bytes)\"))`; otherwise, the transfer is reverted. Requires the _msgSender() to be the owner, approved, or operator",
        "params": {
          "_data": "bytes data to send along with a safe transfer check",
          "from": "current owner of the token",
          "to": "address to receive the ownership of the given token ID",
          "tokenId": "uint256 ID of the token to be transferred"
        }
      },
      "setApprovalForAll(address,bool)": {
        "details": "Sets or unsets the approval of a given operator An operator is allowed to transfer all tokens of the sender on their behalf.",
        "params": {
          "approved": "representing the status of the approval to be set",
          "to": "operator address to set the approval"
        }
      },
      "supportsInterface(bytes4)": {
        "details": "See {IERC165-supportsInterface}.     * Time complexity O(1), guaranteed to always use less than 30 000 gas."
      },
      "symbol()": {
        "details": "Gets the token symbol.",
        "return": "string representing the token symbol"
      },
      "tokenByIndex(uint256)": {
        "details": "Gets the token ID at a given index of all the tokens in this contract Reverts if the index is greater or equal to the total number of tokens.",
        "params": {
          "index": "uint256 representing the index to be accessed of the tokens list"
        },
        "return": "uint256 token ID at the given index of the tokens list"
      },
      "tokenOfOwnerByIndex(address,uint256)": {
        "details": "Gets the token ID at a given index of the tokens list of the requested owner.",
        "params": {
          "index": "uint256 representing the index to be accessed of the requested tokens list",
          "owner": "address owning the tokens list to be accessed"
        },
        "return": "uint256 token ID at the given index of the tokens list owned by the requested address"
      },
      "tokenURI(uint256)": {
        "details": "Returns the URI for a given token ID. May return an empty string.     * If the token's URI is non-empty and a base URI was set (via {_setBaseURI}), it will be added to the token ID's URI as a prefix.     * Reverts if the token ID does not exist."
      },
      "totalSupply()": {
        "details": "Gets the total amount of tokens stored by the contract.",
        "return": "uint256 representing the total amount of tokens"
      },
      "transferFrom(address,address,uint256)": {
        "details": "Transfers the ownership of a given token ID to another address. Usage of this method is discouraged, use {safeTransferFrom} whenever possible. Requires the msg.sender to be the owner, approved, or operator.",
        "params": {
          "from": "current owner of the token",
          "to": "address to receive the ownership of the given token ID",
          "tokenId": "uint256 ID of the token to be transferred"
        }
      }
    }
  },
  "userdoc": {
    "methods": {}
  }
}