{
  "contractName": "ClassicHodlFactory",
  "abi": [
    {
      "inputs": [
        {
          "internalType": "address",
          "name": "_cashAddress",
          "type": "address"
        },
        {
          "internalType": "address",
          "name": "_aTokenAddress",
          "type": "address"
        },
        {
          "internalType": "address",
          "name": "_aaveLpAddress",
          "type": "address"
        },
        {
          "internalType": "address",
          "name": "_aaveLpcoreAddress",
          "type": "address"
        }
      ],
      "payable": false,
      "stateMutability": "nonpayable",
      "type": "constructor"
    },
    {
      "anonymous": false,
      "inputs": [
        {
          "indexed": true,
          "internalType": "address",
          "name": "owner",
          "type": "address"
        },
        {
          "indexed": true,
          "internalType": "address",
          "name": "approved",
          "type": "address"
        },
        {
          "indexed": true,
          "internalType": "uint256",
          "name": "tokenId",
          "type": "uint256"
        }
      ],
      "name": "Approval",
      "type": "event"
    },
    {
      "anonymous": false,
      "inputs": [
        {
          "indexed": true,
          "internalType": "address",
          "name": "owner",
          "type": "address"
        },
        {
          "indexed": true,
          "internalType": "address",
          "name": "operator",
          "type": "address"
        },
        {
          "indexed": false,
          "internalType": "bool",
          "name": "approved",
          "type": "bool"
        }
      ],
      "name": "ApprovalForAll",
      "type": "event"
    },
    {
      "anonymous": false,
      "inputs": [
        {
          "indexed": true,
          "internalType": "address",
          "name": "from",
          "type": "address"
        },
        {
          "indexed": true,
          "internalType": "address",
          "name": "to",
          "type": "address"
        },
        {
          "indexed": true,
          "internalType": "uint256",
          "name": "tokenId",
          "type": "uint256"
        }
      ],
      "name": "Transfer",
      "type": "event"
    },
    {
      "constant": false,
      "inputs": [
        {
          "internalType": "address",
          "name": "to",
          "type": "address"
        },
        {
          "internalType": "uint256",
          "name": "tokenId",
          "type": "uint256"
        }
      ],
      "name": "approve",
      "outputs": [],
      "payable": false,
      "stateMutability": "nonpayable",
      "type": "function"
    },
    {
      "constant": true,
      "inputs": [],
      "name": "averageTimeLastWithdrawn",
      "outputs": [
        {
          "internalType": "uint256",
          "name": "",
          "type": "uint256"
        }
      ],
      "payable": false,
      "stateMutability": "view",
      "type": "function"
    },
    {
      "constant": true,
      "inputs": [
        {
          "internalType": "address",
          "name": "owner",
          "type": "address"
        }
      ],
      "name": "balanceOf",
      "outputs": [
        {
          "internalType": "uint256",
          "name": "",
          "type": "uint256"
        }
      ],
      "payable": false,
      "stateMutability": "view",
      "type": "function"
    },
    {
      "constant": true,
      "inputs": [],
      "name": "baseURI",
      "outputs": [
        {
          "internalType": "string",
          "name": "",
          "type": "string"
        }
      ],
      "payable": false,
      "stateMutability": "view",
      "type": "function"
    },
    {
      "constant": true,
      "inputs": [
        {
          "internalType": "uint256",
          "name": "tokenId",
          "type": "uint256"
        }
      ],
      "name": "getApproved",
      "outputs": [
        {
          "internalType": "address",
          "name": "",
          "type": "address"
        }
      ],
      "payable": false,
      "stateMutability": "view",
      "type": "function"
    },
    {
      "constant": true,
      "inputs": [
        {
          "internalType": "uint256",
          "name": "",
          "type": "uint256"
        }
      ],
      "name": "getHodlsDeleted",
      "outputs": [
        {
          "internalType": "uint256",
          "name": "",
          "type": "uint256"
        }
      ],
      "payable": false,
      "stateMutability": "view",
      "type": "function"
    },
    {
      "constant": true,
      "inputs": [],
      "name": "hodlCount",
      "outputs": [
        {
          "internalType": "uint256",
          "name": "",
          "type": "uint256"
        }
      ],
      "payable": false,
      "stateMutability": "view",
      "type": "function"
    },
    {
      "constant": true,
      "inputs": [
        {
          "internalType": "uint256",
          "name": "",
          "type": "uint256"
        }
      ],
      "name": "hodlProperties",
      "outputs": [
        {
          "internalType": "uint256",
          "name": "purchaseTime",
          "type": "uint256"
        },
        {
          "internalType": "uint256",
          "name": "interestLastWithdrawnTime",
          "type": "uint256"
        },
        {
          "internalType": "string",
          "name": "name",
          "type": "string"
        }
      ],
      "payable": false,
      "stateMutability": "view",
      "type": "function"
    },
    {
      "constant": true,
      "inputs": [
        {
          "internalType": "address",
          "name": "owner",
          "type": "address"
        },
        {
          "internalType": "address",
          "name": "operator",
          "type": "address"
        }
      ],
      "name": "isApprovedForAll",
      "outputs": [
        {
          "internalType": "bool",
          "name": "",
          "type": "bool"
        }
      ],
      "payable": false,
      "stateMutability": "view",
      "type": "function"
    },
    {
      "constant": true,
      "inputs": [],
      "name": "latestHodlId",
      "outputs": [
        {
          "internalType": "uint256",
          "name": "",
          "type": "uint256"
        }
      ],
      "payable": false,
      "stateMutability": "view",
      "type": "function"
    },
    {
      "constant": true,
      "inputs": [],
      "name": "name",
      "outputs": [
        {
          "internalType": "string",
          "name": "",
          "type": "string"
        }
      ],
      "payable": false,
      "stateMutability": "view",
      "type": "function"
    },
    {
      "constant": true,
      "inputs": [],
      "name": "oneHundredDai",
      "outputs": [
        {
          "internalType": "uint256",
          "name": "",
          "type": "uint256"
        }
      ],
      "payable": false,
      "stateMutability": "view",
      "type": "function"
    },
    {
      "constant": true,
      "inputs": [
        {
          "internalType": "uint256",
          "name": "tokenId",
          "type": "uint256"
        }
      ],
      "name": "ownerOf",
      "outputs": [
        {
          "internalType": "address",
          "name": "",
          "type": "address"
        }
      ],
      "payable": false,
      "stateMutability": "view",
      "type": "function"
    },
    {
      "constant": false,
      "inputs": [
        {
          "internalType": "address",
          "name": "from",
          "type": "address"
        },
        {
          "internalType": "address",
          "name": "to",
          "type": "address"
        },
        {
          "internalType": "uint256",
          "name": "tokenId",
          "type": "uint256"
        }
      ],
      "name": "safeTransferFrom",
      "outputs": [],
      "payable": false,
      "stateMutability": "nonpayable",
      "type": "function"
    },
    {
      "constant": false,
      "inputs": [
        {
          "internalType": "address",
          "name": "from",
          "type": "address"
        },
        {
          "internalType": "address",
          "name": "to",
          "type": "address"
        },
        {
          "internalType": "uint256",
          "name": "tokenId",
          "type": "uint256"
        },
        {
          "internalType": "bytes",
          "name": "_data",
          "type": "bytes"
        }
      ],
      "name": "safeTransferFrom",
      "outputs": [],
      "payable": false,
      "stateMutability": "nonpayable",
      "type": "function"
    },
    {
      "constant": false,
      "inputs": [
        {
          "internalType": "address",
          "name": "to",
          "type": "address"
        },
        {
          "internalType": "bool",
          "name": "approved",
          "type": "bool"
        }
      ],
      "name": "setApprovalForAll",
      "outputs": [],
      "payable": false,
      "stateMutability": "nonpayable",
      "type": "function"
    },
    {
      "constant": true,
      "inputs": [
        {
          "internalType": "bytes4",
          "name": "interfaceId",
          "type": "bytes4"
        }
      ],
      "name": "supportsInterface",
      "outputs": [
        {
          "internalType": "bool",
          "name": "",
          "type": "bool"
        }
      ],
      "payable": false,
      "stateMutability": "view",
      "type": "function"
    },
    {
      "constant": true,
      "inputs": [],
      "name": "symbol",
      "outputs": [
        {
          "internalType": "string",
          "name": "",
          "type": "string"
        }
      ],
      "payable": false,
      "stateMutability": "view",
      "type": "function"
    },
    {
      "constant": true,
      "inputs": [],
      "name": "testingVariableA",
      "outputs": [
        {
          "internalType": "uint256",
          "name": "",
          "type": "uint256"
        }
      ],
      "payable": false,
      "stateMutability": "view",
      "type": "function"
    },
    {
      "constant": true,
      "inputs": [],
      "name": "testingVariableB",
      "outputs": [
        {
          "internalType": "uint256",
          "name": "",
          "type": "uint256"
        }
      ],
      "payable": false,
      "stateMutability": "view",
      "type": "function"
    },
    {
      "constant": true,
      "inputs": [],
      "name": "testingVariableC",
      "outputs": [
        {
          "internalType": "uint256",
          "name": "",
          "type": "uint256"
        }
      ],
      "payable": false,
      "stateMutability": "view",
      "type": "function"
    },
    {
      "constant": true,
      "inputs": [],
      "name": "testingVariableD",
      "outputs": [
        {
          "internalType": "uint256",
          "name": "",
          "type": "uint256"
        }
      ],
      "payable": false,
      "stateMutability": "view",
      "type": "function"
    },
    {
      "constant": true,
      "inputs": [],
      "name": "testingVariableE",
      "outputs": [
        {
          "internalType": "uint256",
          "name": "",
          "type": "uint256"
        }
      ],
      "payable": false,
      "stateMutability": "view",
      "type": "function"
    },
    {
      "constant": true,
      "inputs": [
        {
          "internalType": "uint256",
          "name": "index",
          "type": "uint256"
        }
      ],
      "name": "tokenByIndex",
      "outputs": [
        {
          "internalType": "uint256",
          "name": "",
          "type": "uint256"
        }
      ],
      "payable": false,
      "stateMutability": "view",
      "type": "function"
    },
    {
      "constant": true,
      "inputs": [
        {
          "internalType": "address",
          "name": "owner",
          "type": "address"
        },
        {
          "internalType": "uint256",
          "name": "index",
          "type": "uint256"
        }
      ],
      "name": "tokenOfOwnerByIndex",
      "outputs": [
        {
          "internalType": "uint256",
          "name": "",
          "type": "uint256"
        }
      ],
      "payable": false,
      "stateMutability": "view",
      "type": "function"
    },
    {
      "constant": true,
      "inputs": [
        {
          "internalType": "uint256",
          "name": "tokenId",
          "type": "uint256"
        }
      ],
      "name": "tokenURI",
      "outputs": [
        {
          "internalType": "string",
          "name": "",
          "type": "string"
        }
      ],
      "payable": false,
      "stateMutability": "view",
      "type": "function"
    },
    {
      "constant": true,
      "inputs": [],
      "name": "totalSupply",
      "outputs": [
        {
          "internalType": "uint256",
          "name": "",
          "type": "uint256"
        }
      ],
      "payable": false,
      "stateMutability": "view",
      "type": "function"
    },
    {
      "constant": false,
      "inputs": [
        {
          "internalType": "address",
          "name": "from",
          "type": "address"
        },
        {
          "internalType": "address",
          "name": "to",
          "type": "address"
        },
        {
          "internalType": "uint256",
          "name": "tokenId",
          "type": "uint256"
        }
      ],
      "name": "transferFrom",
      "outputs": [],
      "payable": false,
      "stateMutability": "nonpayable",
      "type": "function"
    },
    {
      "constant": true,
      "inputs": [
        {
          "internalType": "uint256",
          "name": "_hodlId",
          "type": "uint256"
        }
      ],
      "name": "getHodlPurchaseTime",
      "outputs": [
        {
          "internalType": "uint256",
          "name": "",
          "type": "uint256"
        }
      ],
      "payable": false,
      "stateMutability": "view",
      "type": "function"
    },
    {
      "constant": true,
      "inputs": [
        {
          "internalType": "uint256",
          "name": "_hodlId",
          "type": "uint256"
        }
      ],
      "name": "getHodlName",
      "outputs": [
        {
          "internalType": "string",
          "name": "",
          "type": "string"
        }
      ],
      "payable": false,
      "stateMutability": "view",
      "type": "function"
    },
    {
      "constant": true,
      "inputs": [],
      "name": "getAdaiBalance",
      "outputs": [
        {
          "internalType": "uint256",
          "name": "",
          "type": "uint256"
        }
      ],
      "payable": false,
      "stateMutability": "view",
      "type": "function"
    },
    {
      "constant": true,
      "inputs": [],
      "name": "getHodlsOwned",
      "outputs": [
        {
          "internalType": "uint256[]",
          "name": "",
          "type": "uint256[]"
        }
      ],
      "payable": false,
      "stateMutability": "view",
      "type": "function"
    },
    {
      "constant": false,
      "inputs": [
        {
          "internalType": "string",
          "name": "_name",
          "type": "string"
        }
      ],
      "name": "createHodl",
      "outputs": [],
      "payable": false,
      "stateMutability": "nonpayable",
      "type": "function"
    },
    {
      "constant": true,
      "inputs": [
        {
          "internalType": "uint256",
          "name": "_hodlId",
          "type": "uint256"
        }
      ],
      "name": "getInterestAvailableToWithdraw",
      "outputs": [
        {
          "internalType": "uint256",
          "name": "",
          "type": "uint256"
        }
      ],
      "payable": false,
      "stateMutability": "view",
      "type": "function"
    },
    {
      "constant": false,
      "inputs": [
        {
          "internalType": "uint256",
          "name": "_hodlId",
          "type": "uint256"
        }
      ],
      "name": "withdrawInterest",
      "outputs": [],
      "payable": false,
      "stateMutability": "nonpayable",
      "type": "function"
    },
    {
      "constant": false,
      "inputs": [
        {
          "internalType": "uint256",
          "name": "_hodlId",
          "type": "uint256"
        }
      ],
      "name": "destroyHodl",
      "outputs": [],
      "payable": false,
      "stateMutability": "nonpayable",
      "type": "function"
    }
  ],
  "bytecode": "0x6080604052600060115560006012556000601355604560155560006016556000601755600060185560006019553480156200003957600080fd5b50604051620045fa380380620045fa833981810160405260808110156200005f57600080fd5b81019080805190602001909291908051906020019092919080519060200190929190805190602001909291905050506040518060400160405280600b81526020017f486f646c466163746f72790000000000000000000000000000000000000000008152506040518060400160405280600481526020017f484f444c000000000000000000000000000000000000000000000000000000008152508181620001146301ffc9a760e01b620002a060201b60201c565b6200012c6380ac58cd60e01b620002a060201b60201c565b6200014463780e9d6360e01b620002a060201b60201c565b81600990805190602001906200015c929190620003a9565b5080600a908051906020019062000175929190620003a9565b506200018e635b5e139f60e01b620002a060201b60201c565b5050505083600d60006101000a81548173ffffffffffffffffffffffffffffffffffffffff021916908373ffffffffffffffffffffffffffffffffffffffff16021790555082600e60006101000a81548173ffffffffffffffffffffffffffffffffffffffff021916908373ffffffffffffffffffffffffffffffffffffffff16021790555081600f60006101000a81548173ffffffffffffffffffffffffffffffffffffffff021916908373ffffffffffffffffffffffffffffffffffffffff16021790555080601060006101000a81548173ffffffffffffffffffffffffffffffffffffffff021916908373ffffffffffffffffffffffffffffffffffffffff1602179055505050505062000458565b63ffffffff60e01b817bffffffffffffffffffffffffffffffffffffffffffffffffffffffff191614156200033d576040517f08c379a000000000000000000000000000000000000000000000000000000000815260040180806020018281038252601c8152602001807f4552433136353a20696e76616c696420696e746572666163652069640000000081525060200191505060405180910390fd5b6001600080837bffffffffffffffffffffffffffffffffffffffffffffffffffffffff19167bffffffffffffffffffffffffffffffffffffffffffffffffffffffff1916815260200190815260200160002060006101000a81548160ff02191690831515021790555050565b828054600181600116156101000203166002900490600052602060002090601f016020900481019282601f10620003ec57805160ff19168380011785556200041d565b828001600101855582156200041d579182015b828111156200041c578251825591602001919060010190620003ff565b5b5090506200042c919062000430565b5090565b6200045591905b808211156200045157600081600090555060010162000437565b5090565b90565b61419280620004686000396000f3fe608060405234801561001057600080fd5b506004361061021c5760003560e01c8063663922e211610125578063a5080bdd116100ad578063c87b56dd1161007c578063c87b56dd14610bc8578063ce35b7d114610c6f578063d3d125b214610d16578063e1f2877614610d34578063e985e9c514610def5761021c565b8063a5080bdd146109ae578063aac13c3d14610a63578063b0aa089114610aa5578063b88d4fde14610ac35761021c565b806370a08231116100f457806370a0823114610847578063822219071461089f57806395d89b41146108bd5780639709e73814610940578063a22cb4651461095e5761021c565b8063663922e2146107465780636c0360eb146107885780636c49c7861461080b5780636ebcf0c7146108295761021c565b80632f745c59116101a85780634adce894116101775780634adce894146105fb5780634b704921146106195780634f6ccce714610637578063630e825a146106795780636352211e146106d85761021c565b80632f745c59146104cb578063369b79e91461052d5780633d0119fa1461054b57806342842e0e1461058d5761021c565b806308669aab116101ef57806308669aab146103a5578063095ea7b3146103d357806318160ddd1461042157806323b872dd1461043f578063291eeebf146104ad5761021c565b806301ffaabd1461022157806301ffc9a71461024f57806306fdde03146102b4578063081812fc14610337575b600080fd5b61024d6004803603602081101561023757600080fd5b8101908080359060200190929190505050610e6b565b005b61029a6004803603602081101561026557600080fd5b8101908080357bffffffffffffffffffffffffffffffffffffffffffffffffffffffff19169060200190929190505050611182565b604051808215151515815260200191505060405180910390f35b6102bc6111e9565b6040518080602001828103825283818151815260200191508051906020019080838360005b838110156102fc5780820151818401526020810190506102e1565b50505050905090810190601f1680156103295780820380516001836020036101000a031916815260200191505b509250505060405180910390f35b6103636004803603602081101561034d57600080fd5b810190808035906020019092919050505061128b565b604051808273ffffffffffffffffffffffffffffffffffffffff1673ffffffffffffffffffffffffffffffffffffffff16815260200191505060405180910390f35b6103d1600480360360208110156103bb57600080fd5b8101908080359060200190929190505050611326565b005b61041f600480360360408110156103e957600080fd5b81019080803573ffffffffffffffffffffffffffffffffffffffff16906020019092919080359060200190929190505050611543565b005b61042961172a565b6040518082815260200191505060405180910390f35b6104ab6004803603606081101561045557600080fd5b81019080803573ffffffffffffffffffffffffffffffffffffffff169060200190929190803573ffffffffffffffffffffffffffffffffffffffff16906020019092919080359060200190929190505050611737565b005b6104b56117ad565b6040518082815260200191505060405180910390f35b610517600480360360408110156104e157600080fd5b81019080803573ffffffffffffffffffffffffffffffffffffffff169060200190929190803590602001909291905050506117b3565b6040518082815260200191505060405180910390f35b610535611872565b6040518082815260200191505060405180910390f35b6105776004803603602081101561056157600080fd5b8101908080359060200190929190505050611878565b6040518082815260200191505060405180910390f35b6105f9600480360360608110156105a357600080fd5b81019080803573ffffffffffffffffffffffffffffffffffffffff169060200190929190803573ffffffffffffffffffffffffffffffffffffffff16906020019092919080359060200190929190505050611899565b005b6106036118b9565b6040518082815260200191505060405180910390f35b6106216118bf565b6040518082815260200191505060405180910390f35b6106636004803603602081101561064d57600080fd5b81019080803590602001909291905050506118c5565b6040518082815260200191505060405180910390f35b610681611945565b6040518080602001828103825283818151815260200191508051906020019060200280838360005b838110156106c45780820151818401526020810190506106a9565b505050509050019250505060405180910390f35b610704600480360360208110156106ee57600080fd5b81019080803590602001909291905050506119da565b604051808273ffffffffffffffffffffffffffffffffffffffff1673ffffffffffffffffffffffffffffffffffffffff16815260200191505060405180910390f35b6107726004803603602081101561075c57600080fd5b8101908080359060200190929190505050611aa2565b6040518082815260200191505060405180910390f35b610790611c45565b6040518080602001828103825283818151815260200191508051906020019080838360005b838110156107d05780820151818401526020810190506107b5565b50505050905090810190601f1680156107fd5780820380516001836020036101000a031916815260200191505b509250505060405180910390f35b610813611ce7565b6040518082815260200191505060405180910390f35b610831611dc8565b6040518082815260200191505060405180910390f35b6108896004803603602081101561085d57600080fd5b81019080803573ffffffffffffffffffffffffffffffffffffffff169060200190929190505050611dce565b6040518082815260200191505060405180910390f35b6108a7611ea3565b6040518082815260200191505060405180910390f35b6108c5611ea9565b6040518080602001828103825283818151815260200191508051906020019080838360005b838110156109055780820151818401526020810190506108ea565b50505050905090810190601f1680156109325780820380516001836020036101000a031916815260200191505b509250505060405180910390f35b610948611f4b565b6040518082815260200191505060405180910390f35b6109ac6004803603604081101561097457600080fd5b81019080803573ffffffffffffffffffffffffffffffffffffffff169060200190929190803515159060200190929190505050611f58565b005b6109da600480360360208110156109c457600080fd5b8101908080359060200190929190505050612110565b6040518084815260200183815260200180602001828103825283818151815260200191508051906020019080838360005b83811015610a26578082015181840152602081019050610a0b565b50505050905090810190601f168015610a535780820380516001836020036101000a031916815260200191505b5094505050505060405180910390f35b610a8f60048036036020811015610a7957600080fd5b81019080803590602001909291905050506121d2565b6040518082815260200191505060405180910390f35b610aad6121f2565b6040518082815260200191505060405180910390f35b610bc660048036036080811015610ad957600080fd5b81019080803573ffffffffffffffffffffffffffffffffffffffff169060200190929190803573ffffffffffffffffffffffffffffffffffffffff1690602001909291908035906020019092919080359060200190640100000000811115610b4057600080fd5b820183602082011115610b5257600080fd5b80359060200191846001830284011164010000000083111715610b7457600080fd5b91908080601f016020809104026020016040519081016040528093929190818152602001838380828437600081840152601f19601f8201169050808301925050505050505091929192905050506121f8565b005b610bf460048036036020811015610bde57600080fd5b8101908080359060200190929190505050612270565b6040518080602001828103825283818151815260200191508051906020019080838360005b83811015610c34578082015181840152602081019050610c19565b50505050905090810190601f168015610c615780820380516001836020036101000a031916815260200191505b509250505060405180910390f35b610c9b60048036036020811015610c8557600080fd5b8101908080359060200190929190505050612472565b6040518080602001828103825283818151815260200191508051906020019080838360005b83811015610cdb578082015181840152602081019050610cc0565b50505050905090810190601f168015610d085780820380516001836020036101000a031916815260200191505b509250505060405180910390f35b610d1e61252a565b6040518082815260200191505060405180910390f35b610ded60048036036020811015610d4a57600080fd5b8101908080359060200190640100000000811115610d6757600080fd5b820183602082011115610d7957600080fd5b80359060200191846001830284011164010000000083111715610d9b57600080fd5b91908080601f016020809104026020016040519081016040528093929190818152602001838380828437600081840152601f19601f820116905080830192505050505050509192919290505050612530565b005b610e5160048036036040811015610e0557600080fd5b81019080803573ffffffffffffffffffffffffffffffffffffffff169060200190929190803573ffffffffffffffffffffffffffffffffffffffff16906020019092919050505061293e565b604051808215151515815260200191505060405180910390f35b3373ffffffffffffffffffffffffffffffffffffffff16610e8b826119da565b73ffffffffffffffffffffffffffffffffffffffff1614610f14576040517f08c379a00000000000000000000000000000000000000000000000000000000081526004018080602001828103825260098152602001807f4e6f74206f776e6572000000000000000000000000000000000000000000000081525060200191505060405180910390fd5b610f1d81611326565b60016011541115610f9957610f8e610f4160016011546129d290919063ffffffff16565b610f80601a600085815260200190815260200160002060010154610f72601154601354612a1c90919063ffffffff16565b6129d290919063ffffffff16565b612aa290919063ffffffff16565b601381905550610fa2565b60006013819055505b600e60009054906101000a900473ffffffffffffffffffffffffffffffffffffffff1673ffffffffffffffffffffffffffffffffffffffff1663db006a7568056bc75e2d631000006040518263ffffffff1660e01b815260040180828152602001915050600060405180830381600087803b15801561102057600080fd5b505af1158015611034573d6000803e3d6000fd5b50505050600d60009054906101000a900473ffffffffffffffffffffffffffffffffffffffff1673ffffffffffffffffffffffffffffffffffffffff1663a9059cbb61107f836119da565b68056bc75e2d631000006040518363ffffffff1660e01b8152600401808373ffffffffffffffffffffffffffffffffffffffff1673ffffffffffffffffffffffffffffffffffffffff16815260200182815260200192505050602060405180830381600087803b1580156110f257600080fd5b505af1158015611106573d6000803e3d6000fd5b505050506040513d602081101561111c57600080fd5b81019080805190602001909291905050505061114460016011546129d290919063ffffffff16565b60118190555061115381612aec565b601481908060018154018082558091505090600182039060005260206000200160009091929091909150555050565b6000806000837bffffffffffffffffffffffffffffffffffffffffffffffffffffffff19167bffffffffffffffffffffffffffffffffffffffffffffffffffffffff1916815260200190815260200160002060009054906101000a900460ff169050919050565b606060098054600181600116156101000203166002900480601f0160208091040260200160405190810160405280929190818152602001828054600181600116156101000203166002900480156112815780601f1061125657610100808354040283529160200191611281565b820191906000526020600020905b81548152906001019060200180831161126457829003601f168201915b5050505050905090565b600061129682612b01565b6112eb576040517f08c379a000000000000000000000000000000000000000000000000000000000815260040180806020018281038252602c815260200180614037602c913960400191505060405180910390fd5b6002600083815260200190815260200160002060009054906101000a900473ffffffffffffffffffffffffffffffffffffffff169050919050565b600061133182611aa2565b9050600061134c601154601354612a1c90919063ffffffff16565b9050600061138b601a60008681526020019081526020016000206001015461137d4285612b7390919063ffffffff16565b6129d290919063ffffffff16565b90506113a260115482612aa290919063ffffffff16565b60138190555042601a600086815260200190815260200160002060010181905550600e60009054906101000a900473ffffffffffffffffffffffffffffffffffffffff1673ffffffffffffffffffffffffffffffffffffffff1663db006a75846040518263ffffffff1660e01b815260040180828152602001915050600060405180830381600087803b15801561143857600080fd5b505af115801561144c573d6000803e3d6000fd5b50505050600d60009054906101000a900473ffffffffffffffffffffffffffffffffffffffff1673ffffffffffffffffffffffffffffffffffffffff1663a9059cbb611497866119da565b856040518363ffffffff1660e01b8152600401808373ffffffffffffffffffffffffffffffffffffffff1673ffffffffffffffffffffffffffffffffffffffff16815260200182815260200192505050602060405180830381600087803b15801561150157600080fd5b505af1158015611515573d6000803e3d6000fd5b505050506040513d602081101561152b57600080fd5b81019080805190602001909291905050505050505050565b600061154e826119da565b90508073ffffffffffffffffffffffffffffffffffffffff168373ffffffffffffffffffffffffffffffffffffffff1614156115d5576040517f08c379a00000000000000000000000000000000000000000000000000000000081526004018080602001828103825260218152602001806140bb6021913960400191505060405180910390fd5b8073ffffffffffffffffffffffffffffffffffffffff166115f4612bfb565b73ffffffffffffffffffffffffffffffffffffffff16148061162357506116228161161d612bfb565b61293e565b5b611678576040517f08c379a0000000000000000000000000000000000000000000000000000000008152600401808060200182810382526038815260200180613f8b6038913960400191505060405180910390fd5b826002600084815260200190815260200160002060006101000a81548173ffffffffffffffffffffffffffffffffffffffff021916908373ffffffffffffffffffffffffffffffffffffffff160217905550818373ffffffffffffffffffffffffffffffffffffffff168273ffffffffffffffffffffffffffffffffffffffff167f8c5be1e5ebec7d5bd14f71427d1e84f3dd0314c0f7b2291e5b200ac8c7c3b92560405160405180910390a4505050565b6000600780549050905090565b611748611742612bfb565b82612c03565b61179d576040517f08c379a00000000000000000000000000000000000000000000000000000000081526004018080602001828103825260318152602001806140dc6031913960400191505060405180910390fd5b6117a8838383612cf7565b505050565b60195481565b60006117be83611dce565b8210611815576040517f08c379a000000000000000000000000000000000000000000000000000000000815260040180806020018281038252602b815260200180613ede602b913960400191505060405180910390fd5b600560008473ffffffffffffffffffffffffffffffffffffffff1673ffffffffffffffffffffffffffffffffffffffff168152602001908152602001600020828154811061185f57fe5b9060005260206000200154905092915050565b60165481565b6014818154811061188557fe5b906000526020600020016000915090505481565b6118b4838383604051806020016040528060008152506121f8565b505050565b60125481565b60175481565b60006118cf61172a565b8210611926576040517f08c379a000000000000000000000000000000000000000000000000000000000815260040180806020018281038252602c81526020018061410d602c913960400191505060405180910390fd5b6007828154811061193357fe5b90600052602060002001549050919050565b6060601b60003373ffffffffffffffffffffffffffffffffffffffff1673ffffffffffffffffffffffffffffffffffffffff1681526020019081526020016000208054806020026020016040519081016040528092919081815260200182805480156119d057602002820191906000526020600020905b8154815260200190600101908083116119bc575b5050505050905090565b6000806001600084815260200190815260200160002060009054906101000a900473ffffffffffffffffffffffffffffffffffffffff169050600073ffffffffffffffffffffffffffffffffffffffff168173ffffffffffffffffffffffffffffffffffffffff161415611a99576040517f08c379a0000000000000000000000000000000000000000000000000000000008152600401808060200182810382526029815260200180613fed6029913960400191505060405180910390fd5b80915050919050565b600080600e60009054906101000a900473ffffffffffffffffffffffffffffffffffffffff1673ffffffffffffffffffffffffffffffffffffffff166370a08231306040518263ffffffff1660e01b8152600401808273ffffffffffffffffffffffffffffffffffffffff1673ffffffffffffffffffffffffffffffffffffffff16815260200191505060206040518083038186803b158015611b4457600080fd5b505afa158015611b58573d6000803e3d6000fd5b505050506040513d6020811015611b6e57600080fd5b810190808051906020019092919050505090506000611ba168056bc75e2d63100000601154612a1c90919063ffffffff16565b90506000611bb882846129d290919063ffffffff16565b90506000611bf7611be8601a600089815260200190815260200160002060010154426129d290919063ffffffff16565b83612a1c90919063ffffffff16565b90506000611c24601154611c16601354426129d290919063ffffffff16565b612a1c90919063ffffffff16565b9050611c398183612aa290919063ffffffff16565b95505050505050919050565b6060600b8054600181600116156101000203166002900480601f016020809104026020016040519081016040528092919081815260200182805460018160011615610100020316600290048015611cdd5780601f10611cb257610100808354040283529160200191611cdd565b820191906000526020600020905b815481529060010190602001808311611cc057829003601f168201915b5050505050905090565b6000600e60009054906101000a900473ffffffffffffffffffffffffffffffffffffffff1673ffffffffffffffffffffffffffffffffffffffff166370a08231306040518263ffffffff1660e01b8152600401808273ffffffffffffffffffffffffffffffffffffffff1673ffffffffffffffffffffffffffffffffffffffff16815260200191505060206040518083038186803b158015611d8857600080fd5b505afa158015611d9c573d6000803e3d6000fd5b505050506040513d6020811015611db257600080fd5b8101908080519060200190929190505050905090565b60115481565b60008073ffffffffffffffffffffffffffffffffffffffff168273ffffffffffffffffffffffffffffffffffffffff161415611e55576040517f08c379a000000000000000000000000000000000000000000000000000000000815260040180806020018281038252602a815260200180613fc3602a913960400191505060405180910390fd5b611e9c600360008473ffffffffffffffffffffffffffffffffffffffff1673ffffffffffffffffffffffffffffffffffffffff168152602001908152602001600020612d1b565b9050919050565b60135481565b6060600a8054600181600116156101000203166002900480601f016020809104026020016040519081016040528092919081815260200182805460018160011615610100020316600290048015611f415780601f10611f1657610100808354040283529160200191611f41565b820191906000526020600020905b815481529060010190602001808311611f2457829003601f168201915b5050505050905090565b68056bc75e2d6310000081565b611f60612bfb565b73ffffffffffffffffffffffffffffffffffffffff168273ffffffffffffffffffffffffffffffffffffffff161415612001576040517f08c379a00000000000000000000000000000000000000000000000000000000081526004018080602001828103825260198152602001807f4552433732313a20617070726f766520746f2063616c6c65720000000000000081525060200191505060405180910390fd5b806004600061200e612bfb565b73ffffffffffffffffffffffffffffffffffffffff1673ffffffffffffffffffffffffffffffffffffffff16815260200190815260200160002060008473ffffffffffffffffffffffffffffffffffffffff1673ffffffffffffffffffffffffffffffffffffffff16815260200190815260200160002060006101000a81548160ff0219169083151502179055508173ffffffffffffffffffffffffffffffffffffffff166120bb612bfb565b73ffffffffffffffffffffffffffffffffffffffff167f17307eab39ab6107e8899845ad3d59bd9653f200f220920489ca2b5937696c3183604051808215151515815260200191505060405180910390a35050565b601a602052806000526040600020600091509050806000015490806001015490806002018054600181600116156101000203166002900480601f0160208091040260200160405190810160405280929190818152602001828054600181600116156101000203166002900480156121c85780601f1061219d576101008083540402835291602001916121c8565b820191906000526020600020905b8154815290600101906020018083116121ab57829003601f168201915b5050505050905083565b6000601a6000838152602001908152602001600020600001549050919050565b60155481565b612209612203612bfb565b83612c03565b61225e576040517f08c379a00000000000000000000000000000000000000000000000000000000081526004018080602001828103825260318152602001806140dc6031913960400191505060405180910390fd5b61226a84848484612d29565b50505050565b606061227b82612b01565b6122d0576040517f08c379a000000000000000000000000000000000000000000000000000000000815260040180806020018281038252602f81526020018061408c602f913960400191505060405180910390fd5b6060600c60008481526020019081526020016000208054600181600116156101000203166002900480601f0160208091040260200160405190810160405280929190818152602001828054600181600116156101000203166002900480156123795780601f1061234e57610100808354040283529160200191612379565b820191906000526020600020905b81548152906001019060200180831161235c57829003601f168201915b505050505090506000815114156123a2576040518060200160405280600081525091505061246d565b600b8160405160200180838054600181600116156101000203166002900480156124035780601f106123e1576101008083540402835291820191612403565b820191906000526020600020905b8154815290600101906020018083116123ef575b505082805190602001908083835b602083106124345780518252602082019150602081019050602083039250612411565b6001836020036101000a038019825116818451168082178552505050505050905001925050506040516020818303038152906040529150505b919050565b6060601a60008381526020019081526020016000206002018054600181600116156101000203166002900480601f01602080910402602001604051908101604052809291908181526020018280546001816001161561010002031660029004801561251e5780601f106124f35761010080835404028352916020019161251e565b820191906000526020600020905b81548152906001019060200180831161250157829003601f168201915b50505050509050919050565b60185481565b601b60003373ffffffffffffffffffffffffffffffffffffffff1673ffffffffffffffffffffffffffffffffffffffff168152602001908152602001600020601254908060018154018082558091505090600182039060005260206000200160009091929091909150555042601a600060125481526020019081526020016000206000018190555042601a600060125481526020019081526020016000206001018190555080601a600060125481526020019081526020016000206002019080519060200190612601929190613dc4565b5061265261261b6001601154612b7390919063ffffffff16565b61264442612636601154601354612a1c90919063ffffffff16565b612b7390919063ffffffff16565b612aa290919063ffffffff16565b601381905550600d60009054906101000a900473ffffffffffffffffffffffffffffffffffffffff1673ffffffffffffffffffffffffffffffffffffffff1663a0712d6868056bc75e2d631000006040518263ffffffff1660e01b815260040180828152602001915050600060405180830381600087803b1580156126d657600080fd5b505af11580156126ea573d6000803e3d6000fd5b50505050600d60009054906101000a900473ffffffffffffffffffffffffffffffffffffffff1673ffffffffffffffffffffffffffffffffffffffff1663095ea7b3601060009054906101000a900473ffffffffffffffffffffffffffffffffffffffff1668056bc75e2d631000006040518363ffffffff1660e01b8152600401808373ffffffffffffffffffffffffffffffffffffffff1673ffffffffffffffffffffffffffffffffffffffff16815260200182815260200192505050602060405180830381600087803b1580156127c257600080fd5b505af11580156127d6573d6000803e3d6000fd5b505050506040513d60208110156127ec57600080fd5b810190808051906020019092919050505050600f60009054906101000a900473ffffffffffffffffffffffffffffffffffffffff1673ffffffffffffffffffffffffffffffffffffffff1663d2d0e066600d60009054906101000a900473ffffffffffffffffffffffffffffffffffffffff1668056bc75e2d6310000060006040518463ffffffff1660e01b8152600401808473ffffffffffffffffffffffffffffffffffffffff1673ffffffffffffffffffffffffffffffffffffffff1681526020018381526020018261ffff1681526020019350505050600060405180830381600087803b1580156128df57600080fd5b505af11580156128f3573d6000803e3d6000fd5b5050505061290333601154612d9b565b6129196001601154612b7390919063ffffffff16565b6011819055506129356001601254612b7390919063ffffffff16565b60128190555050565b6000600460008473ffffffffffffffffffffffffffffffffffffffff1673ffffffffffffffffffffffffffffffffffffffff16815260200190815260200160002060008373ffffffffffffffffffffffffffffffffffffffff1673ffffffffffffffffffffffffffffffffffffffff16815260200190815260200160002060009054906101000a900460ff16905092915050565b6000612a1483836040518060400160405280601e81526020017f536166654d6174683a207375627472616374696f6e206f766572666c6f770000815250612dbc565b905092915050565b600080831415612a2f5760009050612a9c565b6000828402905082848281612a4057fe5b0414612a97576040517f08c379a00000000000000000000000000000000000000000000000000000000081526004018080602001828103825260218152602001806140166021913960400191505060405180910390fd5b809150505b92915050565b6000612ae483836040518060400160405280601a81526020017f536166654d6174683a206469766973696f6e206279207a65726f000000000000815250612e7c565b905092915050565b612afe612af8826119da565b82612f42565b50565b6000806001600084815260200190815260200160002060009054906101000a900473ffffffffffffffffffffffffffffffffffffffff169050600073ffffffffffffffffffffffffffffffffffffffff168173ffffffffffffffffffffffffffffffffffffffff161415915050919050565b600080828401905083811015612bf1576040517f08c379a000000000000000000000000000000000000000000000000000000000815260040180806020018281038252601b8152602001807f536166654d6174683a206164646974696f6e206f766572666c6f77000000000081525060200191505060405180910390fd5b8091505092915050565b600033905090565b6000612c0e82612b01565b612c63576040517f08c379a000000000000000000000000000000000000000000000000000000000815260040180806020018281038252602c815260200180613f5f602c913960400191505060405180910390fd5b6000612c6e836119da565b90508073ffffffffffffffffffffffffffffffffffffffff168473ffffffffffffffffffffffffffffffffffffffff161480612cdd57508373ffffffffffffffffffffffffffffffffffffffff16612cc58461128b565b73ffffffffffffffffffffffffffffffffffffffff16145b80612cee5750612ced818561293e565b5b91505092915050565b612d02838383612f9f565b612d0c83826131fa565b612d168282613398565b505050565b600081600001549050919050565b612d34848484612cf7565b612d408484848461345f565b612d95576040517f08c379a0000000000000000000000000000000000000000000000000000000008152600401808060200182810382526032815260200180613f096032913960400191505060405180910390fd5b50505050565b612da5828261379b565b612daf8282613398565b612db8816139b3565b5050565b6000838311158290612e69576040517f08c379a00000000000000000000000000000000000000000000000000000000081526004018080602001828103825283818151815260200191508051906020019080838360005b83811015612e2e578082015181840152602081019050612e13565b50505050905090810190601f168015612e5b5780820380516001836020036101000a031916815260200191505b509250505060405180910390fd5b5060008385039050809150509392505050565b60008083118290612f28576040517f08c379a00000000000000000000000000000000000000000000000000000000081526004018080602001828103825283818151815260200191508051906020019080838360005b83811015612eed578082015181840152602081019050612ed2565b50505050905090810190601f168015612f1a5780820380516001836020036101000a031916815260200191505b509250505060405180910390fd5b506000838581612f3457fe5b049050809150509392505050565b612f4c82826139ff565b6000600c600083815260200190815260200160002080546001816001161561010002031660029004905014612f9b57600c60008281526020019081526020016000206000612f9a9190613e44565b5b5050565b8273ffffffffffffffffffffffffffffffffffffffff16612fbf826119da565b73ffffffffffffffffffffffffffffffffffffffff161461302b576040517f08c379a00000000000000000000000000000000000000000000000000000000081526004018080602001828103825260298152602001806140636029913960400191505060405180910390fd5b600073ffffffffffffffffffffffffffffffffffffffff168273ffffffffffffffffffffffffffffffffffffffff1614156130b1576040517f08c379a0000000000000000000000000000000000000000000000000000000008152600401808060200182810382526024815260200180613f3b6024913960400191505060405180910390fd5b6130ba81613a39565b613101600360008573ffffffffffffffffffffffffffffffffffffffff1673ffffffffffffffffffffffffffffffffffffffff168152602001908152602001600020613af7565b613148600360008473ffffffffffffffffffffffffffffffffffffffff1673ffffffffffffffffffffffffffffffffffffffff168152602001908152602001600020613b1a565b816001600083815260200190815260200160002060006101000a81548173ffffffffffffffffffffffffffffffffffffffff021916908373ffffffffffffffffffffffffffffffffffffffff160217905550808273ffffffffffffffffffffffffffffffffffffffff168473ffffffffffffffffffffffffffffffffffffffff167fddf252ad1be2c89b69c2b068fc378daa952ba7f163c4a11628f55a4df523b3ef60405160405180910390a4505050565b60006132526001600560008673ffffffffffffffffffffffffffffffffffffffff1673ffffffffffffffffffffffffffffffffffffffff168152602001908152602001600020805490506129d290919063ffffffff16565b905060006006600084815260200190815260200160002054905081811461333f576000600560008673ffffffffffffffffffffffffffffffffffffffff1673ffffffffffffffffffffffffffffffffffffffff16815260200190815260200160002083815481106132bf57fe5b9060005260206000200154905080600560008773ffffffffffffffffffffffffffffffffffffffff1673ffffffffffffffffffffffffffffffffffffffff168152602001908152602001600020838154811061331757fe5b9060005260206000200181905550816006600083815260200190815260200160002081905550505b600560008573ffffffffffffffffffffffffffffffffffffffff1673ffffffffffffffffffffffffffffffffffffffff1681526020019081526020016000208054809190600190036133919190613e8c565b5050505050565b600560008373ffffffffffffffffffffffffffffffffffffffff1673ffffffffffffffffffffffffffffffffffffffff168152602001908152602001600020805490506006600083815260200190815260200160002081905550600560008373ffffffffffffffffffffffffffffffffffffffff1673ffffffffffffffffffffffffffffffffffffffff1681526020019081526020016000208190806001815401808255809150509060018203906000526020600020016000909192909190915055505050565b60006134808473ffffffffffffffffffffffffffffffffffffffff16613b30565b61348d5760019050613793565b600060608573ffffffffffffffffffffffffffffffffffffffff168673ffffffffffffffffffffffffffffffffffffffff1663150b7a02905060e01b6134d1612bfb565b898888604051602401808573ffffffffffffffffffffffffffffffffffffffff1673ffffffffffffffffffffffffffffffffffffffff1681526020018473ffffffffffffffffffffffffffffffffffffffff1673ffffffffffffffffffffffffffffffffffffffff16815260200183815260200180602001828103825283818151815260200191508051906020019080838360005b83811015613581578082015181840152602081019050613566565b50505050905090810190601f1680156135ae5780820380516001836020036101000a031916815260200191505b5095505050505050604051602081830303815290604052907bffffffffffffffffffffffffffffffffffffffffffffffffffffffff19166020820180517bffffffffffffffffffffffffffffffffffffffffffffffffffffffff83818316178352505050506040518082805190602001908083835b602083106136465780518252602082019150602081019050602083039250613623565b6001836020036101000a0380198251168184511680821785525050505050509050019150506000604051808303816000865af19150503d80600081146136a8576040519150601f19603f3d011682016040523d82523d6000602084013e6136ad565b606091505b50915091508161371b576000815111156136ca5780518082602001fd5b6040517f08c379a0000000000000000000000000000000000000000000000000000000008152600401808060200182810382526032815260200180613f096032913960400191505060405180910390fd5b600081806020019051602081101561373257600080fd5b8101908080519060200190929190505050905063150b7a0260e01b7bffffffffffffffffffffffffffffffffffffffffffffffffffffffff1916817bffffffffffffffffffffffffffffffffffffffffffffffffffffffff19161493505050505b949350505050565b600073ffffffffffffffffffffffffffffffffffffffff168273ffffffffffffffffffffffffffffffffffffffff16141561383e576040517f08c379a00000000000000000000000000000000000000000000000000000000081526004018080602001828103825260208152602001807f4552433732313a206d696e7420746f20746865207a65726f206164647265737381525060200191505060405180910390fd5b61384781612b01565b156138ba576040517f08c379a000000000000000000000000000000000000000000000000000000000815260040180806020018281038252601c8152602001807f4552433732313a20746f6b656e20616c7265616479206d696e7465640000000081525060200191505060405180910390fd5b816001600083815260200190815260200160002060006101000a81548173ffffffffffffffffffffffffffffffffffffffff021916908373ffffffffffffffffffffffffffffffffffffffff160217905550613953600360008473ffffffffffffffffffffffffffffffffffffffff1673ffffffffffffffffffffffffffffffffffffffff168152602001908152602001600020613b1a565b808273ffffffffffffffffffffffffffffffffffffffff16600073ffffffffffffffffffffffffffffffffffffffff167fddf252ad1be2c89b69c2b068fc378daa952ba7f163c4a11628f55a4df523b3ef60405160405180910390a45050565b6007805490506008600083815260200190815260200160002081905550600781908060018154018082558091505090600182039060005260206000200160009091929091909150555050565b613a098282613b7b565b613a1382826131fa565b60006006600083815260200190815260200160002081905550613a3581613d0a565b5050565b600073ffffffffffffffffffffffffffffffffffffffff166002600083815260200190815260200160002060009054906101000a900473ffffffffffffffffffffffffffffffffffffffff1673ffffffffffffffffffffffffffffffffffffffff1614613af45760006002600083815260200190815260200160002060006101000a81548173ffffffffffffffffffffffffffffffffffffffff021916908373ffffffffffffffffffffffffffffffffffffffff1602179055505b50565b613b0f600182600001546129d290919063ffffffff16565b816000018190555050565b6001816000016000828254019250508190555050565b60008060007fc5d2460186f7233c927e7db2dcc703c0e500b653ca82273b7bfad8045d85a47060001b9050833f9150808214158015613b7257506000801b8214155b92505050919050565b8173ffffffffffffffffffffffffffffffffffffffff16613b9b826119da565b73ffffffffffffffffffffffffffffffffffffffff1614613c07576040517f08c379a00000000000000000000000000000000000000000000000000000000081526004018080602001828103825260258152602001806141396025913960400191505060405180910390fd5b613c1081613a39565b613c57600360008473ffffffffffffffffffffffffffffffffffffffff1673ffffffffffffffffffffffffffffffffffffffff168152602001908152602001600020613af7565b60006001600083815260200190815260200160002060006101000a81548173ffffffffffffffffffffffffffffffffffffffff021916908373ffffffffffffffffffffffffffffffffffffffff16021790555080600073ffffffffffffffffffffffffffffffffffffffff168373ffffffffffffffffffffffffffffffffffffffff167fddf252ad1be2c89b69c2b068fc378daa952ba7f163c4a11628f55a4df523b3ef60405160405180910390a45050565b6000613d2560016007805490506129d290919063ffffffff16565b9050600060086000848152602001908152602001600020549050600060078381548110613d4e57fe5b906000526020600020015490508060078381548110613d6957fe5b90600052602060002001819055508160086000838152602001908152602001600020819055506007805480919060019003613da49190613e8c565b506000600860008681526020019081526020016000208190555050505050565b828054600181600116156101000203166002900490600052602060002090601f016020900481019282601f10613e0557805160ff1916838001178555613e33565b82800160010185558215613e33579182015b82811115613e32578251825591602001919060010190613e17565b5b509050613e409190613eb8565b5090565b50805460018160011615610100020316600290046000825580601f10613e6a5750613e89565b601f016020900490600052602060002090810190613e889190613eb8565b5b50565b815481835581811115613eb357818360005260206000209182019101613eb29190613eb8565b5b505050565b613eda91905b80821115613ed6576000816000905550600101613ebe565b5090565b9056fe455243373231456e756d657261626c653a206f776e657220696e646578206f7574206f6620626f756e64734552433732313a207472616e7366657220746f206e6f6e20455243373231526563656976657220696d706c656d656e7465724552433732313a207472616e7366657220746f20746865207a65726f20616464726573734552433732313a206f70657261746f7220717565727920666f72206e6f6e6578697374656e7420746f6b656e4552433732313a20617070726f76652063616c6c6572206973206e6f74206f776e6572206e6f7220617070726f76656420666f7220616c6c4552433732313a2062616c616e636520717565727920666f7220746865207a65726f20616464726573734552433732313a206f776e657220717565727920666f72206e6f6e6578697374656e7420746f6b656e536166654d6174683a206d756c7469706c69636174696f6e206f766572666c6f774552433732313a20617070726f76656420717565727920666f72206e6f6e6578697374656e7420746f6b656e4552433732313a207472616e73666572206f6620746f6b656e2074686174206973206e6f74206f776e4552433732314d657461646174613a2055524920717565727920666f72206e6f6e6578697374656e7420746f6b656e4552433732313a20617070726f76616c20746f2063757272656e74206f776e65724552433732313a207472616e736665722063616c6c6572206973206e6f74206f776e6572206e6f7220617070726f766564455243373231456e756d657261626c653a20676c6f62616c20696e646578206f7574206f6620626f756e64734552433732313a206275726e206f6620746f6b656e2074686174206973206e6f74206f776ea265627a7a72315820722326bfa72926443404901553092a3526e73fac1831c39f51bfd1655fdcaa9c64736f6c634300050c0032",
  "source": "pragma solidity >=0.4.21 <0.7.0;\n\nimport \"@openzeppelin/contracts/token/ERC721/ERC721Full.sol\";\nimport \"@openzeppelin/contracts/math/SafeMath.sol\";\n\n/// @title Dai contract interface\n/// @notice Various cash functions\ninterface Cash \n{\n    function approve(address _spender, uint _amount) external returns (bool);\n    function balanceOf(address _ownesr) external view returns (uint);\n    function mint(uint256) external;\n    function transfer(address _to, uint _amount) external returns (bool);\n}\n\ninterface IaToken \n{\n    function balanceOf(address _user) external view returns(uint);\n    function redeem(uint256 _amount) external;\n}\n\ninterface IAaveLendingPool \n{\n    function deposit( address _reserve, uint256 _amount, uint16 _referralCode) external;\n}\n\ninterface IAaveLendingPoolCore {}\n\ncontract ClassicHodlFactory is ERC721Full {\n\n    using SafeMath for uint;\n\n    Cash underlying;\n    IaToken aToken;\n    IAaveLendingPool aaveLendingPool;\n    IAaveLendingPoolCore aaveLendingPoolCore;\n\n    constructor(address _cashAddress, address _aTokenAddress, address _aaveLpAddress, address _aaveLpcoreAddress ) ERC721Full(\"HodlFactory\", \"HODL\") public { \n        underlying = Cash(_cashAddress);\n        aToken = IaToken(_aTokenAddress); \n        aaveLendingPool = IAaveLendingPool(_aaveLpAddress); \n        aaveLendingPoolCore = IAaveLendingPoolCore(_aaveLpcoreAddress); \n    }\n\n    uint public hodlCount = 0;\n    uint public latestHodlId = 0;\n    uint public averageTimeLastWithdrawn = 0;\n    uint constant public oneHundredDai = 10**20;\n    uint[] public getHodlsDeleted;\n    uint public testingVariableA = 69;\n    uint public testingVariableB = 0;\n    uint public testingVariableC = 0;\n    uint public testingVariableD = 0;\n    uint public testingVariableE = 0;\n\n     struct hodl {\n        uint purchaseTime;\n        uint interestLastWithdrawnTime;\n        string name;\n    }\n\n    mapping (uint => hodl) public hodlProperties; \n    mapping (address => uint[]) hodlOwnerTracker;\n\n    // event stfu(uint indexed stfu);\n\n    function getHodlPurchaseTime(uint _hodlId) external view returns (uint) {\n        return hodlProperties[_hodlId].purchaseTime;\n    }\n\n    function getHodlName(uint _hodlId) external view returns (string memory) {\n        return hodlProperties[_hodlId].name;\n    }\n\n    function getAdaiBalance() public view returns (uint) {\n        return(aToken.balanceOf(address(this)));\n    }\n\n    function getHodlsOwned() public view returns(uint[] memory) {\n        return(hodlOwnerTracker[msg.sender]);\n    }\n\n    function createHodl(string memory _name) public {\n        // UPDATE VARIABLES\n        hodlOwnerTracker[msg.sender].push(latestHodlId);\n        hodlProperties[latestHodlId].purchaseTime = now;\n        hodlProperties[latestHodlId].interestLastWithdrawnTime = now;\n        hodlProperties[latestHodlId].name = _name;\n        averageTimeLastWithdrawn = ((averageTimeLastWithdrawn.mul(hodlCount)).add(now)).div(hodlCount.add(1));\n         // SWAP DAI FOR aDAI\n        underlying.mint(oneHundredDai);\n        underlying.approve(address(aaveLendingPoolCore), oneHundredDai);\n        aaveLendingPool.deposit(address(underlying), oneHundredDai, 0);\n        // // GENERATE NFT\n        _mint(msg.sender, hodlCount);\n        hodlCount = hodlCount.add(1);  \n        latestHodlId = latestHodlId.add(1);\n    } \n\n    function getInterestAvailableToWithdraw(uint _hodlId) public view returns (uint) {\n        uint _totalAdaiBalance = aToken.balanceOf(address(this)); \n        uint _totalDaiBalance = hodlCount.mul(oneHundredDai);\n        uint _totalInterestAvailable = _totalAdaiBalance.sub(_totalDaiBalance);\n        uint _numerator = _totalInterestAvailable.mul(now.sub(hodlProperties[_hodlId].interestLastWithdrawnTime));\n        uint _denominator = (now.sub(averageTimeLastWithdrawn)).mul(hodlCount);\n        return (_numerator.div(_denominator));\n    }\n\n    function withdrawInterest(uint _hodlId) public {\n        uint _interestToWithdraw = getInterestAvailableToWithdraw(_hodlId);\n        // update variables\n        uint _sumOfLastWithdrawTimes = averageTimeLastWithdrawn.mul(hodlCount);\n        uint _sumOfLastWithdrawTimesUpdated = _sumOfLastWithdrawTimes.add(now).sub(hodlProperties[_hodlId].interestLastWithdrawnTime);\n        averageTimeLastWithdrawn = _sumOfLastWithdrawTimesUpdated.div(hodlCount);\n        hodlProperties[_hodlId].interestLastWithdrawnTime = now;\n        // external calls\n        aToken.redeem(_interestToWithdraw);\n        underlying.transfer(ownerOf(_hodlId), _interestToWithdraw);\n    }\n\n    function destroyHodl(uint _hodlId) public {\n        require (ownerOf(_hodlId) == msg.sender, \"Not owner\");\n        // require (hodlProperties[_hodlId].purchaseTime.add(3600) < now, \"HODL must be owned for 1 hour\");\n        withdrawInterest(_hodlId);\n        // update averageTimeLastWithdrawn\n        if (hodlCount > 1) {\n            averageTimeLastWithdrawn = ((averageTimeLastWithdrawn.mul(hodlCount)).sub(hodlProperties[_hodlId].interestLastWithdrawnTime)).div(hodlCount.sub(1));\n        } else {\n            averageTimeLastWithdrawn = 0;\n        }\n        // external calls\n        aToken.redeem(oneHundredDai);\n        underlying.transfer(ownerOf(_hodlId), oneHundredDai);\n        // remove HODL\n        hodlCount = hodlCount.sub(1);\n        _burn(_hodlId);\n        getHodlsDeleted.push(_hodlId);\n    }\n\n}\n",
  "sourcePath": "/Users/mcplums/Repos/HodlFactory/contracts/ClassicHodlFactory.sol",
  "compiler": {
    "name": "solc",
    "version": "0.5.12+commit.7709ece9.Emscripten.clang"
  },
  "schemaVersion": "3.0.19",
  "updatedAt": "2020-04-25T09:23:42.527Z",
  "networkType": "ethereum",
  "devdoc": {
    "methods": {
      "approve(address,uint256)": {
        "details": "Approves another address to transfer the given token ID The zero address indicates there is no approved address. There can only be one approved address per token at a given time. Can only be called by the token owner or an approved operator.",
        "params": {
          "to": "address to be approved for the given token ID",
          "tokenId": "uint256 ID of the token to be approved"
        }
      },
      "balanceOf(address)": {
        "details": "Gets the balance of the specified address.",
        "params": {
          "owner": "address to query the balance of"
        },
        "return": "uint256 representing the amount owned by the passed address"
      },
      "baseURI()": {
        "details": "Returns the base URI set via {_setBaseURI}. This will be automatically added as a preffix in {tokenURI} to each token's URI, when they are non-empty.    * _Available since v2.5.0._"
      },
      "getApproved(uint256)": {
        "details": "Gets the approved address for a token ID, or zero if no address set Reverts if the token ID does not exist.",
        "params": {
          "tokenId": "uint256 ID of the token to query the approval of"
        },
        "return": "address currently approved for the given token ID"
      },
      "isApprovedForAll(address,address)": {
        "details": "Tells whether an operator is approved by a given owner.",
        "params": {
          "operator": "operator address which you want to query the approval of",
          "owner": "owner address which you want to query the approval of"
        },
        "return": "bool whether the given operator is approved by the given owner"
      },
      "name()": {
        "details": "Gets the token name.",
        "return": "string representing the token name"
      },
      "ownerOf(uint256)": {
        "details": "Gets the owner of the specified token ID.",
        "params": {
          "tokenId": "uint256 ID of the token to query the owner of"
        },
        "return": "address currently marked as the owner of the given token ID"
      },
      "safeTransferFrom(address,address,uint256)": {
        "details": "Safely transfers the ownership of a given token ID to another address If the target address is a contract, it must implement {IERC721Receiver-onERC721Received}, which is called upon a safe transfer, and return the magic value `bytes4(keccak256(\"onERC721Received(address,address,uint256,bytes)\"))`; otherwise, the transfer is reverted. Requires the msg.sender to be the owner, approved, or operator",
        "params": {
          "from": "current owner of the token",
          "to": "address to receive the ownership of the given token ID",
          "tokenId": "uint256 ID of the token to be transferred"
        }
      },
      "safeTransferFrom(address,address,uint256,bytes)": {
        "details": "Safely transfers the ownership of a given token ID to another address If the target address is a contract, it must implement {IERC721Receiver-onERC721Received}, which is called upon a safe transfer, and return the magic value `bytes4(keccak256(\"onERC721Received(address,address,uint256,bytes)\"))`; otherwise, the transfer is reverted. Requires the _msgSender() to be the owner, approved, or operator",
        "params": {
          "_data": "bytes data to send along with a safe transfer check",
          "from": "current owner of the token",
          "to": "address to receive the ownership of the given token ID",
          "tokenId": "uint256 ID of the token to be transferred"
        }
      },
      "setApprovalForAll(address,bool)": {
        "details": "Sets or unsets the approval of a given operator An operator is allowed to transfer all tokens of the sender on their behalf.",
        "params": {
          "approved": "representing the status of the approval to be set",
          "to": "operator address to set the approval"
        }
      },
      "supportsInterface(bytes4)": {
        "details": "See {IERC165-supportsInterface}.     * Time complexity O(1), guaranteed to always use less than 30 000 gas."
      },
      "symbol()": {
        "details": "Gets the token symbol.",
        "return": "string representing the token symbol"
      },
      "tokenByIndex(uint256)": {
        "details": "Gets the token ID at a given index of all the tokens in this contract Reverts if the index is greater or equal to the total number of tokens.",
        "params": {
          "index": "uint256 representing the index to be accessed of the tokens list"
        },
        "return": "uint256 token ID at the given index of the tokens list"
      },
      "tokenOfOwnerByIndex(address,uint256)": {
        "details": "Gets the token ID at a given index of the tokens list of the requested owner.",
        "params": {
          "index": "uint256 representing the index to be accessed of the requested tokens list",
          "owner": "address owning the tokens list to be accessed"
        },
        "return": "uint256 token ID at the given index of the tokens list owned by the requested address"
      },
      "tokenURI(uint256)": {
        "details": "Returns the URI for a given token ID. May return an empty string.     * If the token's URI is non-empty and a base URI was set (via {_setBaseURI}), it will be added to the token ID's URI as a prefix.     * Reverts if the token ID does not exist."
      },
      "totalSupply()": {
        "details": "Gets the total amount of tokens stored by the contract.",
        "return": "uint256 representing the total amount of tokens"
      },
      "transferFrom(address,address,uint256)": {
        "details": "Transfers the ownership of a given token ID to another address. Usage of this method is discouraged, use {safeTransferFrom} whenever possible. Requires the msg.sender to be the owner, approved, or operator.",
        "params": {
          "from": "current owner of the token",
          "to": "address to receive the ownership of the given token ID",
          "tokenId": "uint256 ID of the token to be transferred"
        }
      }
    }
  },
  "userdoc": {
    "methods": {}
  }
}