{
  "contractName": "ClassicHodlFactory",
  "abi": [
    {
      "inputs": [
        {
          "internalType": "address",
          "name": "_cashAddress",
          "type": "address"
        },
        {
          "internalType": "address",
          "name": "_aTokenAddress",
          "type": "address"
        },
        {
          "internalType": "address",
          "name": "_aaveLpAddress",
          "type": "address"
        },
        {
          "internalType": "address",
          "name": "_aaveLpcoreAddress",
          "type": "address"
        }
      ],
      "payable": false,
      "stateMutability": "nonpayable",
      "type": "constructor"
    },
    {
      "anonymous": false,
      "inputs": [
        {
          "indexed": true,
          "internalType": "address",
          "name": "owner",
          "type": "address"
        },
        {
          "indexed": true,
          "internalType": "address",
          "name": "approved",
          "type": "address"
        },
        {
          "indexed": true,
          "internalType": "uint256",
          "name": "tokenId",
          "type": "uint256"
        }
      ],
      "name": "Approval",
      "type": "event"
    },
    {
      "anonymous": false,
      "inputs": [
        {
          "indexed": true,
          "internalType": "address",
          "name": "owner",
          "type": "address"
        },
        {
          "indexed": true,
          "internalType": "address",
          "name": "operator",
          "type": "address"
        },
        {
          "indexed": false,
          "internalType": "bool",
          "name": "approved",
          "type": "bool"
        }
      ],
      "name": "ApprovalForAll",
      "type": "event"
    },
    {
      "anonymous": false,
      "inputs": [
        {
          "indexed": true,
          "internalType": "address",
          "name": "from",
          "type": "address"
        },
        {
          "indexed": true,
          "internalType": "address",
          "name": "to",
          "type": "address"
        },
        {
          "indexed": true,
          "internalType": "uint256",
          "name": "tokenId",
          "type": "uint256"
        }
      ],
      "name": "Transfer",
      "type": "event"
    },
    {
      "constant": false,
      "inputs": [
        {
          "internalType": "address",
          "name": "to",
          "type": "address"
        },
        {
          "internalType": "uint256",
          "name": "tokenId",
          "type": "uint256"
        }
      ],
      "name": "approve",
      "outputs": [],
      "payable": false,
      "stateMutability": "nonpayable",
      "type": "function"
    },
    {
      "constant": true,
      "inputs": [],
      "name": "averageTimeLastWithdrawn",
      "outputs": [
        {
          "internalType": "uint256",
          "name": "",
          "type": "uint256"
        }
      ],
      "payable": false,
      "stateMutability": "view",
      "type": "function"
    },
    {
      "constant": true,
      "inputs": [
        {
          "internalType": "address",
          "name": "owner",
          "type": "address"
        }
      ],
      "name": "balanceOf",
      "outputs": [
        {
          "internalType": "uint256",
          "name": "",
          "type": "uint256"
        }
      ],
      "payable": false,
      "stateMutability": "view",
      "type": "function"
    },
    {
      "constant": true,
      "inputs": [],
      "name": "baseURI",
      "outputs": [
        {
          "internalType": "string",
          "name": "",
          "type": "string"
        }
      ],
      "payable": false,
      "stateMutability": "view",
      "type": "function"
    },
    {
      "constant": true,
      "inputs": [
        {
          "internalType": "uint256",
          "name": "tokenId",
          "type": "uint256"
        }
      ],
      "name": "getApproved",
      "outputs": [
        {
          "internalType": "address",
          "name": "",
          "type": "address"
        }
      ],
      "payable": false,
      "stateMutability": "view",
      "type": "function"
    },
    {
      "constant": true,
      "inputs": [],
      "name": "hodlCount",
      "outputs": [
        {
          "internalType": "uint256",
          "name": "",
          "type": "uint256"
        }
      ],
      "payable": false,
      "stateMutability": "view",
      "type": "function"
    },
    {
      "constant": true,
      "inputs": [
        {
          "internalType": "uint256",
          "name": "",
          "type": "uint256"
        }
      ],
      "name": "hodlProperties",
      "outputs": [
        {
          "internalType": "uint256",
          "name": "purchaseTime",
          "type": "uint256"
        },
        {
          "internalType": "uint256",
          "name": "interestLastWithdrawnTime",
          "type": "uint256"
        },
        {
          "internalType": "string",
          "name": "name",
          "type": "string"
        }
      ],
      "payable": false,
      "stateMutability": "view",
      "type": "function"
    },
    {
      "constant": true,
      "inputs": [
        {
          "internalType": "address",
          "name": "owner",
          "type": "address"
        },
        {
          "internalType": "address",
          "name": "operator",
          "type": "address"
        }
      ],
      "name": "isApprovedForAll",
      "outputs": [
        {
          "internalType": "bool",
          "name": "",
          "type": "bool"
        }
      ],
      "payable": false,
      "stateMutability": "view",
      "type": "function"
    },
    {
      "constant": true,
      "inputs": [],
      "name": "latestHodlId",
      "outputs": [
        {
          "internalType": "uint256",
          "name": "",
          "type": "uint256"
        }
      ],
      "payable": false,
      "stateMutability": "view",
      "type": "function"
    },
    {
      "constant": true,
      "inputs": [],
      "name": "name",
      "outputs": [
        {
          "internalType": "string",
          "name": "",
          "type": "string"
        }
      ],
      "payable": false,
      "stateMutability": "view",
      "type": "function"
    },
    {
      "constant": true,
      "inputs": [],
      "name": "oneHundredDai",
      "outputs": [
        {
          "internalType": "uint256",
          "name": "",
          "type": "uint256"
        }
      ],
      "payable": false,
      "stateMutability": "view",
      "type": "function"
    },
    {
      "constant": true,
      "inputs": [
        {
          "internalType": "uint256",
          "name": "tokenId",
          "type": "uint256"
        }
      ],
      "name": "ownerOf",
      "outputs": [
        {
          "internalType": "address",
          "name": "",
          "type": "address"
        }
      ],
      "payable": false,
      "stateMutability": "view",
      "type": "function"
    },
    {
      "constant": false,
      "inputs": [
        {
          "internalType": "address",
          "name": "from",
          "type": "address"
        },
        {
          "internalType": "address",
          "name": "to",
          "type": "address"
        },
        {
          "internalType": "uint256",
          "name": "tokenId",
          "type": "uint256"
        }
      ],
      "name": "safeTransferFrom",
      "outputs": [],
      "payable": false,
      "stateMutability": "nonpayable",
      "type": "function"
    },
    {
      "constant": false,
      "inputs": [
        {
          "internalType": "address",
          "name": "from",
          "type": "address"
        },
        {
          "internalType": "address",
          "name": "to",
          "type": "address"
        },
        {
          "internalType": "uint256",
          "name": "tokenId",
          "type": "uint256"
        },
        {
          "internalType": "bytes",
          "name": "_data",
          "type": "bytes"
        }
      ],
      "name": "safeTransferFrom",
      "outputs": [],
      "payable": false,
      "stateMutability": "nonpayable",
      "type": "function"
    },
    {
      "constant": false,
      "inputs": [
        {
          "internalType": "address",
          "name": "to",
          "type": "address"
        },
        {
          "internalType": "bool",
          "name": "approved",
          "type": "bool"
        }
      ],
      "name": "setApprovalForAll",
      "outputs": [],
      "payable": false,
      "stateMutability": "nonpayable",
      "type": "function"
    },
    {
      "constant": true,
      "inputs": [
        {
          "internalType": "bytes4",
          "name": "interfaceId",
          "type": "bytes4"
        }
      ],
      "name": "supportsInterface",
      "outputs": [
        {
          "internalType": "bool",
          "name": "",
          "type": "bool"
        }
      ],
      "payable": false,
      "stateMutability": "view",
      "type": "function"
    },
    {
      "constant": true,
      "inputs": [],
      "name": "symbol",
      "outputs": [
        {
          "internalType": "string",
          "name": "",
          "type": "string"
        }
      ],
      "payable": false,
      "stateMutability": "view",
      "type": "function"
    },
    {
      "constant": true,
      "inputs": [
        {
          "internalType": "uint256",
          "name": "index",
          "type": "uint256"
        }
      ],
      "name": "tokenByIndex",
      "outputs": [
        {
          "internalType": "uint256",
          "name": "",
          "type": "uint256"
        }
      ],
      "payable": false,
      "stateMutability": "view",
      "type": "function"
    },
    {
      "constant": true,
      "inputs": [
        {
          "internalType": "address",
          "name": "owner",
          "type": "address"
        },
        {
          "internalType": "uint256",
          "name": "index",
          "type": "uint256"
        }
      ],
      "name": "tokenOfOwnerByIndex",
      "outputs": [
        {
          "internalType": "uint256",
          "name": "",
          "type": "uint256"
        }
      ],
      "payable": false,
      "stateMutability": "view",
      "type": "function"
    },
    {
      "constant": true,
      "inputs": [
        {
          "internalType": "uint256",
          "name": "tokenId",
          "type": "uint256"
        }
      ],
      "name": "tokenURI",
      "outputs": [
        {
          "internalType": "string",
          "name": "",
          "type": "string"
        }
      ],
      "payable": false,
      "stateMutability": "view",
      "type": "function"
    },
    {
      "constant": true,
      "inputs": [],
      "name": "totalSupply",
      "outputs": [
        {
          "internalType": "uint256",
          "name": "",
          "type": "uint256"
        }
      ],
      "payable": false,
      "stateMutability": "view",
      "type": "function"
    },
    {
      "constant": false,
      "inputs": [
        {
          "internalType": "address",
          "name": "from",
          "type": "address"
        },
        {
          "internalType": "address",
          "name": "to",
          "type": "address"
        },
        {
          "internalType": "uint256",
          "name": "tokenId",
          "type": "uint256"
        }
      ],
      "name": "transferFrom",
      "outputs": [],
      "payable": false,
      "stateMutability": "nonpayable",
      "type": "function"
    },
    {
      "constant": true,
      "inputs": [
        {
          "internalType": "uint256",
          "name": "_hodlId",
          "type": "uint256"
        }
      ],
      "name": "getHodlPurchaseTime",
      "outputs": [
        {
          "internalType": "uint256",
          "name": "",
          "type": "uint256"
        }
      ],
      "payable": false,
      "stateMutability": "view",
      "type": "function"
    },
    {
      "constant": true,
      "inputs": [
        {
          "internalType": "uint256",
          "name": "_hodlId",
          "type": "uint256"
        }
      ],
      "name": "getHodlName",
      "outputs": [
        {
          "internalType": "string",
          "name": "",
          "type": "string"
        }
      ],
      "payable": false,
      "stateMutability": "view",
      "type": "function"
    },
    {
      "constant": true,
      "inputs": [],
      "name": "getAdaiBalance",
      "outputs": [
        {
          "internalType": "uint256",
          "name": "",
          "type": "uint256"
        }
      ],
      "payable": false,
      "stateMutability": "view",
      "type": "function"
    },
    {
      "constant": true,
      "inputs": [],
      "name": "getHodlsOwned",
      "outputs": [
        {
          "internalType": "uint256[]",
          "name": "",
          "type": "uint256[]"
        }
      ],
      "payable": false,
      "stateMutability": "view",
      "type": "function"
    },
    {
      "constant": true,
      "inputs": [],
      "name": "getHodlsDeleted",
      "outputs": [
        {
          "internalType": "uint256[]",
          "name": "",
          "type": "uint256[]"
        }
      ],
      "payable": false,
      "stateMutability": "view",
      "type": "function"
    },
    {
      "constant": false,
      "inputs": [
        {
          "internalType": "string",
          "name": "_name",
          "type": "string"
        }
      ],
      "name": "createHodl",
      "outputs": [],
      "payable": false,
      "stateMutability": "nonpayable",
      "type": "function"
    },
    {
      "constant": true,
      "inputs": [
        {
          "internalType": "uint256",
          "name": "_hodlId",
          "type": "uint256"
        }
      ],
      "name": "getInterestAvailableToWithdraw",
      "outputs": [
        {
          "internalType": "uint256",
          "name": "",
          "type": "uint256"
        }
      ],
      "payable": false,
      "stateMutability": "view",
      "type": "function"
    },
    {
      "constant": false,
      "inputs": [
        {
          "internalType": "uint256",
          "name": "_hodlId",
          "type": "uint256"
        }
      ],
      "name": "withdrawInterest",
      "outputs": [],
      "payable": false,
      "stateMutability": "nonpayable",
      "type": "function"
    },
    {
      "constant": false,
      "inputs": [
        {
          "internalType": "uint256",
          "name": "_hodlId",
          "type": "uint256"
        }
      ],
      "name": "destroyHodl",
      "outputs": [],
      "payable": false,
      "stateMutability": "nonpayable",
      "type": "function"
    }
  ],
  "bytecode": "0x60806040526000601155600060125560006013553480156200002057600080fd5b50604051620045c4380380620045c4833981810160405260808110156200004657600080fd5b81019080805190602001909291908051906020019092919080519060200190929190805190602001909291905050506040518060400160405280600b81526020017f486f646c466163746f72790000000000000000000000000000000000000000008152506040518060400160405280600481526020017f484f444c000000000000000000000000000000000000000000000000000000008152508181620000fb6301ffc9a760e01b6200028760201b60201c565b620001136380ac58cd60e01b6200028760201b60201c565b6200012b63780e9d6360e01b6200028760201b60201c565b81600990805190602001906200014392919062000390565b5080600a90805190602001906200015c92919062000390565b5062000175635b5e139f60e01b6200028760201b60201c565b5050505083600d60006101000a81548173ffffffffffffffffffffffffffffffffffffffff021916908373ffffffffffffffffffffffffffffffffffffffff16021790555082600e60006101000a81548173ffffffffffffffffffffffffffffffffffffffff021916908373ffffffffffffffffffffffffffffffffffffffff16021790555081600f60006101000a81548173ffffffffffffffffffffffffffffffffffffffff021916908373ffffffffffffffffffffffffffffffffffffffff16021790555080601060006101000a81548173ffffffffffffffffffffffffffffffffffffffff021916908373ffffffffffffffffffffffffffffffffffffffff160217905550505050506200043f565b63ffffffff60e01b817bffffffffffffffffffffffffffffffffffffffffffffffffffffffff1916141562000324576040517f08c379a000000000000000000000000000000000000000000000000000000000815260040180806020018281038252601c8152602001807f4552433136353a20696e76616c696420696e746572666163652069640000000081525060200191505060405180910390fd5b6001600080837bffffffffffffffffffffffffffffffffffffffffffffffffffffffff19167bffffffffffffffffffffffffffffffffffffffffffffffffffffffff1916815260200190815260200160002060006101000a81548160ff02191690831515021790555050565b828054600181600116156101000203166002900490600052602060002090601f016020900481019282601f10620003d357805160ff191683800117855562000404565b8280016001018555821562000404579182015b8281111562000403578251825591602001919060010190620003e6565b5b50905062000413919062000417565b5090565b6200043c91905b80821115620004385760008160009055506001016200041e565b5090565b90565b614175806200044f6000396000f3fe608060405234801561001057600080fd5b50600436106101e55760003560e01c8063663922e21161010f578063a22cb465116100a2578063c87b56dd11610071578063c87b56dd14610b36578063ce35b7d114610bdd578063e1f2877614610c84578063e985e9c514610d3f576101e5565b8063a22cb465146108ea578063a5080bdd1461093a578063aac13c3d146109ef578063b88d4fde14610a31576101e5565b806370a08231116100de57806370a08231146107d3578063822219071461082b57806395d89b41146108495780639709e738146108cc576101e5565b8063663922e2146106d25780636c0360eb146107145780636c49c786146107975780636ebcf0c7146107b5576101e5565b80631fc154ba116101875780634adce894116101565780634adce894146105a55780634f6ccce7146105c3578063630e825a146106055780636352211e14610664576101e5565b80631fc154ba1461040857806323b872dd146104675780632f745c59146104d557806342842e0e14610537576101e5565b8063081812fc116101c3578063081812fc1461030057806308669aab1461036e578063095ea7b31461039c57806318160ddd146103ea576101e5565b806301ffaabd146101ea57806301ffc9a71461021857806306fdde031461027d575b600080fd5b6102166004803603602081101561020057600080fd5b8101908080359060200190929190505050610dbb565b005b6102636004803603602081101561022e57600080fd5b8101908080357bffffffffffffffffffffffffffffffffffffffffffffffffffffffff1916906020019092919050505061110f565b604051808215151515815260200191505060405180910390f35b610285611176565b6040518080602001828103825283818151815260200191508051906020019080838360005b838110156102c55780820151818401526020810190506102aa565b50505050905090810190601f1680156102f25780820380516001836020036101000a031916815260200191505b509250505060405180910390f35b61032c6004803603602081101561031657600080fd5b8101908080359060200190929190505050611218565b604051808273ffffffffffffffffffffffffffffffffffffffff1673ffffffffffffffffffffffffffffffffffffffff16815260200191505060405180910390f35b61039a6004803603602081101561038457600080fd5b81019080803590602001909291905050506112b3565b005b6103e8600480360360408110156103b257600080fd5b81019080803573ffffffffffffffffffffffffffffffffffffffff169060200190929190803590602001909291905050506114d0565b005b6103f26116b7565b6040518082815260200191505060405180910390f35b6104106116c4565b6040518080602001828103825283818151815260200191508051906020019060200280838360005b83811015610453578082015181840152602081019050610438565b505050509050019250505060405180910390f35b6104d36004803603606081101561047d57600080fd5b81019080803573ffffffffffffffffffffffffffffffffffffffff169060200190929190803573ffffffffffffffffffffffffffffffffffffffff16906020019092919080359060200190929190505050611759565b005b610521600480360360408110156104eb57600080fd5b81019080803573ffffffffffffffffffffffffffffffffffffffff169060200190929190803590602001909291905050506117cf565b6040518082815260200191505060405180910390f35b6105a36004803603606081101561054d57600080fd5b81019080803573ffffffffffffffffffffffffffffffffffffffff169060200190929190803573ffffffffffffffffffffffffffffffffffffffff1690602001909291908035906020019092919050505061188e565b005b6105ad6118ae565b6040518082815260200191505060405180910390f35b6105ef600480360360208110156105d957600080fd5b81019080803590602001909291905050506118b4565b6040518082815260200191505060405180910390f35b61060d611934565b6040518080602001828103825283818151815260200191508051906020019060200280838360005b83811015610650578082015181840152602081019050610635565b505050509050019250505060405180910390f35b6106906004803603602081101561067a57600080fd5b81019080803590602001909291905050506119c9565b604051808273ffffffffffffffffffffffffffffffffffffffff1673ffffffffffffffffffffffffffffffffffffffff16815260200191505060405180910390f35b6106fe600480360360208110156106e857600080fd5b8101908080359060200190929190505050611a91565b6040518082815260200191505060405180910390f35b61071c611c34565b6040518080602001828103825283818151815260200191508051906020019080838360005b8381101561075c578082015181840152602081019050610741565b50505050905090810190601f1680156107895780820380516001836020036101000a031916815260200191505b509250505060405180910390f35b61079f611cd6565b6040518082815260200191505060405180910390f35b6107bd611db7565b6040518082815260200191505060405180910390f35b610815600480360360208110156107e957600080fd5b81019080803573ffffffffffffffffffffffffffffffffffffffff169060200190929190505050611dbd565b6040518082815260200191505060405180910390f35b610833611e92565b6040518082815260200191505060405180910390f35b610851611e98565b6040518080602001828103825283818151815260200191508051906020019080838360005b83811015610891578082015181840152602081019050610876565b50505050905090810190601f1680156108be5780820380516001836020036101000a031916815260200191505b509250505060405180910390f35b6108d4611f3a565b6040518082815260200191505060405180910390f35b6109386004803603604081101561090057600080fd5b81019080803573ffffffffffffffffffffffffffffffffffffffff169060200190929190803515159060200190929190505050611f47565b005b6109666004803603602081101561095057600080fd5b81019080803590602001909291905050506120ff565b6040518084815260200183815260200180602001828103825283818151815260200191508051906020019080838360005b838110156109b2578082015181840152602081019050610997565b50505050905090810190601f1680156109df5780820380516001836020036101000a031916815260200191505b5094505050505060405180910390f35b610a1b60048036036020811015610a0557600080fd5b81019080803590602001909291905050506121c1565b6040518082815260200191505060405180910390f35b610b3460048036036080811015610a4757600080fd5b81019080803573ffffffffffffffffffffffffffffffffffffffff169060200190929190803573ffffffffffffffffffffffffffffffffffffffff1690602001909291908035906020019092919080359060200190640100000000811115610aae57600080fd5b820183602082011115610ac057600080fd5b80359060200191846001830284011164010000000083111715610ae257600080fd5b91908080601f016020809104026020016040519081016040528093929190818152602001838380828437600081840152601f19601f8201169050808301925050505050505091929192905050506121e1565b005b610b6260048036036020811015610b4c57600080fd5b8101908080359060200190929190505050612259565b6040518080602001828103825283818151815260200191508051906020019080838360005b83811015610ba2578082015181840152602081019050610b87565b50505050905090810190601f168015610bcf5780820380516001836020036101000a031916815260200191505b509250505060405180910390f35b610c0960048036036020811015610bf357600080fd5b810190808035906020019092919050505061245b565b6040518080602001828103825283818151815260200191508051906020019080838360005b83811015610c49578082015181840152602081019050610c2e565b50505050905090810190601f168015610c765780820380516001836020036101000a031916815260200191505b509250505060405180910390f35b610d3d60048036036020811015610c9a57600080fd5b8101908080359060200190640100000000811115610cb757600080fd5b820183602082011115610cc957600080fd5b80359060200191846001830284011164010000000083111715610ceb57600080fd5b91908080601f016020809104026020016040519081016040528093929190818152602001838380828437600081840152601f19601f820116905080830192505050505050509192919290505050612513565b005b610da160048036036040811015610d5557600080fd5b81019080803573ffffffffffffffffffffffffffffffffffffffff169060200190929190803573ffffffffffffffffffffffffffffffffffffffff169060200190929190505050612921565b604051808215151515815260200191505060405180910390f35b3373ffffffffffffffffffffffffffffffffffffffff16610ddb826119c9565b73ffffffffffffffffffffffffffffffffffffffff1614610e64576040517f08c379a00000000000000000000000000000000000000000000000000000000081526004018080602001828103825260098152602001807f4e6f74206f776e6572000000000000000000000000000000000000000000000081525060200191505060405180910390fd5b610e6d816112b3565b60016011541115610ee957610ede610e9160016011546129b590919063ffffffff16565b610ed06014600085815260200190815260200160002060010154610ec26011546013546129ff90919063ffffffff16565b6129b590919063ffffffff16565b612a8590919063ffffffff16565b601381905550610ef2565b60006013819055505b600e60009054906101000a900473ffffffffffffffffffffffffffffffffffffffff1673ffffffffffffffffffffffffffffffffffffffff1663db006a7568056bc75e2d631000006040518263ffffffff1660e01b815260040180828152602001915050600060405180830381600087803b158015610f7057600080fd5b505af1158015610f84573d6000803e3d6000fd5b50505050600d60009054906101000a900473ffffffffffffffffffffffffffffffffffffffff1673ffffffffffffffffffffffffffffffffffffffff1663a9059cbb610fcf836119c9565b68056bc75e2d631000006040518363ffffffff1660e01b8152600401808373ffffffffffffffffffffffffffffffffffffffff1673ffffffffffffffffffffffffffffffffffffffff16815260200182815260200192505050602060405180830381600087803b15801561104257600080fd5b505af1158015611056573d6000803e3d6000fd5b505050506040513d602081101561106c57600080fd5b81019080805190602001909291905050505061109460016011546129b590919063ffffffff16565b6011819055506110a381612acf565b601660003373ffffffffffffffffffffffffffffffffffffffff1673ffffffffffffffffffffffffffffffffffffffff16815260200190815260200160002081908060018154018082558091505090600182039060005260206000200160009091929091909150555050565b6000806000837bffffffffffffffffffffffffffffffffffffffffffffffffffffffff19167bffffffffffffffffffffffffffffffffffffffffffffffffffffffff1916815260200190815260200160002060009054906101000a900460ff169050919050565b606060098054600181600116156101000203166002900480601f01602080910402602001604051908101604052809291908181526020018280546001816001161561010002031660029004801561120e5780601f106111e35761010080835404028352916020019161120e565b820191906000526020600020905b8154815290600101906020018083116111f157829003601f168201915b5050505050905090565b600061122382612ae4565b611278576040517f08c379a000000000000000000000000000000000000000000000000000000000815260040180806020018281038252602c81526020018061401a602c913960400191505060405180910390fd5b6002600083815260200190815260200160002060009054906101000a900473ffffffffffffffffffffffffffffffffffffffff169050919050565b60006112be82611a91565b905060006112d96011546013546129ff90919063ffffffff16565b90506000611318601460008681526020019081526020016000206001015461130a4285612b5690919063ffffffff16565b6129b590919063ffffffff16565b905061132f60115482612a8590919063ffffffff16565b601381905550426014600086815260200190815260200160002060010181905550600e60009054906101000a900473ffffffffffffffffffffffffffffffffffffffff1673ffffffffffffffffffffffffffffffffffffffff1663db006a75846040518263ffffffff1660e01b815260040180828152602001915050600060405180830381600087803b1580156113c557600080fd5b505af11580156113d9573d6000803e3d6000fd5b50505050600d60009054906101000a900473ffffffffffffffffffffffffffffffffffffffff1673ffffffffffffffffffffffffffffffffffffffff1663a9059cbb611424866119c9565b856040518363ffffffff1660e01b8152600401808373ffffffffffffffffffffffffffffffffffffffff1673ffffffffffffffffffffffffffffffffffffffff16815260200182815260200192505050602060405180830381600087803b15801561148e57600080fd5b505af11580156114a2573d6000803e3d6000fd5b505050506040513d60208110156114b857600080fd5b81019080805190602001909291905050505050505050565b60006114db826119c9565b90508073ffffffffffffffffffffffffffffffffffffffff168373ffffffffffffffffffffffffffffffffffffffff161415611562576040517f08c379a000000000000000000000000000000000000000000000000000000000815260040180806020018281038252602181526020018061409e6021913960400191505060405180910390fd5b8073ffffffffffffffffffffffffffffffffffffffff16611581612bde565b73ffffffffffffffffffffffffffffffffffffffff1614806115b057506115af816115aa612bde565b612921565b5b611605576040517f08c379a0000000000000000000000000000000000000000000000000000000008152600401808060200182810382526038815260200180613f6e6038913960400191505060405180910390fd5b826002600084815260200190815260200160002060006101000a81548173ffffffffffffffffffffffffffffffffffffffff021916908373ffffffffffffffffffffffffffffffffffffffff160217905550818373ffffffffffffffffffffffffffffffffffffffff168273ffffffffffffffffffffffffffffffffffffffff167f8c5be1e5ebec7d5bd14f71427d1e84f3dd0314c0f7b2291e5b200ac8c7c3b92560405160405180910390a4505050565b6000600780549050905090565b6060601660003373ffffffffffffffffffffffffffffffffffffffff1673ffffffffffffffffffffffffffffffffffffffff16815260200190815260200160002080548060200260200160405190810160405280929190818152602001828054801561174f57602002820191906000526020600020905b81548152602001906001019080831161173b575b5050505050905090565b61176a611764612bde565b82612be6565b6117bf576040517f08c379a00000000000000000000000000000000000000000000000000000000081526004018080602001828103825260318152602001806140bf6031913960400191505060405180910390fd5b6117ca838383612cda565b505050565b60006117da83611dbd565b8210611831576040517f08c379a000000000000000000000000000000000000000000000000000000000815260040180806020018281038252602b815260200180613ec1602b913960400191505060405180910390fd5b600560008473ffffffffffffffffffffffffffffffffffffffff1673ffffffffffffffffffffffffffffffffffffffff168152602001908152602001600020828154811061187b57fe5b9060005260206000200154905092915050565b6118a9838383604051806020016040528060008152506121e1565b505050565b60125481565b60006118be6116b7565b8210611915576040517f08c379a000000000000000000000000000000000000000000000000000000000815260040180806020018281038252602c8152602001806140f0602c913960400191505060405180910390fd5b6007828154811061192257fe5b90600052602060002001549050919050565b6060601560003373ffffffffffffffffffffffffffffffffffffffff1673ffffffffffffffffffffffffffffffffffffffff1681526020019081526020016000208054806020026020016040519081016040528092919081815260200182805480156119bf57602002820191906000526020600020905b8154815260200190600101908083116119ab575b5050505050905090565b6000806001600084815260200190815260200160002060009054906101000a900473ffffffffffffffffffffffffffffffffffffffff169050600073ffffffffffffffffffffffffffffffffffffffff168173ffffffffffffffffffffffffffffffffffffffff161415611a88576040517f08c379a0000000000000000000000000000000000000000000000000000000008152600401808060200182810382526029815260200180613fd06029913960400191505060405180910390fd5b80915050919050565b600080600e60009054906101000a900473ffffffffffffffffffffffffffffffffffffffff1673ffffffffffffffffffffffffffffffffffffffff166370a08231306040518263ffffffff1660e01b8152600401808273ffffffffffffffffffffffffffffffffffffffff1673ffffffffffffffffffffffffffffffffffffffff16815260200191505060206040518083038186803b158015611b3357600080fd5b505afa158015611b47573d6000803e3d6000fd5b505050506040513d6020811015611b5d57600080fd5b810190808051906020019092919050505090506000611b9068056bc75e2d631000006011546129ff90919063ffffffff16565b90506000611ba782846129b590919063ffffffff16565b90506000611be6611bd76014600089815260200190815260200160002060010154426129b590919063ffffffff16565b836129ff90919063ffffffff16565b90506000611c13601154611c05601354426129b590919063ffffffff16565b6129ff90919063ffffffff16565b9050611c288183612a8590919063ffffffff16565b95505050505050919050565b6060600b8054600181600116156101000203166002900480601f016020809104026020016040519081016040528092919081815260200182805460018160011615610100020316600290048015611ccc5780601f10611ca157610100808354040283529160200191611ccc565b820191906000526020600020905b815481529060010190602001808311611caf57829003601f168201915b5050505050905090565b6000600e60009054906101000a900473ffffffffffffffffffffffffffffffffffffffff1673ffffffffffffffffffffffffffffffffffffffff166370a08231306040518263ffffffff1660e01b8152600401808273ffffffffffffffffffffffffffffffffffffffff1673ffffffffffffffffffffffffffffffffffffffff16815260200191505060206040518083038186803b158015611d7757600080fd5b505afa158015611d8b573d6000803e3d6000fd5b505050506040513d6020811015611da157600080fd5b8101908080519060200190929190505050905090565b60115481565b60008073ffffffffffffffffffffffffffffffffffffffff168273ffffffffffffffffffffffffffffffffffffffff161415611e44576040517f08c379a000000000000000000000000000000000000000000000000000000000815260040180806020018281038252602a815260200180613fa6602a913960400191505060405180910390fd5b611e8b600360008473ffffffffffffffffffffffffffffffffffffffff1673ffffffffffffffffffffffffffffffffffffffff168152602001908152602001600020612cfe565b9050919050565b60135481565b6060600a8054600181600116156101000203166002900480601f016020809104026020016040519081016040528092919081815260200182805460018160011615610100020316600290048015611f305780601f10611f0557610100808354040283529160200191611f30565b820191906000526020600020905b815481529060010190602001808311611f1357829003601f168201915b5050505050905090565b68056bc75e2d6310000081565b611f4f612bde565b73ffffffffffffffffffffffffffffffffffffffff168273ffffffffffffffffffffffffffffffffffffffff161415611ff0576040517f08c379a00000000000000000000000000000000000000000000000000000000081526004018080602001828103825260198152602001807f4552433732313a20617070726f766520746f2063616c6c65720000000000000081525060200191505060405180910390fd5b8060046000611ffd612bde565b73ffffffffffffffffffffffffffffffffffffffff1673ffffffffffffffffffffffffffffffffffffffff16815260200190815260200160002060008473ffffffffffffffffffffffffffffffffffffffff1673ffffffffffffffffffffffffffffffffffffffff16815260200190815260200160002060006101000a81548160ff0219169083151502179055508173ffffffffffffffffffffffffffffffffffffffff166120aa612bde565b73ffffffffffffffffffffffffffffffffffffffff167f17307eab39ab6107e8899845ad3d59bd9653f200f220920489ca2b5937696c3183604051808215151515815260200191505060405180910390a35050565b6014602052806000526040600020600091509050806000015490806001015490806002018054600181600116156101000203166002900480601f0160208091040260200160405190810160405280929190818152602001828054600181600116156101000203166002900480156121b75780601f1061218c576101008083540402835291602001916121b7565b820191906000526020600020905b81548152906001019060200180831161219a57829003601f168201915b5050505050905083565b600060146000838152602001908152602001600020600001549050919050565b6121f26121ec612bde565b83612be6565b612247576040517f08c379a00000000000000000000000000000000000000000000000000000000081526004018080602001828103825260318152602001806140bf6031913960400191505060405180910390fd5b61225384848484612d0c565b50505050565b606061226482612ae4565b6122b9576040517f08c379a000000000000000000000000000000000000000000000000000000000815260040180806020018281038252602f81526020018061406f602f913960400191505060405180910390fd5b6060600c60008481526020019081526020016000208054600181600116156101000203166002900480601f0160208091040260200160405190810160405280929190818152602001828054600181600116156101000203166002900480156123625780601f1061233757610100808354040283529160200191612362565b820191906000526020600020905b81548152906001019060200180831161234557829003601f168201915b5050505050905060008151141561238b5760405180602001604052806000815250915050612456565b600b8160405160200180838054600181600116156101000203166002900480156123ec5780601f106123ca5761010080835404028352918201916123ec565b820191906000526020600020905b8154815290600101906020018083116123d8575b505082805190602001908083835b6020831061241d57805182526020820191506020810190506020830392506123fa565b6001836020036101000a038019825116818451168082178552505050505050905001925050506040516020818303038152906040529150505b919050565b6060601460008381526020019081526020016000206002018054600181600116156101000203166002900480601f0160208091040260200160405190810160405280929190818152602001828054600181600116156101000203166002900480156125075780601f106124dc57610100808354040283529160200191612507565b820191906000526020600020905b8154815290600101906020018083116124ea57829003601f168201915b50505050509050919050565b601560003373ffffffffffffffffffffffffffffffffffffffff1673ffffffffffffffffffffffffffffffffffffffff1681526020019081526020016000206012549080600181540180825580915050906001820390600052602060002001600090919290919091505550426014600060125481526020019081526020016000206000018190555042601460006012548152602001908152602001600020600101819055508060146000601254815260200190815260200160002060020190805190602001906125e4929190613da7565b506126356125fe6001601154612b5690919063ffffffff16565b612627426126196011546013546129ff90919063ffffffff16565b612b5690919063ffffffff16565b612a8590919063ffffffff16565b601381905550600d60009054906101000a900473ffffffffffffffffffffffffffffffffffffffff1673ffffffffffffffffffffffffffffffffffffffff1663a0712d6868056bc75e2d631000006040518263ffffffff1660e01b815260040180828152602001915050600060405180830381600087803b1580156126b957600080fd5b505af11580156126cd573d6000803e3d6000fd5b50505050600d60009054906101000a900473ffffffffffffffffffffffffffffffffffffffff1673ffffffffffffffffffffffffffffffffffffffff1663095ea7b3601060009054906101000a900473ffffffffffffffffffffffffffffffffffffffff1668056bc75e2d631000006040518363ffffffff1660e01b8152600401808373ffffffffffffffffffffffffffffffffffffffff1673ffffffffffffffffffffffffffffffffffffffff16815260200182815260200192505050602060405180830381600087803b1580156127a557600080fd5b505af11580156127b9573d6000803e3d6000fd5b505050506040513d60208110156127cf57600080fd5b810190808051906020019092919050505050600f60009054906101000a900473ffffffffffffffffffffffffffffffffffffffff1673ffffffffffffffffffffffffffffffffffffffff1663d2d0e066600d60009054906101000a900473ffffffffffffffffffffffffffffffffffffffff1668056bc75e2d6310000060006040518463ffffffff1660e01b8152600401808473ffffffffffffffffffffffffffffffffffffffff1673ffffffffffffffffffffffffffffffffffffffff1681526020018381526020018261ffff1681526020019350505050600060405180830381600087803b1580156128c257600080fd5b505af11580156128d6573d6000803e3d6000fd5b505050506128e633601254612d7e565b6128fc6001601154612b5690919063ffffffff16565b6011819055506129186001601254612b5690919063ffffffff16565b60128190555050565b6000600460008473ffffffffffffffffffffffffffffffffffffffff1673ffffffffffffffffffffffffffffffffffffffff16815260200190815260200160002060008373ffffffffffffffffffffffffffffffffffffffff1673ffffffffffffffffffffffffffffffffffffffff16815260200190815260200160002060009054906101000a900460ff16905092915050565b60006129f783836040518060400160405280601e81526020017f536166654d6174683a207375627472616374696f6e206f766572666c6f770000815250612d9f565b905092915050565b600080831415612a125760009050612a7f565b6000828402905082848281612a2357fe5b0414612a7a576040517f08c379a0000000000000000000000000000000000000000000000000000000008152600401808060200182810382526021815260200180613ff96021913960400191505060405180910390fd5b809150505b92915050565b6000612ac783836040518060400160405280601a81526020017f536166654d6174683a206469766973696f6e206279207a65726f000000000000815250612e5f565b905092915050565b612ae1612adb826119c9565b82612f25565b50565b6000806001600084815260200190815260200160002060009054906101000a900473ffffffffffffffffffffffffffffffffffffffff169050600073ffffffffffffffffffffffffffffffffffffffff168173ffffffffffffffffffffffffffffffffffffffff161415915050919050565b600080828401905083811015612bd4576040517f08c379a000000000000000000000000000000000000000000000000000000000815260040180806020018281038252601b8152602001807f536166654d6174683a206164646974696f6e206f766572666c6f77000000000081525060200191505060405180910390fd5b8091505092915050565b600033905090565b6000612bf182612ae4565b612c46576040517f08c379a000000000000000000000000000000000000000000000000000000000815260040180806020018281038252602c815260200180613f42602c913960400191505060405180910390fd5b6000612c51836119c9565b90508073ffffffffffffffffffffffffffffffffffffffff168473ffffffffffffffffffffffffffffffffffffffff161480612cc057508373ffffffffffffffffffffffffffffffffffffffff16612ca884611218565b73ffffffffffffffffffffffffffffffffffffffff16145b80612cd15750612cd08185612921565b5b91505092915050565b612ce5838383612f82565b612cef83826131dd565b612cf9828261337b565b505050565b600081600001549050919050565b612d17848484612cda565b612d2384848484613442565b612d78576040517f08c379a0000000000000000000000000000000000000000000000000000000008152600401808060200182810382526032815260200180613eec6032913960400191505060405180910390fd5b50505050565b612d88828261377e565b612d92828261337b565b612d9b81613996565b5050565b6000838311158290612e4c576040517f08c379a00000000000000000000000000000000000000000000000000000000081526004018080602001828103825283818151815260200191508051906020019080838360005b83811015612e11578082015181840152602081019050612df6565b50505050905090810190601f168015612e3e5780820380516001836020036101000a031916815260200191505b509250505060405180910390fd5b5060008385039050809150509392505050565b60008083118290612f0b576040517f08c379a00000000000000000000000000000000000000000000000000000000081526004018080602001828103825283818151815260200191508051906020019080838360005b83811015612ed0578082015181840152602081019050612eb5565b50505050905090810190601f168015612efd5780820380516001836020036101000a031916815260200191505b509250505060405180910390fd5b506000838581612f1757fe5b049050809150509392505050565b612f2f82826139e2565b6000600c600083815260200190815260200160002080546001816001161561010002031660029004905014612f7e57600c60008281526020019081526020016000206000612f7d9190613e27565b5b5050565b8273ffffffffffffffffffffffffffffffffffffffff16612fa2826119c9565b73ffffffffffffffffffffffffffffffffffffffff161461300e576040517f08c379a00000000000000000000000000000000000000000000000000000000081526004018080602001828103825260298152602001806140466029913960400191505060405180910390fd5b600073ffffffffffffffffffffffffffffffffffffffff168273ffffffffffffffffffffffffffffffffffffffff161415613094576040517f08c379a0000000000000000000000000000000000000000000000000000000008152600401808060200182810382526024815260200180613f1e6024913960400191505060405180910390fd5b61309d81613a1c565b6130e4600360008573ffffffffffffffffffffffffffffffffffffffff1673ffffffffffffffffffffffffffffffffffffffff168152602001908152602001600020613ada565b61312b600360008473ffffffffffffffffffffffffffffffffffffffff1673ffffffffffffffffffffffffffffffffffffffff168152602001908152602001600020613afd565b816001600083815260200190815260200160002060006101000a81548173ffffffffffffffffffffffffffffffffffffffff021916908373ffffffffffffffffffffffffffffffffffffffff160217905550808273ffffffffffffffffffffffffffffffffffffffff168473ffffffffffffffffffffffffffffffffffffffff167fddf252ad1be2c89b69c2b068fc378daa952ba7f163c4a11628f55a4df523b3ef60405160405180910390a4505050565b60006132356001600560008673ffffffffffffffffffffffffffffffffffffffff1673ffffffffffffffffffffffffffffffffffffffff168152602001908152602001600020805490506129b590919063ffffffff16565b9050600060066000848152602001908152602001600020549050818114613322576000600560008673ffffffffffffffffffffffffffffffffffffffff1673ffffffffffffffffffffffffffffffffffffffff16815260200190815260200160002083815481106132a257fe5b9060005260206000200154905080600560008773ffffffffffffffffffffffffffffffffffffffff1673ffffffffffffffffffffffffffffffffffffffff16815260200190815260200160002083815481106132fa57fe5b9060005260206000200181905550816006600083815260200190815260200160002081905550505b600560008573ffffffffffffffffffffffffffffffffffffffff1673ffffffffffffffffffffffffffffffffffffffff1681526020019081526020016000208054809190600190036133749190613e6f565b5050505050565b600560008373ffffffffffffffffffffffffffffffffffffffff1673ffffffffffffffffffffffffffffffffffffffff168152602001908152602001600020805490506006600083815260200190815260200160002081905550600560008373ffffffffffffffffffffffffffffffffffffffff1673ffffffffffffffffffffffffffffffffffffffff1681526020019081526020016000208190806001815401808255809150509060018203906000526020600020016000909192909190915055505050565b60006134638473ffffffffffffffffffffffffffffffffffffffff16613b13565b6134705760019050613776565b600060608573ffffffffffffffffffffffffffffffffffffffff168673ffffffffffffffffffffffffffffffffffffffff1663150b7a02905060e01b6134b4612bde565b898888604051602401808573ffffffffffffffffffffffffffffffffffffffff1673ffffffffffffffffffffffffffffffffffffffff1681526020018473ffffffffffffffffffffffffffffffffffffffff1673ffffffffffffffffffffffffffffffffffffffff16815260200183815260200180602001828103825283818151815260200191508051906020019080838360005b83811015613564578082015181840152602081019050613549565b50505050905090810190601f1680156135915780820380516001836020036101000a031916815260200191505b5095505050505050604051602081830303815290604052907bffffffffffffffffffffffffffffffffffffffffffffffffffffffff19166020820180517bffffffffffffffffffffffffffffffffffffffffffffffffffffffff83818316178352505050506040518082805190602001908083835b602083106136295780518252602082019150602081019050602083039250613606565b6001836020036101000a0380198251168184511680821785525050505050509050019150506000604051808303816000865af19150503d806000811461368b576040519150601f19603f3d011682016040523d82523d6000602084013e613690565b606091505b5091509150816136fe576000815111156136ad5780518082602001fd5b6040517f08c379a0000000000000000000000000000000000000000000000000000000008152600401808060200182810382526032815260200180613eec6032913960400191505060405180910390fd5b600081806020019051602081101561371557600080fd5b8101908080519060200190929190505050905063150b7a0260e01b7bffffffffffffffffffffffffffffffffffffffffffffffffffffffff1916817bffffffffffffffffffffffffffffffffffffffffffffffffffffffff19161493505050505b949350505050565b600073ffffffffffffffffffffffffffffffffffffffff168273ffffffffffffffffffffffffffffffffffffffff161415613821576040517f08c379a00000000000000000000000000000000000000000000000000000000081526004018080602001828103825260208152602001807f4552433732313a206d696e7420746f20746865207a65726f206164647265737381525060200191505060405180910390fd5b61382a81612ae4565b1561389d576040517f08c379a000000000000000000000000000000000000000000000000000000000815260040180806020018281038252601c8152602001807f4552433732313a20746f6b656e20616c7265616479206d696e7465640000000081525060200191505060405180910390fd5b816001600083815260200190815260200160002060006101000a81548173ffffffffffffffffffffffffffffffffffffffff021916908373ffffffffffffffffffffffffffffffffffffffff160217905550613936600360008473ffffffffffffffffffffffffffffffffffffffff1673ffffffffffffffffffffffffffffffffffffffff168152602001908152602001600020613afd565b808273ffffffffffffffffffffffffffffffffffffffff16600073ffffffffffffffffffffffffffffffffffffffff167fddf252ad1be2c89b69c2b068fc378daa952ba7f163c4a11628f55a4df523b3ef60405160405180910390a45050565b6007805490506008600083815260200190815260200160002081905550600781908060018154018082558091505090600182039060005260206000200160009091929091909150555050565b6139ec8282613b5e565b6139f682826131dd565b60006006600083815260200190815260200160002081905550613a1881613ced565b5050565b600073ffffffffffffffffffffffffffffffffffffffff166002600083815260200190815260200160002060009054906101000a900473ffffffffffffffffffffffffffffffffffffffff1673ffffffffffffffffffffffffffffffffffffffff1614613ad75760006002600083815260200190815260200160002060006101000a81548173ffffffffffffffffffffffffffffffffffffffff021916908373ffffffffffffffffffffffffffffffffffffffff1602179055505b50565b613af2600182600001546129b590919063ffffffff16565b816000018190555050565b6001816000016000828254019250508190555050565b60008060007fc5d2460186f7233c927e7db2dcc703c0e500b653ca82273b7bfad8045d85a47060001b9050833f9150808214158015613b5557506000801b8214155b92505050919050565b8173ffffffffffffffffffffffffffffffffffffffff16613b7e826119c9565b73ffffffffffffffffffffffffffffffffffffffff1614613bea576040517f08c379a000000000000000000000000000000000000000000000000000000000815260040180806020018281038252602581526020018061411c6025913960400191505060405180910390fd5b613bf381613a1c565b613c3a600360008473ffffffffffffffffffffffffffffffffffffffff1673ffffffffffffffffffffffffffffffffffffffff168152602001908152602001600020613ada565b60006001600083815260200190815260200160002060006101000a81548173ffffffffffffffffffffffffffffffffffffffff021916908373ffffffffffffffffffffffffffffffffffffffff16021790555080600073ffffffffffffffffffffffffffffffffffffffff168373ffffffffffffffffffffffffffffffffffffffff167fddf252ad1be2c89b69c2b068fc378daa952ba7f163c4a11628f55a4df523b3ef60405160405180910390a45050565b6000613d0860016007805490506129b590919063ffffffff16565b9050600060086000848152602001908152602001600020549050600060078381548110613d3157fe5b906000526020600020015490508060078381548110613d4c57fe5b90600052602060002001819055508160086000838152602001908152602001600020819055506007805480919060019003613d879190613e6f565b506000600860008681526020019081526020016000208190555050505050565b828054600181600116156101000203166002900490600052602060002090601f016020900481019282601f10613de857805160ff1916838001178555613e16565b82800160010185558215613e16579182015b82811115613e15578251825591602001919060010190613dfa565b5b509050613e239190613e9b565b5090565b50805460018160011615610100020316600290046000825580601f10613e4d5750613e6c565b601f016020900490600052602060002090810190613e6b9190613e9b565b5b50565b815481835581811115613e9657818360005260206000209182019101613e959190613e9b565b5b505050565b613ebd91905b80821115613eb9576000816000905550600101613ea1565b5090565b9056fe455243373231456e756d657261626c653a206f776e657220696e646578206f7574206f6620626f756e64734552433732313a207472616e7366657220746f206e6f6e20455243373231526563656976657220696d706c656d656e7465724552433732313a207472616e7366657220746f20746865207a65726f20616464726573734552433732313a206f70657261746f7220717565727920666f72206e6f6e6578697374656e7420746f6b656e4552433732313a20617070726f76652063616c6c6572206973206e6f74206f776e6572206e6f7220617070726f76656420666f7220616c6c4552433732313a2062616c616e636520717565727920666f7220746865207a65726f20616464726573734552433732313a206f776e657220717565727920666f72206e6f6e6578697374656e7420746f6b656e536166654d6174683a206d756c7469706c69636174696f6e206f766572666c6f774552433732313a20617070726f76656420717565727920666f72206e6f6e6578697374656e7420746f6b656e4552433732313a207472616e73666572206f6620746f6b656e2074686174206973206e6f74206f776e4552433732314d657461646174613a2055524920717565727920666f72206e6f6e6578697374656e7420746f6b656e4552433732313a20617070726f76616c20746f2063757272656e74206f776e65724552433732313a207472616e736665722063616c6c6572206973206e6f74206f776e6572206e6f7220617070726f766564455243373231456e756d657261626c653a20676c6f62616c20696e646578206f7574206f6620626f756e64734552433732313a206275726e206f6620746f6b656e2074686174206973206e6f74206f776ea265627a7a72315820176e8900e036838c28020d5d932aebb8392c1b35df7cf102781412279e4c80eb64736f6c634300050c0032",
  "source": "pragma solidity >=0.4.21 <0.7.0;\n\nimport \"@openzeppelin/contracts/token/ERC721/ERC721Full.sol\";\nimport \"@openzeppelin/contracts/math/SafeMath.sol\";\nimport \"@nomiclabs/buidler/console.sol\";\n\n/// @title Dai contract interface\n/// @notice Various cash functions\ninterface Cash \n{\n    function approve(address _spender, uint _amount) external returns (bool);\n    function balanceOf(address _ownesr) external view returns (uint);\n    function mint(uint256) external;\n    function transfer(address _to, uint _amount) external returns (bool);\n}\n\ninterface IaToken \n{\n    function balanceOf(address _user) external view returns(uint);\n    function redeem(uint256 _amount) external;\n}\n\ninterface IAaveLendingPool \n{\n    function deposit( address _reserve, uint256 _amount, uint16 _referralCode) external;\n}\n\ninterface IAaveLendingPoolCore {}\n\ncontract ClassicHodlFactory is ERC721Full {\n\n    using SafeMath for uint;\n\n    Cash underlying;\n    IaToken aToken;\n    IAaveLendingPool aaveLendingPool;\n    IAaveLendingPoolCore aaveLendingPoolCore;\n\n    constructor(address _cashAddress, address _aTokenAddress, address _aaveLpAddress, address _aaveLpcoreAddress ) ERC721Full(\"HodlFactory\", \"HODL\") public { \n        underlying = Cash(_cashAddress);\n        aToken = IaToken(_aTokenAddress); \n        aaveLendingPool = IAaveLendingPool(_aaveLpAddress); \n        aaveLendingPoolCore = IAaveLendingPoolCore(_aaveLpcoreAddress); \n    }\n\n    uint public hodlCount = 0;\n    uint public latestHodlId = 0;\n    uint public averageTimeLastWithdrawn = 0;\n    uint constant public oneHundredDai = 10**20;\n\n     struct hodl {\n        uint purchaseTime;\n        uint interestLastWithdrawnTime;\n        string name;\n    }\n\n    mapping (uint => hodl) public hodlProperties; \n    mapping (address => uint[]) hodlOwnerTracker;\n    mapping (address => uint[]) hodlsDeletedTracker;\n\n    // event stfu(uint indexed stfu);\n\n    function getHodlPurchaseTime(uint _hodlId) external view returns (uint) {\n        return hodlProperties[_hodlId].purchaseTime;\n    }\n\n    function getHodlName(uint _hodlId) external view returns (string memory) {\n        return hodlProperties[_hodlId].name;\n    }\n\n    function getAdaiBalance() public view returns (uint) {\n        return(aToken.balanceOf(address(this)));\n    }\n\n    function getHodlsOwned() public view returns(uint[] memory) {\n        return(hodlOwnerTracker[msg.sender]);\n    }\n\n    function getHodlsDeleted() public view returns(uint[] memory) {\n        return(hodlsDeletedTracker[msg.sender]);\n    }\n\n    function createHodl(string memory _name) public {\n        // UPDATE VARIABLES\n        hodlOwnerTracker[msg.sender].push(latestHodlId);\n        hodlProperties[latestHodlId].purchaseTime = now;\n        hodlProperties[latestHodlId].interestLastWithdrawnTime = now;\n        hodlProperties[latestHodlId].name = _name;\n        averageTimeLastWithdrawn = ((averageTimeLastWithdrawn.mul(hodlCount)).add(now)).div(hodlCount.add(1));\n         // SWAP DAI FOR aDAI\n        underlying.mint(oneHundredDai);\n        underlying.approve(address(aaveLendingPoolCore), oneHundredDai);\n        aaveLendingPool.deposit(address(underlying), oneHundredDai, 0);\n        // // GENERATE NFT\n        _mint(msg.sender, latestHodlId);\n        hodlCount = hodlCount.add(1);  \n        latestHodlId = latestHodlId.add(1);\n    } \n\n    function getInterestAvailableToWithdraw(uint _hodlId) public view returns (uint) {\n        uint _totalAdaiBalance = aToken.balanceOf(address(this)); \n        uint _totalDaiBalance = hodlCount.mul(oneHundredDai);\n        uint _totalInterestAvailable = _totalAdaiBalance.sub(_totalDaiBalance);\n        uint _numerator = _totalInterestAvailable.mul(now.sub(hodlProperties[_hodlId].interestLastWithdrawnTime));\n        uint _denominator = (now.sub(averageTimeLastWithdrawn)).mul(hodlCount);\n        return (_numerator.div(_denominator));\n    }\n\n    function withdrawInterest(uint _hodlId) public {\n        uint _interestToWithdraw = getInterestAvailableToWithdraw(_hodlId);\n        // update variables\n        uint _sumOfLastWithdrawTimes = averageTimeLastWithdrawn.mul(hodlCount);\n        uint _sumOfLastWithdrawTimesUpdated = _sumOfLastWithdrawTimes.add(now).sub(hodlProperties[_hodlId].interestLastWithdrawnTime);\n        averageTimeLastWithdrawn = _sumOfLastWithdrawTimesUpdated.div(hodlCount);\n        hodlProperties[_hodlId].interestLastWithdrawnTime = now;\n        // external calls\n        aToken.redeem(_interestToWithdraw);\n        underlying.transfer(ownerOf(_hodlId), _interestToWithdraw);\n    }\n\n    function destroyHodl(uint _hodlId) public {\n        require (ownerOf(_hodlId) == msg.sender, \"Not owner\");\n        // require (hodlProperties[_hodlId].purchaseTime.add(3600) < now, \"HODL must be owned for 1 hour\");\n        withdrawInterest(_hodlId);\n        // update averageTimeLastWithdrawn\n        if (hodlCount > 1) {\n            averageTimeLastWithdrawn = ((averageTimeLastWithdrawn.mul(hodlCount)).sub(hodlProperties[_hodlId].interestLastWithdrawnTime)).div(hodlCount.sub(1));\n        } else {\n            averageTimeLastWithdrawn = 0;\n        }\n        // external calls\n        aToken.redeem(oneHundredDai);\n        underlying.transfer(ownerOf(_hodlId), oneHundredDai);\n        // remove HODL\n        hodlCount = hodlCount.sub(1);\n        _burn(_hodlId);\n        hodlsDeletedTracker[msg.sender].push(_hodlId);\n    }\n\n}\n",
  "sourcePath": "/Users/mcplums/Repos/HodlFactory/contracts/ClassicHodlFactory.sol",
  "compiler": {
    "name": "solc",
    "version": "0.5.12+commit.7709ece9.Emscripten.clang"
  },
  "schemaVersion": "3.0.19",
  "updatedAt": "2020-04-28T13:08:29.208Z",
  "networkType": "ethereum",
  "devdoc": {
    "methods": {
      "approve(address,uint256)": {
        "details": "Approves another address to transfer the given token ID The zero address indicates there is no approved address. There can only be one approved address per token at a given time. Can only be called by the token owner or an approved operator.",
        "params": {
          "to": "address to be approved for the given token ID",
          "tokenId": "uint256 ID of the token to be approved"
        }
      },
      "balanceOf(address)": {
        "details": "Gets the balance of the specified address.",
        "params": {
          "owner": "address to query the balance of"
        },
        "return": "uint256 representing the amount owned by the passed address"
      },
      "baseURI()": {
        "details": "Returns the base URI set via {_setBaseURI}. This will be automatically added as a preffix in {tokenURI} to each token's URI, when they are non-empty.    * _Available since v2.5.0._"
      },
      "getApproved(uint256)": {
        "details": "Gets the approved address for a token ID, or zero if no address set Reverts if the token ID does not exist.",
        "params": {
          "tokenId": "uint256 ID of the token to query the approval of"
        },
        "return": "address currently approved for the given token ID"
      },
      "isApprovedForAll(address,address)": {
        "details": "Tells whether an operator is approved by a given owner.",
        "params": {
          "operator": "operator address which you want to query the approval of",
          "owner": "owner address which you want to query the approval of"
        },
        "return": "bool whether the given operator is approved by the given owner"
      },
      "name()": {
        "details": "Gets the token name.",
        "return": "string representing the token name"
      },
      "ownerOf(uint256)": {
        "details": "Gets the owner of the specified token ID.",
        "params": {
          "tokenId": "uint256 ID of the token to query the owner of"
        },
        "return": "address currently marked as the owner of the given token ID"
      },
      "safeTransferFrom(address,address,uint256)": {
        "details": "Safely transfers the ownership of a given token ID to another address If the target address is a contract, it must implement {IERC721Receiver-onERC721Received}, which is called upon a safe transfer, and return the magic value `bytes4(keccak256(\"onERC721Received(address,address,uint256,bytes)\"))`; otherwise, the transfer is reverted. Requires the msg.sender to be the owner, approved, or operator",
        "params": {
          "from": "current owner of the token",
          "to": "address to receive the ownership of the given token ID",
          "tokenId": "uint256 ID of the token to be transferred"
        }
      },
      "safeTransferFrom(address,address,uint256,bytes)": {
        "details": "Safely transfers the ownership of a given token ID to another address If the target address is a contract, it must implement {IERC721Receiver-onERC721Received}, which is called upon a safe transfer, and return the magic value `bytes4(keccak256(\"onERC721Received(address,address,uint256,bytes)\"))`; otherwise, the transfer is reverted. Requires the _msgSender() to be the owner, approved, or operator",
        "params": {
          "_data": "bytes data to send along with a safe transfer check",
          "from": "current owner of the token",
          "to": "address to receive the ownership of the given token ID",
          "tokenId": "uint256 ID of the token to be transferred"
        }
      },
      "setApprovalForAll(address,bool)": {
        "details": "Sets or unsets the approval of a given operator An operator is allowed to transfer all tokens of the sender on their behalf.",
        "params": {
          "approved": "representing the status of the approval to be set",
          "to": "operator address to set the approval"
        }
      },
      "supportsInterface(bytes4)": {
        "details": "See {IERC165-supportsInterface}.     * Time complexity O(1), guaranteed to always use less than 30 000 gas."
      },
      "symbol()": {
        "details": "Gets the token symbol.",
        "return": "string representing the token symbol"
      },
      "tokenByIndex(uint256)": {
        "details": "Gets the token ID at a given index of all the tokens in this contract Reverts if the index is greater or equal to the total number of tokens.",
        "params": {
          "index": "uint256 representing the index to be accessed of the tokens list"
        },
        "return": "uint256 token ID at the given index of the tokens list"
      },
      "tokenOfOwnerByIndex(address,uint256)": {
        "details": "Gets the token ID at a given index of the tokens list of the requested owner.",
        "params": {
          "index": "uint256 representing the index to be accessed of the requested tokens list",
          "owner": "address owning the tokens list to be accessed"
        },
        "return": "uint256 token ID at the given index of the tokens list owned by the requested address"
      },
      "tokenURI(uint256)": {
        "details": "Returns the URI for a given token ID. May return an empty string.     * If the token's URI is non-empty and a base URI was set (via {_setBaseURI}), it will be added to the token ID's URI as a prefix.     * Reverts if the token ID does not exist."
      },
      "totalSupply()": {
        "details": "Gets the total amount of tokens stored by the contract.",
        "return": "uint256 representing the total amount of tokens"
      },
      "transferFrom(address,address,uint256)": {
        "details": "Transfers the ownership of a given token ID to another address. Usage of this method is discouraged, use {safeTransferFrom} whenever possible. Requires the msg.sender to be the owner, approved, or operator.",
        "params": {
          "from": "current owner of the token",
          "to": "address to receive the ownership of the given token ID",
          "tokenId": "uint256 ID of the token to be transferred"
        }
      }
    }
  },
  "userdoc": {
    "methods": {}
  }
}