{
  "contractName": "PonziHodlFactory",
  "abi": [
    {
      "inputs": [
        {
          "internalType": "address",
          "name": "_cashAddress",
          "type": "address"
        },
        {
          "internalType": "address",
          "name": "_aTokenAddress",
          "type": "address"
        },
        {
          "internalType": "address",
          "name": "_aaveLpAddress",
          "type": "address"
        },
        {
          "internalType": "address",
          "name": "_aaveLpcoreAddress",
          "type": "address"
        }
      ],
      "payable": false,
      "stateMutability": "nonpayable",
      "type": "constructor"
    },
    {
      "anonymous": false,
      "inputs": [
        {
          "indexed": true,
          "internalType": "address",
          "name": "owner",
          "type": "address"
        },
        {
          "indexed": true,
          "internalType": "address",
          "name": "approved",
          "type": "address"
        },
        {
          "indexed": true,
          "internalType": "uint256",
          "name": "tokenId",
          "type": "uint256"
        }
      ],
      "name": "Approval",
      "type": "event"
    },
    {
      "anonymous": false,
      "inputs": [
        {
          "indexed": true,
          "internalType": "address",
          "name": "owner",
          "type": "address"
        },
        {
          "indexed": true,
          "internalType": "address",
          "name": "operator",
          "type": "address"
        },
        {
          "indexed": false,
          "internalType": "bool",
          "name": "approved",
          "type": "bool"
        }
      ],
      "name": "ApprovalForAll",
      "type": "event"
    },
    {
      "anonymous": false,
      "inputs": [
        {
          "indexed": true,
          "internalType": "address",
          "name": "from",
          "type": "address"
        },
        {
          "indexed": true,
          "internalType": "address",
          "name": "to",
          "type": "address"
        },
        {
          "indexed": true,
          "internalType": "uint256",
          "name": "tokenId",
          "type": "uint256"
        }
      ],
      "name": "Transfer",
      "type": "event"
    },
    {
      "constant": false,
      "inputs": [
        {
          "internalType": "address",
          "name": "to",
          "type": "address"
        },
        {
          "internalType": "uint256",
          "name": "tokenId",
          "type": "uint256"
        }
      ],
      "name": "approve",
      "outputs": [],
      "payable": false,
      "stateMutability": "nonpayable",
      "type": "function"
    },
    {
      "constant": true,
      "inputs": [],
      "name": "averagePurchaseTime",
      "outputs": [
        {
          "internalType": "uint256",
          "name": "",
          "type": "uint256"
        }
      ],
      "payable": false,
      "stateMutability": "view",
      "type": "function"
    },
    {
      "constant": true,
      "inputs": [
        {
          "internalType": "address",
          "name": "owner",
          "type": "address"
        }
      ],
      "name": "balanceOf",
      "outputs": [
        {
          "internalType": "uint256",
          "name": "",
          "type": "uint256"
        }
      ],
      "payable": false,
      "stateMutability": "view",
      "type": "function"
    },
    {
      "constant": true,
      "inputs": [],
      "name": "baseURI",
      "outputs": [
        {
          "internalType": "string",
          "name": "",
          "type": "string"
        }
      ],
      "payable": false,
      "stateMutability": "view",
      "type": "function"
    },
    {
      "constant": true,
      "inputs": [
        {
          "internalType": "uint256",
          "name": "tokenId",
          "type": "uint256"
        }
      ],
      "name": "getApproved",
      "outputs": [
        {
          "internalType": "address",
          "name": "",
          "type": "address"
        }
      ],
      "payable": false,
      "stateMutability": "view",
      "type": "function"
    },
    {
      "constant": true,
      "inputs": [],
      "name": "hodlCount",
      "outputs": [
        {
          "internalType": "uint256",
          "name": "",
          "type": "uint256"
        }
      ],
      "payable": false,
      "stateMutability": "view",
      "type": "function"
    },
    {
      "constant": true,
      "inputs": [
        {
          "internalType": "uint256",
          "name": "",
          "type": "uint256"
        }
      ],
      "name": "hodlProperties",
      "outputs": [
        {
          "internalType": "uint256",
          "name": "purchaseTime",
          "type": "uint256"
        },
        {
          "internalType": "uint256",
          "name": "tier",
          "type": "uint256"
        },
        {
          "internalType": "string",
          "name": "name",
          "type": "string"
        }
      ],
      "payable": false,
      "stateMutability": "view",
      "type": "function"
    },
    {
      "constant": true,
      "inputs": [
        {
          "internalType": "address",
          "name": "owner",
          "type": "address"
        },
        {
          "internalType": "address",
          "name": "operator",
          "type": "address"
        }
      ],
      "name": "isApprovedForAll",
      "outputs": [
        {
          "internalType": "bool",
          "name": "",
          "type": "bool"
        }
      ],
      "payable": false,
      "stateMutability": "view",
      "type": "function"
    },
    {
      "constant": true,
      "inputs": [],
      "name": "latestHodlId",
      "outputs": [
        {
          "internalType": "uint256",
          "name": "",
          "type": "uint256"
        }
      ],
      "payable": false,
      "stateMutability": "view",
      "type": "function"
    },
    {
      "constant": true,
      "inputs": [],
      "name": "name",
      "outputs": [
        {
          "internalType": "string",
          "name": "",
          "type": "string"
        }
      ],
      "payable": false,
      "stateMutability": "view",
      "type": "function"
    },
    {
      "constant": true,
      "inputs": [],
      "name": "oneHundredDai",
      "outputs": [
        {
          "internalType": "uint256",
          "name": "",
          "type": "uint256"
        }
      ],
      "payable": false,
      "stateMutability": "view",
      "type": "function"
    },
    {
      "constant": true,
      "inputs": [
        {
          "internalType": "uint256",
          "name": "tokenId",
          "type": "uint256"
        }
      ],
      "name": "ownerOf",
      "outputs": [
        {
          "internalType": "address",
          "name": "",
          "type": "address"
        }
      ],
      "payable": false,
      "stateMutability": "view",
      "type": "function"
    },
    {
      "constant": false,
      "inputs": [
        {
          "internalType": "address",
          "name": "from",
          "type": "address"
        },
        {
          "internalType": "address",
          "name": "to",
          "type": "address"
        },
        {
          "internalType": "uint256",
          "name": "tokenId",
          "type": "uint256"
        }
      ],
      "name": "safeTransferFrom",
      "outputs": [],
      "payable": false,
      "stateMutability": "nonpayable",
      "type": "function"
    },
    {
      "constant": false,
      "inputs": [
        {
          "internalType": "address",
          "name": "from",
          "type": "address"
        },
        {
          "internalType": "address",
          "name": "to",
          "type": "address"
        },
        {
          "internalType": "uint256",
          "name": "tokenId",
          "type": "uint256"
        },
        {
          "internalType": "bytes",
          "name": "_data",
          "type": "bytes"
        }
      ],
      "name": "safeTransferFrom",
      "outputs": [],
      "payable": false,
      "stateMutability": "nonpayable",
      "type": "function"
    },
    {
      "constant": false,
      "inputs": [
        {
          "internalType": "address",
          "name": "to",
          "type": "address"
        },
        {
          "internalType": "bool",
          "name": "approved",
          "type": "bool"
        }
      ],
      "name": "setApprovalForAll",
      "outputs": [],
      "payable": false,
      "stateMutability": "nonpayable",
      "type": "function"
    },
    {
      "constant": true,
      "inputs": [
        {
          "internalType": "bytes4",
          "name": "interfaceId",
          "type": "bytes4"
        }
      ],
      "name": "supportsInterface",
      "outputs": [
        {
          "internalType": "bool",
          "name": "",
          "type": "bool"
        }
      ],
      "payable": false,
      "stateMutability": "view",
      "type": "function"
    },
    {
      "constant": true,
      "inputs": [],
      "name": "symbol",
      "outputs": [
        {
          "internalType": "string",
          "name": "",
          "type": "string"
        }
      ],
      "payable": false,
      "stateMutability": "view",
      "type": "function"
    },
    {
      "constant": true,
      "inputs": [],
      "name": "testingVariableA",
      "outputs": [
        {
          "internalType": "uint256",
          "name": "",
          "type": "uint256"
        }
      ],
      "payable": false,
      "stateMutability": "view",
      "type": "function"
    },
    {
      "constant": true,
      "inputs": [],
      "name": "testingVariableB",
      "outputs": [
        {
          "internalType": "uint256",
          "name": "",
          "type": "uint256"
        }
      ],
      "payable": false,
      "stateMutability": "view",
      "type": "function"
    },
    {
      "constant": true,
      "inputs": [],
      "name": "testingVariableC",
      "outputs": [
        {
          "internalType": "uint256",
          "name": "",
          "type": "uint256"
        }
      ],
      "payable": false,
      "stateMutability": "view",
      "type": "function"
    },
    {
      "constant": true,
      "inputs": [],
      "name": "testingVariableD",
      "outputs": [
        {
          "internalType": "uint256",
          "name": "",
          "type": "uint256"
        }
      ],
      "payable": false,
      "stateMutability": "view",
      "type": "function"
    },
    {
      "constant": true,
      "inputs": [],
      "name": "testingVariableE",
      "outputs": [
        {
          "internalType": "uint256",
          "name": "",
          "type": "uint256"
        }
      ],
      "payable": false,
      "stateMutability": "view",
      "type": "function"
    },
    {
      "constant": true,
      "inputs": [],
      "name": "testingVariableF",
      "outputs": [
        {
          "internalType": "uint256",
          "name": "",
          "type": "uint256"
        }
      ],
      "payable": false,
      "stateMutability": "view",
      "type": "function"
    },
    {
      "constant": true,
      "inputs": [],
      "name": "testingVariableG",
      "outputs": [
        {
          "internalType": "uint256",
          "name": "",
          "type": "uint256"
        }
      ],
      "payable": false,
      "stateMutability": "view",
      "type": "function"
    },
    {
      "constant": true,
      "inputs": [],
      "name": "testingVariableH",
      "outputs": [
        {
          "internalType": "uint256",
          "name": "",
          "type": "uint256"
        }
      ],
      "payable": false,
      "stateMutability": "view",
      "type": "function"
    },
    {
      "constant": true,
      "inputs": [],
      "name": "testingVariableI",
      "outputs": [
        {
          "internalType": "uint256",
          "name": "",
          "type": "uint256"
        }
      ],
      "payable": false,
      "stateMutability": "view",
      "type": "function"
    },
    {
      "constant": true,
      "inputs": [],
      "name": "testingVariableJ",
      "outputs": [
        {
          "internalType": "uint256",
          "name": "",
          "type": "uint256"
        }
      ],
      "payable": false,
      "stateMutability": "view",
      "type": "function"
    },
    {
      "constant": true,
      "inputs": [],
      "name": "tierCount",
      "outputs": [
        {
          "internalType": "uint256",
          "name": "",
          "type": "uint256"
        }
      ],
      "payable": false,
      "stateMutability": "view",
      "type": "function"
    },
    {
      "constant": true,
      "inputs": [
        {
          "internalType": "uint256",
          "name": "",
          "type": "uint256"
        }
      ],
      "name": "tierProperties",
      "outputs": [
        {
          "internalType": "uint256",
          "name": "size",
          "type": "uint256"
        },
        {
          "internalType": "uint256",
          "name": "hodlsInTier",
          "type": "uint256"
        },
        {
          "internalType": "uint256",
          "name": "averagePurchaseTime",
          "type": "uint256"
        },
        {
          "internalType": "uint256",
          "name": "interestAlreadyWithdrawn",
          "type": "uint256"
        }
      ],
      "payable": false,
      "stateMutability": "view",
      "type": "function"
    },
    {
      "constant": true,
      "inputs": [
        {
          "internalType": "uint256",
          "name": "index",
          "type": "uint256"
        }
      ],
      "name": "tokenByIndex",
      "outputs": [
        {
          "internalType": "uint256",
          "name": "",
          "type": "uint256"
        }
      ],
      "payable": false,
      "stateMutability": "view",
      "type": "function"
    },
    {
      "constant": true,
      "inputs": [
        {
          "internalType": "address",
          "name": "owner",
          "type": "address"
        },
        {
          "internalType": "uint256",
          "name": "index",
          "type": "uint256"
        }
      ],
      "name": "tokenOfOwnerByIndex",
      "outputs": [
        {
          "internalType": "uint256",
          "name": "",
          "type": "uint256"
        }
      ],
      "payable": false,
      "stateMutability": "view",
      "type": "function"
    },
    {
      "constant": true,
      "inputs": [
        {
          "internalType": "uint256",
          "name": "tokenId",
          "type": "uint256"
        }
      ],
      "name": "tokenURI",
      "outputs": [
        {
          "internalType": "string",
          "name": "",
          "type": "string"
        }
      ],
      "payable": false,
      "stateMutability": "view",
      "type": "function"
    },
    {
      "constant": true,
      "inputs": [],
      "name": "totalInterestWithdrawn",
      "outputs": [
        {
          "internalType": "uint256",
          "name": "",
          "type": "uint256"
        }
      ],
      "payable": false,
      "stateMutability": "view",
      "type": "function"
    },
    {
      "constant": true,
      "inputs": [],
      "name": "totalSupply",
      "outputs": [
        {
          "internalType": "uint256",
          "name": "",
          "type": "uint256"
        }
      ],
      "payable": false,
      "stateMutability": "view",
      "type": "function"
    },
    {
      "constant": false,
      "inputs": [
        {
          "internalType": "address",
          "name": "from",
          "type": "address"
        },
        {
          "internalType": "address",
          "name": "to",
          "type": "address"
        },
        {
          "internalType": "uint256",
          "name": "tokenId",
          "type": "uint256"
        }
      ],
      "name": "transferFrom",
      "outputs": [],
      "payable": false,
      "stateMutability": "nonpayable",
      "type": "function"
    },
    {
      "constant": true,
      "inputs": [
        {
          "internalType": "uint256",
          "name": "_hodlId",
          "type": "uint256"
        }
      ],
      "name": "getHodlPurchaseTime",
      "outputs": [
        {
          "internalType": "uint256",
          "name": "",
          "type": "uint256"
        }
      ],
      "payable": false,
      "stateMutability": "view",
      "type": "function"
    },
    {
      "constant": true,
      "inputs": [
        {
          "internalType": "uint256",
          "name": "_hodlId",
          "type": "uint256"
        }
      ],
      "name": "getHodlName",
      "outputs": [
        {
          "internalType": "string",
          "name": "",
          "type": "string"
        }
      ],
      "payable": false,
      "stateMutability": "view",
      "type": "function"
    },
    {
      "constant": true,
      "inputs": [],
      "name": "getAdaiBalance",
      "outputs": [
        {
          "internalType": "uint256",
          "name": "",
          "type": "uint256"
        }
      ],
      "payable": false,
      "stateMutability": "view",
      "type": "function"
    },
    {
      "constant": true,
      "inputs": [],
      "name": "getHodlsOwned",
      "outputs": [
        {
          "internalType": "uint256[]",
          "name": "",
          "type": "uint256[]"
        }
      ],
      "payable": false,
      "stateMutability": "view",
      "type": "function"
    },
    {
      "constant": true,
      "inputs": [],
      "name": "getHodlsDeleted",
      "outputs": [
        {
          "internalType": "uint256[]",
          "name": "",
          "type": "uint256[]"
        }
      ],
      "payable": false,
      "stateMutability": "view",
      "type": "function"
    },
    {
      "constant": true,
      "inputs": [
        {
          "internalType": "uint256",
          "name": "_hodlId",
          "type": "uint256"
        }
      ],
      "name": "getPlayersMyTierOrBelow",
      "outputs": [
        {
          "internalType": "uint256",
          "name": "",
          "type": "uint256"
        }
      ],
      "payable": false,
      "stateMutability": "view",
      "type": "function"
    },
    {
      "constant": false,
      "inputs": [
        {
          "internalType": "string",
          "name": "_name",
          "type": "string"
        }
      ],
      "name": "createHodl",
      "outputs": [],
      "payable": false,
      "stateMutability": "nonpayable",
      "type": "function"
    },
    {
      "constant": true,
      "inputs": [
        {
          "internalType": "uint256",
          "name": "_tierId",
          "type": "uint256"
        }
      ],
      "name": "getTierInterestAccrued",
      "outputs": [
        {
          "internalType": "uint256",
          "name": "",
          "type": "uint256"
        }
      ],
      "payable": false,
      "stateMutability": "view",
      "type": "function"
    },
    {
      "constant": true,
      "inputs": [
        {
          "internalType": "uint256",
          "name": "_hodlId",
          "type": "uint256"
        }
      ],
      "name": "getInterestAvailableToWithdrawView",
      "outputs": [
        {
          "internalType": "uint256",
          "name": "",
          "type": "uint256"
        }
      ],
      "payable": false,
      "stateMutability": "view",
      "type": "function"
    },
    {
      "constant": false,
      "inputs": [
        {
          "internalType": "uint256",
          "name": "_hodlId",
          "type": "uint256"
        }
      ],
      "name": "destroyHodl",
      "outputs": [],
      "payable": false,
      "stateMutability": "nonpayable",
      "type": "function"
    }
  ],
  "bytecode": "0x60806040526000601155600060125560006013556000601455600060155560456016556000601755600060185560006019556000601a556000601b556000601c556045601d556000601e556000601f553480156200005c57600080fd5b5060405162004ffd38038062004ffd833981810160405260808110156200008257600080fd5b81019080805190602001909291908051906020019092919080519060200190929190805190602001909291905050506040518060400160405280600b81526020017f486f646c466163746f72790000000000000000000000000000000000000000008152506040518060400160405280600681526020017f484f444c2b2b00000000000000000000000000000000000000000000000000008152508181620001376301ffc9a760e01b620002df60201b60201c565b6200014f6380ac58cd60e01b620002df60201b60201c565b6200016763780e9d6360e01b620002df60201b60201c565b81600990805190602001906200017f929190620003e8565b5080600a908051906020019062000198929190620003e8565b50620001b1635b5e139f60e01b620002df60201b60201c565b5050505083600d60006101000a81548173ffffffffffffffffffffffffffffffffffffffff021916908373ffffffffffffffffffffffffffffffffffffffff16021790555082600e60006101000a81548173ffffffffffffffffffffffffffffffffffffffff021916908373ffffffffffffffffffffffffffffffffffffffff16021790555081600f60006101000a81548173ffffffffffffffffffffffffffffffffffffffff021916908373ffffffffffffffffffffffffffffffffffffffff16021790555080601060006101000a81548173ffffffffffffffffffffffffffffffffffffffff021916908373ffffffffffffffffffffffffffffffffffffffff160217905550600a60216000808152602001908152602001600020600001819055505050505062000497565b63ffffffff60e01b817bffffffffffffffffffffffffffffffffffffffffffffffffffffffff191614156200037c576040517f08c379a000000000000000000000000000000000000000000000000000000000815260040180806020018281038252601c8152602001807f4552433136353a20696e76616c696420696e746572666163652069640000000081525060200191505060405180910390fd5b6001600080837bffffffffffffffffffffffffffffffffffffffffffffffffffffffff19167bffffffffffffffffffffffffffffffffffffffffffffffffffffffff1916815260200190815260200160002060006101000a81548160ff02191690831515021790555050565b828054600181600116156101000203166002900490600052602060002090601f016020900481019282601f106200042b57805160ff19168380011785556200045c565b828001600101855582156200045c579182015b828111156200045b5782518255916020019190600101906200043e565b5b5090506200046b91906200046f565b5090565b6200049491905b808211156200049057600081600090555060010162000476565b5090565b90565b614b5680620004a76000396000f3fe608060405234801561001057600080fd5b506004361061027e5760003560e01c8063630e825a1161015c578063a5080bdd116100ce578063d1fdc5ee11610087578063d1fdc5ee14610e81578063d3d125b214610e9f578063e1f2877614610ebd578063e386bdd714610f78578063e985e9c514610f96578063ee9d1295146110125761027e565b8063a5080bdd14610b19578063aac13c3d14610bce578063b0aa089114610c10578063b88d4fde14610c2e578063c87b56dd14610d33578063ce35b7d114610dda5761027e565b806370a082311161012057806370a08231146109705780637a2aedc0146109c857806395d89b4114610a0a57806396b55f7d14610a8d5780639709e73814610aab578063a22cb46514610ac95761027e565b8063630e825a146107e45780636352211e146108435780636c0360eb146108b15780636c49c786146109345780636ebcf0c7146109525761027e565b806323b872dd116101f55780634adce894116101b95780634adce8941461070c5780634b7049211461072a5780634f6ccce71461074857806354ac5a501461078a5780635ae3cdef146107a85780635dcb1e01146107c65761027e565b806323b872dd14610592578063291eeebf146106005780632f745c591461061e578063369b79e91461068057806342842e0e1461069e5761027e565b806306fdde031161024757806306fdde0314610394578063081812fc14610417578063095ea7b31461048557806318160ddd146104d35780631a1409e0146104f15780631fc154ba146105335761027e565b80625d8d371461028357806301ffaabd146102c557806301ffc9a7146102f3578063035a06ca14610358578063037dc69b14610376575b600080fd5b6102af6004803603602081101561029957600080fd5b8101908080359060200190929190505050611069565b6040518082815260200191505060405180910390f35b6102f1600480360360208110156102db57600080fd5b810190808035906020019092919050505061127c565b005b61033e6004803603602081101561030957600080fd5b8101908080357bffffffffffffffffffffffffffffffffffffffffffffffffffffffff1916906020019092919050505061170d565b604051808215151515815260200191505060405180910390f35b610360611774565b6040518082815260200191505060405180910390f35b61037e61177a565b6040518082815260200191505060405180910390f35b61039c611780565b6040518080602001828103825283818151815260200191508051906020019080838360005b838110156103dc5780820151818401526020810190506103c1565b50505050905090810190601f1680156104095780820380516001836020036101000a031916815260200191505b509250505060405180910390f35b6104436004803603602081101561042d57600080fd5b8101908080359060200190929190505050611822565b604051808273ffffffffffffffffffffffffffffffffffffffff1673ffffffffffffffffffffffffffffffffffffffff16815260200191505060405180910390f35b6104d16004803603604081101561049b57600080fd5b81019080803573ffffffffffffffffffffffffffffffffffffffff169060200190929190803590602001909291905050506118bd565b005b6104db611aa4565b6040518082815260200191505060405180910390f35b61051d6004803603602081101561050757600080fd5b8101908080359060200190929190505050611ab1565b6040518082815260200191505060405180910390f35b61053b611b1f565b6040518080602001828103825283818151815260200191508051906020019060200280838360005b8381101561057e578082015181840152602081019050610563565b505050509050019250505060405180910390f35b6105fe600480360360608110156105a857600080fd5b81019080803573ffffffffffffffffffffffffffffffffffffffff169060200190929190803573ffffffffffffffffffffffffffffffffffffffff16906020019092919080359060200190929190505050611bb4565b005b610608611c2a565b6040518082815260200191505060405180910390f35b61066a6004803603604081101561063457600080fd5b81019080803573ffffffffffffffffffffffffffffffffffffffff16906020019092919080359060200190929190505050611c30565b6040518082815260200191505060405180910390f35b610688611cef565b6040518082815260200191505060405180910390f35b61070a600480360360608110156106b457600080fd5b81019080803573ffffffffffffffffffffffffffffffffffffffff169060200190929190803573ffffffffffffffffffffffffffffffffffffffff16906020019092919080359060200190929190505050611cf5565b005b610714611d15565b6040518082815260200191505060405180910390f35b610732611d1b565b6040518082815260200191505060405180910390f35b6107746004803603602081101561075e57600080fd5b8101908080359060200190929190505050611d21565b6040518082815260200191505060405180910390f35b610792611da1565b6040518082815260200191505060405180910390f35b6107b0611da7565b6040518082815260200191505060405180910390f35b6107ce611dad565b6040518082815260200191505060405180910390f35b6107ec611db3565b6040518080602001828103825283818151815260200191508051906020019060200280838360005b8381101561082f578082015181840152602081019050610814565b505050509050019250505060405180910390f35b61086f6004803603602081101561085957600080fd5b8101908080359060200190929190505050611e48565b604051808273ffffffffffffffffffffffffffffffffffffffff1673ffffffffffffffffffffffffffffffffffffffff16815260200191505060405180910390f35b6108b9611f10565b6040518080602001828103825283818151815260200191508051906020019080838360005b838110156108f95780820151818401526020810190506108de565b50505050905090810190601f1680156109265780820380516001836020036101000a031916815260200191505b509250505060405180910390f35b61093c611fb2565b6040518082815260200191505060405180910390f35b61095a612093565b6040518082815260200191505060405180910390f35b6109b26004803603602081101561098657600080fd5b81019080803573ffffffffffffffffffffffffffffffffffffffff169060200190929190505050612099565b6040518082815260200191505060405180910390f35b6109f4600480360360208110156109de57600080fd5b810190808035906020019092919050505061216e565b6040518082815260200191505060405180910390f35b610a126122fc565b6040518080602001828103825283818151815260200191508051906020019080838360005b83811015610a52578082015181840152602081019050610a37565b50505050905090810190601f168015610a7f5780820380516001836020036101000a031916815260200191505b509250505060405180910390f35b610a9561239e565b6040518082815260200191505060405180910390f35b610ab36123a4565b6040518082815260200191505060405180910390f35b610b1760048036036040811015610adf57600080fd5b81019080803573ffffffffffffffffffffffffffffffffffffffff1690602001909291908035151590602001909291905050506123b1565b005b610b4560048036036020811015610b2f57600080fd5b8101908080359060200190929190505050612569565b6040518084815260200183815260200180602001828103825283818151815260200191508051906020019080838360005b83811015610b91578082015181840152602081019050610b76565b50505050905090810190601f168015610bbe5780820380516001836020036101000a031916815260200191505b5094505050505060405180910390f35b610bfa60048036036020811015610be457600080fd5b810190808035906020019092919050505061262a565b6040518082815260200191505060405180910390f35b610c1861264a565b6040518082815260200191505060405180910390f35b610d3160048036036080811015610c4457600080fd5b81019080803573ffffffffffffffffffffffffffffffffffffffff169060200190929190803573ffffffffffffffffffffffffffffffffffffffff1690602001909291908035906020019092919080359060200190640100000000811115610cab57600080fd5b820183602082011115610cbd57600080fd5b80359060200191846001830284011164010000000083111715610cdf57600080fd5b91908080601f016020809104026020016040519081016040528093929190818152602001838380828437600081840152601f19601f820116905080830192505050505050509192919290505050612650565b005b610d5f60048036036020811015610d4957600080fd5b81019080803590602001909291905050506126c8565b6040518080602001828103825283818151815260200191508051906020019080838360005b83811015610d9f578082015181840152602081019050610d84565b50505050905090810190601f168015610dcc5780820380516001836020036101000a031916815260200191505b509250505060405180910390f35b610e0660048036036020811015610df057600080fd5b81019080803590602001909291905050506128ca565b6040518080602001828103825283818151815260200191508051906020019080838360005b83811015610e46578082015181840152602081019050610e2b565b50505050905090810190601f168015610e735780820380516001836020036101000a031916815260200191505b509250505060405180910390f35b610e89612982565b6040518082815260200191505060405180910390f35b610ea7612988565b6040518082815260200191505060405180910390f35b610f7660048036036020811015610ed357600080fd5b8101908080359060200190640100000000811115610ef057600080fd5b820183602082011115610f0257600080fd5b80359060200191846001830284011164010000000083111715610f2457600080fd5b91908080601f016020809104026020016040519081016040528093929190818152602001838380828437600081840152601f19601f82011690508083019250505050505050919291929050505061298e565b005b610f80612da9565b6040518082815260200191505060405180910390f35b610ff860048036036040811015610fac57600080fd5b81019080803573ffffffffffffffffffffffffffffffffffffffff169060200190929190803573ffffffffffffffffffffffffffffffffffffffff169060200190929190505050612daf565b604051808215151515815260200191505060405180910390f35b61103e6004803603602081101561102857600080fd5b8101908080359060200190929190505050612e43565b6040518085815260200184815260200183815260200182815260200194505050505060405180910390f35b600080600e60009054906101000a900473ffffffffffffffffffffffffffffffffffffffff1673ffffffffffffffffffffffffffffffffffffffff166370a08231306040518263ffffffff1660e01b8152600401808273ffffffffffffffffffffffffffffffffffffffff1673ffffffffffffffffffffffffffffffffffffffff16815260200191505060206040518083038186803b15801561110b57600080fd5b505afa15801561111f573d6000803e3d6000fd5b505050506040513d602081101561113557600080fd5b81019080805190602001909291905050509050600061116868056bc75e2d63100000601154612e7390919063ffffffff16565b905060006111936015546111858486612ef990919063ffffffff16565b612f4390919063ffffffff16565b90506000602160008781526020019081526020016000206001015490506000602160008881526020019081526020016000206003015490506000611208836111fa602160008c81526020019081526020016000206002015442612ef990919063ffffffff16565b612e7390919063ffffffff16565b9050600061123560115461122760145442612ef990919063ffffffff16565b612e7390919063ffffffff16565b905061126e836112606112518486612fcb90919063ffffffff16565b88612e7390919063ffffffff16565b612ef990919063ffffffff16565b975050505050505050919050565b3373ffffffffffffffffffffffffffffffffffffffff1661129c82611e48565b73ffffffffffffffffffffffffffffffffffffffff1614611325576040517f08c379a00000000000000000000000000000000000000000000000000000000081526004018080602001828103825260098152602001807f4e6f74206f776e6572000000000000000000000000000000000000000000000081525060200191505060405180910390fd5b61132e81613015565b6000602060008381526020019081526020016000206001015490506000602160008381526020019081526020016000206001015490506000602160008481526020019081526020016000206002015490506001821115611407576113e861139f600184612ef990919063ffffffff16565b6113da60206000888152602001908152602001600020600001546113cc8686612e7390919063ffffffff16565b612ef990919063ffffffff16565b612fcb90919063ffffffff16565b6021600085815260200190815260200160002060020181905550611424565b600060216000858152602001908152602001600020600201819055505b600160115411156114a0576114956114486001601154612ef990919063ffffffff16565b6114876020600088815260200190815260200160002060000154611479601154601454612e7390919063ffffffff16565b612ef990919063ffffffff16565b612fcb90919063ffffffff16565b6014819055506114a9565b60006014819055505b6114d360016021600086815260200190815260200160002060010154612ef990919063ffffffff16565b6021600085815260200190815260200160002060010181905550600e60009054906101000a900473ffffffffffffffffffffffffffffffffffffffff1673ffffffffffffffffffffffffffffffffffffffff1663db006a7568056bc75e2d631000006040518263ffffffff1660e01b815260040180828152602001915050600060405180830381600087803b15801561156b57600080fd5b505af115801561157f573d6000803e3d6000fd5b50505050600d60009054906101000a900473ffffffffffffffffffffffffffffffffffffffff1673ffffffffffffffffffffffffffffffffffffffff1663a9059cbb6115ca86611e48565b68056bc75e2d631000006040518363ffffffff1660e01b8152600401808373ffffffffffffffffffffffffffffffffffffffff1673ffffffffffffffffffffffffffffffffffffffff16815260200182815260200192505050602060405180830381600087803b15801561163d57600080fd5b505af1158015611651573d6000803e3d6000fd5b505050506040513d602081101561166757600080fd5b81019080805190602001909291905050505061168f6001601154612ef990919063ffffffff16565b60118190555061169e846131bb565b602360003373ffffffffffffffffffffffffffffffffffffffff1673ffffffffffffffffffffffffffffffffffffffff16815260200190815260200160002084908060018154018082558091505090600182039060005260206000200160009091929091909150555050505050565b6000806000837bffffffffffffffffffffffffffffffffffffffffffffffffffffffff19167bffffffffffffffffffffffffffffffffffffffffffffffffffffffff1916815260200190815260200160002060009054906101000a900460ff169050919050565b60145481565b601b5481565b606060098054600181600116156101000203166002900480601f0160208091040260200160405190810160405280929190818152602001828054600181600116156101000203166002900480156118185780601f106117ed57610100808354040283529160200191611818565b820191906000526020600020905b8154815290600101906020018083116117fb57829003601f168201915b5050505050905090565b600061182d826131d0565b611882576040517f08c379a000000000000000000000000000000000000000000000000000000000815260040180806020018281038252602c8152602001806149fb602c913960400191505060405180910390fd5b6002600083815260200190815260200160002060009054906101000a900473ffffffffffffffffffffffffffffffffffffffff169050919050565b60006118c882611e48565b90508073ffffffffffffffffffffffffffffffffffffffff168373ffffffffffffffffffffffffffffffffffffffff16141561194f576040517f08c379a0000000000000000000000000000000000000000000000000000000008152600401808060200182810382526021815260200180614a7f6021913960400191505060405180910390fd5b8073ffffffffffffffffffffffffffffffffffffffff1661196e613242565b73ffffffffffffffffffffffffffffffffffffffff16148061199d575061199c81611997613242565b612daf565b5b6119f2576040517f08c379a000000000000000000000000000000000000000000000000000000000815260040180806020018281038252603881526020018061494f6038913960400191505060405180910390fd5b826002600084815260200190815260200160002060006101000a81548173ffffffffffffffffffffffffffffffffffffffff021916908373ffffffffffffffffffffffffffffffffffffffff160217905550818373ffffffffffffffffffffffffffffffffffffffff168273ffffffffffffffffffffffffffffffffffffffff167f8c5be1e5ebec7d5bd14f71427d1e84f3dd0314c0f7b2291e5b200ac8c7c3b92560405160405180910390a4505050565b6000600780549050905090565b60008060206000848152602001908152602001600020600101549050600080600090505b828111611b1457611b05602160008381526020019081526020016000206001015483612f4390919063ffffffff16565b91508080600101915050611ad5565b508092505050919050565b6060602360003373ffffffffffffffffffffffffffffffffffffffff1673ffffffffffffffffffffffffffffffffffffffff168152602001908152602001600020805480602002602001604051908101604052809291908181526020018280548015611baa57602002820191906000526020600020905b815481526020019060010190808311611b96575b5050505050905090565b611bc5611bbf613242565b8261324a565b611c1a576040517f08c379a0000000000000000000000000000000000000000000000000000000008152600401808060200182810382526031815260200180614aa06031913960400191505060405180910390fd5b611c2583838361333e565b505050565b601a5481565b6000611c3b83612099565b8210611c92576040517f08c379a000000000000000000000000000000000000000000000000000000000815260040180806020018281038252602b8152602001806148a2602b913960400191505060405180910390fd5b600560008473ffffffffffffffffffffffffffffffffffffffff1673ffffffffffffffffffffffffffffffffffffffff1681526020019081526020016000208281548110611cdc57fe5b9060005260206000200154905092915050565b60175481565b611d1083838360405180602001604052806000815250612650565b505050565b60125481565b60185481565b6000611d2b611aa4565b8210611d82576040517f08c379a000000000000000000000000000000000000000000000000000000000815260040180806020018281038252602c815260200180614ad1602c913960400191505060405180910390fd5b60078281548110611d8f57fe5b90600052602060002001549050919050565b601f5481565b601c5481565b601e5481565b6060602260003373ffffffffffffffffffffffffffffffffffffffff1673ffffffffffffffffffffffffffffffffffffffff168152602001908152602001600020805480602002602001604051908101604052809291908181526020018280548015611e3e57602002820191906000526020600020905b815481526020019060010190808311611e2a575b5050505050905090565b6000806001600084815260200190815260200160002060009054906101000a900473ffffffffffffffffffffffffffffffffffffffff169050600073ffffffffffffffffffffffffffffffffffffffff168173ffffffffffffffffffffffffffffffffffffffff161415611f07576040517f08c379a00000000000000000000000000000000000000000000000000000000081526004018080602001828103825260298152602001806149b16029913960400191505060405180910390fd5b80915050919050565b6060600b8054600181600116156101000203166002900480601f016020809104026020016040519081016040528092919081815260200182805460018160011615610100020316600290048015611fa85780601f10611f7d57610100808354040283529160200191611fa8565b820191906000526020600020905b815481529060010190602001808311611f8b57829003601f168201915b5050505050905090565b6000600e60009054906101000a900473ffffffffffffffffffffffffffffffffffffffff1673ffffffffffffffffffffffffffffffffffffffff166370a08231306040518263ffffffff1660e01b8152600401808273ffffffffffffffffffffffffffffffffffffffff1673ffffffffffffffffffffffffffffffffffffffff16815260200191505060206040518083038186803b15801561205357600080fd5b505afa158015612067573d6000803e3d6000fd5b505050506040513d602081101561207d57600080fd5b8101908080519060200190929190505050905090565b60115481565b60008073ffffffffffffffffffffffffffffffffffffffff168273ffffffffffffffffffffffffffffffffffffffff161415612120576040517f08c379a000000000000000000000000000000000000000000000000000000000815260040180806020018281038252602a815260200180614987602a913960400191505060405180910390fd5b612167600360008473ffffffffffffffffffffffffffffffffffffffff1673ffffffffffffffffffffffffffffffffffffffff168152602001908152602001600020613362565b9050919050565b600081600073ffffffffffffffffffffffffffffffffffffffff1661219282611e48565b73ffffffffffffffffffffffffffffffffffffffff16141561221c576040517f08c379a00000000000000000000000000000000000000000000000000000000081526004018080602001828103825260138152602001807f486f646c20646f6573206e6f742065786973740000000000000000000000000081525060200191505060405180910390fd5b60008061222885611ab1565b90506000602060008781526020019081526020016000206001015490506000811461226457612261600182612f4390919063ffffffff16565b90505b60008190505b60135481116122ef57600061227e82611069565b905060006122958583612fcb90919063ffffffff16565b90506122aa8187612f4390919063ffffffff16565b9550600083146122e0576122dd602160008581526020019081526020016000206001015486612f4390919063ffffffff16565b94505b5050808060010191505061226a565b5082945050505050919050565b6060600a8054600181600116156101000203166002900480601f0160208091040260200160405190810160405280929190818152602001828054600181600116156101000203166002900480156123945780601f1061236957610100808354040283529160200191612394565b820191906000526020600020905b81548152906001019060200180831161237757829003601f168201915b5050505050905090565b60135481565b68056bc75e2d6310000081565b6123b9613242565b73ffffffffffffffffffffffffffffffffffffffff168273ffffffffffffffffffffffffffffffffffffffff16141561245a576040517f08c379a00000000000000000000000000000000000000000000000000000000081526004018080602001828103825260198152602001807f4552433732313a20617070726f766520746f2063616c6c65720000000000000081525060200191505060405180910390fd5b8060046000612467613242565b73ffffffffffffffffffffffffffffffffffffffff1673ffffffffffffffffffffffffffffffffffffffff16815260200190815260200160002060008473ffffffffffffffffffffffffffffffffffffffff1673ffffffffffffffffffffffffffffffffffffffff16815260200190815260200160002060006101000a81548160ff0219169083151502179055508173ffffffffffffffffffffffffffffffffffffffff16612514613242565b73ffffffffffffffffffffffffffffffffffffffff167f17307eab39ab6107e8899845ad3d59bd9653f200f220920489ca2b5937696c3183604051808215151515815260200191505060405180910390a35050565b60208052806000526040600020600091509050806000015490806001015490806002018054600181600116156101000203166002900480601f0160208091040260200160405190810160405280929190818152602001828054600181600116156101000203166002900480156126205780601f106125f557610100808354040283529160200191612620565b820191906000526020600020905b81548152906001019060200180831161260357829003601f168201915b5050505050905083565b600060206000838152602001908152602001600020600001549050919050565b60165481565b61266161265b613242565b8361324a565b6126b6576040517f08c379a0000000000000000000000000000000000000000000000000000000008152600401808060200182810382526031815260200180614aa06031913960400191505060405180910390fd5b6126c284848484613370565b50505050565b60606126d3826131d0565b612728576040517f08c379a000000000000000000000000000000000000000000000000000000000815260040180806020018281038252602f815260200180614a50602f913960400191505060405180910390fd5b6060600c60008481526020019081526020016000208054600181600116156101000203166002900480601f0160208091040260200160405190810160405280929190818152602001828054600181600116156101000203166002900480156127d15780601f106127a6576101008083540402835291602001916127d1565b820191906000526020600020905b8154815290600101906020018083116127b457829003601f168201915b505050505090506000815114156127fa57604051806020016040528060008152509150506128c5565b600b81604051602001808380546001816001161561010002031660029004801561285b5780601f1061283957610100808354040283529182019161285b565b820191906000526020600020905b815481529060010190602001808311612847575b505082805190602001908083835b6020831061288c5780518252602082019150602081019050602083039250612869565b6001836020036101000a038019825116818451168082178552505050505050905001925050506040516020818303038152906040529150505b919050565b6060602060008381526020019081526020016000206002018054600181600116156101000203166002900480601f0160208091040260200160405190810160405280929190818152602001828054600181600116156101000203166002900480156129765780601f1061294b57610100808354040283529160200191612976565b820191906000526020600020905b81548152906001019060200180831161295957829003601f168201915b50505050509050919050565b601d5481565b60195481565b6129996012546133e2565b602260003373ffffffffffffffffffffffffffffffffffffffff1673ffffffffffffffffffffffffffffffffffffffff1681526020019081526020016000206012549080600181540180825580915050906001820390600052602060002001600090919290919091505550426020600060125481526020019081526020016000206000018190555060135460206000601254815260200190815260200160002060010181905550806020600060125481526020019081526020016000206002019080519060200190612a6c929190614788565b50612abd612a866001601154612f4390919063ffffffff16565b612aaf42612aa1601154601454612e7390919063ffffffff16565b612f4390919063ffffffff16565b612fcb90919063ffffffff16565b601481905550600d60009054906101000a900473ffffffffffffffffffffffffffffffffffffffff1673ffffffffffffffffffffffffffffffffffffffff1663a0712d6868056bc75e2d631000006040518263ffffffff1660e01b815260040180828152602001915050600060405180830381600087803b158015612b4157600080fd5b505af1158015612b55573d6000803e3d6000fd5b50505050600d60009054906101000a900473ffffffffffffffffffffffffffffffffffffffff1673ffffffffffffffffffffffffffffffffffffffff1663095ea7b3601060009054906101000a900473ffffffffffffffffffffffffffffffffffffffff1668056bc75e2d631000006040518363ffffffff1660e01b8152600401808373ffffffffffffffffffffffffffffffffffffffff1673ffffffffffffffffffffffffffffffffffffffff16815260200182815260200192505050602060405180830381600087803b158015612c2d57600080fd5b505af1158015612c41573d6000803e3d6000fd5b505050506040513d6020811015612c5757600080fd5b810190808051906020019092919050505050600f60009054906101000a900473ffffffffffffffffffffffffffffffffffffffff1673ffffffffffffffffffffffffffffffffffffffff1663d2d0e066600d60009054906101000a900473ffffffffffffffffffffffffffffffffffffffff1668056bc75e2d6310000060006040518463ffffffff1660e01b8152600401808473ffffffffffffffffffffffffffffffffffffffff1673ffffffffffffffffffffffffffffffffffffffff1681526020018381526020018261ffff1681526020019350505050600060405180830381600087803b158015612d4a57600080fd5b505af1158015612d5e573d6000803e3d6000fd5b50505050612d6e336012546134f4565b612d846001601154612f4390919063ffffffff16565b601181905550612da06001601254612f4390919063ffffffff16565b60128190555050565b60155481565b6000600460008473ffffffffffffffffffffffffffffffffffffffff1673ffffffffffffffffffffffffffffffffffffffff16815260200190815260200160002060008373ffffffffffffffffffffffffffffffffffffffff1673ffffffffffffffffffffffffffffffffffffffff16815260200190815260200160002060009054906101000a900460ff16905092915050565b60216020528060005260406000206000915090508060000154908060010154908060020154908060030154905084565b600080831415612e865760009050612ef3565b6000828402905082848281612e9757fe5b0414612eee576040517f08c379a00000000000000000000000000000000000000000000000000000000081526004018080602001828103825260218152602001806149da6021913960400191505060405180910390fd5b809150505b92915050565b6000612f3b83836040518060400160405280601e81526020017f536166654d6174683a207375627472616374696f6e206f766572666c6f770000815250613515565b905092915050565b600080828401905083811015612fc1576040517f08c379a000000000000000000000000000000000000000000000000000000000815260040180806020018281038252601b8152602001807f536166654d6174683a206164646974696f6e206f766572666c6f77000000000081525060200191505060405180910390fd5b8091505092915050565b600061300d83836040518060400160405280601a81526020017f536166654d6174683a206469766973696f6e206279207a65726f0000000000008152506135d5565b905092915050565b60006130208261369b565b905061303781601554612f4390919063ffffffff16565b601581905550600e60009054906101000a900473ffffffffffffffffffffffffffffffffffffffff1673ffffffffffffffffffffffffffffffffffffffff1663db006a75826040518263ffffffff1660e01b815260040180828152602001915050600060405180830381600087803b1580156130b257600080fd5b505af11580156130c6573d6000803e3d6000fd5b50505050600d60009054906101000a900473ffffffffffffffffffffffffffffffffffffffff1673ffffffffffffffffffffffffffffffffffffffff1663a9059cbb61311184611e48565b836040518363ffffffff1660e01b8152600401808373ffffffffffffffffffffffffffffffffffffffff1673ffffffffffffffffffffffffffffffffffffffff16815260200182815260200192505050602060405180830381600087803b15801561317b57600080fd5b505af115801561318f573d6000803e3d6000fd5b505050506040513d60208110156131a557600080fd5b8101908080519060200190929190505050505050565b6131cd6131c782611e48565b82613881565b50565b6000806001600084815260200190815260200160002060009054906101000a900473ffffffffffffffffffffffffffffffffffffffff169050600073ffffffffffffffffffffffffffffffffffffffff168173ffffffffffffffffffffffffffffffffffffffff161415915050919050565b600033905090565b6000613255826131d0565b6132aa576040517f08c379a000000000000000000000000000000000000000000000000000000000815260040180806020018281038252602c815260200180614923602c913960400191505060405180910390fd5b60006132b583611e48565b90508073ffffffffffffffffffffffffffffffffffffffff168473ffffffffffffffffffffffffffffffffffffffff16148061332457508373ffffffffffffffffffffffffffffffffffffffff1661330c84611822565b73ffffffffffffffffffffffffffffffffffffffff16145b8061333557506133348185612daf565b5b91505092915050565b6133498383836138de565b6133538382613b39565b61335d8282613cd7565b505050565b600081600001549050919050565b61337b84848461333e565b61338784848484613d9e565b6133dc576040517f08c379a00000000000000000000000000000000000000000000000000000000081526004018080602001828103825260328152602001806148cd6032913960400191505060405180910390fd5b50505050565b600060216000601354815260200190815260200160002060010154905060006021600060135481526020019081526020016000206000015490506000602160006013548152602001908152602001600020600201549050818310156134dc57613455600184612f4390919063ffffffff16565b602160006013548152602001908152602001600020600101819055506134bb613488600185612f4390919063ffffffff16565b6134ad4261349f8786612e7390919063ffffffff16565b612f4390919063ffffffff16565b612fcb90919063ffffffff16565b602160006013548152602001908152602001600020600201819055506134ee565b6134e46140da565b6134ed846133e2565b5b50505050565b6134fe828261415f565b6135088282613cd7565b61351181614377565b5050565b60008383111582906135c2576040517f08c379a00000000000000000000000000000000000000000000000000000000081526004018080602001828103825283818151815260200191508051906020019080838360005b8381101561358757808201518184015260208101905061356c565b50505050905090810190601f1680156135b45780820380516001836020036101000a031916815260200191505b509250505060405180910390fd5b5060008385039050809150509392505050565b60008083118290613681576040517f08c379a00000000000000000000000000000000000000000000000000000000081526004018080602001828103825283818151815260200191508051906020019080838360005b8381101561364657808201518184015260208101905061362b565b50505050905090810190601f1680156136735780820380516001836020036101000a031916815260200191505b509250505060405180910390fd5b50600083858161368d57fe5b049050809150509392505050565b600081600073ffffffffffffffffffffffffffffffffffffffff166136bf82611e48565b73ffffffffffffffffffffffffffffffffffffffff161415613749576040517f08c379a00000000000000000000000000000000000000000000000000000000081526004018080602001828103825260138152602001807f486f646c20646f6573206e6f742065786973740000000000000000000000000081525060200191505060405180910390fd5b60008061375585611ab1565b9050600060206000878152602001908152602001600020600101549050600081146137915761378e600182612f4390919063ffffffff16565b90505b60008190505b60135481116138745760006137ab82611069565b905060006137c28583612fcb90919063ffffffff16565b90508160168190555080601781905550846018819055506137ec8187612f4390919063ffffffff16565b9550613817816021600086815260200190815260200160002060030154612f4390919063ffffffff16565b60216000858152602001908152602001600020600301819055506000831461386557613862602160008581526020019081526020016000206001015486612f4390919063ffffffff16565b94505b50508080600101915050613797565b5082945050505050919050565b61388b82826143c3565b6000600c6000838152602001908152602001600020805460018160011615610100020316600290049050146138da57600c600082815260200190815260200160002060006138d99190614808565b5b5050565b8273ffffffffffffffffffffffffffffffffffffffff166138fe82611e48565b73ffffffffffffffffffffffffffffffffffffffff161461396a576040517f08c379a0000000000000000000000000000000000000000000000000000000008152600401808060200182810382526029815260200180614a276029913960400191505060405180910390fd5b600073ffffffffffffffffffffffffffffffffffffffff168273ffffffffffffffffffffffffffffffffffffffff1614156139f0576040517f08c379a00000000000000000000000000000000000000000000000000000000081526004018080602001828103825260248152602001806148ff6024913960400191505060405180910390fd5b6139f9816143fd565b613a40600360008573ffffffffffffffffffffffffffffffffffffffff1673ffffffffffffffffffffffffffffffffffffffff1681526020019081526020016000206144bb565b613a87600360008473ffffffffffffffffffffffffffffffffffffffff1673ffffffffffffffffffffffffffffffffffffffff1681526020019081526020016000206144de565b816001600083815260200190815260200160002060006101000a81548173ffffffffffffffffffffffffffffffffffffffff021916908373ffffffffffffffffffffffffffffffffffffffff160217905550808273ffffffffffffffffffffffffffffffffffffffff168473ffffffffffffffffffffffffffffffffffffffff167fddf252ad1be2c89b69c2b068fc378daa952ba7f163c4a11628f55a4df523b3ef60405160405180910390a4505050565b6000613b916001600560008673ffffffffffffffffffffffffffffffffffffffff1673ffffffffffffffffffffffffffffffffffffffff16815260200190815260200160002080549050612ef990919063ffffffff16565b9050600060066000848152602001908152602001600020549050818114613c7e576000600560008673ffffffffffffffffffffffffffffffffffffffff1673ffffffffffffffffffffffffffffffffffffffff1681526020019081526020016000208381548110613bfe57fe5b9060005260206000200154905080600560008773ffffffffffffffffffffffffffffffffffffffff1673ffffffffffffffffffffffffffffffffffffffff1681526020019081526020016000208381548110613c5657fe5b9060005260206000200181905550816006600083815260200190815260200160002081905550505b600560008573ffffffffffffffffffffffffffffffffffffffff1673ffffffffffffffffffffffffffffffffffffffff168152602001908152602001600020805480919060019003613cd09190614850565b5050505050565b600560008373ffffffffffffffffffffffffffffffffffffffff1673ffffffffffffffffffffffffffffffffffffffff168152602001908152602001600020805490506006600083815260200190815260200160002081905550600560008373ffffffffffffffffffffffffffffffffffffffff1673ffffffffffffffffffffffffffffffffffffffff1681526020019081526020016000208190806001815401808255809150509060018203906000526020600020016000909192909190915055505050565b6000613dbf8473ffffffffffffffffffffffffffffffffffffffff166144f4565b613dcc57600190506140d2565b600060608573ffffffffffffffffffffffffffffffffffffffff168673ffffffffffffffffffffffffffffffffffffffff1663150b7a02905060e01b613e10613242565b898888604051602401808573ffffffffffffffffffffffffffffffffffffffff1673ffffffffffffffffffffffffffffffffffffffff1681526020018473ffffffffffffffffffffffffffffffffffffffff1673ffffffffffffffffffffffffffffffffffffffff16815260200183815260200180602001828103825283818151815260200191508051906020019080838360005b83811015613ec0578082015181840152602081019050613ea5565b50505050905090810190601f168015613eed5780820380516001836020036101000a031916815260200191505b5095505050505050604051602081830303815290604052907bffffffffffffffffffffffffffffffffffffffffffffffffffffffff19166020820180517bffffffffffffffffffffffffffffffffffffffffffffffffffffffff83818316178352505050506040518082805190602001908083835b60208310613f855780518252602082019150602081019050602083039250613f62565b6001836020036101000a0380198251168184511680821785525050505050509050019150506000604051808303816000865af19150503d8060008114613fe7576040519150601f19603f3d011682016040523d82523d6000602084013e613fec565b606091505b50915091508161405a576000815111156140095780518082602001fd5b6040517f08c379a00000000000000000000000000000000000000000000000000000000081526004018080602001828103825260328152602001806148cd6032913960400191505060405180910390fd5b600081806020019051602081101561407157600080fd5b8101908080519060200190929190505050905063150b7a0260e01b7bffffffffffffffffffffffffffffffffffffffffffffffffffffffff1916817bffffffffffffffffffffffffffffffffffffffffffffffffffffffff19161493505050505b949350505050565b600060216000601354815260200190815260200160002060000154905060006141206009614112600a85612e7390919063ffffffff16565b612fcb90919063ffffffff16565b90506141386001601354612f4390919063ffffffff16565b60138190555080602160006013548152602001908152602001600020600001819055505050565b600073ffffffffffffffffffffffffffffffffffffffff168273ffffffffffffffffffffffffffffffffffffffff161415614202576040517f08c379a00000000000000000000000000000000000000000000000000000000081526004018080602001828103825260208152602001807f4552433732313a206d696e7420746f20746865207a65726f206164647265737381525060200191505060405180910390fd5b61420b816131d0565b1561427e576040517f08c379a000000000000000000000000000000000000000000000000000000000815260040180806020018281038252601c8152602001807f4552433732313a20746f6b656e20616c7265616479206d696e7465640000000081525060200191505060405180910390fd5b816001600083815260200190815260200160002060006101000a81548173ffffffffffffffffffffffffffffffffffffffff021916908373ffffffffffffffffffffffffffffffffffffffff160217905550614317600360008473ffffffffffffffffffffffffffffffffffffffff1673ffffffffffffffffffffffffffffffffffffffff1681526020019081526020016000206144de565b808273ffffffffffffffffffffffffffffffffffffffff16600073ffffffffffffffffffffffffffffffffffffffff167fddf252ad1be2c89b69c2b068fc378daa952ba7f163c4a11628f55a4df523b3ef60405160405180910390a45050565b6007805490506008600083815260200190815260200160002081905550600781908060018154018082558091505090600182039060005260206000200160009091929091909150555050565b6143cd828261453f565b6143d78282613b39565b600060066000838152602001908152602001600020819055506143f9816146ce565b5050565b600073ffffffffffffffffffffffffffffffffffffffff166002600083815260200190815260200160002060009054906101000a900473ffffffffffffffffffffffffffffffffffffffff1673ffffffffffffffffffffffffffffffffffffffff16146144b85760006002600083815260200190815260200160002060006101000a81548173ffffffffffffffffffffffffffffffffffffffff021916908373ffffffffffffffffffffffffffffffffffffffff1602179055505b50565b6144d360018260000154612ef990919063ffffffff16565b816000018190555050565b6001816000016000828254019250508190555050565b60008060007fc5d2460186f7233c927e7db2dcc703c0e500b653ca82273b7bfad8045d85a47060001b9050833f915080821415801561453657506000801b8214155b92505050919050565b8173ffffffffffffffffffffffffffffffffffffffff1661455f82611e48565b73ffffffffffffffffffffffffffffffffffffffff16146145cb576040517f08c379a0000000000000000000000000000000000000000000000000000000008152600401808060200182810382526025815260200180614afd6025913960400191505060405180910390fd5b6145d4816143fd565b61461b600360008473ffffffffffffffffffffffffffffffffffffffff1673ffffffffffffffffffffffffffffffffffffffff1681526020019081526020016000206144bb565b60006001600083815260200190815260200160002060006101000a81548173ffffffffffffffffffffffffffffffffffffffff021916908373ffffffffffffffffffffffffffffffffffffffff16021790555080600073ffffffffffffffffffffffffffffffffffffffff168373ffffffffffffffffffffffffffffffffffffffff167fddf252ad1be2c89b69c2b068fc378daa952ba7f163c4a11628f55a4df523b3ef60405160405180910390a45050565b60006146e96001600780549050612ef990919063ffffffff16565b905060006008600084815260200190815260200160002054905060006007838154811061471257fe5b90600052602060002001549050806007838154811061472d57fe5b906000526020600020018190555081600860008381526020019081526020016000208190555060078054809190600190036147689190614850565b506000600860008681526020019081526020016000208190555050505050565b828054600181600116156101000203166002900490600052602060002090601f016020900481019282601f106147c957805160ff19168380011785556147f7565b828001600101855582156147f7579182015b828111156147f65782518255916020019190600101906147db565b5b509050614804919061487c565b5090565b50805460018160011615610100020316600290046000825580601f1061482e575061484d565b601f01602090049060005260206000209081019061484c919061487c565b5b50565b81548183558181111561487757818360005260206000209182019101614876919061487c565b5b505050565b61489e91905b8082111561489a576000816000905550600101614882565b5090565b9056fe455243373231456e756d657261626c653a206f776e657220696e646578206f7574206f6620626f756e64734552433732313a207472616e7366657220746f206e6f6e20455243373231526563656976657220696d706c656d656e7465724552433732313a207472616e7366657220746f20746865207a65726f20616464726573734552433732313a206f70657261746f7220717565727920666f72206e6f6e6578697374656e7420746f6b656e4552433732313a20617070726f76652063616c6c6572206973206e6f74206f776e6572206e6f7220617070726f76656420666f7220616c6c4552433732313a2062616c616e636520717565727920666f7220746865207a65726f20616464726573734552433732313a206f776e657220717565727920666f72206e6f6e6578697374656e7420746f6b656e536166654d6174683a206d756c7469706c69636174696f6e206f766572666c6f774552433732313a20617070726f76656420717565727920666f72206e6f6e6578697374656e7420746f6b656e4552433732313a207472616e73666572206f6620746f6b656e2074686174206973206e6f74206f776e4552433732314d657461646174613a2055524920717565727920666f72206e6f6e6578697374656e7420746f6b656e4552433732313a20617070726f76616c20746f2063757272656e74206f776e65724552433732313a207472616e736665722063616c6c6572206973206e6f74206f776e6572206e6f7220617070726f766564455243373231456e756d657261626c653a20676c6f62616c20696e646578206f7574206f6620626f756e64734552433732313a206275726e206f6620746f6b656e2074686174206973206e6f74206f776ea265627a7a72315820bd51bd21ab948e34f67aead616570ab5ab4c5192c62b493c6fc011f2b20fea9664736f6c634300050c0032",
  "source": "pragma solidity >=0.4.21 <0.7.0;\n\nimport \"@openzeppelin/contracts/token/ERC721/ERC721Full.sol\";\nimport \"@openzeppelin/contracts/math/SafeMath.sol\";\n\n/// @title Dai contract interface\n/// @notice Various cash functions\ninterface Cash \n{\n    function approve(address _spender, uint _amount) external returns (bool);\n    function balanceOf(address _ownesr) external view returns (uint);\n    function mint(uint256) external;\n    function transfer(address _to, uint _amount) external returns (bool);\n}\n\ninterface IaToken \n{\n    function balanceOf(address _user) external view returns(uint);\n    function redeem(uint256 _amount) external;\n}\n\ninterface IAaveLendingPool \n{\n    function deposit( address _reserve, uint256 _amount, uint16 _referralCode) external;\n}\n\ninterface IAaveLendingPoolCore {}\n\ncontract PonziHodlFactory is ERC721Full {\n\n    using SafeMath for uint;\n\n    Cash underlying;\n    IaToken aToken;\n    IAaveLendingPool aaveLendingPool;\n    IAaveLendingPoolCore aaveLendingPoolCore;\n\n    constructor(address _cashAddress, address _aTokenAddress, address _aaveLpAddress, address _aaveLpcoreAddress ) ERC721Full(\"HodlFactory\", \"HODL++\") public { \n        underlying = Cash(_cashAddress);\n        aToken = IaToken(_aTokenAddress); \n        aaveLendingPool = IAaveLendingPool(_aaveLpAddress); \n        aaveLendingPoolCore = IAaveLendingPoolCore(_aaveLpcoreAddress); \n\n        //create first tier\n        tierProperties[0].size = 10;\n    }\n\n    uint public hodlCount = 0;\n    uint public latestHodlId = 0;\n    uint public tierCount = 0;\n    uint public averagePurchaseTime = 0;\n    uint constant public oneHundredDai = 10**20;\n    uint public totalInterestWithdrawn = 0;\n    uint public testingVariableA = 69;\n    uint public testingVariableB = 0;\n    uint public testingVariableC = 0;\n    uint public testingVariableD = 0;\n    uint public testingVariableE = 0;\n    uint public testingVariableF = 0;\n    uint public testingVariableG = 0;\n    uint public testingVariableH = 69;\n    uint public testingVariableI = 0;\n    uint public testingVariableJ = 0;\n\n    struct hodl {\n        uint purchaseTime;\n        uint tier;\n        string name;\n    }\n\n    struct tier {\n        uint size;\n        uint hodlsInTier;\n        uint averagePurchaseTime;\n        uint interestAlreadyWithdrawn;\n    }\n\n    mapping (uint => hodl) public hodlProperties; \n    mapping (uint => tier) public tierProperties; \n    mapping (address => uint[]) hodlOwnerTracker;\n    mapping (address => uint[]) hodlsDeletedTracker;\n\n    modifier hodlExists(uint _hodlId) {\n        require(ownerOf(_hodlId) != address(0), \"Hodl does not exist\");\n        _;\n    }\n\n    function getHodlPurchaseTime(uint _hodlId) external view returns (uint) {\n        return hodlProperties[_hodlId].purchaseTime;\n    }\n\n    function getHodlName(uint _hodlId) external view returns (string memory) {\n        return hodlProperties[_hodlId].name;\n    }\n\n    function getAdaiBalance() public view returns (uint) {\n        return(aToken.balanceOf(address(this)));\n    }\n\n    function getHodlsOwned() public view returns(uint[] memory) {\n        return(hodlOwnerTracker[msg.sender]);\n    }\n\n    function getHodlsDeleted() public view returns(uint[] memory) {\n        return(hodlsDeletedTracker[msg.sender]);\n    }\n\n    function _createNewTier() internal {\n        uint _sizeOfBiggestTier = tierProperties[tierCount].size;\n        uint _newSize = (_sizeOfBiggestTier.mul(10)).div(9);\n        tierCount = tierCount.add(1);\n        tierProperties[tierCount].size = _newSize;\n    }\n\n    function _addToTier(uint _hodlId) internal {\n        //add to existing tier\n        uint _hodlsInTier = tierProperties[tierCount].hodlsInTier;\n        uint _sizeOfTier = tierProperties[tierCount].size;\n        uint _tierAveragePurchaseTime = tierProperties[tierCount].averagePurchaseTime;\n        if (_hodlsInTier < _sizeOfTier) {\n            tierProperties[tierCount].hodlsInTier = _hodlsInTier.add(1);\n            tierProperties[tierCount].averagePurchaseTime = ((_tierAveragePurchaseTime.mul(_hodlsInTier)).add(now)).div(_hodlsInTier.add(1));\n        } else {\n            _createNewTier();\n            _addToTier(_hodlId);\n        }\n    }\n\n    function getPlayersMyTierOrBelow(uint _hodlId) public view returns (uint) {\n        uint _tier = hodlProperties[_hodlId].tier;\n        uint _playerCount;\n        for (uint i = 0; i <= _tier; i++) {\n            _playerCount = _playerCount.add(tierProperties[i].hodlsInTier);\n        }\n        return _playerCount;\n    }\n\n    function createHodl(string memory _name) public {\n        // UPDATE VARIABLES\n        _addToTier(latestHodlId);\n        hodlOwnerTracker[msg.sender].push(latestHodlId);\n        hodlProperties[latestHodlId].purchaseTime = now;\n        hodlProperties[latestHodlId].tier = tierCount;\n        hodlProperties[latestHodlId].name = _name;\n        averagePurchaseTime = ((averagePurchaseTime.mul(hodlCount)).add(now)).div(hodlCount.add(1));\n        // SWAP DAI FOR aDAI\n        underlying.mint(oneHundredDai);\n        underlying.approve(address(aaveLendingPoolCore), oneHundredDai);\n        aaveLendingPool.deposit(address(underlying), oneHundredDai, 0);\n        // // GENERATE NFT\n        _mint(msg.sender, latestHodlId);\n        hodlCount = hodlCount.add(1);  \n        latestHodlId = latestHodlId.add(1); \n    } \n\n    function getTierInterestAccrued(uint _tierId) public view returns (uint) {\n        uint _totalAdaiBalance = aToken.balanceOf(address(this)); \n        uint _totalDaiBalance = hodlCount.mul(oneHundredDai);\n        uint _totalInterestAvailable = (_totalAdaiBalance.sub(_totalDaiBalance)).add(totalInterestWithdrawn);\n        uint _hodlsInTier = tierProperties[_tierId].hodlsInTier;\n        uint _interestAlreadyWithdrawn = tierProperties[_tierId].interestAlreadyWithdrawn;\n        uint _numerator = (now.sub(tierProperties[_tierId].averagePurchaseTime)).mul(_hodlsInTier);\n        uint _denominator = (now.sub(averagePurchaseTime)).mul(hodlCount);\n        return ((_totalInterestAvailable.mul(_numerator.div(_denominator))).sub(_interestAlreadyWithdrawn));\n    }\n\n    function getInterestAvailableToWithdrawView(uint _hodlId) public view hodlExists(_hodlId) returns (uint) {\n        uint _interestToWithdraw;\n        uint _playerCount = getPlayersMyTierOrBelow(_hodlId);\n        uint _tier = hodlProperties[_hodlId].tier;\n        // tier 0 gets their own interest, any other tier, you do not get your own\n        if (_tier != 0) {\n            _tier = _tier.add(1);\n        }\n        for (uint i = _tier; i <= tierCount; i++) {\n            uint _tierInterestAccrued = getTierInterestAccrued(i);\n            uint _interestToWithdrawFromThisTier = _tierInterestAccrued.div(_playerCount);\n            _interestToWithdraw = _interestToWithdraw.add(_interestToWithdrawFromThisTier);\n            if (i != 0) {\n                // otherwise double counting tier 0 players\n                _playerCount = _playerCount.add(tierProperties[i].hodlsInTier);\n            }\n        }\n        return _interestToWithdraw;\n    }\n\n    // the same as the above, except that it updates 'interestAlreadyWithdrawn' property of each tier \n    function _getInterestAvailableToWithdraw(uint _hodlId) internal hodlExists(_hodlId) returns (uint) {\n        uint _interestToWithdraw;\n        uint _playerCount = getPlayersMyTierOrBelow(_hodlId);\n        uint _tier = hodlProperties[_hodlId].tier;\n        // tier 0 gets their own interest, any other tier, you do not get your own\n        if (_tier != 0) {\n            _tier = _tier.add(1);\n        }\n        for (uint i = _tier; i <= tierCount; i++) {\n            uint _tierInterestAccrued = getTierInterestAccrued(i);\n            uint _interestToWithdrawFromThisTier = _tierInterestAccrued.div(_playerCount);\n            testingVariableA = _tierInterestAccrued;\n            testingVariableB = _interestToWithdrawFromThisTier;\n            testingVariableC = _playerCount;\n            _interestToWithdraw = _interestToWithdraw.add(_interestToWithdrawFromThisTier);\n            tierProperties[i].interestAlreadyWithdrawn = tierProperties[i].interestAlreadyWithdrawn.add(_interestToWithdrawFromThisTier); // <- only new line from View version\n            if (i != 0) {\n                // otherwise double counting tier 0 players\n                _playerCount = _playerCount.add(tierProperties[i].hodlsInTier);\n            }\n        }\n        return _interestToWithdraw;\n    }\n\n    function _withdrawInterest(uint _hodlId) internal {\n        uint _interestToWithdraw = _getInterestAvailableToWithdraw(_hodlId);\n        totalInterestWithdrawn = totalInterestWithdrawn.add(_interestToWithdraw);\n        aToken.redeem(_interestToWithdraw);\n        underlying.transfer(ownerOf(_hodlId), _interestToWithdraw);\n    } \n\n    function destroyHodl(uint _hodlId) public {\n        require (ownerOf(_hodlId) == msg.sender, \"Not owner\");\n        _withdrawInterest(_hodlId);\n        // remove HODL from tier\n        uint _tier = hodlProperties[_hodlId].tier;\n        uint _hodlsInTier = tierProperties[_tier].hodlsInTier;\n        // update tier average purchase time\n        uint _tierAveragePurchaseTime = tierProperties[_tier].averagePurchaseTime;\n        if (_hodlsInTier > 1) {\n            tierProperties[_tier].averagePurchaseTime = ((_tierAveragePurchaseTime.mul(_hodlsInTier)).sub(hodlProperties[_hodlId].purchaseTime)).div(_hodlsInTier.sub(1));\n        } else {\n            tierProperties[_tier].averagePurchaseTime = 0;\n        }\n        // update total average purchase time\n        if (hodlCount > 1) {\n            averagePurchaseTime = ((averagePurchaseTime.mul(hodlCount)).sub(hodlProperties[_hodlId].purchaseTime)).div(hodlCount.sub(1));\n        } else {\n            averagePurchaseTime = 0;\n        }\n        tierProperties[_tier].hodlsInTier = tierProperties[_tier].hodlsInTier.sub(1);\n        // external calls\n        aToken.redeem(oneHundredDai);\n        underlying.transfer(ownerOf(_hodlId), oneHundredDai);\n        // remove HODL\n        hodlCount = hodlCount.sub(1);\n        _burn(_hodlId);\n        hodlsDeletedTracker[msg.sender].push(_hodlId);\n    }\n\n}\n",
  "sourcePath": "/Users/mcplums/Repos/HodlFactory/contracts/PonziHodlFactory.sol",
  "compiler": {
    "name": "solc",
    "version": "0.5.12+commit.7709ece9.Emscripten.clang"
  },
  "schemaVersion": "3.0.19",
  "updatedAt": "2020-04-25T15:05:52.980Z",
  "networkType": "ethereum",
  "devdoc": {
    "methods": {
      "approve(address,uint256)": {
        "details": "Approves another address to transfer the given token ID The zero address indicates there is no approved address. There can only be one approved address per token at a given time. Can only be called by the token owner or an approved operator.",
        "params": {
          "to": "address to be approved for the given token ID",
          "tokenId": "uint256 ID of the token to be approved"
        }
      },
      "balanceOf(address)": {
        "details": "Gets the balance of the specified address.",
        "params": {
          "owner": "address to query the balance of"
        },
        "return": "uint256 representing the amount owned by the passed address"
      },
      "baseURI()": {
        "details": "Returns the base URI set via {_setBaseURI}. This will be automatically added as a preffix in {tokenURI} to each token's URI, when they are non-empty.    * _Available since v2.5.0._"
      },
      "getApproved(uint256)": {
        "details": "Gets the approved address for a token ID, or zero if no address set Reverts if the token ID does not exist.",
        "params": {
          "tokenId": "uint256 ID of the token to query the approval of"
        },
        "return": "address currently approved for the given token ID"
      },
      "isApprovedForAll(address,address)": {
        "details": "Tells whether an operator is approved by a given owner.",
        "params": {
          "operator": "operator address which you want to query the approval of",
          "owner": "owner address which you want to query the approval of"
        },
        "return": "bool whether the given operator is approved by the given owner"
      },
      "name()": {
        "details": "Gets the token name.",
        "return": "string representing the token name"
      },
      "ownerOf(uint256)": {
        "details": "Gets the owner of the specified token ID.",
        "params": {
          "tokenId": "uint256 ID of the token to query the owner of"
        },
        "return": "address currently marked as the owner of the given token ID"
      },
      "safeTransferFrom(address,address,uint256)": {
        "details": "Safely transfers the ownership of a given token ID to another address If the target address is a contract, it must implement {IERC721Receiver-onERC721Received}, which is called upon a safe transfer, and return the magic value `bytes4(keccak256(\"onERC721Received(address,address,uint256,bytes)\"))`; otherwise, the transfer is reverted. Requires the msg.sender to be the owner, approved, or operator",
        "params": {
          "from": "current owner of the token",
          "to": "address to receive the ownership of the given token ID",
          "tokenId": "uint256 ID of the token to be transferred"
        }
      },
      "safeTransferFrom(address,address,uint256,bytes)": {
        "details": "Safely transfers the ownership of a given token ID to another address If the target address is a contract, it must implement {IERC721Receiver-onERC721Received}, which is called upon a safe transfer, and return the magic value `bytes4(keccak256(\"onERC721Received(address,address,uint256,bytes)\"))`; otherwise, the transfer is reverted. Requires the _msgSender() to be the owner, approved, or operator",
        "params": {
          "_data": "bytes data to send along with a safe transfer check",
          "from": "current owner of the token",
          "to": "address to receive the ownership of the given token ID",
          "tokenId": "uint256 ID of the token to be transferred"
        }
      },
      "setApprovalForAll(address,bool)": {
        "details": "Sets or unsets the approval of a given operator An operator is allowed to transfer all tokens of the sender on their behalf.",
        "params": {
          "approved": "representing the status of the approval to be set",
          "to": "operator address to set the approval"
        }
      },
      "supportsInterface(bytes4)": {
        "details": "See {IERC165-supportsInterface}.     * Time complexity O(1), guaranteed to always use less than 30 000 gas."
      },
      "symbol()": {
        "details": "Gets the token symbol.",
        "return": "string representing the token symbol"
      },
      "tokenByIndex(uint256)": {
        "details": "Gets the token ID at a given index of all the tokens in this contract Reverts if the index is greater or equal to the total number of tokens.",
        "params": {
          "index": "uint256 representing the index to be accessed of the tokens list"
        },
        "return": "uint256 token ID at the given index of the tokens list"
      },
      "tokenOfOwnerByIndex(address,uint256)": {
        "details": "Gets the token ID at a given index of the tokens list of the requested owner.",
        "params": {
          "index": "uint256 representing the index to be accessed of the requested tokens list",
          "owner": "address owning the tokens list to be accessed"
        },
        "return": "uint256 token ID at the given index of the tokens list owned by the requested address"
      },
      "tokenURI(uint256)": {
        "details": "Returns the URI for a given token ID. May return an empty string.     * If the token's URI is non-empty and a base URI was set (via {_setBaseURI}), it will be added to the token ID's URI as a prefix.     * Reverts if the token ID does not exist."
      },
      "totalSupply()": {
        "details": "Gets the total amount of tokens stored by the contract.",
        "return": "uint256 representing the total amount of tokens"
      },
      "transferFrom(address,address,uint256)": {
        "details": "Transfers the ownership of a given token ID to another address. Usage of this method is discouraged, use {safeTransferFrom} whenever possible. Requires the msg.sender to be the owner, approved, or operator.",
        "params": {
          "from": "current owner of the token",
          "to": "address to receive the ownership of the given token ID",
          "tokenId": "uint256 ID of the token to be transferred"
        }
      }
    }
  },
  "userdoc": {
    "methods": {}
  }
}