{
  "contractName": "PonziHodlFactory",
  "abi": [
    {
      "inputs": [
        {
          "internalType": "address",
          "name": "_cashAddress",
          "type": "address"
        },
        {
          "internalType": "address",
          "name": "_aTokenAddress",
          "type": "address"
        },
        {
          "internalType": "address",
          "name": "_aaveLpAddress",
          "type": "address"
        },
        {
          "internalType": "address",
          "name": "_aaveLpcoreAddress",
          "type": "address"
        }
      ],
      "payable": false,
      "stateMutability": "nonpayable",
      "type": "constructor"
    },
    {
      "anonymous": false,
      "inputs": [
        {
          "indexed": true,
          "internalType": "address",
          "name": "owner",
          "type": "address"
        },
        {
          "indexed": true,
          "internalType": "address",
          "name": "approved",
          "type": "address"
        },
        {
          "indexed": true,
          "internalType": "uint256",
          "name": "tokenId",
          "type": "uint256"
        }
      ],
      "name": "Approval",
      "type": "event"
    },
    {
      "anonymous": false,
      "inputs": [
        {
          "indexed": true,
          "internalType": "address",
          "name": "owner",
          "type": "address"
        },
        {
          "indexed": true,
          "internalType": "address",
          "name": "operator",
          "type": "address"
        },
        {
          "indexed": false,
          "internalType": "bool",
          "name": "approved",
          "type": "bool"
        }
      ],
      "name": "ApprovalForAll",
      "type": "event"
    },
    {
      "anonymous": false,
      "inputs": [
        {
          "indexed": true,
          "internalType": "address",
          "name": "from",
          "type": "address"
        },
        {
          "indexed": true,
          "internalType": "address",
          "name": "to",
          "type": "address"
        },
        {
          "indexed": true,
          "internalType": "uint256",
          "name": "tokenId",
          "type": "uint256"
        }
      ],
      "name": "Transfer",
      "type": "event"
    },
    {
      "constant": false,
      "inputs": [
        {
          "internalType": "address",
          "name": "to",
          "type": "address"
        },
        {
          "internalType": "uint256",
          "name": "tokenId",
          "type": "uint256"
        }
      ],
      "name": "approve",
      "outputs": [],
      "payable": false,
      "stateMutability": "nonpayable",
      "type": "function"
    },
    {
      "constant": true,
      "inputs": [],
      "name": "averagePurchaseTime",
      "outputs": [
        {
          "internalType": "uint256",
          "name": "",
          "type": "uint256"
        }
      ],
      "payable": false,
      "stateMutability": "view",
      "type": "function"
    },
    {
      "constant": true,
      "inputs": [
        {
          "internalType": "address",
          "name": "owner",
          "type": "address"
        }
      ],
      "name": "balanceOf",
      "outputs": [
        {
          "internalType": "uint256",
          "name": "",
          "type": "uint256"
        }
      ],
      "payable": false,
      "stateMutability": "view",
      "type": "function"
    },
    {
      "constant": true,
      "inputs": [],
      "name": "baseURI",
      "outputs": [
        {
          "internalType": "string",
          "name": "",
          "type": "string"
        }
      ],
      "payable": false,
      "stateMutability": "view",
      "type": "function"
    },
    {
      "constant": true,
      "inputs": [
        {
          "internalType": "uint256",
          "name": "tokenId",
          "type": "uint256"
        }
      ],
      "name": "getApproved",
      "outputs": [
        {
          "internalType": "address",
          "name": "",
          "type": "address"
        }
      ],
      "payable": false,
      "stateMutability": "view",
      "type": "function"
    },
    {
      "constant": true,
      "inputs": [],
      "name": "hodlCount",
      "outputs": [
        {
          "internalType": "uint256",
          "name": "",
          "type": "uint256"
        }
      ],
      "payable": false,
      "stateMutability": "view",
      "type": "function"
    },
    {
      "constant": true,
      "inputs": [
        {
          "internalType": "uint256",
          "name": "",
          "type": "uint256"
        }
      ],
      "name": "hodlProperties",
      "outputs": [
        {
          "internalType": "uint256",
          "name": "purchaseTime",
          "type": "uint256"
        },
        {
          "internalType": "uint256",
          "name": "tier",
          "type": "uint256"
        },
        {
          "internalType": "string",
          "name": "name",
          "type": "string"
        }
      ],
      "payable": false,
      "stateMutability": "view",
      "type": "function"
    },
    {
      "constant": true,
      "inputs": [
        {
          "internalType": "address",
          "name": "owner",
          "type": "address"
        },
        {
          "internalType": "address",
          "name": "operator",
          "type": "address"
        }
      ],
      "name": "isApprovedForAll",
      "outputs": [
        {
          "internalType": "bool",
          "name": "",
          "type": "bool"
        }
      ],
      "payable": false,
      "stateMutability": "view",
      "type": "function"
    },
    {
      "constant": true,
      "inputs": [],
      "name": "latestHodlId",
      "outputs": [
        {
          "internalType": "uint256",
          "name": "",
          "type": "uint256"
        }
      ],
      "payable": false,
      "stateMutability": "view",
      "type": "function"
    },
    {
      "constant": true,
      "inputs": [],
      "name": "name",
      "outputs": [
        {
          "internalType": "string",
          "name": "",
          "type": "string"
        }
      ],
      "payable": false,
      "stateMutability": "view",
      "type": "function"
    },
    {
      "constant": true,
      "inputs": [],
      "name": "oneHundredDai",
      "outputs": [
        {
          "internalType": "uint256",
          "name": "",
          "type": "uint256"
        }
      ],
      "payable": false,
      "stateMutability": "view",
      "type": "function"
    },
    {
      "constant": true,
      "inputs": [
        {
          "internalType": "uint256",
          "name": "tokenId",
          "type": "uint256"
        }
      ],
      "name": "ownerOf",
      "outputs": [
        {
          "internalType": "address",
          "name": "",
          "type": "address"
        }
      ],
      "payable": false,
      "stateMutability": "view",
      "type": "function"
    },
    {
      "constant": false,
      "inputs": [
        {
          "internalType": "address",
          "name": "from",
          "type": "address"
        },
        {
          "internalType": "address",
          "name": "to",
          "type": "address"
        },
        {
          "internalType": "uint256",
          "name": "tokenId",
          "type": "uint256"
        }
      ],
      "name": "safeTransferFrom",
      "outputs": [],
      "payable": false,
      "stateMutability": "nonpayable",
      "type": "function"
    },
    {
      "constant": false,
      "inputs": [
        {
          "internalType": "address",
          "name": "from",
          "type": "address"
        },
        {
          "internalType": "address",
          "name": "to",
          "type": "address"
        },
        {
          "internalType": "uint256",
          "name": "tokenId",
          "type": "uint256"
        },
        {
          "internalType": "bytes",
          "name": "_data",
          "type": "bytes"
        }
      ],
      "name": "safeTransferFrom",
      "outputs": [],
      "payable": false,
      "stateMutability": "nonpayable",
      "type": "function"
    },
    {
      "constant": false,
      "inputs": [
        {
          "internalType": "address",
          "name": "to",
          "type": "address"
        },
        {
          "internalType": "bool",
          "name": "approved",
          "type": "bool"
        }
      ],
      "name": "setApprovalForAll",
      "outputs": [],
      "payable": false,
      "stateMutability": "nonpayable",
      "type": "function"
    },
    {
      "constant": true,
      "inputs": [
        {
          "internalType": "bytes4",
          "name": "interfaceId",
          "type": "bytes4"
        }
      ],
      "name": "supportsInterface",
      "outputs": [
        {
          "internalType": "bool",
          "name": "",
          "type": "bool"
        }
      ],
      "payable": false,
      "stateMutability": "view",
      "type": "function"
    },
    {
      "constant": true,
      "inputs": [],
      "name": "symbol",
      "outputs": [
        {
          "internalType": "string",
          "name": "",
          "type": "string"
        }
      ],
      "payable": false,
      "stateMutability": "view",
      "type": "function"
    },
    {
      "constant": true,
      "inputs": [],
      "name": "tierCount",
      "outputs": [
        {
          "internalType": "uint256",
          "name": "",
          "type": "uint256"
        }
      ],
      "payable": false,
      "stateMutability": "view",
      "type": "function"
    },
    {
      "constant": true,
      "inputs": [
        {
          "internalType": "uint256",
          "name": "",
          "type": "uint256"
        }
      ],
      "name": "tierProperties",
      "outputs": [
        {
          "internalType": "uint256",
          "name": "size",
          "type": "uint256"
        },
        {
          "internalType": "uint256",
          "name": "hodlsInTier",
          "type": "uint256"
        },
        {
          "internalType": "uint256",
          "name": "averagePurchaseTime",
          "type": "uint256"
        },
        {
          "internalType": "uint256",
          "name": "interestAlreadyWithdrawn",
          "type": "uint256"
        }
      ],
      "payable": false,
      "stateMutability": "view",
      "type": "function"
    },
    {
      "constant": true,
      "inputs": [
        {
          "internalType": "uint256",
          "name": "index",
          "type": "uint256"
        }
      ],
      "name": "tokenByIndex",
      "outputs": [
        {
          "internalType": "uint256",
          "name": "",
          "type": "uint256"
        }
      ],
      "payable": false,
      "stateMutability": "view",
      "type": "function"
    },
    {
      "constant": true,
      "inputs": [
        {
          "internalType": "address",
          "name": "owner",
          "type": "address"
        },
        {
          "internalType": "uint256",
          "name": "index",
          "type": "uint256"
        }
      ],
      "name": "tokenOfOwnerByIndex",
      "outputs": [
        {
          "internalType": "uint256",
          "name": "",
          "type": "uint256"
        }
      ],
      "payable": false,
      "stateMutability": "view",
      "type": "function"
    },
    {
      "constant": true,
      "inputs": [
        {
          "internalType": "uint256",
          "name": "tokenId",
          "type": "uint256"
        }
      ],
      "name": "tokenURI",
      "outputs": [
        {
          "internalType": "string",
          "name": "",
          "type": "string"
        }
      ],
      "payable": false,
      "stateMutability": "view",
      "type": "function"
    },
    {
      "constant": true,
      "inputs": [],
      "name": "totalInterestWithdrawn",
      "outputs": [
        {
          "internalType": "uint256",
          "name": "",
          "type": "uint256"
        }
      ],
      "payable": false,
      "stateMutability": "view",
      "type": "function"
    },
    {
      "constant": true,
      "inputs": [],
      "name": "totalSupply",
      "outputs": [
        {
          "internalType": "uint256",
          "name": "",
          "type": "uint256"
        }
      ],
      "payable": false,
      "stateMutability": "view",
      "type": "function"
    },
    {
      "constant": false,
      "inputs": [
        {
          "internalType": "address",
          "name": "from",
          "type": "address"
        },
        {
          "internalType": "address",
          "name": "to",
          "type": "address"
        },
        {
          "internalType": "uint256",
          "name": "tokenId",
          "type": "uint256"
        }
      ],
      "name": "transferFrom",
      "outputs": [],
      "payable": false,
      "stateMutability": "nonpayable",
      "type": "function"
    },
    {
      "constant": true,
      "inputs": [
        {
          "internalType": "uint256",
          "name": "_hodlId",
          "type": "uint256"
        }
      ],
      "name": "getHodlPurchaseTime",
      "outputs": [
        {
          "internalType": "uint256",
          "name": "",
          "type": "uint256"
        }
      ],
      "payable": false,
      "stateMutability": "view",
      "type": "function"
    },
    {
      "constant": true,
      "inputs": [
        {
          "internalType": "uint256",
          "name": "_hodlId",
          "type": "uint256"
        }
      ],
      "name": "getHodlName",
      "outputs": [
        {
          "internalType": "string",
          "name": "",
          "type": "string"
        }
      ],
      "payable": false,
      "stateMutability": "view",
      "type": "function"
    },
    {
      "constant": true,
      "inputs": [],
      "name": "getAdaiBalance",
      "outputs": [
        {
          "internalType": "uint256",
          "name": "",
          "type": "uint256"
        }
      ],
      "payable": false,
      "stateMutability": "view",
      "type": "function"
    },
    {
      "constant": true,
      "inputs": [],
      "name": "getHodlsOwned",
      "outputs": [
        {
          "internalType": "uint256[]",
          "name": "",
          "type": "uint256[]"
        }
      ],
      "payable": false,
      "stateMutability": "view",
      "type": "function"
    },
    {
      "constant": true,
      "inputs": [],
      "name": "getHodlsDeleted",
      "outputs": [
        {
          "internalType": "uint256[]",
          "name": "",
          "type": "uint256[]"
        }
      ],
      "payable": false,
      "stateMutability": "view",
      "type": "function"
    },
    {
      "constant": true,
      "inputs": [
        {
          "internalType": "uint256",
          "name": "_hodlId",
          "type": "uint256"
        }
      ],
      "name": "getHodlTier",
      "outputs": [
        {
          "internalType": "uint256",
          "name": "",
          "type": "uint256"
        }
      ],
      "payable": false,
      "stateMutability": "view",
      "type": "function"
    },
    {
      "constant": true,
      "inputs": [
        {
          "internalType": "uint256",
          "name": "_hodlId",
          "type": "uint256"
        }
      ],
      "name": "getPlayersMyTierOrBelow",
      "outputs": [
        {
          "internalType": "uint256",
          "name": "",
          "type": "uint256"
        }
      ],
      "payable": false,
      "stateMutability": "view",
      "type": "function"
    },
    {
      "constant": false,
      "inputs": [
        {
          "internalType": "string",
          "name": "_name",
          "type": "string"
        }
      ],
      "name": "createHodl",
      "outputs": [],
      "payable": false,
      "stateMutability": "nonpayable",
      "type": "function"
    },
    {
      "constant": true,
      "inputs": [
        {
          "internalType": "uint256",
          "name": "_tierId",
          "type": "uint256"
        }
      ],
      "name": "getTierInterestAccrued",
      "outputs": [
        {
          "internalType": "uint256",
          "name": "",
          "type": "uint256"
        }
      ],
      "payable": false,
      "stateMutability": "view",
      "type": "function"
    },
    {
      "constant": true,
      "inputs": [
        {
          "internalType": "uint256",
          "name": "_hodlId",
          "type": "uint256"
        }
      ],
      "name": "getInterestAvailableToWithdrawView",
      "outputs": [
        {
          "internalType": "uint256",
          "name": "",
          "type": "uint256"
        }
      ],
      "payable": false,
      "stateMutability": "view",
      "type": "function"
    },
    {
      "constant": false,
      "inputs": [
        {
          "internalType": "uint256",
          "name": "_hodlId",
          "type": "uint256"
        }
      ],
      "name": "destroyHodl",
      "outputs": [],
      "payable": false,
      "stateMutability": "nonpayable",
      "type": "function"
    }
  ],
  "bytecode": "0x6080604052600060115560006012556000601355600060145560006015553480156200002a57600080fd5b506040516200511c3803806200511c833981810160405260808110156200005057600080fd5b81019080805190602001909291908051906020019092919080519060200190929190805190602001909291905050506040518060400160405280600b81526020017f486f646c466163746f72790000000000000000000000000000000000000000008152506040518060400160405280600681526020017f484f444c2b2b00000000000000000000000000000000000000000000000000008152508181620001056301ffc9a760e01b620002ad60201b60201c565b6200011d6380ac58cd60e01b620002ad60201b60201c565b6200013563780e9d6360e01b620002ad60201b60201c565b81600990805190602001906200014d929190620003b6565b5080600a908051906020019062000166929190620003b6565b506200017f635b5e139f60e01b620002ad60201b60201c565b5050505083600d60006101000a81548173ffffffffffffffffffffffffffffffffffffffff021916908373ffffffffffffffffffffffffffffffffffffffff16021790555082600e60006101000a81548173ffffffffffffffffffffffffffffffffffffffff021916908373ffffffffffffffffffffffffffffffffffffffff16021790555081600f60006101000a81548173ffffffffffffffffffffffffffffffffffffffff021916908373ffffffffffffffffffffffffffffffffffffffff16021790555080601060006101000a81548173ffffffffffffffffffffffffffffffffffffffff021916908373ffffffffffffffffffffffffffffffffffffffff160217905550600a60176000808152602001908152602001600020600001819055505050505062000465565b63ffffffff60e01b817bffffffffffffffffffffffffffffffffffffffffffffffffffffffff191614156200034a576040517f08c379a000000000000000000000000000000000000000000000000000000000815260040180806020018281038252601c8152602001807f4552433136353a20696e76616c696420696e746572666163652069640000000081525060200191505060405180910390fd5b6001600080837bffffffffffffffffffffffffffffffffffffffffffffffffffffffff19167bffffffffffffffffffffffffffffffffffffffffffffffffffffffff1916815260200190815260200160002060006101000a81548160ff02191690831515021790555050565b828054600181600116156101000203166002900490600052602060002090601f016020900481019282601f10620003f957805160ff19168380011785556200042a565b828001600101855582156200042a579182015b82811115620004295782518255916020019190600101906200040c565b5b5090506200043991906200043d565b5090565b6200046291905b808211156200045e57600081600090555060010162000444565b5090565b90565b614ca780620004756000396000f3fe608060405234801561001057600080fd5b506004361061021b5760003560e01c80636c49c78611610125578063aac13c3d116100ad578063ce35b7d11161007c578063ce35b7d114610cc9578063e1f2877614610d70578063e386bdd714610e2b578063e985e9c514610e49578063ee9d129514610ec55761021b565b8063aac13c3d14610a99578063b643a7ec14610adb578063b88d4fde14610b1d578063c87b56dd14610c225761021b565b806395d89b41116100f457806395d89b41146108d557806396b55f7d146109585780639709e73814610976578063a22cb46514610994578063a5080bdd146109e45761021b565b80636c49c786146107ff5780636ebcf0c71461081d57806370a082311461083b5780637a2aedc0146108935761021b565b80631fc154ba116101a85780634adce894116101775780634adce8941461064f5780634f6ccce71461066d578063630e825a146106af5780636352211e1461070e5780636c0360eb1461077c5761021b565b80631fc154ba146104b257806323b872dd146105115780632f745c591461057f57806342842e0e146105e15761021b565b806306fdde03116101ef57806306fdde0314610313578063081812fc14610396578063095ea7b31461040457806318160ddd146104525780631a1409e0146104705761021b565b80625d8d371461022057806301ffaabd1461026257806301ffc9a714610290578063035a06ca146102f5575b600080fd5b61024c6004803603602081101561023657600080fd5b8101908080359060200190929190505050610f1c565b6040518082815260200191505060405180910390f35b61028e6004803603602081101561027857600080fd5b810190808035906020019092919050505061127a565b005b6102db600480360360208110156102a657600080fd5b8101908080357bffffffffffffffffffffffffffffffffffffffffffffffffffffffff1916906020019092919050505061170b565b604051808215151515815260200191505060405180910390f35b6102fd611772565b6040518082815260200191505060405180910390f35b61031b611778565b6040518080602001828103825283818151815260200191508051906020019080838360005b8381101561035b578082015181840152602081019050610340565b50505050905090810190601f1680156103885780820380516001836020036101000a031916815260200191505b509250505060405180910390f35b6103c2600480360360208110156103ac57600080fd5b810190808035906020019092919050505061181a565b604051808273ffffffffffffffffffffffffffffffffffffffff1673ffffffffffffffffffffffffffffffffffffffff16815260200191505060405180910390f35b6104506004803603604081101561041a57600080fd5b81019080803573ffffffffffffffffffffffffffffffffffffffff169060200190929190803590602001909291905050506118b5565b005b61045a611a9c565b6040518082815260200191505060405180910390f35b61049c6004803603602081101561048657600080fd5b8101908080359060200190929190505050611aa9565b6040518082815260200191505060405180910390f35b6104ba611b17565b6040518080602001828103825283818151815260200191508051906020019060200280838360005b838110156104fd5780820151818401526020810190506104e2565b505050509050019250505060405180910390f35b61057d6004803603606081101561052757600080fd5b81019080803573ffffffffffffffffffffffffffffffffffffffff169060200190929190803573ffffffffffffffffffffffffffffffffffffffff16906020019092919080359060200190929190505050611bac565b005b6105cb6004803603604081101561059557600080fd5b81019080803573ffffffffffffffffffffffffffffffffffffffff16906020019092919080359060200190929190505050611c22565b6040518082815260200191505060405180910390f35b61064d600480360360608110156105f757600080fd5b81019080803573ffffffffffffffffffffffffffffffffffffffff169060200190929190803573ffffffffffffffffffffffffffffffffffffffff16906020019092919080359060200190929190505050611ce1565b005b610657611d01565b6040518082815260200191505060405180910390f35b6106996004803603602081101561068357600080fd5b8101908080359060200190929190505050611d07565b6040518082815260200191505060405180910390f35b6106b7611d87565b6040518080602001828103825283818151815260200191508051906020019060200280838360005b838110156106fa5780820151818401526020810190506106df565b505050509050019250505060405180910390f35b61073a6004803603602081101561072457600080fd5b8101908080359060200190929190505050611e1c565b604051808273ffffffffffffffffffffffffffffffffffffffff1673ffffffffffffffffffffffffffffffffffffffff16815260200191505060405180910390f35b610784611ee4565b6040518080602001828103825283818151815260200191508051906020019080838360005b838110156107c45780820151818401526020810190506107a9565b50505050905090810190601f1680156107f15780820380516001836020036101000a031916815260200191505b509250505060405180910390f35b610807611f86565b6040518082815260200191505060405180910390f35b610825612067565b6040518082815260200191505060405180910390f35b61087d6004803603602081101561085157600080fd5b81019080803573ffffffffffffffffffffffffffffffffffffffff16906020019092919050505061206d565b6040518082815260200191505060405180910390f35b6108bf600480360360208110156108a957600080fd5b8101908080359060200190929190505050612142565b6040518082815260200191505060405180910390f35b6108dd6122bb565b6040518080602001828103825283818151815260200191508051906020019080838360005b8381101561091d578082015181840152602081019050610902565b50505050905090810190601f16801561094a5780820380516001836020036101000a031916815260200191505b509250505060405180910390f35b61096061235d565b6040518082815260200191505060405180910390f35b61097e612363565b6040518082815260200191505060405180910390f35b6109e2600480360360408110156109aa57600080fd5b81019080803573ffffffffffffffffffffffffffffffffffffffff169060200190929190803515159060200190929190505050612370565b005b610a10600480360360208110156109fa57600080fd5b8101908080359060200190929190505050612528565b6040518084815260200183815260200180602001828103825283818151815260200191508051906020019080838360005b83811015610a5c578082015181840152602081019050610a41565b50505050905090810190601f168015610a895780820380516001836020036101000a031916815260200191505b5094505050505060405180910390f35b610ac560048036036020811015610aaf57600080fd5b81019080803590602001909291905050506125ea565b6040518082815260200191505060405180910390f35b610b0760048036036020811015610af157600080fd5b810190808035906020019092919050505061260a565b6040518082815260200191505060405180910390f35b610c2060048036036080811015610b3357600080fd5b81019080803573ffffffffffffffffffffffffffffffffffffffff169060200190929190803573ffffffffffffffffffffffffffffffffffffffff1690602001909291908035906020019092919080359060200190640100000000811115610b9a57600080fd5b820183602082011115610bac57600080fd5b80359060200191846001830284011164010000000083111715610bce57600080fd5b91908080601f016020809104026020016040519081016040528093929190818152602001838380828437600081840152601f19601f82011690508083019250505050505050919291929050505061262a565b005b610c4e60048036036020811015610c3857600080fd5b81019080803590602001909291905050506126a2565b6040518080602001828103825283818151815260200191508051906020019080838360005b83811015610c8e578082015181840152602081019050610c73565b50505050905090810190601f168015610cbb5780820380516001836020036101000a031916815260200191505b509250505060405180910390f35b610cf560048036036020811015610cdf57600080fd5b81019080803590602001909291905050506128a4565b6040518080602001828103825283818151815260200191508051906020019080838360005b83811015610d35578082015181840152602081019050610d1a565b50505050905090810190601f168015610d625780820380516001836020036101000a031916815260200191505b509250505060405180910390f35b610e2960048036036020811015610d8657600080fd5b8101908080359060200190640100000000811115610da357600080fd5b820183602082011115610db557600080fd5b80359060200191846001830284011164010000000083111715610dd757600080fd5b91908080601f016020809104026020016040519081016040528093929190818152602001838380828437600081840152601f19601f82011690508083019250505050505050919291929050505061295c565b005b610e33612d77565b6040518082815260200191505060405180910390f35b610eab60048036036040811015610e5f57600080fd5b81019080803573ffffffffffffffffffffffffffffffffffffffff169060200190929190803573ffffffffffffffffffffffffffffffffffffffff169060200190929190505050612d7d565b604051808215151515815260200191505060405180910390f35b610ef160048036036020811015610edb57600080fd5b8101908080359060200190929190505050612e11565b6040518085815260200184815260200183815260200182815260200194505050505060405180910390f35b600080600e60009054906101000a900473ffffffffffffffffffffffffffffffffffffffff1673ffffffffffffffffffffffffffffffffffffffff166370a08231306040518263ffffffff1660e01b8152600401808273ffffffffffffffffffffffffffffffffffffffff1673ffffffffffffffffffffffffffffffffffffffff16815260200191505060206040518083038186803b158015610fbe57600080fd5b505afa158015610fd2573d6000803e3d6000fd5b505050506040513d6020811015610fe857600080fd5b81019080805190602001909291905050509050600061101b68056bc75e2d63100000601154612e4190919063ffffffff16565b905060006110466015546110388486612ec790919063ffffffff16565b612f1190919063ffffffff16565b905060006017600087815260200190815260200160002060010154905060006017600088815260200190815260200160002060030154905060006110bb836110ad601760008c81526020019081526020016000206002015442612ec790919063ffffffff16565b612e4190919063ffffffff16565b905060006110e86011546110da60145442612ec790919063ffffffff16565b612e4190919063ffffffff16565b905060006111238461111584611107878b612e4190919063ffffffff16565b612f9990919063ffffffff16565b612ec790919063ffffffff16565b905060018a141561126a5761116d6040518060400160405280601781526020017f5f746f74616c496e746572657374417661696c61626c6500000000000000000081525087612fe3565b6111ac6040518060400160405280600d81526020017f5f74696572496e7465726573740000000000000000000000000000000000000081525082612fe3565b6111eb6040518060400160405280600a81526020017f5f6e756d657261746f720000000000000000000000000000000000000000000081525084612fe3565b61122a6040518060400160405280600c81526020017f5f64656e6f6d696e61746f72000000000000000000000000000000000000000081525083612fe3565b6112696040518060400160405280601981526020017f5f696e746572657374416c726561647957697468647261776e0000000000000081525085612fe3565b5b8098505050505050505050919050565b3373ffffffffffffffffffffffffffffffffffffffff1661129a82611e1c565b73ffffffffffffffffffffffffffffffffffffffff1614611323576040517f08c379a00000000000000000000000000000000000000000000000000000000081526004018080602001828103825260098152602001807f4e6f74206f776e6572000000000000000000000000000000000000000000000081525060200191505060405180910390fd5b61132c816131a3565b6000601660008381526020019081526020016000206001015490506000601760008381526020019081526020016000206001015490506000601760008481526020019081526020016000206002015490506001821115611405576113e661139d600184612ec790919063ffffffff16565b6113d860166000888152602001908152602001600020600001546113ca8686612e4190919063ffffffff16565b612ec790919063ffffffff16565b612f9990919063ffffffff16565b6017600085815260200190815260200160002060020181905550611422565b600060176000858152602001908152602001600020600201819055505b6001601154111561149e576114936114466001601154612ec790919063ffffffff16565b6114856016600088815260200190815260200160002060000154611477601154601454612e4190919063ffffffff16565b612ec790919063ffffffff16565b612f9990919063ffffffff16565b6014819055506114a7565b60006014819055505b6114d160016017600086815260200190815260200160002060010154612ec790919063ffffffff16565b6017600085815260200190815260200160002060010181905550600e60009054906101000a900473ffffffffffffffffffffffffffffffffffffffff1673ffffffffffffffffffffffffffffffffffffffff1663db006a7568056bc75e2d631000006040518263ffffffff1660e01b815260040180828152602001915050600060405180830381600087803b15801561156957600080fd5b505af115801561157d573d6000803e3d6000fd5b50505050600d60009054906101000a900473ffffffffffffffffffffffffffffffffffffffff1673ffffffffffffffffffffffffffffffffffffffff1663a9059cbb6115c886611e1c565b68056bc75e2d631000006040518363ffffffff1660e01b8152600401808373ffffffffffffffffffffffffffffffffffffffff1673ffffffffffffffffffffffffffffffffffffffff16815260200182815260200192505050602060405180830381600087803b15801561163b57600080fd5b505af115801561164f573d6000803e3d6000fd5b505050506040513d602081101561166557600080fd5b81019080805190602001909291905050505061168d6001601154612ec790919063ffffffff16565b60118190555061169c84613349565b601960003373ffffffffffffffffffffffffffffffffffffffff1673ffffffffffffffffffffffffffffffffffffffff16815260200190815260200160002084908060018154018082558091505090600182039060005260206000200160009091929091909150555050505050565b6000806000837bffffffffffffffffffffffffffffffffffffffffffffffffffffffff19167bffffffffffffffffffffffffffffffffffffffffffffffffffffffff1916815260200190815260200160002060009054906101000a900460ff169050919050565b60145481565b606060098054600181600116156101000203166002900480601f0160208091040260200160405190810160405280929190818152602001828054600181600116156101000203166002900480156118105780601f106117e557610100808354040283529160200191611810565b820191906000526020600020905b8154815290600101906020018083116117f357829003601f168201915b5050505050905090565b60006118258261335e565b61187a576040517f08c379a000000000000000000000000000000000000000000000000000000000815260040180806020018281038252602c815260200180614b4c602c913960400191505060405180910390fd5b6002600083815260200190815260200160002060009054906101000a900473ffffffffffffffffffffffffffffffffffffffff169050919050565b60006118c082611e1c565b90508073ffffffffffffffffffffffffffffffffffffffff168373ffffffffffffffffffffffffffffffffffffffff161415611947576040517f08c379a0000000000000000000000000000000000000000000000000000000008152600401808060200182810382526021815260200180614bd06021913960400191505060405180910390fd5b8073ffffffffffffffffffffffffffffffffffffffff166119666133d0565b73ffffffffffffffffffffffffffffffffffffffff16148061199557506119948161198f6133d0565b612d7d565b5b6119ea576040517f08c379a0000000000000000000000000000000000000000000000000000000008152600401808060200182810382526038815260200180614aa06038913960400191505060405180910390fd5b826002600084815260200190815260200160002060006101000a81548173ffffffffffffffffffffffffffffffffffffffff021916908373ffffffffffffffffffffffffffffffffffffffff160217905550818373ffffffffffffffffffffffffffffffffffffffff168273ffffffffffffffffffffffffffffffffffffffff167f8c5be1e5ebec7d5bd14f71427d1e84f3dd0314c0f7b2291e5b200ac8c7c3b92560405160405180910390a4505050565b6000600780549050905090565b60008060166000848152602001908152602001600020600101549050600080600090505b828111611b0c57611afd601760008381526020019081526020016000206001015483612f1190919063ffffffff16565b91508080600101915050611acd565b508092505050919050565b6060601960003373ffffffffffffffffffffffffffffffffffffffff1673ffffffffffffffffffffffffffffffffffffffff168152602001908152602001600020805480602002602001604051908101604052809291908181526020018280548015611ba257602002820191906000526020600020905b815481526020019060010190808311611b8e575b5050505050905090565b611bbd611bb76133d0565b826133d8565b611c12576040517f08c379a0000000000000000000000000000000000000000000000000000000008152600401808060200182810382526031815260200180614bf16031913960400191505060405180910390fd5b611c1d8383836134cc565b505050565b6000611c2d8361206d565b8210611c84576040517f08c379a000000000000000000000000000000000000000000000000000000000815260040180806020018281038252602b8152602001806149f3602b913960400191505060405180910390fd5b600560008473ffffffffffffffffffffffffffffffffffffffff1673ffffffffffffffffffffffffffffffffffffffff1681526020019081526020016000208281548110611cce57fe5b9060005260206000200154905092915050565b611cfc8383836040518060200160405280600081525061262a565b505050565b60125481565b6000611d11611a9c565b8210611d68576040517f08c379a000000000000000000000000000000000000000000000000000000000815260040180806020018281038252602c815260200180614c22602c913960400191505060405180910390fd5b60078281548110611d7557fe5b90600052602060002001549050919050565b6060601860003373ffffffffffffffffffffffffffffffffffffffff1673ffffffffffffffffffffffffffffffffffffffff168152602001908152602001600020805480602002602001604051908101604052809291908181526020018280548015611e1257602002820191906000526020600020905b815481526020019060010190808311611dfe575b5050505050905090565b6000806001600084815260200190815260200160002060009054906101000a900473ffffffffffffffffffffffffffffffffffffffff169050600073ffffffffffffffffffffffffffffffffffffffff168173ffffffffffffffffffffffffffffffffffffffff161415611edb576040517f08c379a0000000000000000000000000000000000000000000000000000000008152600401808060200182810382526029815260200180614b026029913960400191505060405180910390fd5b80915050919050565b6060600b8054600181600116156101000203166002900480601f016020809104026020016040519081016040528092919081815260200182805460018160011615610100020316600290048015611f7c5780601f10611f5157610100808354040283529160200191611f7c565b820191906000526020600020905b815481529060010190602001808311611f5f57829003601f168201915b5050505050905090565b6000600e60009054906101000a900473ffffffffffffffffffffffffffffffffffffffff1673ffffffffffffffffffffffffffffffffffffffff166370a08231306040518263ffffffff1660e01b8152600401808273ffffffffffffffffffffffffffffffffffffffff1673ffffffffffffffffffffffffffffffffffffffff16815260200191505060206040518083038186803b15801561202757600080fd5b505afa15801561203b573d6000803e3d6000fd5b505050506040513d602081101561205157600080fd5b8101908080519060200190929190505050905090565b60115481565b60008073ffffffffffffffffffffffffffffffffffffffff168273ffffffffffffffffffffffffffffffffffffffff1614156120f4576040517f08c379a000000000000000000000000000000000000000000000000000000000815260040180806020018281038252602a815260200180614ad8602a913960400191505060405180910390fd5b61213b600360008473ffffffffffffffffffffffffffffffffffffffff1673ffffffffffffffffffffffffffffffffffffffff1681526020019081526020016000206134f0565b9050919050565b600081600073ffffffffffffffffffffffffffffffffffffffff1661216682611e1c565b73ffffffffffffffffffffffffffffffffffffffff1614156121f0576040517f08c379a00000000000000000000000000000000000000000000000000000000081526004018080602001828103825260138152602001807f486f646c20646f6573206e6f742065786973740000000000000000000000000081525060200191505060405180910390fd5b6000806121fc85611aa9565b9050600060166000878152602001908152602001600020600101549050600061222f600183612f1190919063ffffffff16565b90505b60135481116122ae57600061224682610f1c565b9050600061225d8583612f9990919063ffffffff16565b90506122728187612f1190919063ffffffff16565b955061229d601760008581526020019081526020016000206001015486612f1190919063ffffffff16565b945050508080600101915050612232565b5082945050505050919050565b6060600a8054600181600116156101000203166002900480601f0160208091040260200160405190810160405280929190818152602001828054600181600116156101000203166002900480156123535780601f1061232857610100808354040283529160200191612353565b820191906000526020600020905b81548152906001019060200180831161233657829003601f168201915b5050505050905090565b60135481565b68056bc75e2d6310000081565b6123786133d0565b73ffffffffffffffffffffffffffffffffffffffff168273ffffffffffffffffffffffffffffffffffffffff161415612419576040517f08c379a00000000000000000000000000000000000000000000000000000000081526004018080602001828103825260198152602001807f4552433732313a20617070726f766520746f2063616c6c65720000000000000081525060200191505060405180910390fd5b80600460006124266133d0565b73ffffffffffffffffffffffffffffffffffffffff1673ffffffffffffffffffffffffffffffffffffffff16815260200190815260200160002060008473ffffffffffffffffffffffffffffffffffffffff1673ffffffffffffffffffffffffffffffffffffffff16815260200190815260200160002060006101000a81548160ff0219169083151502179055508173ffffffffffffffffffffffffffffffffffffffff166124d36133d0565b73ffffffffffffffffffffffffffffffffffffffff167f17307eab39ab6107e8899845ad3d59bd9653f200f220920489ca2b5937696c3183604051808215151515815260200191505060405180910390a35050565b6016602052806000526040600020600091509050806000015490806001015490806002018054600181600116156101000203166002900480601f0160208091040260200160405190810160405280929190818152602001828054600181600116156101000203166002900480156125e05780601f106125b5576101008083540402835291602001916125e0565b820191906000526020600020905b8154815290600101906020018083116125c357829003601f168201915b5050505050905083565b600060166000838152602001908152602001600020600001549050919050565b600060166000838152602001908152602001600020600101549050919050565b61263b6126356133d0565b836133d8565b612690576040517f08c379a0000000000000000000000000000000000000000000000000000000008152600401808060200182810382526031815260200180614bf16031913960400191505060405180910390fd5b61269c848484846134fe565b50505050565b60606126ad8261335e565b612702576040517f08c379a000000000000000000000000000000000000000000000000000000000815260040180806020018281038252602f815260200180614ba1602f913960400191505060405180910390fd5b6060600c60008481526020019081526020016000208054600181600116156101000203166002900480601f0160208091040260200160405190810160405280929190818152602001828054600181600116156101000203166002900480156127ab5780601f10612780576101008083540402835291602001916127ab565b820191906000526020600020905b81548152906001019060200180831161278e57829003601f168201915b505050505090506000815114156127d4576040518060200160405280600081525091505061289f565b600b8160405160200180838054600181600116156101000203166002900480156128355780601f10612813576101008083540402835291820191612835565b820191906000526020600020905b815481529060010190602001808311612821575b505082805190602001908083835b602083106128665780518252602082019150602081019050602083039250612843565b6001836020036101000a038019825116818451168082178552505050505050905001925050506040516020818303038152906040529150505b919050565b6060601660008381526020019081526020016000206002018054600181600116156101000203166002900480601f0160208091040260200160405190810160405280929190818152602001828054600181600116156101000203166002900480156129505780601f1061292557610100808354040283529160200191612950565b820191906000526020600020905b81548152906001019060200180831161293357829003601f168201915b50505050509050919050565b612967601254613570565b601860003373ffffffffffffffffffffffffffffffffffffffff1673ffffffffffffffffffffffffffffffffffffffff1681526020019081526020016000206012549080600181540180825580915050906001820390600052602060002001600090919290919091505550426016600060125481526020019081526020016000206000018190555060135460166000601254815260200190815260200160002060010181905550806016600060125481526020019081526020016000206002019080519060200190612a3a9291906148d9565b50612a8b612a546001601154612f1190919063ffffffff16565b612a7d42612a6f601154601454612e4190919063ffffffff16565b612f1190919063ffffffff16565b612f9990919063ffffffff16565b601481905550600d60009054906101000a900473ffffffffffffffffffffffffffffffffffffffff1673ffffffffffffffffffffffffffffffffffffffff1663a0712d6868056bc75e2d631000006040518263ffffffff1660e01b815260040180828152602001915050600060405180830381600087803b158015612b0f57600080fd5b505af1158015612b23573d6000803e3d6000fd5b50505050600d60009054906101000a900473ffffffffffffffffffffffffffffffffffffffff1673ffffffffffffffffffffffffffffffffffffffff1663095ea7b3601060009054906101000a900473ffffffffffffffffffffffffffffffffffffffff1668056bc75e2d631000006040518363ffffffff1660e01b8152600401808373ffffffffffffffffffffffffffffffffffffffff1673ffffffffffffffffffffffffffffffffffffffff16815260200182815260200192505050602060405180830381600087803b158015612bfb57600080fd5b505af1158015612c0f573d6000803e3d6000fd5b505050506040513d6020811015612c2557600080fd5b810190808051906020019092919050505050600f60009054906101000a900473ffffffffffffffffffffffffffffffffffffffff1673ffffffffffffffffffffffffffffffffffffffff1663d2d0e066600d60009054906101000a900473ffffffffffffffffffffffffffffffffffffffff1668056bc75e2d6310000060006040518463ffffffff1660e01b8152600401808473ffffffffffffffffffffffffffffffffffffffff1673ffffffffffffffffffffffffffffffffffffffff1681526020018381526020018261ffff1681526020019350505050600060405180830381600087803b158015612d1857600080fd5b505af1158015612d2c573d6000803e3d6000fd5b50505050612d3c33601254613682565b612d526001601154612f1190919063ffffffff16565b601181905550612d6e6001601254612f1190919063ffffffff16565b60128190555050565b60155481565b6000600460008473ffffffffffffffffffffffffffffffffffffffff1673ffffffffffffffffffffffffffffffffffffffff16815260200190815260200160002060008373ffffffffffffffffffffffffffffffffffffffff1673ffffffffffffffffffffffffffffffffffffffff16815260200190815260200160002060009054906101000a900460ff16905092915050565b60176020528060005260406000206000915090508060000154908060010154908060020154908060030154905084565b600080831415612e545760009050612ec1565b6000828402905082848281612e6557fe5b0414612ebc576040517f08c379a0000000000000000000000000000000000000000000000000000000008152600401808060200182810382526021815260200180614b2b6021913960400191505060405180910390fd5b809150505b92915050565b6000612f0983836040518060400160405280601e81526020017f536166654d6174683a207375627472616374696f6e206f766572666c6f7700008152506136a3565b905092915050565b600080828401905083811015612f8f576040517f08c379a000000000000000000000000000000000000000000000000000000000815260040180806020018281038252601b8152602001807f536166654d6174683a206164646974696f6e206f766572666c6f77000000000081525060200191505060405180910390fd5b8091505092915050565b6000612fdb83836040518060400160405280601a81526020017f536166654d6174683a206469766973696f6e206279207a65726f000000000000815250613763565b905092915050565b60006a636f6e736f6c652e6c6f6773ffffffffffffffffffffffffffffffffffffffff1683836040516024018080602001838152602001828103825284818151815260200191508051906020019080838360005b83811015613052578082015181840152602081019050613037565b50505050905090810190601f16801561307f5780820380516001836020036101000a031916815260200191505b5093505050506040516020818303038152906040527f9710a9d0000000000000000000000000000000000000000000000000000000007bffffffffffffffffffffffffffffffffffffffffffffffffffffffff19166020820180517bffffffffffffffffffffffffffffffffffffffffffffffffffffffff83818316178352505050506040518082805190602001908083835b602083106131355780518252602082019150602081019050602083039250613112565b6001836020036101000a038019825116818451168082178552505050505050905001915050600060405180830381855afa9150503d8060008114613195576040519150601f19603f3d011682016040523d82523d6000602084013e61319a565b606091505b50509050505050565b60006131ae82613829565b90506131c581601554612f1190919063ffffffff16565b601581905550600e60009054906101000a900473ffffffffffffffffffffffffffffffffffffffff1673ffffffffffffffffffffffffffffffffffffffff1663db006a75826040518263ffffffff1660e01b815260040180828152602001915050600060405180830381600087803b15801561324057600080fd5b505af1158015613254573d6000803e3d6000fd5b50505050600d60009054906101000a900473ffffffffffffffffffffffffffffffffffffffff1673ffffffffffffffffffffffffffffffffffffffff1663a9059cbb61329f84611e1c565b836040518363ffffffff1660e01b8152600401808373ffffffffffffffffffffffffffffffffffffffff1673ffffffffffffffffffffffffffffffffffffffff16815260200182815260200192505050602060405180830381600087803b15801561330957600080fd5b505af115801561331d573d6000803e3d6000fd5b505050506040513d602081101561333357600080fd5b8101908080519060200190929190505050505050565b61335b61335582611e1c565b826139d2565b50565b6000806001600084815260200190815260200160002060009054906101000a900473ffffffffffffffffffffffffffffffffffffffff169050600073ffffffffffffffffffffffffffffffffffffffff168173ffffffffffffffffffffffffffffffffffffffff161415915050919050565b600033905090565b60006133e38261335e565b613438576040517f08c379a000000000000000000000000000000000000000000000000000000000815260040180806020018281038252602c815260200180614a74602c913960400191505060405180910390fd5b600061344383611e1c565b90508073ffffffffffffffffffffffffffffffffffffffff168473ffffffffffffffffffffffffffffffffffffffff1614806134b257508373ffffffffffffffffffffffffffffffffffffffff1661349a8461181a565b73ffffffffffffffffffffffffffffffffffffffff16145b806134c357506134c28185612d7d565b5b91505092915050565b6134d7838383613a2f565b6134e18382613c8a565b6134eb8282613e28565b505050565b600081600001549050919050565b6135098484846134cc565b61351584848484613eef565b61356a576040517f08c379a0000000000000000000000000000000000000000000000000000000008152600401808060200182810382526032815260200180614a1e6032913960400191505060405180910390fd5b50505050565b6000601760006013548152602001908152602001600020600101549050600060176000601354815260200190815260200160002060000154905060006017600060135481526020019081526020016000206002015490508183101561366a576135e3600184612f1190919063ffffffff16565b60176000601354815260200190815260200160002060010181905550613649613616600185612f1190919063ffffffff16565b61363b4261362d8786612e4190919063ffffffff16565b612f1190919063ffffffff16565b612f9990919063ffffffff16565b6017600060135481526020019081526020016000206002018190555061367c565b61367261422b565b61367b84613570565b5b50505050565b61368c82826142b0565b6136968282613e28565b61369f816144c8565b5050565b6000838311158290613750576040517f08c379a00000000000000000000000000000000000000000000000000000000081526004018080602001828103825283818151815260200191508051906020019080838360005b838110156137155780820151818401526020810190506136fa565b50505050905090810190601f1680156137425780820380516001836020036101000a031916815260200191505b509250505060405180910390fd5b5060008385039050809150509392505050565b6000808311829061380f576040517f08c379a00000000000000000000000000000000000000000000000000000000081526004018080602001828103825283818151815260200191508051906020019080838360005b838110156137d45780820151818401526020810190506137b9565b50505050905090810190601f1680156138015780820380516001836020036101000a031916815260200191505b509250505060405180910390fd5b50600083858161381b57fe5b049050809150509392505050565b600081600073ffffffffffffffffffffffffffffffffffffffff1661384d82611e1c565b73ffffffffffffffffffffffffffffffffffffffff1614156138d7576040517f08c379a00000000000000000000000000000000000000000000000000000000081526004018080602001828103825260138152602001807f486f646c20646f6573206e6f742065786973740000000000000000000000000081525060200191505060405180910390fd5b6000806138e385611aa9565b905060006016600087815260200190815260200160002060010154905060008190505b60135481116139c557600061391a82610f1c565b905060006139318583612f9990919063ffffffff16565b90506139468187612f1190919063ffffffff16565b9550613971601760008581526020019081526020016000206001015486612f1190919063ffffffff16565b945061399c816017600086815260200190815260200160002060030154612f1190919063ffffffff16565b601760008581526020019081526020016000206003018190555050508080600101915050613906565b5082945050505050919050565b6139dc8282614514565b6000600c600083815260200190815260200160002080546001816001161561010002031660029004905014613a2b57600c60008281526020019081526020016000206000613a2a9190614959565b5b5050565b8273ffffffffffffffffffffffffffffffffffffffff16613a4f82611e1c565b73ffffffffffffffffffffffffffffffffffffffff1614613abb576040517f08c379a0000000000000000000000000000000000000000000000000000000008152600401808060200182810382526029815260200180614b786029913960400191505060405180910390fd5b600073ffffffffffffffffffffffffffffffffffffffff168273ffffffffffffffffffffffffffffffffffffffff161415613b41576040517f08c379a0000000000000000000000000000000000000000000000000000000008152600401808060200182810382526024815260200180614a506024913960400191505060405180910390fd5b613b4a8161454e565b613b91600360008573ffffffffffffffffffffffffffffffffffffffff1673ffffffffffffffffffffffffffffffffffffffff16815260200190815260200160002061460c565b613bd8600360008473ffffffffffffffffffffffffffffffffffffffff1673ffffffffffffffffffffffffffffffffffffffff16815260200190815260200160002061462f565b816001600083815260200190815260200160002060006101000a81548173ffffffffffffffffffffffffffffffffffffffff021916908373ffffffffffffffffffffffffffffffffffffffff160217905550808273ffffffffffffffffffffffffffffffffffffffff168473ffffffffffffffffffffffffffffffffffffffff167fddf252ad1be2c89b69c2b068fc378daa952ba7f163c4a11628f55a4df523b3ef60405160405180910390a4505050565b6000613ce26001600560008673ffffffffffffffffffffffffffffffffffffffff1673ffffffffffffffffffffffffffffffffffffffff16815260200190815260200160002080549050612ec790919063ffffffff16565b9050600060066000848152602001908152602001600020549050818114613dcf576000600560008673ffffffffffffffffffffffffffffffffffffffff1673ffffffffffffffffffffffffffffffffffffffff1681526020019081526020016000208381548110613d4f57fe5b9060005260206000200154905080600560008773ffffffffffffffffffffffffffffffffffffffff1673ffffffffffffffffffffffffffffffffffffffff1681526020019081526020016000208381548110613da757fe5b9060005260206000200181905550816006600083815260200190815260200160002081905550505b600560008573ffffffffffffffffffffffffffffffffffffffff1673ffffffffffffffffffffffffffffffffffffffff168152602001908152602001600020805480919060019003613e2191906149a1565b5050505050565b600560008373ffffffffffffffffffffffffffffffffffffffff1673ffffffffffffffffffffffffffffffffffffffff168152602001908152602001600020805490506006600083815260200190815260200160002081905550600560008373ffffffffffffffffffffffffffffffffffffffff1673ffffffffffffffffffffffffffffffffffffffff1681526020019081526020016000208190806001815401808255809150509060018203906000526020600020016000909192909190915055505050565b6000613f108473ffffffffffffffffffffffffffffffffffffffff16614645565b613f1d5760019050614223565b600060608573ffffffffffffffffffffffffffffffffffffffff168673ffffffffffffffffffffffffffffffffffffffff1663150b7a02905060e01b613f616133d0565b898888604051602401808573ffffffffffffffffffffffffffffffffffffffff1673ffffffffffffffffffffffffffffffffffffffff1681526020018473ffffffffffffffffffffffffffffffffffffffff1673ffffffffffffffffffffffffffffffffffffffff16815260200183815260200180602001828103825283818151815260200191508051906020019080838360005b83811015614011578082015181840152602081019050613ff6565b50505050905090810190601f16801561403e5780820380516001836020036101000a031916815260200191505b5095505050505050604051602081830303815290604052907bffffffffffffffffffffffffffffffffffffffffffffffffffffffff19166020820180517bffffffffffffffffffffffffffffffffffffffffffffffffffffffff83818316178352505050506040518082805190602001908083835b602083106140d657805182526020820191506020810190506020830392506140b3565b6001836020036101000a0380198251168184511680821785525050505050509050019150506000604051808303816000865af19150503d8060008114614138576040519150601f19603f3d011682016040523d82523d6000602084013e61413d565b606091505b5091509150816141ab5760008151111561415a5780518082602001fd5b6040517f08c379a0000000000000000000000000000000000000000000000000000000008152600401808060200182810382526032815260200180614a1e6032913960400191505060405180910390fd5b60008180602001905160208110156141c257600080fd5b8101908080519060200190929190505050905063150b7a0260e01b7bffffffffffffffffffffffffffffffffffffffffffffffffffffffff1916817bffffffffffffffffffffffffffffffffffffffffffffffffffffffff19161493505050505b949350505050565b600060176000601354815260200190815260200160002060000154905060006142716009614263600a85612e4190919063ffffffff16565b612f9990919063ffffffff16565b90506142896001601354612f1190919063ffffffff16565b60138190555080601760006013548152602001908152602001600020600001819055505050565b600073ffffffffffffffffffffffffffffffffffffffff168273ffffffffffffffffffffffffffffffffffffffff161415614353576040517f08c379a00000000000000000000000000000000000000000000000000000000081526004018080602001828103825260208152602001807f4552433732313a206d696e7420746f20746865207a65726f206164647265737381525060200191505060405180910390fd5b61435c8161335e565b156143cf576040517f08c379a000000000000000000000000000000000000000000000000000000000815260040180806020018281038252601c8152602001807f4552433732313a20746f6b656e20616c7265616479206d696e7465640000000081525060200191505060405180910390fd5b816001600083815260200190815260200160002060006101000a81548173ffffffffffffffffffffffffffffffffffffffff021916908373ffffffffffffffffffffffffffffffffffffffff160217905550614468600360008473ffffffffffffffffffffffffffffffffffffffff1673ffffffffffffffffffffffffffffffffffffffff16815260200190815260200160002061462f565b808273ffffffffffffffffffffffffffffffffffffffff16600073ffffffffffffffffffffffffffffffffffffffff167fddf252ad1be2c89b69c2b068fc378daa952ba7f163c4a11628f55a4df523b3ef60405160405180910390a45050565b6007805490506008600083815260200190815260200160002081905550600781908060018154018082558091505090600182039060005260206000200160009091929091909150555050565b61451e8282614690565b6145288282613c8a565b6000600660008381526020019081526020016000208190555061454a8161481f565b5050565b600073ffffffffffffffffffffffffffffffffffffffff166002600083815260200190815260200160002060009054906101000a900473ffffffffffffffffffffffffffffffffffffffff1673ffffffffffffffffffffffffffffffffffffffff16146146095760006002600083815260200190815260200160002060006101000a81548173ffffffffffffffffffffffffffffffffffffffff021916908373ffffffffffffffffffffffffffffffffffffffff1602179055505b50565b61462460018260000154612ec790919063ffffffff16565b816000018190555050565b6001816000016000828254019250508190555050565b60008060007fc5d2460186f7233c927e7db2dcc703c0e500b653ca82273b7bfad8045d85a47060001b9050833f915080821415801561468757506000801b8214155b92505050919050565b8173ffffffffffffffffffffffffffffffffffffffff166146b082611e1c565b73ffffffffffffffffffffffffffffffffffffffff161461471c576040517f08c379a0000000000000000000000000000000000000000000000000000000008152600401808060200182810382526025815260200180614c4e6025913960400191505060405180910390fd5b6147258161454e565b61476c600360008473ffffffffffffffffffffffffffffffffffffffff1673ffffffffffffffffffffffffffffffffffffffff16815260200190815260200160002061460c565b60006001600083815260200190815260200160002060006101000a81548173ffffffffffffffffffffffffffffffffffffffff021916908373ffffffffffffffffffffffffffffffffffffffff16021790555080600073ffffffffffffffffffffffffffffffffffffffff168373ffffffffffffffffffffffffffffffffffffffff167fddf252ad1be2c89b69c2b068fc378daa952ba7f163c4a11628f55a4df523b3ef60405160405180910390a45050565b600061483a6001600780549050612ec790919063ffffffff16565b905060006008600084815260200190815260200160002054905060006007838154811061486357fe5b90600052602060002001549050806007838154811061487e57fe5b906000526020600020018190555081600860008381526020019081526020016000208190555060078054809190600190036148b991906149a1565b506000600860008681526020019081526020016000208190555050505050565b828054600181600116156101000203166002900490600052602060002090601f016020900481019282601f1061491a57805160ff1916838001178555614948565b82800160010185558215614948579182015b8281111561494757825182559160200191906001019061492c565b5b50905061495591906149cd565b5090565b50805460018160011615610100020316600290046000825580601f1061497f575061499e565b601f01602090049060005260206000209081019061499d91906149cd565b5b50565b8154818355818111156149c8578183600052602060002091820191016149c791906149cd565b5b505050565b6149ef91905b808211156149eb5760008160009055506001016149d3565b5090565b9056fe455243373231456e756d657261626c653a206f776e657220696e646578206f7574206f6620626f756e64734552433732313a207472616e7366657220746f206e6f6e20455243373231526563656976657220696d706c656d656e7465724552433732313a207472616e7366657220746f20746865207a65726f20616464726573734552433732313a206f70657261746f7220717565727920666f72206e6f6e6578697374656e7420746f6b656e4552433732313a20617070726f76652063616c6c6572206973206e6f74206f776e6572206e6f7220617070726f76656420666f7220616c6c4552433732313a2062616c616e636520717565727920666f7220746865207a65726f20616464726573734552433732313a206f776e657220717565727920666f72206e6f6e6578697374656e7420746f6b656e536166654d6174683a206d756c7469706c69636174696f6e206f766572666c6f774552433732313a20617070726f76656420717565727920666f72206e6f6e6578697374656e7420746f6b656e4552433732313a207472616e73666572206f6620746f6b656e2074686174206973206e6f74206f776e4552433732314d657461646174613a2055524920717565727920666f72206e6f6e6578697374656e7420746f6b656e4552433732313a20617070726f76616c20746f2063757272656e74206f776e65724552433732313a207472616e736665722063616c6c6572206973206e6f74206f776e6572206e6f7220617070726f766564455243373231456e756d657261626c653a20676c6f62616c20696e646578206f7574206f6620626f756e64734552433732313a206275726e206f6620746f6b656e2074686174206973206e6f74206f776ea265627a7a723158204380bcf4eb58cfcdd4ccfe3a2b4546db35148983c7bdd188301d84c09f47766364736f6c634300050c0032",
  "source": "pragma solidity >=0.4.21 <0.7.0;\n\nimport \"@openzeppelin/contracts/token/ERC721/ERC721Full.sol\";\nimport \"@openzeppelin/contracts/math/SafeMath.sol\";\nimport \"@nomiclabs/buidler/console.sol\";\n\n/// @title Dai contract interface\n/// @notice Various cash functions\ninterface Cash \n{\n    function approve(address _spender, uint _amount) external returns (bool);\n    function balanceOf(address _ownesr) external view returns (uint);\n    function mint(uint256) external;\n    function transfer(address _to, uint _amount) external returns (bool);\n}\n\ninterface IaToken \n{\n    function balanceOf(address _user) external view returns(uint);\n    function redeem(uint256 _amount) external;\n}\n\ninterface IAaveLendingPool \n{\n    function deposit( address _reserve, uint256 _amount, uint16 _referralCode) external;\n}\n\ninterface IAaveLendingPoolCore {}\n\ncontract PonziHodlFactory is ERC721Full {\n\n    using SafeMath for uint;\n\n    Cash underlying;\n    IaToken aToken;\n    IAaveLendingPool aaveLendingPool;\n    IAaveLendingPoolCore aaveLendingPoolCore;\n\n    constructor(address _cashAddress, address _aTokenAddress, address _aaveLpAddress, address _aaveLpcoreAddress ) ERC721Full(\"HodlFactory\", \"HODL++\") public { \n        underlying = Cash(_cashAddress);\n        aToken = IaToken(_aTokenAddress); \n        aaveLendingPool = IAaveLendingPool(_aaveLpAddress); \n        aaveLendingPoolCore = IAaveLendingPoolCore(_aaveLpcoreAddress); \n\n        //create first tier\n        tierProperties[0].size = 10;\n    }\n\n    uint public hodlCount = 0;\n    uint public latestHodlId = 0;\n    uint public tierCount = 0;\n    uint public averagePurchaseTime = 0;\n    uint constant public oneHundredDai = 10**20;\n    uint public totalInterestWithdrawn = 0;\n\n    struct hodl {\n        uint purchaseTime;\n        uint tier;\n        string name;\n    }\n\n    struct tier {\n        uint size;\n        uint hodlsInTier;\n        uint averagePurchaseTime;\n        uint interestAlreadyWithdrawn;\n    }\n\n    mapping (uint => hodl) public hodlProperties; \n    mapping (uint => tier) public tierProperties; \n    mapping (address => uint[]) hodlOwnerTracker;\n    mapping (address => uint[]) hodlsDeletedTracker;\n\n    modifier hodlExists(uint _hodlId) {\n        require(ownerOf(_hodlId) != address(0), \"Hodl does not exist\");\n        _;\n    }\n\n    function getHodlPurchaseTime(uint _hodlId) external view returns (uint) {\n        return hodlProperties[_hodlId].purchaseTime;\n    }\n\n    function getHodlName(uint _hodlId) external view returns (string memory) {\n        return hodlProperties[_hodlId].name;\n    }\n\n    function getAdaiBalance() public view returns (uint) {\n        return(aToken.balanceOf(address(this)));\n    }\n\n    function getHodlsOwned() public view returns(uint[] memory) {\n        return(hodlOwnerTracker[msg.sender]);\n    }\n\n    function getHodlsDeleted() public view returns(uint[] memory) {\n        return(hodlsDeletedTracker[msg.sender]);\n    }\n\n    function getHodlTier(uint _hodlId) public view returns(uint) {\n        return hodlProperties[_hodlId].tier;\n    }\n\n    function _createNewTier() internal {\n        uint _sizeOfBiggestTier = tierProperties[tierCount].size;\n        uint _newSize = (_sizeOfBiggestTier.mul(10)).div(9);\n        tierCount = tierCount.add(1);\n        tierProperties[tierCount].size = _newSize;\n    }\n\n    function _addToTier(uint _hodlId) internal {\n        //add to existing tier\n        uint _hodlsInTier = tierProperties[tierCount].hodlsInTier;\n        uint _sizeOfTier = tierProperties[tierCount].size;\n        uint _tierAveragePurchaseTime = tierProperties[tierCount].averagePurchaseTime;\n        if (_hodlsInTier < _sizeOfTier) {\n            tierProperties[tierCount].hodlsInTier = _hodlsInTier.add(1);\n            tierProperties[tierCount].averagePurchaseTime = ((_tierAveragePurchaseTime.mul(_hodlsInTier)).add(now)).div(_hodlsInTier.add(1));\n        } else {\n            _createNewTier();\n            _addToTier(_hodlId);\n        }\n    }\n\n    function getPlayersMyTierOrBelow(uint _hodlId) public view returns (uint) {\n        uint _tier = hodlProperties[_hodlId].tier;\n        uint _playerCount;\n        for (uint i = 0; i <= _tier; i++) {\n            _playerCount = _playerCount.add(tierProperties[i].hodlsInTier);\n        }\n        return _playerCount;\n    }\n\n    function createHodl(string memory _name) public {\n        // UPDATE VARIABLES\n        _addToTier(latestHodlId);\n        hodlOwnerTracker[msg.sender].push(latestHodlId);\n        hodlProperties[latestHodlId].purchaseTime = now;\n        hodlProperties[latestHodlId].tier = tierCount;\n        hodlProperties[latestHodlId].name = _name;\n        averagePurchaseTime = ((averagePurchaseTime.mul(hodlCount)).add(now)).div(hodlCount.add(1));\n        // SWAP DAI FOR aDAI\n        underlying.mint(oneHundredDai);\n        underlying.approve(address(aaveLendingPoolCore), oneHundredDai);\n        aaveLendingPool.deposit(address(underlying), oneHundredDai, 0);\n        // // GENERATE NFT\n        _mint(msg.sender, latestHodlId);\n        hodlCount = hodlCount.add(1);  \n        latestHodlId = latestHodlId.add(1); \n    } \n\n    function getTierInterestAccrued(uint _tierId) public view returns (uint) {\n        uint _totalAdaiBalance = aToken.balanceOf(address(this)); \n        uint _totalDaiBalance = hodlCount.mul(oneHundredDai);\n        uint _totalInterestAvailable = (_totalAdaiBalance.sub(_totalDaiBalance)).add(totalInterestWithdrawn);\n        uint _hodlsInTier = tierProperties[_tierId].hodlsInTier;\n        uint _interestAlreadyWithdrawn = tierProperties[_tierId].interestAlreadyWithdrawn;\n        uint _numerator = (now.sub(tierProperties[_tierId].averagePurchaseTime)).mul(_hodlsInTier);\n        uint _denominator = (now.sub(averagePurchaseTime)).mul(hodlCount);\n        uint _tierInterest = ((_totalInterestAvailable.mul(_numerator)).div(_denominator)).sub(_interestAlreadyWithdrawn);\n\n        if (_tierId == 1) {\n            console.log(\"_totalInterestAvailable\", _totalInterestAvailable); \n            console.log(\"_tierInterest\", _tierInterest); \n            console.log(\"_numerator\", _numerator); \n            console.log(\"_denominator\", _denominator); \n            console.log(\"_interestAlreadyWithdrawn\", _interestAlreadyWithdrawn); \n            }\n\n        return _tierInterest;\n    }\n\n    function getInterestAvailableToWithdrawView(uint _hodlId) public view hodlExists(_hodlId) returns (uint) {\n        uint _interestToWithdraw;\n        uint _playerCount = getPlayersMyTierOrBelow(_hodlId);\n        uint _tier = hodlProperties[_hodlId].tier;\n        for (uint i = _tier.add(1); i <= tierCount; i++) {\n            uint _tierInterestAccrued = getTierInterestAccrued(i);\n            uint _interestToWithdrawFromThisTier = _tierInterestAccrued.div(_playerCount);\n            _interestToWithdraw = _interestToWithdraw.add(_interestToWithdrawFromThisTier);\n            _playerCount = _playerCount.add(tierProperties[i].hodlsInTier);\n        }\n        return _interestToWithdraw;\n    }\n\n    // the same as the above, except that it updates 'interestAlreadyWithdrawn' property of each tier \n    function _getInterestAvailableToWithdraw(uint _hodlId) internal hodlExists(_hodlId) returns (uint) {\n        uint _interestToWithdraw;\n        uint _playerCount = getPlayersMyTierOrBelow(_hodlId);\n        uint _tier = hodlProperties[_hodlId].tier;\n        for (uint i = _tier; i <= tierCount; i++) {\n            uint _tierInterestAccrued = getTierInterestAccrued(i);\n            uint _interestToWithdrawFromThisTier = _tierInterestAccrued.div(_playerCount);\n            _interestToWithdraw = _interestToWithdraw.add(_interestToWithdrawFromThisTier);\n            _playerCount = _playerCount.add(tierProperties[i].hodlsInTier);\n            tierProperties[i].interestAlreadyWithdrawn = tierProperties[i].interestAlreadyWithdrawn.add(_interestToWithdrawFromThisTier); // <- only new line from View version\n        }\n        return _interestToWithdraw;\n    }\n\n    function _withdrawInterest(uint _hodlId) internal {\n        uint _interestToWithdraw = _getInterestAvailableToWithdraw(_hodlId);\n        totalInterestWithdrawn = totalInterestWithdrawn.add(_interestToWithdraw);\n        aToken.redeem(_interestToWithdraw);\n        underlying.transfer(ownerOf(_hodlId), _interestToWithdraw);\n    } \n\n    function destroyHodl(uint _hodlId) public {\n        require (ownerOf(_hodlId) == msg.sender, \"Not owner\");\n        _withdrawInterest(_hodlId);\n        // remove HODL from tier\n        uint _tier = hodlProperties[_hodlId].tier;\n        uint _hodlsInTier = tierProperties[_tier].hodlsInTier;\n        // update tier average purchase time\n        uint _tierAveragePurchaseTime = tierProperties[_tier].averagePurchaseTime;\n        if (_hodlsInTier > 1) {\n            tierProperties[_tier].averagePurchaseTime = ((_tierAveragePurchaseTime.mul(_hodlsInTier)).sub(hodlProperties[_hodlId].purchaseTime)).div(_hodlsInTier.sub(1));\n        } else {\n            tierProperties[_tier].averagePurchaseTime = 0;\n        }\n        // update total average purchase time\n        if (hodlCount > 1) {\n            averagePurchaseTime = ((averagePurchaseTime.mul(hodlCount)).sub(hodlProperties[_hodlId].purchaseTime)).div(hodlCount.sub(1));\n        } else {\n            averagePurchaseTime = 0;\n        }\n        tierProperties[_tier].hodlsInTier = tierProperties[_tier].hodlsInTier.sub(1);\n        // external calls\n        aToken.redeem(oneHundredDai);\n        underlying.transfer(ownerOf(_hodlId), oneHundredDai);\n        // remove HODL\n        hodlCount = hodlCount.sub(1);\n        _burn(_hodlId);\n        hodlsDeletedTracker[msg.sender].push(_hodlId);\n    }\n\n}\n",
  "sourcePath": "/Users/mcplums/Repos/HodlFactory/contracts/PonziHodlFactory.sol",
  "compiler": {
    "name": "solc",
    "version": "0.5.12+commit.7709ece9.Emscripten.clang"
  },
  "schemaVersion": "3.0.19",
  "updatedAt": "2020-04-28T13:08:29.224Z",
  "networkType": "ethereum",
  "devdoc": {
    "methods": {
      "approve(address,uint256)": {
        "details": "Approves another address to transfer the given token ID The zero address indicates there is no approved address. There can only be one approved address per token at a given time. Can only be called by the token owner or an approved operator.",
        "params": {
          "to": "address to be approved for the given token ID",
          "tokenId": "uint256 ID of the token to be approved"
        }
      },
      "balanceOf(address)": {
        "details": "Gets the balance of the specified address.",
        "params": {
          "owner": "address to query the balance of"
        },
        "return": "uint256 representing the amount owned by the passed address"
      },
      "baseURI()": {
        "details": "Returns the base URI set via {_setBaseURI}. This will be automatically added as a preffix in {tokenURI} to each token's URI, when they are non-empty.    * _Available since v2.5.0._"
      },
      "getApproved(uint256)": {
        "details": "Gets the approved address for a token ID, or zero if no address set Reverts if the token ID does not exist.",
        "params": {
          "tokenId": "uint256 ID of the token to query the approval of"
        },
        "return": "address currently approved for the given token ID"
      },
      "isApprovedForAll(address,address)": {
        "details": "Tells whether an operator is approved by a given owner.",
        "params": {
          "operator": "operator address which you want to query the approval of",
          "owner": "owner address which you want to query the approval of"
        },
        "return": "bool whether the given operator is approved by the given owner"
      },
      "name()": {
        "details": "Gets the token name.",
        "return": "string representing the token name"
      },
      "ownerOf(uint256)": {
        "details": "Gets the owner of the specified token ID.",
        "params": {
          "tokenId": "uint256 ID of the token to query the owner of"
        },
        "return": "address currently marked as the owner of the given token ID"
      },
      "safeTransferFrom(address,address,uint256)": {
        "details": "Safely transfers the ownership of a given token ID to another address If the target address is a contract, it must implement {IERC721Receiver-onERC721Received}, which is called upon a safe transfer, and return the magic value `bytes4(keccak256(\"onERC721Received(address,address,uint256,bytes)\"))`; otherwise, the transfer is reverted. Requires the msg.sender to be the owner, approved, or operator",
        "params": {
          "from": "current owner of the token",
          "to": "address to receive the ownership of the given token ID",
          "tokenId": "uint256 ID of the token to be transferred"
        }
      },
      "safeTransferFrom(address,address,uint256,bytes)": {
        "details": "Safely transfers the ownership of a given token ID to another address If the target address is a contract, it must implement {IERC721Receiver-onERC721Received}, which is called upon a safe transfer, and return the magic value `bytes4(keccak256(\"onERC721Received(address,address,uint256,bytes)\"))`; otherwise, the transfer is reverted. Requires the _msgSender() to be the owner, approved, or operator",
        "params": {
          "_data": "bytes data to send along with a safe transfer check",
          "from": "current owner of the token",
          "to": "address to receive the ownership of the given token ID",
          "tokenId": "uint256 ID of the token to be transferred"
        }
      },
      "setApprovalForAll(address,bool)": {
        "details": "Sets or unsets the approval of a given operator An operator is allowed to transfer all tokens of the sender on their behalf.",
        "params": {
          "approved": "representing the status of the approval to be set",
          "to": "operator address to set the approval"
        }
      },
      "supportsInterface(bytes4)": {
        "details": "See {IERC165-supportsInterface}.     * Time complexity O(1), guaranteed to always use less than 30 000 gas."
      },
      "symbol()": {
        "details": "Gets the token symbol.",
        "return": "string representing the token symbol"
      },
      "tokenByIndex(uint256)": {
        "details": "Gets the token ID at a given index of all the tokens in this contract Reverts if the index is greater or equal to the total number of tokens.",
        "params": {
          "index": "uint256 representing the index to be accessed of the tokens list"
        },
        "return": "uint256 token ID at the given index of the tokens list"
      },
      "tokenOfOwnerByIndex(address,uint256)": {
        "details": "Gets the token ID at a given index of the tokens list of the requested owner.",
        "params": {
          "index": "uint256 representing the index to be accessed of the requested tokens list",
          "owner": "address owning the tokens list to be accessed"
        },
        "return": "uint256 token ID at the given index of the tokens list owned by the requested address"
      },
      "tokenURI(uint256)": {
        "details": "Returns the URI for a given token ID. May return an empty string.     * If the token's URI is non-empty and a base URI was set (via {_setBaseURI}), it will be added to the token ID's URI as a prefix.     * Reverts if the token ID does not exist."
      },
      "totalSupply()": {
        "details": "Gets the total amount of tokens stored by the contract.",
        "return": "uint256 representing the total amount of tokens"
      },
      "transferFrom(address,address,uint256)": {
        "details": "Transfers the ownership of a given token ID to another address. Usage of this method is discouraged, use {safeTransferFrom} whenever possible. Requires the msg.sender to be the owner, approved, or operator.",
        "params": {
          "from": "current owner of the token",
          "to": "address to receive the ownership of the given token ID",
          "tokenId": "uint256 ID of the token to be transferred"
        }
      }
    }
  },
  "userdoc": {
    "methods": {}
  }
}